{"contracts/FlightSuretyApp.sol":{"FlightSuretyApp":{"abi":[{"inputs":[{"internalType":"address","name":"dataAddress","type":"address"}],"stateMutability":"nonpayable","type":"constructor"},{"anonymous":false,"inputs":[{"indexed":true,"internalType":"address","name":"addr","type":"address"}],"name":"AuthorizedContract","type":"event"},{"anonymous":false,"inputs":[{"indexed":true,"internalType":"address","name":"passenger","type":"address"},{"indexed":false,"internalType":"string","name":"flightNumber","type":"string"},{"indexed":false,"internalType":"uint256","name":"amount","type":"uint256"}],"name":"CreditWithdrawn","type":"event"},{"anonymous":false,"inputs":[{"indexed":true,"internalType":"address","name":"addr","type":"address"}],"name":"DeAuthorizedContract","type":"event"},{"anonymous":false,"inputs":[{"indexed":false,"internalType":"string","name":"flightNumber","type":"string"},{"indexed":true,"internalType":"address","name":"airlineAddress","type":"address"}],"name":"FlightRegistered","type":"event"},{"anonymous":false,"inputs":[{"indexed":false,"internalType":"address","name":"airline","type":"address"},{"indexed":false,"internalType":"string","name":"flight","type":"string"},{"indexed":false,"internalType":"uint256","name":"timestamp","type":"uint256"},{"indexed":false,"internalType":"uint8","name":"status","type":"uint8"}],"name":"FlightStatusInfo","type":"event"},{"anonymous":false,"inputs":[{"indexed":true,"internalType":"address","name":"passenger","type":"address"},{"indexed":false,"internalType":"string","name":"flightNumber","type":"string"},{"indexed":false,"internalType":"uint256","name":"amount","type":"uint256"}],"name":"InsuranceBought","type":"event"},{"anonymous":false,"inputs":[{"indexed":false,"internalType":"address","name":"airline","type":"address"},{"indexed":false,"internalType":"string","name":"flight","type":"string"},{"indexed":false,"internalType":"uint256","name":"timestamp","type":"uint256"},{"indexed":false,"internalType":"uint8","name":"status","type":"uint8"}],"name":"OracleReport","type":"event"},{"anonymous":false,"inputs":[{"indexed":false,"internalType":"uint8","name":"index","type":"uint8"},{"indexed":false,"internalType":"address","name":"airline","type":"address"},{"indexed":false,"internalType":"string","name":"flight","type":"string"},{"indexed":false,"internalType":"uint256","name":"timestamp","type":"uint256"}],"name":"OracleRequest","type":"event"},{"anonymous":false,"inputs":[{"indexed":true,"internalType":"address","name":"airlineAddress","type":"address"},{"indexed":false,"internalType":"string","name":"name","type":"string"}],"name":"RegisteredAirline","type":"event"},{"anonymous":false,"inputs":[{"indexed":false,"internalType":"bool","name":"mode","type":"bool"}],"name":"UpdateOperatingStatus","type":"event"},{"inputs":[],"name":"INSURANCE_PRICE_LIMIT","outputs":[{"internalType":"uint256","name":"","type":"uint256"}],"stateMutability":"view","type":"function"},{"inputs":[],"name":"REGISTRATION_FEE","outputs":[{"internalType":"uint256","name":"","type":"uint256"}],"stateMutability":"view","type":"function"},{"inputs":[{"internalType":"address","name":"_airlineAddress","type":"address"},{"internalType":"string","name":"_name","type":"string"}],"name":"addAirline","outputs":[],"stateMutability":"nonpayable","type":"function"},{"inputs":[{"internalType":"uint256","name":"","type":"uint256"}],"name":"airlineAddresses","outputs":[{"internalType":"address","name":"","type":"address"}],"stateMutability":"view","type":"function"},{"inputs":[{"internalType":"address","name":"_address","type":"address"}],"name":"authorizeCallers","outputs":[],"stateMutability":"nonpayable","type":"function"},{"inputs":[{"internalType":"string","name":"flightNumber","type":"string"}],"name":"buy","outputs":[],"stateMutability":"payable","type":"function"},{"inputs":[{"internalType":"string","name":"flightNumber","type":"string"}],"name":"creditInsurees","outputs":[],"stateMutability":"nonpayable","type":"function"},{"inputs":[{"internalType":"address","name":"_address","type":"address"}],"name":"deAuthorizeContract","outputs":[],"stateMutability":"nonpayable","type":"function"},{"inputs":[{"internalType":"address","name":"airline","type":"address"},{"internalType":"string","name":"flight","type":"string"},{"internalType":"uint256","name":"timestamp","type":"uint256"}],"name":"fetchFlightStatus","outputs":[],"stateMutability":"nonpayable","type":"function"},{"inputs":[],"name":"fund","outputs":[],"stateMutability":"payable","type":"function"},{"inputs":[{"internalType":"address","name":"_airlineAddress","type":"address"}],"name":"getAirlineFunding","outputs":[{"internalType":"uint256","name":"","type":"uint256"}],"stateMutability":"view","type":"function"},{"inputs":[{"internalType":"address","name":"_airlineAddress","type":"address"}],"name":"getAirlineInfo","outputs":[{"internalType":"string","name":"name","type":"string"},{"internalType":"bool","name":"isRegistered","type":"bool"},{"internalType":"uint256","name":"funding","type":"uint256"}],"stateMutability":"view","type":"function"},{"inputs":[{"internalType":"address","name":"_airlineAddress","type":"address"}],"name":"getAirlineName","outputs":[{"internalType":"string","name":"","type":"string"}],"stateMutability":"view","type":"function"},{"inputs":[{"internalType":"address","name":"_airlineAddress","type":"address"}],"name":"getAirlineVoters","outputs":[{"internalType":"address[]","name":"","type":"address[]"}],"stateMutability":"view","type":"function"},{"inputs":[],"name":"getAirlinesCount","outputs":[{"internalType":"uint256","name":"","type":"uint256"}],"stateMutability":"view","type":"function"},{"inputs":[],"name":"getAllAirlines","outputs":[{"components":[{"internalType":"string","name":"name","type":"string"},{"internalType":"address","name":"_address","type":"address"},{"internalType":"bool","name":"isRegistered","type":"bool"},{"internalType":"uint256","name":"funding","type":"uint256"}],"internalType":"struct FlightSuretyData.Airline[]","name":"","type":"tuple[]"}],"stateMutability":"view","type":"function"},{"inputs":[],"name":"getBalance","outputs":[{"internalType":"uint256","name":"","type":"uint256"}],"stateMutability":"view","type":"function"},{"inputs":[{"internalType":"string","name":"flightNumber","type":"string"}],"name":"getCreditToPay","outputs":[{"internalType":"uint256","name":"","type":"uint256"}],"stateMutability":"view","type":"function"},{"inputs":[{"internalType":"string","name":"flightNumber","type":"string"}],"name":"getFlightExistsStatus","outputs":[{"internalType":"bool","name":"","type":"bool"}],"stateMutability":"view","type":"function"},{"inputs":[],"name":"getFlights","outputs":[{"components":[{"internalType":"bool","name":"isRegistered","type":"bool"},{"internalType":"uint8","name":"statusCode","type":"uint8"},{"internalType":"uint256","name":"updatedTimestamp","type":"uint256"},{"internalType":"address","name":"airline","type":"address"},{"internalType":"string","name":"flightNumber","type":"string"},{"internalType":"string","name":"destination","type":"string"},{"internalType":"string","name":"airlineName","type":"string"}],"internalType":"struct FlightSuretyApp.Flight[]","name":"","type":"tuple[]"}],"stateMutability":"view","type":"function"},{"inputs":[],"name":"getMyIndexes","outputs":[{"internalType":"uint8[3]","name":"","type":"uint8[3]"}],"stateMutability":"view","type":"function"},{"inputs":[],"name":"getPassengerAddresses","outputs":[{"internalType":"address[]","name":"","type":"address[]"}],"stateMutability":"view","type":"function"},{"inputs":[{"internalType":"string","name":"flightNumber","type":"string"}],"name":"getPassengerCredit","outputs":[{"internalType":"uint256","name":"","type":"uint256"}],"stateMutability":"view","type":"function"},{"inputs":[{"internalType":"address","name":"_airlineAddress","type":"address"}],"name":"getVotes","outputs":[{"internalType":"uint256","name":"","type":"uint256"}],"stateMutability":"view","type":"function"},{"inputs":[{"internalType":"address","name":"_airlineAddress","type":"address"}],"name":"isAirlineRegistered","outputs":[{"internalType":"bool","name":"","type":"bool"}],"stateMutability":"view","type":"function"},{"inputs":[],"name":"isOperational","outputs":[{"internalType":"bool","name":"","type":"bool"}],"stateMutability":"view","type":"function"},{"inputs":[],"name":"isOracleRegistered","outputs":[{"internalType":"bool","name":"","type":"bool"}],"stateMutability":"view","type":"function"},{"inputs":[],"name":"isOwner","outputs":[{"internalType":"bool","name":"","type":"bool"}],"stateMutability":"view","type":"function"},{"inputs":[{"internalType":"string","name":"flightNumber","type":"string"}],"name":"pay","outputs":[],"stateMutability":"nonpayable","type":"function"},{"inputs":[{"internalType":"address","name":"_airlineAddress","type":"address"},{"internalType":"string","name":"_name","type":"string"}],"name":"registerAirline","outputs":[],"stateMutability":"nonpayable","type":"function"},{"inputs":[{"internalType":"string","name":"flightNumber","type":"string"},{"internalType":"string","name":"destination","type":"string"},{"internalType":"uint256","name":"timestamp","type":"uint256"}],"name":"registerFlight","outputs":[],"stateMutability":"nonpayable","type":"function"},{"inputs":[],"name":"registerOracle","outputs":[],"stateMutability":"payable","type":"function"},{"inputs":[{"internalType":"address","name":"_airlineAddress","type":"address"},{"internalType":"uint256","name":"amount","type":"uint256"}],"name":"setAirlineFunding","outputs":[],"stateMutability":"nonpayable","type":"function"},{"inputs":[{"internalType":"address","name":"_airlineAddress","type":"address"},{"internalType":"address","name":"voter","type":"address"}],"name":"setAirlineVoters","outputs":[],"stateMutability":"nonpayable","type":"function"},{"inputs":[{"internalType":"string","name":"flightNumber","type":"string"}],"name":"setFlightExistsStatus","outputs":[],"stateMutability":"nonpayable","type":"function"},{"inputs":[{"internalType":"bool","name":"mode","type":"bool"}],"name":"setOperatingStatus","outputs":[],"stateMutability":"nonpayable","type":"function"},{"inputs":[{"internalType":"address","name":"_airlineAddress","type":"address"}],"name":"setVotes","outputs":[],"stateMutability":"nonpayable","type":"function"},{"inputs":[{"internalType":"uint8","name":"index","type":"uint8"},{"internalType":"address","name":"airline","type":"address"},{"internalType":"string","name":"flight","type":"string"},{"internalType":"uint256","name":"timestamp","type":"uint256"},{"internalType":"uint8","name":"statusCode","type":"uint8"}],"name":"submitOracleResponse","outputs":[],"stateMutability":"nonpayable","type":"function"},{"inputs":[{"internalType":"string","name":"flight","type":"string"},{"internalType":"address","name":"airline","type":"address"}],"name":"viewFlightStatus","outputs":[{"internalType":"uint8","name":"","type":"uint8"}],"stateMutability":"view","type":"function"},{"inputs":[{"internalType":"address","name":"_airlineAddress","type":"address"}],"name":"voteAirline","outputs":[],"stateMutability":"nonpayable","type":"function"},{"stateMutability":"payable","type":"receive"}],"evm":{"bytecode":{"linkReferences":{},"object":"60806040526001600260006101000a81548160ff0219169083151502179055506000600d55600a600e60006101000a81548160ff021916908360ff1602179055503480156200004d57600080fd5b506040516200684b3803806200684b8339818101604052810190620000739190620003d1565b80336000806101000a81548173ffffffffffffffffffffffffffffffffffffffff021916908373ffffffffffffffffffffffffffffffffffffffff1602179055506004819080600181540180825580915050600190039060005260206000200160009091909190916101000a81548173ffffffffffffffffffffffffffffffffffffffff021916908373ffffffffffffffffffffffffffffffffffffffff16021790555060405180608001604052806040518060400160405280600a81526020017f4d79204169726c696e650000000000000000000000000000000000000000000081525081526020018273ffffffffffffffffffffffffffffffffffffffff168152602001600115158152602001678ac7230489e80000815250600560008373ffffffffffffffffffffffffffffffffffffffff1673ffffffffffffffffffffffffffffffffffffffff1681526020019081526020016000206000820151816000019081620001e491906200067d565b5060208201518160010160006101000a81548173ffffffffffffffffffffffffffffffffffffffff021916908373ffffffffffffffffffffffffffffffffffffffff16021790555060408201518160010160146101000a81548160ff021916908315150217905550606082015181600201559050506001600860008373ffffffffffffffffffffffffffffffffffffffff1673ffffffffffffffffffffffffffffffffffffffff168152602001908152602001600020819055506001600860008060009054906101000a900473ffffffffffffffffffffffffffffffffffffffff1673ffffffffffffffffffffffffffffffffffffffff1673ffffffffffffffffffffffffffffffffffffffff1681526020019081526020016000208190555060016000815480929190620003199062000793565b91905055505033600b60006101000a81548173ffffffffffffffffffffffffffffffffffffffff021916908373ffffffffffffffffffffffffffffffffffffffff16021790555050620007e0565b600080fd5b600073ffffffffffffffffffffffffffffffffffffffff82169050919050565b600062000399826200036c565b9050919050565b620003ab816200038c565b8114620003b757600080fd5b50565b600081519050620003cb81620003a0565b92915050565b600060208284031215620003ea57620003e962000367565b5b6000620003fa84828501620003ba565b91505092915050565b600081519050919050565b7f4e487b7100000000000000000000000000000000000000000000000000000000600052604160045260246000fd5b7f4e487b7100000000000000000000000000000000000000000000000000000000600052602260045260246000fd5b600060028204905060018216806200048557607f821691505b6020821081036200049b576200049a6200043d565b5b50919050565b60008190508160005260206000209050919050565b60006020601f8301049050919050565b600082821b905092915050565b600060088302620005057fffffffffffffffffffffffffffffffffffffffffffffffffffffffffffffffff82620004c6565b620005118683620004c6565b95508019841693508086168417925050509392505050565b6000819050919050565b6000819050919050565b60006200055e62000558620005528462000529565b62000533565b62000529565b9050919050565b6000819050919050565b6200057a836200053d565b62000592620005898262000565565b848454620004d3565b825550505050565b600090565b620005a96200059a565b620005b68184846200056f565b505050565b5b81811015620005de57620005d26000826200059f565b600181019050620005bc565b5050565b601f8211156200062d57620005f781620004a1565b6200060284620004b6565b8101602085101562000612578190505b6200062a6200062185620004b6565b830182620005bb565b50505b505050565b600082821c905092915050565b6000620006526000198460080262000632565b1980831691505092915050565b60006200066d83836200063f565b9150826002028217905092915050565b620006888262000403565b67ffffffffffffffff811115620006a457620006a36200040e565b5b620006b082546200046c565b620006bd828285620005e2565b600060209050601f831160018114620006f55760008415620006e0578287015190505b620006ec85826200065f565b8655506200075c565b601f1984166200070586620004a1565b60005b828110156200072f5784890151825560018201915060208501945060208101905062000708565b868310156200074f57848901516200074b601f8916826200063f565b8355505b6001600288020188555050505b505050505050565b7f4e487b7100000000000000000000000000000000000000000000000000000000600052601160045260246000fd5b6000620007a08262000529565b91507fffffffffffffffffffffffffffffffffffffffffffffffffffffffffffffffff8203620007d557620007d462000764565b5b600182019050919050565b61605b80620007f06000396000f3fe60806040526004361061023f5760003560e01c80634cc7dbee1161012e578063a1a5faf1116100ab578063cd905dff1161006f578063cd905dff14610881578063d8ab5b89146108ac578063ebc5c8ea146108d5578063ee38a74914610912578063f83f11c01461093b5761024e565b8063a1a5faf1146107ab578063ab900d24146107d4578063b5bb52d714610811578063b60d42881461084e578063c10f2700146108585761024e565b8063720c7cbb116100f2578063720c7cbb1461069c5780638f32d59b146106db57806394c260ee1461070657806394e2177a146107315780639ab24eb01461076e5761024e565b80634cc7dbee146105a1578063524b6100146105cc5780635f1cc0e61461060957806364b4f7511461063457806364dcb7bf1461065f5761024e565b8063339d2590116101bc578063487d720011610180578063487d7200146104e1578063490e1f661461050a578063492cc7691461053357806349b248071461054f5780634c8d0274146105785761024e565b8063339d25901461041d57806339004b27146104275780633afb50d7146104505780633fcf1cf41461047b57806346ee941a146104a45761024e565b80631d630670116102035780631d6306701461033a57806329df66cc1461036357806329e18e5d1461038c5780632b66d72e146103b75780632ca8eb0e146103e05761024e565b8063010c5c971461025357806305e931f4146102905780630d1db1f0146102bb578063110466ed146102e657806312065fe01461030f5761024e565b3661024e5761024c610964565b005b600080fd5b34801561025f57600080fd5b5061027a60048036038101906102759190613fa3565b610a9d565b6040516102879190613feb565b60405180910390f35b34801561029c57600080fd5b506102a5610b45565b6040516102b2919061401f565b60405180910390f35b3480156102c757600080fd5b506102d0610b9e565b6040516102dd9190613feb565b60405180910390f35b3480156102f257600080fd5b5061030d60048036038101906103089190614066565b610bf5565b005b34801561031b57600080fd5b50610324610cd7565b604051610331919061401f565b60405180910390f35b34801561034657600080fd5b50610361600480360381019061035c91906141d9565b610d2e565b005b34801561036f57600080fd5b5061038a60048036038101906103859190614222565b610db7565b005b34801561039857600080fd5b506103a1611050565b6040516103ae919061401f565b60405180910390f35b3480156103c357600080fd5b506103de60048036038101906103d991906141d9565b61105c565b005b3480156103ec57600080fd5b50610407600480360381019061040291906141d9565b6112b4565b604051610414919061401f565b60405180910390f35b610425611351565b005b34801561043357600080fd5b5061044e60048036038101906104499190613fa3565b61143e565b005b34801561045c57600080fd5b50610465611498565b604051610472919061433c565b60405180910390f35b34801561048757600080fd5b506104a2600480360381019061049d91906141d9565b611575565b005b3480156104b057600080fd5b506104cb60048036038101906104c69190613fa3565b611761565b6040516104d8919061433c565b60405180910390f35b3480156104ed57600080fd5b5061050860048036038101906105039190613fa3565b61187d565b005b34801561051657600080fd5b50610531600480360381019061052c919061438a565b6119e5565b005b61054d600480360381019061054891906141d9565b611a91565b005b34801561055b57600080fd5b50610576600480360381019061057191906143ca565b611e5a565b005b34801561058457600080fd5b5061059f600480360381019061059a9190614455565b612155565b005b3480156105ad57600080fd5b506105b6612248565b6040516105c39190614657565b60405180910390f35b3480156105d857600080fd5b506105f360048036038101906105ee9190613fa3565b61248b565b60405161060091906146c3565b60405180910390f35b34801561061557600080fd5b5061061e6125ae565b60405161062b919061479d565b60405180910390f35b34801561064057600080fd5b506106496126ee565b604051610656919061401f565b60405180910390f35b34801561066b57600080fd5b50610686600480360381019061068191906147b8565b6126fa565b60405161069391906147f4565b60405180910390f35b3480156106a857600080fd5b506106c360048036038101906106be9190613fa3565b612739565b6040516106d29392919061480f565b60405180910390f35b3480156106e757600080fd5b506106f0612905565b6040516106fd9190613feb565b60405180910390f35b34801561071257600080fd5b5061071b61295c565b60405161072891906149b9565b60405180910390f35b34801561073d57600080fd5b5061075860048036038101906107539190613fa3565b612c95565b604051610765919061401f565b60405180910390f35b34801561077a57600080fd5b5061079560048036038101906107909190613fa3565b612d30565b6040516107a2919061401f565b60405180910390f35b3480156107b757600080fd5b506107d260048036038101906107cd9190613fa3565b612dc8565b005b3480156107e057600080fd5b506107fb60048036038101906107f691906141d9565b612f2e565b604051610808919061401f565b60405180910390f35b34801561081d57600080fd5b50610838600480360381019061083391906149db565b612f7b565b6040516108459190614a46565b60405180910390f35b610856610964565b005b34801561086457600080fd5b5061087f600480360381019061087a9190614a8d565b613026565b005b34801561088d57600080fd5b506108966133b5565b6040516108a39190613feb565b60405180910390f35b3480156108b857600080fd5b506108d360048036038101906108ce9190613fa3565b6133cc565b005b3480156108e157600080fd5b506108fc60048036038101906108f791906141d9565b613609565b6040516109099190613feb565b60405180910390f35b34801561091e57600080fd5b5061093960048036038101906109349190614222565b61368d565b005b34801561094757600080fd5b50610962600480360381019061095d9190614b24565b613958565b005b600260009054906101000a900460ff166109b3576040517f08c379a00000000000000000000000000000000000000000000000000000000081526004016109aa90614c05565b60405180910390fd5b600560003373ffffffffffffffffffffffffffffffffffffffff1673ffffffffffffffffffffffffffffffffffffffff16815260200190815260200160002060010160149054906101000a900460ff16610a42576040517f08c379a0000000000000000000000000000000000000000000000000000000008152600401610a3990614c71565b60405180910390fd5b34600560003373ffffffffffffffffffffffffffffffffffffffff1673ffffffffffffffffffffffffffffffffffffffff1681526020019081526020016000206002016000828254610a949190614cc0565b92505081905550565b6000600260009054906101000a900460ff16610aee576040517f08c379a0000000000000000000000000000000000000000000000000000000008152600401610ae590614c05565b60405180910390fd5b600560008373ffffffffffffffffffffffffffffffffffffffff1673ffffffffffffffffffffffffffffffffffffffff16815260200190815260200160002060010160149054906101000a900460ff169050919050565b6000600260009054906101000a900460ff16610b96576040517f08c379a0000000000000000000000000000000000000000000000000000000008152600401610b8d90614c05565b60405180910390fd5b600154905090565b6000601160003373ffffffffffffffffffffffffffffffffffffffff1673ffffffffffffffffffffffffffffffffffffffff16815260200190815260200160002060000160009054906101000a900460ff16905090565b60008054906101000a900473ffffffffffffffffffffffffffffffffffffffff1673ffffffffffffffffffffffffffffffffffffffff163373ffffffffffffffffffffffffffffffffffffffff1614610c83576040517f08c379a0000000000000000000000000000000000000000000000000000000008152600401610c7a90614d40565b60405180910390fd5b7ff21db895caf8541b06334a513512d7af19d1beddfdb05ef5f24d990078588ac881604051610cb29190613feb565b60405180910390a180600260006101000a81548160ff02191690831515021790555050565b6000600260009054906101000a900460ff16610d28576040517f08c379a0000000000000000000000000000000000000000000000000000000008152600401610d1f90614c05565b60405180910390fd5b47905090565b600260009054906101000a900460ff16610d7d576040517f08c379a0000000000000000000000000000000000000000000000000000000008152600401610d7490614c05565b60405180910390fd5b6001600982604051610d8f9190614d9c565b908152602001604051809103902060006101000a81548160ff02191690831515021790555050565b600260009054906101000a900460ff16610e06576040517f08c379a0000000000000000000000000000000000000000000000000000000008152600401610dfd90614c05565b60405180910390fd5b6001600860003373ffffffffffffffffffffffffffffffffffffffff1673ffffffffffffffffffffffffffffffffffffffff1681526020019081526020016000205414610e88576040517f08c379a0000000000000000000000000000000000000000000000000000000008152600401610e7f90614dff565b60405180910390fd5b60405180608001604052808281526020018373ffffffffffffffffffffffffffffffffffffffff1681526020016001151581526020016000815250600560008473ffffffffffffffffffffffffffffffffffffffff1673ffffffffffffffffffffffffffffffffffffffff1681526020019081526020016000206000820151816000019081610f17919061502b565b5060208201518160010160006101000a81548173ffffffffffffffffffffffffffffffffffffffff021916908373ffffffffffffffffffffffffffffffffffffffff16021790555060408201518160010160146101000a81548160ff021916908315150217905550606082015181600201559050506001600860008473ffffffffffffffffffffffffffffffffffffffff1673ffffffffffffffffffffffffffffffffffffffff168152602001908152602001600020819055506004829080600181540180825580915050600190039060005260206000200160009091909190916101000a81548173ffffffffffffffffffffffffffffffffffffffff021916908373ffffffffffffffffffffffffffffffffffffffff16021790555060016000815480929190611047906150fd565b91905055505050565b670de0b6b3a764000081565b600260009054906101000a900460ff166110ab576040517f08c379a00000000000000000000000000000000000000000000000000000000081526004016110a290614c05565b60405180910390fd5b3273ffffffffffffffffffffffffffffffffffffffff163373ffffffffffffffffffffffffffffffffffffffff1614611119576040517f08c379a0000000000000000000000000000000000000000000000000000000008152600401611110906151b7565b60405180910390fd5b6000813360405160200161112e92919061521f565b6040516020818303038152906040528051906020012090506000600a6000838152602001908152602001600020600201541161119f576040517f08c379a000000000000000000000000000000000000000000000000000000000815260040161119690615293565b60405180910390fd5b6000600a60008381526020019081526020016000206002015490508047116111fc576040517f08c379a00000000000000000000000000000000000000000000000000000000081526004016111f390615325565b60405180910390fd5b6000600a6000848152602001908152602001600020600201819055503373ffffffffffffffffffffffffffffffffffffffff166108fc829081150290604051600060405180830381858888f1935050505015801561125e573d6000803e3d6000fd5b503373ffffffffffffffffffffffffffffffffffffffff167f37821217243a9021d21d3064ee513839a726184e5a5ec6068a9faf8213fad23d84836040516112a7929190615345565b60405180910390a2505050565b6000600260009054906101000a900460ff16611305576040517f08c379a00000000000000000000000000000000000000000000000000000000081526004016112fc90614c05565b60405180910390fd5b6000823360405160200161131a92919061521f565b604051602081830303815290604052805190602001209050600a600082815260200190815260200160002060020154915050919050565b670de0b6b3a764000034101561139c576040517f08c379a0000000000000000000000000000000000000000000000000000000008152600401611393906153c1565b60405180910390fd5b60006113a733613ae9565b9050604051806040016040528060011515815260200182815250601160003373ffffffffffffffffffffffffffffffffffffffff1673ffffffffffffffffffffffffffffffffffffffff16815260200190815260200160002060008201518160000160006101000a81548160ff021916908315150217905550602082015181600101906003611437929190613dc0565b5090505050565b6001600660008373ffffffffffffffffffffffffffffffffffffffff1673ffffffffffffffffffffffffffffffffffffffff168152602001908152602001600020600082825461148e9190614cc0565b9250508190555050565b6060600260009054906101000a900460ff166114e9576040517f08c379a00000000000000000000000000000000000000000000000000000000081526004016114e090614c05565b60405180910390fd5b600380548060200260200160405190810160405280929190818152602001828054801561156b57602002820191906000526020600020905b8160009054906101000a900473ffffffffffffffffffffffffffffffffffffffff1673ffffffffffffffffffffffffffffffffffffffff1681526020019060010190808311611521575b5050505050905090565b600260009054906101000a900460ff166115c4576040517f08c379a00000000000000000000000000000000000000000000000000000000081526004016115bb90614c05565b60405180910390fd5b6000600380549050905060005b8181101561175c57600083600383815481106115f0576115ef6153e1565b5b9060005260206000200160009054906101000a900473ffffffffffffffffffffffffffffffffffffffff1660405160200161162c92919061521f565b604051602081830303815290604052805190602001209050600073ffffffffffffffffffffffffffffffffffffffff16600a600083815260200190815260200160002060000160009054906101000a900473ffffffffffffffffffffffffffffffffffffffff1673ffffffffffffffffffffffffffffffffffffffff1614611748576000600a60008381526020019081526020016000209050600081600201549050600082600101876040516116e29190614d9c565b9081526020016040518091039020549050600083600101886040516117079190614d9c565b908152602001604051809103902081905550600281611726919061543f565b816117319190614cc0565b8261173c9190614cc0565b83600201819055505050505b508080611754906150fd565b9150506115d1565b505050565b6060600260009054906101000a900460ff166117b2576040517f08c379a00000000000000000000000000000000000000000000000000000000081526004016117a990614c05565b60405180910390fd5b600760008373ffffffffffffffffffffffffffffffffffffffff1673ffffffffffffffffffffffffffffffffffffffff16815260200190815260200160002080548060200260200160405190810160405280929190818152602001828054801561187157602002820191906000526020600020905b8160009054906101000a900473ffffffffffffffffffffffffffffffffffffffff1673ffffffffffffffffffffffffffffffffffffffff1681526020019060010190808311611827575b50505050509050919050565b60008054906101000a900473ffffffffffffffffffffffffffffffffffffffff1673ffffffffffffffffffffffffffffffffffffffff163373ffffffffffffffffffffffffffffffffffffffff161461190b576040517f08c379a000000000000000000000000000000000000000000000000000000000815260040161190290614d40565b60405180910390fd5b600260009054906101000a900460ff1661195a576040517f08c379a000000000000000000000000000000000000000000000000000000000815260040161195190614c05565b60405180910390fd5b6001600860008373ffffffffffffffffffffffffffffffffffffffff1673ffffffffffffffffffffffffffffffffffffffff168152602001908152602001600020819055508073ffffffffffffffffffffffffffffffffffffffff167f2c74592fddad593c2c4403101ce9b30930711ab87571268ddd1e1989ee1d791760405160405180910390a250565b600260009054906101000a900460ff16611a34576040517f08c379a0000000000000000000000000000000000000000000000000000000008152600401611a2b90614c05565b60405180910390fd5b80600560008473ffffffffffffffffffffffffffffffffffffffff1673ffffffffffffffffffffffffffffffffffffffff1681526020019081526020016000206002016000828254611a869190614cc0565b925050819055505050565b600260009054906101000a900460ff16611ae0576040517f08c379a0000000000000000000000000000000000000000000000000000000008152600401611ad790614c05565b60405180910390fd5b600981604051611af09190614d9c565b908152602001604051809103902060009054906101000a900460ff16611b4b576040517f08c379a0000000000000000000000000000000000000000000000000000000008152600401611b42906154bc565b60405180910390fd5b3273ffffffffffffffffffffffffffffffffffffffff163373ffffffffffffffffffffffffffffffffffffffff1614611bb9576040517f08c379a0000000000000000000000000000000000000000000000000000000008152600401611bb0906151b7565b60405180910390fd5b60003411611bfc576040517f08c379a0000000000000000000000000000000000000000000000000000000008152600401611bf39061554e565b60405180910390fd5b670de0b6b3a7640000341115611c47576040517f08c379a0000000000000000000000000000000000000000000000000000000008152600401611c3e906155e0565b60405180910390fd5b60008133604051602001611c5c92919061521f565b604051602081830303815290604052805190602001209050600073ffffffffffffffffffffffffffffffffffffffff16600a600083815260200190815260200160002060000160009054906101000a900473ffffffffffffffffffffffffffffffffffffffff1673ffffffffffffffffffffffffffffffffffffffff1614611d19576040517f08c379a0000000000000000000000000000000000000000000000000000000008152600401611d109061564c565b60405180910390fd5b6000600a60008381526020019081526020016000209050338160000160006101000a81548173ffffffffffffffffffffffffffffffffffffffff021916908373ffffffffffffffffffffffffffffffffffffffff16021790555060008160020181905550348160010184604051611d909190614d9c565b9081526020016040518091039020819055506003339080600181540180825580915050600190039060005260206000200160009091909190916101000a81548173ffffffffffffffffffffffffffffffffffffffff021916908373ffffffffffffffffffffffffffffffffffffffff1602179055503373ffffffffffffffffffffffffffffffffffffffff167f26ad90fbc61f14a22f36e3f307f548d6d4cb6193ec8fdfd8903077e2e3d8953d8434604051611e4d929190615345565b60405180910390a2505050565b600260009054906101000a900460ff16611ea9576040517f08c379a0000000000000000000000000000000000000000000000000000000008152600401611ea090614c05565b60405180910390fd5b60008333604051602001611ebe92919061521f565b604051602081830303815290604052805190602001209050600f600082815260200190815260200160002060000160009054906101000a900460ff1615611f3a576040517f08c379a0000000000000000000000000000000000000000000000000000000008152600401611f31906156b8565b60405180910390fd5b678ac7230489e80000611f4c33612c95565b1015611f8d576040517f08c379a0000000000000000000000000000000000000000000000000000000008152600401611f8490615770565b60405180910390fd5b6040518060e00160405280600115158152602001600a60ff1681526020018381526020013373ffffffffffffffffffffffffffffffffffffffff168152602001858152602001848152602001611fe23361248b565b815250600f600083815260200190815260200160002060008201518160000160006101000a81548160ff02191690831515021790555060208201518160000160016101000a81548160ff021916908360ff1602179055506040820151816001015560608201518160020160006101000a81548173ffffffffffffffffffffffffffffffffffffffff021916908373ffffffffffffffffffffffffffffffffffffffff160217905550608082015181600301908161209f919061502b565b5060a08201518160040190816120b5919061502b565b5060c08201518160050190816120cb919061502b565b509050506120d884610d2e565b600c8190806001815401808255809150506001900390600052602060002001600090919091909150553373ffffffffffffffffffffffffffffffffffffffff167f1fdc292e3ea5cee43214c05c8e59fe9f90da27d2d40efe99499147c28463fa348560405161214791906146c3565b60405180910390a250505050565b600260009054906101000a900460ff166121a4576040517f08c379a000000000000000000000000000000000000000000000000000000000815260040161219b90614c05565b60405180910390fd5b600760008373ffffffffffffffffffffffffffffffffffffffff1673ffffffffffffffffffffffffffffffffffffffff168152602001908152602001600020819080600181540180825580915050600190039060005260206000200160009091909190916101000a81548173ffffffffffffffffffffffffffffffffffffffff021916908373ffffffffffffffffffffffffffffffffffffffff1602179055505050565b6060600060048054905067ffffffffffffffff81111561226b5761226a6140ae565b5b6040519080825280602002602001820160405280156122a457816020015b612291613e5a565b8152602001906001900390816122895790505b50905060005b60048054905081101561248357600060056000600484815481106122d1576122d06153e1565b5b9060005260206000200160009054906101000a900473ffffffffffffffffffffffffffffffffffffffff1673ffffffffffffffffffffffffffffffffffffffff1673ffffffffffffffffffffffffffffffffffffffff16815260200190815260200160002090508060405180608001604052908160008201805461235490614e4e565b80601f016020809104026020016040519081016040528092919081815260200182805461238090614e4e565b80156123cd5780601f106123a2576101008083540402835291602001916123cd565b820191906000526020600020905b8154815290600101906020018083116123b057829003601f168201915b505050505081526020016001820160009054906101000a900473ffffffffffffffffffffffffffffffffffffffff1673ffffffffffffffffffffffffffffffffffffffff1673ffffffffffffffffffffffffffffffffffffffff1681526020016001820160149054906101000a900460ff16151515158152602001600282015481525050838381518110612464576124636153e1565b5b602002602001018190525050808061247b906150fd565b9150506122aa565b508091505090565b6060600260009054906101000a900460ff166124dc576040517f08c379a00000000000000000000000000000000000000000000000000000000081526004016124d390614c05565b60405180910390fd5b600560008373ffffffffffffffffffffffffffffffffffffffff1673ffffffffffffffffffffffffffffffffffffffff168152602001908152602001600020600001805461252990614e4e565b80601f016020809104026020016040519081016040528092919081815260200182805461255590614e4e565b80156125a25780601f10612577576101008083540402835291602001916125a2565b820191906000526020600020905b81548152906001019060200180831161258557829003601f168201915b50505050509050919050565b6125b6613e9a565b601160003373ffffffffffffffffffffffffffffffffffffffff1673ffffffffffffffffffffffffffffffffffffffff16815260200190815260200160002060000160009054906101000a900460ff16612645576040517f08c379a000000000000000000000000000000000000000000000000000000000815260040161263c906157dc565b60405180910390fd5b601160003373ffffffffffffffffffffffffffffffffffffffff1673ffffffffffffffffffffffffffffffffffffffff1681526020019081526020016000206001016003806020026040519081016040528092919082600380156126e4576020028201916000905b82829054906101000a900460ff1660ff16815260200190600101906020826000010492830192600103820291508084116126ad5790505b5050505050905090565b670de0b6b3a764000081565b6004818154811061270a57600080fd5b906000526020600020016000915054906101000a900473ffffffffffffffffffffffffffffffffffffffff1681565b6060600080600260009054906101000a900460ff1661278d576040517f08c379a000000000000000000000000000000000000000000000000000000000815260040161278490614c05565b60405180910390fd5b6000600560008673ffffffffffffffffffffffffffffffffffffffff1673ffffffffffffffffffffffffffffffffffffffff1681526020019081526020016000206040518060800160405290816000820180546127e990614e4e565b80601f016020809104026020016040519081016040528092919081815260200182805461281590614e4e565b80156128625780601f1061283757610100808354040283529160200191612862565b820191906000526020600020905b81548152906001019060200180831161284557829003601f168201915b505050505081526020016001820160009054906101000a900473ffffffffffffffffffffffffffffffffffffffff1673ffffffffffffffffffffffffffffffffffffffff1673ffffffffffffffffffffffffffffffffffffffff1681526020016001820160149054906101000a900460ff161515151581526020016002820154815250509050806000015193508060400151925080606001519150509193909250565b60008060009054906101000a900473ffffffffffffffffffffffffffffffffffffffff1673ffffffffffffffffffffffffffffffffffffffff163373ffffffffffffffffffffffffffffffffffffffff1614905090565b60606000600c80549050905060008167ffffffffffffffff811115612984576129836140ae565b5b6040519080825280602002602001820160405280156129bd57816020015b6129aa613ebc565b8152602001906001900390816129a25790505b50905060005b82811015612c8c576000600c82815481106129e1576129e06153e1565b5b90600052602060002001549050600f60008281526020019081526020016000206040518060e00160405290816000820160009054906101000a900460ff161515151581526020016000820160019054906101000a900460ff1660ff1660ff168152602001600182015481526020016002820160009054906101000a900473ffffffffffffffffffffffffffffffffffffffff1673ffffffffffffffffffffffffffffffffffffffff1673ffffffffffffffffffffffffffffffffffffffff168152602001600382018054612ab490614e4e565b80601f0160208091040260200160405190810160405280929190818152602001828054612ae090614e4e565b8015612b2d5780601f10612b0257610100808354040283529160200191612b2d565b820191906000526020600020905b815481529060010190602001808311612b1057829003601f168201915b50505050508152602001600482018054612b4690614e4e565b80601f0160208091040260200160405190810160405280929190818152602001828054612b7290614e4e565b8015612bbf5780601f10612b9457610100808354040283529160200191612bbf565b820191906000526020600020905b815481529060010190602001808311612ba257829003601f168201915b50505050508152602001600582018054612bd890614e4e565b80601f0160208091040260200160405190810160405280929190818152602001828054612c0490614e4e565b8015612c515780601f10612c2657610100808354040283529160200191612c51565b820191906000526020600020905b815481529060010190602001808311612c3457829003601f168201915b505050505081525050838381518110612c6d57612c6c6153e1565b5b6020026020010181905250508080612c84906150fd565b9150506129c3565b50809250505090565b6000600260009054906101000a900460ff16612ce6576040517f08c379a0000000000000000000000000000000000000000000000000000000008152600401612cdd90614c05565b60405180910390fd5b600560008373ffffffffffffffffffffffffffffffffffffffff1673ffffffffffffffffffffffffffffffffffffffff168152602001908152602001600020600201549050919050565b6000600260009054906101000a900460ff16612d81576040517f08c379a0000000000000000000000000000000000000000000000000000000008152600401612d7890614c05565b60405180910390fd5b600660008373ffffffffffffffffffffffffffffffffffffffff1673ffffffffffffffffffffffffffffffffffffffff168152602001908152602001600020549050919050565b60008054906101000a900473ffffffffffffffffffffffffffffffffffffffff1673ffffffffffffffffffffffffffffffffffffffff163373ffffffffffffffffffffffffffffffffffffffff1614612e56576040517f08c379a0000000000000000000000000000000000000000000000000000000008152600401612e4d90614d40565b60405180910390fd5b600260009054906101000a900460ff16612ea5576040517f08c379a0000000000000000000000000000000000000000000000000000000008152600401612e9c90614c05565b60405180910390fd5b600860008273ffffffffffffffffffffffffffffffffffffffff1673ffffffffffffffffffffffffffffffffffffffff168152602001908152602001600020600090558073ffffffffffffffffffffffffffffffffffffffff167fd5cf915bcf19ee4a2edf05f0add6e4520e02eda58f4b4a99387be2a7ae79cefb60405160405180910390a250565b6000808233604051602001612f4492919061521f565b604051602081830303815290604052805190602001209050600a600082815260200190815260200160002060020154915050919050565b6000600260009054906101000a900460ff16612fcc576040517f08c379a0000000000000000000000000000000000000000000000000000000008152600401612fc390614c05565b60405180910390fd5b60008383604051602001612fe192919061521f565b604051602081830303815290604052805190602001209050600f600082815260200190815260200160002060000160019054906101000a900460ff1691505092915050565b8460ff16601160003373ffffffffffffffffffffffffffffffffffffffff1673ffffffffffffffffffffffffffffffffffffffff16815260200190815260200160002060010160006003811061307f5761307e6153e1565b5b602091828204019190069054906101000a900460ff1660ff16148061311357508460ff16601160003373ffffffffffffffffffffffffffffffffffffffff1673ffffffffffffffffffffffffffffffffffffffff1681526020019081526020016000206001016001600381106130f8576130f76153e1565b5b602091828204019190069054906101000a900460ff1660ff16145b8061318d57508460ff16601160003373ffffffffffffffffffffffffffffffffffffffff1673ffffffffffffffffffffffffffffffffffffffff168152602001908152602001600020600101600260038110613172576131716153e1565b5b602091828204019190069054906101000a900460ff1660ff16145b6131cc576040517f08c379a00000000000000000000000000000000000000000000000000000000081526004016131c39061586e565b60405180910390fd5b6000858585856040516020016131e594939291906158e5565b6040516020818303038152906040528051906020012090506010600082815260200190815260200160002060000160149054906101000a900460ff16613260576040517f08c379a0000000000000000000000000000000000000000000000000000000008152600401613257906159a1565b60405180910390fd5b6010600082815260200190815260200160002060010160008360ff1660ff168152602001908152602001600020339080600181540180825580915050600190039060005260206000200160009091909190916101000a81548173ffffffffffffffffffffffffffffffffffffffff021916908373ffffffffffffffffffffffffffffffffffffffff1602179055507f43c853095c2752648493c88b4baac4d580d2594ffb00c6f1d4242d844514f7838585858560405161332394939291906159c1565b60405180910390a160016010600083815260200190815260200160002060010160008460ff1660ff16815260200190815260200160002080549050106133ad577fe23f5229de535c091e3b7bec2665f5d698192d3b31393066e8987b7a05076b6c8585858560405161339894939291906159c1565b60405180910390a16133ac85858585613bef565b5b505050505050565b6000600260009054906101000a900460ff16905090565b600260009054906101000a900460ff1661341b576040517f08c379a000000000000000000000000000000000000000000000000000000000815260040161341290614c05565b60405180910390fd5b678ac7230489e8000061342d33612c95565b101561346e576040517f08c379a000000000000000000000000000000000000000000000000000000000815260040161346590615aa5565b60405180910390fd5b600073ffffffffffffffffffffffffffffffffffffffff168173ffffffffffffffffffffffffffffffffffffffff16036134dd576040517f08c379a00000000000000000000000000000000000000000000000000000000081526004016134d490615b11565b60405180910390fd5b6134e681610a9d565b15613526576040517f08c379a000000000000000000000000000000000000000000000000000000000815260040161351d90615b7d565b60405180910390fd5b600061353182611761565b90506000815190506000805b828110156135ae573373ffffffffffffffffffffffffffffffffffffffff1684828151811061356f5761356e6153e1565b5b602002602001015173ffffffffffffffffffffffffffffffffffffffff160361359b57600191506135ae565b80806135a6906150fd565b91505061353d565b5080156135f0576040517f08c379a00000000000000000000000000000000000000000000000000000000081526004016135e790615c0f565b60405180910390fd5b6135f98461143e565b6136038433612155565b50505050565b6000600260009054906101000a900460ff1661365a576040517f08c379a000000000000000000000000000000000000000000000000000000000815260040161365190614c05565b60405180910390fd5b60098260405161366a9190614d9c565b908152602001604051809103902060009054906101000a900460ff169050919050565b600260009054906101000a900460ff166136dc576040517f08c379a00000000000000000000000000000000000000000000000000000000081526004016136d390614c05565b60405180910390fd5b600073ffffffffffffffffffffffffffffffffffffffff168273ffffffffffffffffffffffffffffffffffffffff160361374b576040517f08c379a000000000000000000000000000000000000000000000000000000000815260040161374290615b11565b60405180910390fd5b61375482610a9d565b15613794576040517f08c379a000000000000000000000000000000000000000000000000000000000815260040161378b90615b7d565b60405180910390fd5b600061379e610b45565b9050600460ff1681116138a3576137b433610a9d565b6137f3576040517f08c379a00000000000000000000000000000000000000000000000000000000081526004016137ea90615ca1565b60405180910390fd5b678ac7230489e8000061380533612c95565b1015613846576040517f08c379a000000000000000000000000000000000000000000000000000000000815260040161383d90615d59565b60405180910390fd5b6138508383610db7565b8273ffffffffffffffffffffffffffffffffffffffff167fc8c24e3d7f44f1c6a263a7af6b1d8ec0790ae452bc4d4d3598e5bce0b12be99a8360405161389691906146c3565b60405180910390a2613953565b6002816138b0919061543f565b6138b984612d30565b10156138fa576040517f08c379a00000000000000000000000000000000000000000000000000000000081526004016138f190615deb565b60405180910390fd5b6139048383610db7565b8273ffffffffffffffffffffffffffffffffffffffff167fc8c24e3d7f44f1c6a263a7af6b1d8ec0790ae452bc4d4d3598e5bce0b12be99a8360405161394a91906146c3565b60405180910390a25b505050565b600260009054906101000a900460ff166139a7576040517f08c379a000000000000000000000000000000000000000000000000000000000815260040161399e90614c05565b60405180910390fd5b6139b082613609565b6139ef576040517f08c379a00000000000000000000000000000000000000000000000000000000081526004016139e690615e57565b60405180910390fd5b60006139fa33613d37565b9050600081858585604051602001613a1594939291906158e5565b6040516020818303038152906040528051906020012090506000601060008381526020019081526020016000209050338160000160006101000a81548173ffffffffffffffffffffffffffffffffffffffff021916908373ffffffffffffffffffffffffffffffffffffffff16021790555060018160000160146101000a81548160ff0219169083151502179055507f3ed01f2c3fc24c6b329d931e35b03e390d23497d22b3f90e15b600343e93df1183878787604051613ad99493929190615e77565b60405180910390a1505050505050565b613af1613e9a565b613af9613e9a565b60005b600360ff168160ff161015613be557613b1484613d37565b828260ff1660038110613b2a57613b296153e1565b5b602002019060ff16908160ff168152505060005b8160ff168160ff161015613bd357828260ff1660038110613b6257613b616153e1565b5b602002015160ff16838260ff1660038110613b8057613b7f6153e1565b5b602002015160ff1603613bc257613b9685613d37565b838360ff1660038110613bac57613bab6153e1565b5b602002019060ff16908160ff1681525050600090505b80613bcc90615ec3565b9050613b3e565b5080613bde90615ec3565b9050613afc565b5080915050919050565b600260009054906101000a900460ff16613c3e576040517f08c379a0000000000000000000000000000000000000000000000000000000008152600401613c3590614c05565b60405180910390fd5b60008385604051602001613c5392919061521f565b604051602081830303815290604052805190602001209050600f600082815260200190815260200160002060000160009054906101000a900460ff16613cce576040517f08c379a0000000000000000000000000000000000000000000000000000000008152600401613cc590615f38565b60405180910390fd5b82600f60008381526020019081526020016000206001018190555081600f600083815260200190815260200160002060000160016101000a81548160ff021916908360ff160217905550601460ff168260ff1603613d3057613d2f84611575565b5b5050505050565b600080600e60009054906101000a900460ff1660ff16600143613d5a9190615f58565b4084600d54604051602001613d7193929190615fb7565b6040516020818303038152906040528051906020012060001c613d949190615ff4565b905060fb6001600d54613da79190614cc0565b613db19190615ff4565b600d8190555080915050919050565b826003601f01602090048101928215613e495791602002820160005b83821115613e1a57835183826101000a81548160ff021916908360ff1602179055509260200192600101602081600001049283019260010302613ddc565b8015613e475782816101000a81549060ff0219169055600101602081600001049283019260010302613e1a565b505b509050613e569190613f14565b5090565b604051806080016040528060608152602001600073ffffffffffffffffffffffffffffffffffffffff168152602001600015158152602001600081525090565b6040518060600160405280600390602082028036833780820191505090505090565b6040518060e00160405280600015158152602001600060ff16815260200160008152602001600073ffffffffffffffffffffffffffffffffffffffff1681526020016060815260200160608152602001606081525090565b5b80821115613f2d576000816000905550600101613f15565b5090565b6000604051905090565b600080fd5b600080fd5b600073ffffffffffffffffffffffffffffffffffffffff82169050919050565b6000613f7082613f45565b9050919050565b613f8081613f65565b8114613f8b57600080fd5b50565b600081359050613f9d81613f77565b92915050565b600060208284031215613fb957613fb8613f3b565b5b6000613fc784828501613f8e565b91505092915050565b60008115159050919050565b613fe581613fd0565b82525050565b60006020820190506140006000830184613fdc565b92915050565b6000819050919050565b61401981614006565b82525050565b60006020820190506140346000830184614010565b92915050565b61404381613fd0565b811461404e57600080fd5b50565b6000813590506140608161403a565b92915050565b60006020828403121561407c5761407b613f3b565b5b600061408a84828501614051565b91505092915050565b600080fd5b600080fd5b6000601f19601f8301169050919050565b7f4e487b7100000000000000000000000000000000000000000000000000000000600052604160045260246000fd5b6140e68261409d565b810181811067ffffffffffffffff82111715614105576141046140ae565b5b80604052505050565b6000614118613f31565b905061412482826140dd565b919050565b600067ffffffffffffffff821115614144576141436140ae565b5b61414d8261409d565b9050602081019050919050565b82818337600083830152505050565b600061417c61417784614129565b61410e565b90508281526020810184848401111561419857614197614098565b5b6141a384828561415a565b509392505050565b600082601f8301126141c0576141bf614093565b5b81356141d0848260208601614169565b91505092915050565b6000602082840312156141ef576141ee613f3b565b5b600082013567ffffffffffffffff81111561420d5761420c613f40565b5b614219848285016141ab565b91505092915050565b6000806040838503121561423957614238613f3b565b5b600061424785828601613f8e565b925050602083013567ffffffffffffffff81111561426857614267613f40565b5b614274858286016141ab565b9150509250929050565b600081519050919050565b600082825260208201905092915050565b6000819050602082019050919050565b6142b381613f65565b82525050565b60006142c583836142aa565b60208301905092915050565b6000602082019050919050565b60006142e98261427e565b6142f38185614289565b93506142fe8361429a565b8060005b8381101561432f57815161431688826142b9565b9750614321836142d1565b925050600181019050614302565b5085935050505092915050565b6000602082019050818103600083015261435681846142de565b905092915050565b61436781614006565b811461437257600080fd5b50565b6000813590506143848161435e565b92915050565b600080604083850312156143a1576143a0613f3b565b5b60006143af85828601613f8e565b92505060206143c085828601614375565b9150509250929050565b6000806000606084860312156143e3576143e2613f3b565b5b600084013567ffffffffffffffff81111561440157614400613f40565b5b61440d868287016141ab565b935050602084013567ffffffffffffffff81111561442e5761442d613f40565b5b61443a868287016141ab565b925050604061444b86828701614375565b9150509250925092565b6000806040838503121561446c5761446b613f3b565b5b600061447a85828601613f8e565b925050602061448b85828601613f8e565b9150509250929050565b600081519050919050565b600082825260208201905092915050565b6000819050602082019050919050565b600081519050919050565b600082825260208201905092915050565b60005b838110156144fb5780820151818401526020810190506144e0565b60008484015250505050565b6000614512826144c1565b61451c81856144cc565b935061452c8185602086016144dd565b6145358161409d565b840191505092915050565b61454981613fd0565b82525050565b61455881614006565b82525050565b6000608083016000830151848203600086015261457b8282614507565b915050602083015161459060208601826142aa565b5060408301516145a36040860182614540565b5060608301516145b6606086018261454f565b508091505092915050565b60006145cd838361455e565b905092915050565b6000602082019050919050565b60006145ed82614495565b6145f781856144a0565b935083602082028501614609856144b1565b8060005b85811015614645578484038952815161462685826145c1565b9450614631836145d5565b925060208a0199505060018101905061460d565b50829750879550505050505092915050565b6000602082019050818103600083015261467181846145e2565b905092915050565b600082825260208201905092915050565b6000614695826144c1565b61469f8185614679565b93506146af8185602086016144dd565b6146b88161409d565b840191505092915050565b600060208201905081810360008301526146dd818461468a565b905092915050565b600060039050919050565b600081905092915050565b6000819050919050565b600060ff82169050919050565b61471b81614705565b82525050565b600061472d8383614712565b60208301905092915050565b6000602082019050919050565b61474f816146e5565b61475981846146f0565b9250614764826146fb565b8060005b8381101561479557815161477c8782614721565b965061478783614739565b925050600181019050614768565b505050505050565b60006060820190506147b26000830184614746565b92915050565b6000602082840312156147ce576147cd613f3b565b5b60006147dc84828501614375565b91505092915050565b6147ee81613f65565b82525050565b600060208201905061480960008301846147e5565b92915050565b60006060820190508181036000830152614829818661468a565b90506148386020830185613fdc565b6148456040830184614010565b949350505050565b600081519050919050565b600082825260208201905092915050565b6000819050602082019050919050565b600060e0830160008301516148916000860182614540565b5060208301516148a46020860182614712565b5060408301516148b7604086018261454f565b5060608301516148ca60608601826142aa565b50608083015184820360808601526148e28282614507565b91505060a083015184820360a08601526148fc8282614507565b91505060c083015184820360c08601526149168282614507565b9150508091505092915050565b600061492f8383614879565b905092915050565b6000602082019050919050565b600061494f8261484d565b6149598185614858565b93508360208202850161496b85614869565b8060005b858110156149a757848403895281516149888582614923565b945061499383614937565b925060208a0199505060018101905061496f565b50829750879550505050505092915050565b600060208201905081810360008301526149d38184614944565b905092915050565b600080604083850312156149f2576149f1613f3b565b5b600083013567ffffffffffffffff811115614a1057614a0f613f40565b5b614a1c858286016141ab565b9250506020614a2d85828601613f8e565b9150509250929050565b614a4081614705565b82525050565b6000602082019050614a5b6000830184614a37565b92915050565b614a6a81614705565b8114614a7557600080fd5b50565b600081359050614a8781614a61565b92915050565b600080600080600060a08688031215614aa957614aa8613f3b565b5b6000614ab788828901614a78565b9550506020614ac888828901613f8e565b945050604086013567ffffffffffffffff811115614ae957614ae8613f40565b5b614af5888289016141ab565b9350506060614b0688828901614375565b9250506080614b1788828901614a78565b9150509295509295909350565b600080600060608486031215614b3d57614b3c613f3b565b5b6000614b4b86828701613f8e565b935050602084013567ffffffffffffffff811115614b6c57614b6b613f40565b5b614b78868287016141ab565b9250506040614b8986828701614375565b9150509250925092565b7f436f6e74726163742069732063757272656e746c79206e6f74206f706572617460008201527f696f6e616c000000000000000000000000000000000000000000000000000000602082015250565b6000614bef602583614679565b9150614bfa82614b93565b604082019050919050565b60006020820190508181036000830152614c1e81614be2565b9050919050565b7f4169726c696e65206973206e6f74207265676973746572656400000000000000600082015250565b6000614c5b601983614679565b9150614c6682614c25565b602082019050919050565b60006020820190508181036000830152614c8a81614c4e565b9050919050565b7f4e487b7100000000000000000000000000000000000000000000000000000000600052601160045260246000fd5b6000614ccb82614006565b9150614cd683614006565b9250828201905080821115614cee57614ced614c91565b5b92915050565b7f43616c6c6572206973206e6f7420636f6e7472616374206f776e657200000000600082015250565b6000614d2a601c83614679565b9150614d3582614cf4565b602082019050919050565b60006020820190508181036000830152614d5981614d1d565b9050919050565b600081905092915050565b6000614d76826144c1565b614d808185614d60565b9350614d908185602086016144dd565b80840191505092915050565b6000614da88284614d6b565b915081905092915050565b7f43616c6c6572206973206e6f7420617574686f72697a65643a20000000000000600082015250565b6000614de9601a83614679565b9150614df482614db3565b602082019050919050565b60006020820190508181036000830152614e1881614ddc565b9050919050565b7f4e487b7100000000000000000000000000000000000000000000000000000000600052602260045260246000fd5b60006002820490506001821680614e6657607f821691505b602082108103614e7957614e78614e1f565b5b50919050565b60008190508160005260206000209050919050565b60006020601f8301049050919050565b600082821b905092915050565b600060088302614ee17fffffffffffffffffffffffffffffffffffffffffffffffffffffffffffffffff82614ea4565b614eeb8683614ea4565b95508019841693508086168417925050509392505050565b6000819050919050565b6000614f28614f23614f1e84614006565b614f03565b614006565b9050919050565b6000819050919050565b614f4283614f0d565b614f56614f4e82614f2f565b848454614eb1565b825550505050565b600090565b614f6b614f5e565b614f76818484614f39565b505050565b5b81811015614f9a57614f8f600082614f63565b600181019050614f7c565b5050565b601f821115614fdf57614fb081614e7f565b614fb984614e94565b81016020851015614fc8578190505b614fdc614fd485614e94565b830182614f7b565b50505b505050565b600082821c905092915050565b600061500260001984600802614fe4565b1980831691505092915050565b600061501b8383614ff1565b9150826002028217905092915050565b615034826144c1565b67ffffffffffffffff81111561504d5761504c6140ae565b5b6150578254614e4e565b615062828285614f9e565b600060209050601f8311600181146150955760008415615083578287015190505b61508d858261500f565b8655506150f5565b601f1984166150a386614e7f565b60005b828110156150cb578489015182556001820191506020850194506020810190506150a6565b868310156150e857848901516150e4601f891682614ff1565b8355505b6001600288020188555050505b505050505050565b600061510882614006565b91507fffffffffffffffffffffffffffffffffffffffffffffffffffffffffffffffff820361513a57615139614c91565b5b600182019050919050565b7f436f6e7472616374732063616e6e6f742063616c6c20746869732066756e637460008201527f696f6e2e00000000000000000000000000000000000000000000000000000000602082015250565b60006151a1602483614679565b91506151ac82615145565b604082019050919050565b600060208201905081810360008301526151d081615194565b9050919050565b60008160601b9050919050565b60006151ef826151d7565b9050919050565b6000615201826151e4565b9050919050565b61521961521482613f65565b6151f6565b82525050565b600061522b8285614d6b565b91506152378284615208565b6014820191508190509392505050565b7f4e6f2063726564697420746f2062652077697468647261776e00000000000000600082015250565b600061527d601983614679565b915061528882615247565b602082019050919050565b600060208201905081810360008301526152ac81615270565b9050919050565b7f54686520636f6e747261637420646f6573206e6f74206861766520656e6f756760008201527f682066756e647320746f20706179207468652063726564697400000000000000602082015250565b600061530f603983614679565b915061531a826152b3565b604082019050919050565b6000602082019050818103600083015261533e81615302565b9050919050565b6000604082019050818103600083015261535f818561468a565b905061536e6020830184614010565b9392505050565b7f526567697374726174696f6e2066656520697320726571756972656400000000600082015250565b60006153ab601c83614679565b91506153b682615375565b602082019050919050565b600060208201905081810360008301526153da8161539e565b9050919050565b7f4e487b7100000000000000000000000000000000000000000000000000000000600052603260045260246000fd5b7f4e487b7100000000000000000000000000000000000000000000000000000000600052601260045260246000fd5b600061544a82614006565b915061545583614006565b92508261546557615464615410565b5b828204905092915050565b7f466c6967687420646f6573206e6f742065786973740000000000000000000000600082015250565b60006154a6601583614679565b91506154b182615470565b602082019050919050565b600060208201905081810360008301526154d581615499565b9050919050565b7f416d6f756e74206e6565647320746f2062652067726561746572207468616e2060008201527f3000000000000000000000000000000000000000000000000000000000000000602082015250565b6000615538602183614679565b9150615543826154dc565b604082019050919050565b600060208201905081810360008301526155678161552b565b9050919050565b7f43616e6e6f7420627579206d6f7265207468616e203120455448206f6620696e60008201527f737572616e636500000000000000000000000000000000000000000000000000602082015250565b60006155ca602783614679565b91506155d58261556e565b604082019050919050565b600060208201905081810360008301526155f9816155bd565b9050919050565b7f416c726561647920696e737572656420666f72207468697320666c6967687400600082015250565b6000615636601f83614679565b915061564182615600565b602082019050919050565b6000602082019050818103600083015261566581615629565b9050919050565b7f466c6967687420697320616c726561647920726567697374657265642e000000600082015250565b60006156a2601d83614679565b91506156ad8261566c565b602082019050919050565b600060208201905081810360008301526156d181615695565b9050919050565b7f4169726c696e6520646f6573206e6f74206d656574206d696e696d756d20667560008201527f6e64696e6720746f207265676973746572206120666c696768742e20436f6e7460208201527f7261637420676f7665726e616e63652064656e69656421212100000000000000604082015250565b600061575a605983614679565b9150615765826156d8565b606082019050919050565b600060208201905081810360008301526157898161574d565b9050919050565b7f4e6f74207265676973746572656420617320616e206f7261636c650000000000600082015250565b60006157c6601b83614679565b91506157d182615790565b602082019050919050565b600060208201905081810360008301526157f5816157b9565b9050919050565b7f496e64657820646f6573206e6f74206d61746368206f7261636c65207265717560008201527f6573740000000000000000000000000000000000000000000000000000000000602082015250565b6000615858602383614679565b9150615863826157fc565b604082019050919050565b600060208201905081810360008301526158878161584b565b9050919050565b60008160f81b9050919050565b60006158a68261588e565b9050919050565b6158be6158b982614705565b61589b565b82525050565b6000819050919050565b6158df6158da82614006565b6158c4565b82525050565b60006158f182876158ad565b6001820191506159018286615208565b6014820191506159118285614d6b565b915061591d82846158ce565b60208201915081905095945050505050565b7f466c69676874206f722074696d657374616d7020646f206e6f74206d6174636860008201527f206f7261636c6520726571756573740000000000000000000000000000000000602082015250565b600061598b602f83614679565b91506159968261592f565b604082019050919050565b600060208201905081810360008301526159ba8161597e565b9050919050565b60006080820190506159d660008301876147e5565b81810360208301526159e8818661468a565b90506159f76040830185614010565b615a046060830184614a37565b95945050505050565b7f4169726c696e6520646f6573206e6f74206d656574206d696e696d756d20667560008201527f6e64696e6720746f20766f746520666f7220616e6f74686572206169726c696e60208201527f652e20436f6e747261637420676f7665726e616e63652064656e696564212121604082015250565b6000615a8f606083614679565b9150615a9a82615a0d565b606082019050919050565b60006020820190508181036000830152615abe81615a82565b9050919050565b7f496e76616c696420616464726573730000000000000000000000000000000000600082015250565b6000615afb600f83614679565b9150615b0682615ac5565b602082019050919050565b60006020820190508181036000830152615b2a81615aee565b9050919050565b7f4169726c696e6520697320616c72656164792072656769737465726564000000600082015250565b6000615b67601d83614679565b9150615b7282615b31565b602082019050919050565b60006020820190508181036000830152615b9681615b5a565b9050919050565b7f43616c6c65722068617320616c726561647920766f74656420666f722074686960008201527f73206169726c696e650000000000000000000000000000000000000000000000602082015250565b6000615bf9602983614679565b9150615c0482615b9d565b604082019050919050565b60006020820190508181036000830152615c2881615bec565b9050919050565b7f4f6e6c79206578697374696e67206169726c696e65206d61792072656769737460008201527f65722061206e6577206169726c696e6500000000000000000000000000000000602082015250565b6000615c8b603083614679565b9150615c9682615c2f565b604082019050919050565b60006020820190508181036000830152615cba81615c7e565b9050919050565b7f4169726c696e6520646f6573206e6f74206d656574206d696e696d756d20667560008201527f6e64696e6720746f20726567697374657220616e6f74686572206169726c696e60208201527f652e20436f6e747261637420676f7665726e616e63652064656e696564212121604082015250565b6000615d43606083614679565b9150615d4e82615cc1565b606082019050919050565b60006020820190508181036000830152615d7281615d36565b9050919050565b7f4e656564206d6f7265207468616e2068616c6620766f74657320746f2062652060008201527f726567697374657265642e000000000000000000000000000000000000000000602082015250565b6000615dd5602b83614679565b9150615de082615d79565b604082019050919050565b60006020820190508181036000830152615e0481615dc8565b9050919050565b7f464c6967687420646f6573206e6f742065786973740000000000000000000000600082015250565b6000615e41601583614679565b9150615e4c82615e0b565b602082019050919050565b60006020820190508181036000830152615e7081615e34565b9050919050565b6000608082019050615e8c6000830187614a37565b615e9960208301866147e5565b8181036040830152615eab818561468a565b9050615eba6060830184614010565b95945050505050565b6000615ece82614705565b915060ff8203615ee157615ee0614c91565b5b600182019050919050565b7f466c69676874206973206e6f7420726567697374657265642e00000000000000600082015250565b6000615f22601983614679565b9150615f2d82615eec565b602082019050919050565b60006020820190508181036000830152615f5181615f15565b9050919050565b6000615f6382614006565b9150615f6e83614006565b9250828203905081811115615f8657615f85614c91565b5b92915050565b6000819050919050565b6000819050919050565b615fb1615fac82615f8c565b615f96565b82525050565b6000615fc38286615fa0565b602082019150615fd38285615208565b601482019150615fe382846158ce565b602082019150819050949350505050565b6000615fff82614006565b915061600a83614006565b92508261601a57616019615410565b5b82820690509291505056fea2646970667358221220a070f8115d4bf97c775eb5140183177e4879edb540c28a9c51abda2f8d4f954d64736f6c63430008130033","opcodes":"PUSH1 0x80 PUSH1 0x40 MSTORE PUSH1 0x1 PUSH1 0x2 PUSH1 0x0 PUSH2 0x100 EXP DUP2 SLOAD DUP2 PUSH1 0xFF MUL NOT AND SWAP1 DUP4 ISZERO ISZERO MUL OR SWAP1 SSTORE POP PUSH1 0x0 PUSH1 0xD SSTORE PUSH1 0xA PUSH1 0xE PUSH1 0x0 PUSH2 0x100 EXP DUP2 SLOAD DUP2 PUSH1 0xFF MUL NOT AND SWAP1 DUP4 PUSH1 0xFF AND MUL OR SWAP1 SSTORE POP CALLVALUE DUP1 ISZERO PUSH3 0x4D JUMPI PUSH1 0x0 DUP1 REVERT JUMPDEST POP PUSH1 0x40 MLOAD PUSH3 0x684B CODESIZE SUB DUP1 PUSH3 0x684B DUP4 CODECOPY DUP2 DUP2 ADD PUSH1 0x40 MSTORE DUP2 ADD SWAP1 PUSH3 0x73 SWAP2 SWAP1 PUSH3 0x3D1 JUMP JUMPDEST DUP1 CALLER PUSH1 0x0 DUP1 PUSH2 0x100 EXP DUP2 SLOAD DUP2 PUSH20 0xFFFFFFFFFFFFFFFFFFFFFFFFFFFFFFFFFFFFFFFF MUL NOT AND SWAP1 DUP4 PUSH20 0xFFFFFFFFFFFFFFFFFFFFFFFFFFFFFFFFFFFFFFFF AND MUL OR SWAP1 SSTORE POP PUSH1 0x4 DUP2 SWAP1 DUP1 PUSH1 0x1 DUP2 SLOAD ADD DUP1 DUP3 SSTORE DUP1 SWAP2 POP POP PUSH1 0x1 SWAP1 SUB SWAP1 PUSH1 0x0 MSTORE PUSH1 0x20 PUSH1 0x0 KECCAK256 ADD PUSH1 0x0 SWAP1 SWAP2 SWAP1 SWAP2 SWAP1 SWAP2 PUSH2 0x100 EXP DUP2 SLOAD DUP2 PUSH20 0xFFFFFFFFFFFFFFFFFFFFFFFFFFFFFFFFFFFFFFFF MUL NOT AND SWAP1 DUP4 PUSH20 0xFFFFFFFFFFFFFFFFFFFFFFFFFFFFFFFFFFFFFFFF AND MUL OR SWAP1 SSTORE POP PUSH1 0x40 MLOAD DUP1 PUSH1 0x80 ADD PUSH1 0x40 MSTORE DUP1 PUSH1 0x40 MLOAD DUP1 PUSH1 0x40 ADD PUSH1 0x40 MSTORE DUP1 PUSH1 0xA DUP2 MSTORE PUSH1 0x20 ADD PUSH32 0x4D79204169726C696E6500000000000000000000000000000000000000000000 DUP2 MSTORE POP DUP2 MSTORE PUSH1 0x20 ADD DUP3 PUSH20 0xFFFFFFFFFFFFFFFFFFFFFFFFFFFFFFFFFFFFFFFF AND DUP2 MSTORE PUSH1 0x20 ADD PUSH1 0x1 ISZERO ISZERO DUP2 MSTORE PUSH1 0x20 ADD PUSH8 0x8AC7230489E80000 DUP2 MSTORE POP PUSH1 0x5 PUSH1 0x0 DUP4 PUSH20 0xFFFFFFFFFFFFFFFFFFFFFFFFFFFFFFFFFFFFFFFF AND PUSH20 0xFFFFFFFFFFFFFFFFFFFFFFFFFFFFFFFFFFFFFFFF AND DUP2 MSTORE PUSH1 0x20 ADD SWAP1 DUP2 MSTORE PUSH1 0x20 ADD PUSH1 0x0 KECCAK256 PUSH1 0x0 DUP3 ADD MLOAD DUP2 PUSH1 0x0 ADD SWAP1 DUP2 PUSH3 0x1E4 SWAP2 SWAP1 PUSH3 0x67D JUMP JUMPDEST POP PUSH1 0x20 DUP3 ADD MLOAD DUP2 PUSH1 0x1 ADD PUSH1 0x0 PUSH2 0x100 EXP DUP2 SLOAD DUP2 PUSH20 0xFFFFFFFFFFFFFFFFFFFFFFFFFFFFFFFFFFFFFFFF MUL NOT AND SWAP1 DUP4 PUSH20 0xFFFFFFFFFFFFFFFFFFFFFFFFFFFFFFFFFFFFFFFF AND MUL OR SWAP1 SSTORE POP PUSH1 0x40 DUP3 ADD MLOAD DUP2 PUSH1 0x1 ADD PUSH1 0x14 PUSH2 0x100 EXP DUP2 SLOAD DUP2 PUSH1 0xFF MUL NOT AND SWAP1 DUP4 ISZERO ISZERO MUL OR SWAP1 SSTORE POP PUSH1 0x60 DUP3 ADD MLOAD DUP2 PUSH1 0x2 ADD SSTORE SWAP1 POP POP PUSH1 0x1 PUSH1 0x8 PUSH1 0x0 DUP4 PUSH20 0xFFFFFFFFFFFFFFFFFFFFFFFFFFFFFFFFFFFFFFFF AND PUSH20 0xFFFFFFFFFFFFFFFFFFFFFFFFFFFFFFFFFFFFFFFF AND DUP2 MSTORE PUSH1 0x20 ADD SWAP1 DUP2 MSTORE PUSH1 0x20 ADD PUSH1 0x0 KECCAK256 DUP2 SWAP1 SSTORE POP PUSH1 0x1 PUSH1 0x8 PUSH1 0x0 DUP1 PUSH1 0x0 SWAP1 SLOAD SWAP1 PUSH2 0x100 EXP SWAP1 DIV PUSH20 0xFFFFFFFFFFFFFFFFFFFFFFFFFFFFFFFFFFFFFFFF AND PUSH20 0xFFFFFFFFFFFFFFFFFFFFFFFFFFFFFFFFFFFFFFFF AND PUSH20 0xFFFFFFFFFFFFFFFFFFFFFFFFFFFFFFFFFFFFFFFF AND DUP2 MSTORE PUSH1 0x20 ADD SWAP1 DUP2 MSTORE PUSH1 0x20 ADD PUSH1 0x0 KECCAK256 DUP2 SWAP1 SSTORE POP PUSH1 0x1 PUSH1 0x0 DUP2 SLOAD DUP1 SWAP3 SWAP2 SWAP1 PUSH3 0x319 SWAP1 PUSH3 0x793 JUMP JUMPDEST SWAP2 SWAP1 POP SSTORE POP POP CALLER PUSH1 0xB PUSH1 0x0 PUSH2 0x100 EXP DUP2 SLOAD DUP2 PUSH20 0xFFFFFFFFFFFFFFFFFFFFFFFFFFFFFFFFFFFFFFFF MUL NOT AND SWAP1 DUP4 PUSH20 0xFFFFFFFFFFFFFFFFFFFFFFFFFFFFFFFFFFFFFFFF AND MUL OR SWAP1 SSTORE POP POP PUSH3 0x7E0 JUMP JUMPDEST PUSH1 0x0 DUP1 REVERT JUMPDEST PUSH1 0x0 PUSH20 0xFFFFFFFFFFFFFFFFFFFFFFFFFFFFFFFFFFFFFFFF DUP3 AND SWAP1 POP SWAP2 SWAP1 POP JUMP JUMPDEST PUSH1 0x0 PUSH3 0x399 DUP3 PUSH3 0x36C JUMP JUMPDEST SWAP1 POP SWAP2 SWAP1 POP JUMP JUMPDEST PUSH3 0x3AB DUP2 PUSH3 0x38C JUMP JUMPDEST DUP2 EQ PUSH3 0x3B7 JUMPI PUSH1 0x0 DUP1 REVERT JUMPDEST POP JUMP JUMPDEST PUSH1 0x0 DUP2 MLOAD SWAP1 POP PUSH3 0x3CB DUP2 PUSH3 0x3A0 JUMP JUMPDEST SWAP3 SWAP2 POP POP JUMP JUMPDEST PUSH1 0x0 PUSH1 0x20 DUP3 DUP5 SUB SLT ISZERO PUSH3 0x3EA JUMPI PUSH3 0x3E9 PUSH3 0x367 JUMP JUMPDEST JUMPDEST PUSH1 0x0 PUSH3 0x3FA DUP5 DUP3 DUP6 ADD PUSH3 0x3BA JUMP JUMPDEST SWAP2 POP POP SWAP3 SWAP2 POP POP JUMP JUMPDEST PUSH1 0x0 DUP2 MLOAD SWAP1 POP SWAP2 SWAP1 POP JUMP JUMPDEST PUSH32 0x4E487B7100000000000000000000000000000000000000000000000000000000 PUSH1 0x0 MSTORE PUSH1 0x41 PUSH1 0x4 MSTORE PUSH1 0x24 PUSH1 0x0 REVERT JUMPDEST PUSH32 0x4E487B7100000000000000000000000000000000000000000000000000000000 PUSH1 0x0 MSTORE PUSH1 0x22 PUSH1 0x4 MSTORE PUSH1 0x24 PUSH1 0x0 REVERT JUMPDEST PUSH1 0x0 PUSH1 0x2 DUP3 DIV SWAP1 POP PUSH1 0x1 DUP3 AND DUP1 PUSH3 0x485 JUMPI PUSH1 0x7F DUP3 AND SWAP2 POP JUMPDEST PUSH1 0x20 DUP3 LT DUP2 SUB PUSH3 0x49B JUMPI PUSH3 0x49A PUSH3 0x43D JUMP JUMPDEST JUMPDEST POP SWAP2 SWAP1 POP JUMP JUMPDEST PUSH1 0x0 DUP2 SWAP1 POP DUP2 PUSH1 0x0 MSTORE PUSH1 0x20 PUSH1 0x0 KECCAK256 SWAP1 POP SWAP2 SWAP1 POP JUMP JUMPDEST PUSH1 0x0 PUSH1 0x20 PUSH1 0x1F DUP4 ADD DIV SWAP1 POP SWAP2 SWAP1 POP JUMP JUMPDEST PUSH1 0x0 DUP3 DUP3 SHL SWAP1 POP SWAP3 SWAP2 POP POP JUMP JUMPDEST PUSH1 0x0 PUSH1 0x8 DUP4 MUL PUSH3 0x505 PUSH32 0xFFFFFFFFFFFFFFFFFFFFFFFFFFFFFFFFFFFFFFFFFFFFFFFFFFFFFFFFFFFFFFFF DUP3 PUSH3 0x4C6 JUMP JUMPDEST PUSH3 0x511 DUP7 DUP4 PUSH3 0x4C6 JUMP JUMPDEST SWAP6 POP DUP1 NOT DUP5 AND SWAP4 POP DUP1 DUP7 AND DUP5 OR SWAP3 POP POP POP SWAP4 SWAP3 POP POP POP JUMP JUMPDEST PUSH1 0x0 DUP2 SWAP1 POP SWAP2 SWAP1 POP JUMP JUMPDEST PUSH1 0x0 DUP2 SWAP1 POP SWAP2 SWAP1 POP JUMP JUMPDEST PUSH1 0x0 PUSH3 0x55E PUSH3 0x558 PUSH3 0x552 DUP5 PUSH3 0x529 JUMP JUMPDEST PUSH3 0x533 JUMP JUMPDEST PUSH3 0x529 JUMP JUMPDEST SWAP1 POP SWAP2 SWAP1 POP JUMP JUMPDEST PUSH1 0x0 DUP2 SWAP1 POP SWAP2 SWAP1 POP JUMP JUMPDEST PUSH3 0x57A DUP4 PUSH3 0x53D JUMP JUMPDEST PUSH3 0x592 PUSH3 0x589 DUP3 PUSH3 0x565 JUMP JUMPDEST DUP5 DUP5 SLOAD PUSH3 0x4D3 JUMP JUMPDEST DUP3 SSTORE POP POP POP POP JUMP JUMPDEST PUSH1 0x0 SWAP1 JUMP JUMPDEST PUSH3 0x5A9 PUSH3 0x59A JUMP JUMPDEST PUSH3 0x5B6 DUP2 DUP5 DUP5 PUSH3 0x56F JUMP JUMPDEST POP POP POP JUMP JUMPDEST JUMPDEST DUP2 DUP2 LT ISZERO PUSH3 0x5DE JUMPI PUSH3 0x5D2 PUSH1 0x0 DUP3 PUSH3 0x59F JUMP JUMPDEST PUSH1 0x1 DUP2 ADD SWAP1 POP PUSH3 0x5BC JUMP JUMPDEST POP POP JUMP JUMPDEST PUSH1 0x1F DUP3 GT ISZERO PUSH3 0x62D JUMPI PUSH3 0x5F7 DUP2 PUSH3 0x4A1 JUMP JUMPDEST PUSH3 0x602 DUP5 PUSH3 0x4B6 JUMP JUMPDEST DUP2 ADD PUSH1 0x20 DUP6 LT ISZERO PUSH3 0x612 JUMPI DUP2 SWAP1 POP JUMPDEST PUSH3 0x62A PUSH3 0x621 DUP6 PUSH3 0x4B6 JUMP JUMPDEST DUP4 ADD DUP3 PUSH3 0x5BB JUMP JUMPDEST POP POP JUMPDEST POP POP POP JUMP JUMPDEST PUSH1 0x0 DUP3 DUP3 SHR SWAP1 POP SWAP3 SWAP2 POP POP JUMP JUMPDEST PUSH1 0x0 PUSH3 0x652 PUSH1 0x0 NOT DUP5 PUSH1 0x8 MUL PUSH3 0x632 JUMP JUMPDEST NOT DUP1 DUP4 AND SWAP2 POP POP SWAP3 SWAP2 POP POP JUMP JUMPDEST PUSH1 0x0 PUSH3 0x66D DUP4 DUP4 PUSH3 0x63F JUMP JUMPDEST SWAP2 POP DUP3 PUSH1 0x2 MUL DUP3 OR SWAP1 POP SWAP3 SWAP2 POP POP JUMP JUMPDEST PUSH3 0x688 DUP3 PUSH3 0x403 JUMP JUMPDEST PUSH8 0xFFFFFFFFFFFFFFFF DUP2 GT ISZERO PUSH3 0x6A4 JUMPI PUSH3 0x6A3 PUSH3 0x40E JUMP JUMPDEST JUMPDEST PUSH3 0x6B0 DUP3 SLOAD PUSH3 0x46C JUMP JUMPDEST PUSH3 0x6BD DUP3 DUP3 DUP6 PUSH3 0x5E2 JUMP JUMPDEST PUSH1 0x0 PUSH1 0x20 SWAP1 POP PUSH1 0x1F DUP4 GT PUSH1 0x1 DUP2 EQ PUSH3 0x6F5 JUMPI PUSH1 0x0 DUP5 ISZERO PUSH3 0x6E0 JUMPI DUP3 DUP8 ADD MLOAD SWAP1 POP JUMPDEST PUSH3 0x6EC DUP6 DUP3 PUSH3 0x65F JUMP JUMPDEST DUP7 SSTORE POP PUSH3 0x75C JUMP JUMPDEST PUSH1 0x1F NOT DUP5 AND PUSH3 0x705 DUP7 PUSH3 0x4A1 JUMP JUMPDEST PUSH1 0x0 JUMPDEST DUP3 DUP2 LT ISZERO PUSH3 0x72F JUMPI DUP5 DUP10 ADD MLOAD DUP3 SSTORE PUSH1 0x1 DUP3 ADD SWAP2 POP PUSH1 0x20 DUP6 ADD SWAP5 POP PUSH1 0x20 DUP2 ADD SWAP1 POP PUSH3 0x708 JUMP JUMPDEST DUP7 DUP4 LT ISZERO PUSH3 0x74F JUMPI DUP5 DUP10 ADD MLOAD PUSH3 0x74B PUSH1 0x1F DUP10 AND DUP3 PUSH3 0x63F JUMP JUMPDEST DUP4 SSTORE POP JUMPDEST PUSH1 0x1 PUSH1 0x2 DUP9 MUL ADD DUP9 SSTORE POP POP POP JUMPDEST POP POP POP POP POP POP JUMP JUMPDEST PUSH32 0x4E487B7100000000000000000000000000000000000000000000000000000000 PUSH1 0x0 MSTORE PUSH1 0x11 PUSH1 0x4 MSTORE PUSH1 0x24 PUSH1 0x0 REVERT JUMPDEST PUSH1 0x0 PUSH3 0x7A0 DUP3 PUSH3 0x529 JUMP JUMPDEST SWAP2 POP PUSH32 0xFFFFFFFFFFFFFFFFFFFFFFFFFFFFFFFFFFFFFFFFFFFFFFFFFFFFFFFFFFFFFFFF DUP3 SUB PUSH3 0x7D5 JUMPI PUSH3 0x7D4 PUSH3 0x764 JUMP JUMPDEST JUMPDEST PUSH1 0x1 DUP3 ADD SWAP1 POP SWAP2 SWAP1 POP JUMP JUMPDEST PUSH2 0x605B DUP1 PUSH3 0x7F0 PUSH1 0x0 CODECOPY PUSH1 0x0 RETURN INVALID PUSH1 0x80 PUSH1 0x40 MSTORE PUSH1 0x4 CALLDATASIZE LT PUSH2 0x23F JUMPI PUSH1 0x0 CALLDATALOAD PUSH1 0xE0 SHR DUP1 PUSH4 0x4CC7DBEE GT PUSH2 0x12E JUMPI DUP1 PUSH4 0xA1A5FAF1 GT PUSH2 0xAB JUMPI DUP1 PUSH4 0xCD905DFF GT PUSH2 0x6F JUMPI DUP1 PUSH4 0xCD905DFF EQ PUSH2 0x881 JUMPI DUP1 PUSH4 0xD8AB5B89 EQ PUSH2 0x8AC JUMPI DUP1 PUSH4 0xEBC5C8EA EQ PUSH2 0x8D5 JUMPI DUP1 PUSH4 0xEE38A749 EQ PUSH2 0x912 JUMPI DUP1 PUSH4 0xF83F11C0 EQ PUSH2 0x93B JUMPI PUSH2 0x24E JUMP JUMPDEST DUP1 PUSH4 0xA1A5FAF1 EQ PUSH2 0x7AB JUMPI DUP1 PUSH4 0xAB900D24 EQ PUSH2 0x7D4 JUMPI DUP1 PUSH4 0xB5BB52D7 EQ PUSH2 0x811 JUMPI DUP1 PUSH4 0xB60D4288 EQ PUSH2 0x84E JUMPI DUP1 PUSH4 0xC10F2700 EQ PUSH2 0x858 JUMPI PUSH2 0x24E JUMP JUMPDEST DUP1 PUSH4 0x720C7CBB GT PUSH2 0xF2 JUMPI DUP1 PUSH4 0x720C7CBB EQ PUSH2 0x69C JUMPI DUP1 PUSH4 0x8F32D59B EQ PUSH2 0x6DB JUMPI DUP1 PUSH4 0x94C260EE EQ PUSH2 0x706 JUMPI DUP1 PUSH4 0x94E2177A EQ PUSH2 0x731 JUMPI DUP1 PUSH4 0x9AB24EB0 EQ PUSH2 0x76E JUMPI PUSH2 0x24E JUMP JUMPDEST DUP1 PUSH4 0x4CC7DBEE EQ PUSH2 0x5A1 JUMPI DUP1 PUSH4 0x524B6100 EQ PUSH2 0x5CC JUMPI DUP1 PUSH4 0x5F1CC0E6 EQ PUSH2 0x609 JUMPI DUP1 PUSH4 0x64B4F751 EQ PUSH2 0x634 JUMPI DUP1 PUSH4 0x64DCB7BF EQ PUSH2 0x65F JUMPI PUSH2 0x24E JUMP JUMPDEST DUP1 PUSH4 0x339D2590 GT PUSH2 0x1BC JUMPI DUP1 PUSH4 0x487D7200 GT PUSH2 0x180 JUMPI DUP1 PUSH4 0x487D7200 EQ PUSH2 0x4E1 JUMPI DUP1 PUSH4 0x490E1F66 EQ PUSH2 0x50A JUMPI DUP1 PUSH4 0x492CC769 EQ PUSH2 0x533 JUMPI DUP1 PUSH4 0x49B24807 EQ PUSH2 0x54F JUMPI DUP1 PUSH4 0x4C8D0274 EQ PUSH2 0x578 JUMPI PUSH2 0x24E JUMP JUMPDEST DUP1 PUSH4 0x339D2590 EQ PUSH2 0x41D JUMPI DUP1 PUSH4 0x39004B27 EQ PUSH2 0x427 JUMPI DUP1 PUSH4 0x3AFB50D7 EQ PUSH2 0x450 JUMPI DUP1 PUSH4 0x3FCF1CF4 EQ PUSH2 0x47B JUMPI DUP1 PUSH4 0x46EE941A EQ PUSH2 0x4A4 JUMPI PUSH2 0x24E JUMP JUMPDEST DUP1 PUSH4 0x1D630670 GT PUSH2 0x203 JUMPI DUP1 PUSH4 0x1D630670 EQ PUSH2 0x33A JUMPI DUP1 PUSH4 0x29DF66CC EQ PUSH2 0x363 JUMPI DUP1 PUSH4 0x29E18E5D EQ PUSH2 0x38C JUMPI DUP1 PUSH4 0x2B66D72E EQ PUSH2 0x3B7 JUMPI DUP1 PUSH4 0x2CA8EB0E EQ PUSH2 0x3E0 JUMPI PUSH2 0x24E JUMP JUMPDEST DUP1 PUSH4 0x10C5C97 EQ PUSH2 0x253 JUMPI DUP1 PUSH4 0x5E931F4 EQ PUSH2 0x290 JUMPI DUP1 PUSH4 0xD1DB1F0 EQ PUSH2 0x2BB JUMPI DUP1 PUSH4 0x110466ED EQ PUSH2 0x2E6 JUMPI DUP1 PUSH4 0x12065FE0 EQ PUSH2 0x30F JUMPI PUSH2 0x24E JUMP JUMPDEST CALLDATASIZE PUSH2 0x24E JUMPI PUSH2 0x24C PUSH2 0x964 JUMP JUMPDEST STOP JUMPDEST PUSH1 0x0 DUP1 REVERT JUMPDEST CALLVALUE DUP1 ISZERO PUSH2 0x25F JUMPI PUSH1 0x0 DUP1 REVERT JUMPDEST POP PUSH2 0x27A PUSH1 0x4 DUP1 CALLDATASIZE SUB DUP2 ADD SWAP1 PUSH2 0x275 SWAP2 SWAP1 PUSH2 0x3FA3 JUMP JUMPDEST PUSH2 0xA9D JUMP JUMPDEST PUSH1 0x40 MLOAD PUSH2 0x287 SWAP2 SWAP1 PUSH2 0x3FEB JUMP JUMPDEST PUSH1 0x40 MLOAD DUP1 SWAP2 SUB SWAP1 RETURN JUMPDEST CALLVALUE DUP1 ISZERO PUSH2 0x29C JUMPI PUSH1 0x0 DUP1 REVERT JUMPDEST POP PUSH2 0x2A5 PUSH2 0xB45 JUMP JUMPDEST PUSH1 0x40 MLOAD PUSH2 0x2B2 SWAP2 SWAP1 PUSH2 0x401F JUMP JUMPDEST PUSH1 0x40 MLOAD DUP1 SWAP2 SUB SWAP1 RETURN JUMPDEST CALLVALUE DUP1 ISZERO PUSH2 0x2C7 JUMPI PUSH1 0x0 DUP1 REVERT JUMPDEST POP PUSH2 0x2D0 PUSH2 0xB9E JUMP JUMPDEST PUSH1 0x40 MLOAD PUSH2 0x2DD SWAP2 SWAP1 PUSH2 0x3FEB JUMP JUMPDEST PUSH1 0x40 MLOAD DUP1 SWAP2 SUB SWAP1 RETURN JUMPDEST CALLVALUE DUP1 ISZERO PUSH2 0x2F2 JUMPI PUSH1 0x0 DUP1 REVERT JUMPDEST POP PUSH2 0x30D PUSH1 0x4 DUP1 CALLDATASIZE SUB DUP2 ADD SWAP1 PUSH2 0x308 SWAP2 SWAP1 PUSH2 0x4066 JUMP JUMPDEST PUSH2 0xBF5 JUMP JUMPDEST STOP JUMPDEST CALLVALUE DUP1 ISZERO PUSH2 0x31B JUMPI PUSH1 0x0 DUP1 REVERT JUMPDEST POP PUSH2 0x324 PUSH2 0xCD7 JUMP JUMPDEST PUSH1 0x40 MLOAD PUSH2 0x331 SWAP2 SWAP1 PUSH2 0x401F JUMP JUMPDEST PUSH1 0x40 MLOAD DUP1 SWAP2 SUB SWAP1 RETURN JUMPDEST CALLVALUE DUP1 ISZERO PUSH2 0x346 JUMPI PUSH1 0x0 DUP1 REVERT JUMPDEST POP PUSH2 0x361 PUSH1 0x4 DUP1 CALLDATASIZE SUB DUP2 ADD SWAP1 PUSH2 0x35C SWAP2 SWAP1 PUSH2 0x41D9 JUMP JUMPDEST PUSH2 0xD2E JUMP JUMPDEST STOP JUMPDEST CALLVALUE DUP1 ISZERO PUSH2 0x36F JUMPI PUSH1 0x0 DUP1 REVERT JUMPDEST POP PUSH2 0x38A PUSH1 0x4 DUP1 CALLDATASIZE SUB DUP2 ADD SWAP1 PUSH2 0x385 SWAP2 SWAP1 PUSH2 0x4222 JUMP JUMPDEST PUSH2 0xDB7 JUMP JUMPDEST STOP JUMPDEST CALLVALUE DUP1 ISZERO PUSH2 0x398 JUMPI PUSH1 0x0 DUP1 REVERT JUMPDEST POP PUSH2 0x3A1 PUSH2 0x1050 JUMP JUMPDEST PUSH1 0x40 MLOAD PUSH2 0x3AE SWAP2 SWAP1 PUSH2 0x401F JUMP JUMPDEST PUSH1 0x40 MLOAD DUP1 SWAP2 SUB SWAP1 RETURN JUMPDEST CALLVALUE DUP1 ISZERO PUSH2 0x3C3 JUMPI PUSH1 0x0 DUP1 REVERT JUMPDEST POP PUSH2 0x3DE PUSH1 0x4 DUP1 CALLDATASIZE SUB DUP2 ADD SWAP1 PUSH2 0x3D9 SWAP2 SWAP1 PUSH2 0x41D9 JUMP JUMPDEST PUSH2 0x105C JUMP JUMPDEST STOP JUMPDEST CALLVALUE DUP1 ISZERO PUSH2 0x3EC JUMPI PUSH1 0x0 DUP1 REVERT JUMPDEST POP PUSH2 0x407 PUSH1 0x4 DUP1 CALLDATASIZE SUB DUP2 ADD SWAP1 PUSH2 0x402 SWAP2 SWAP1 PUSH2 0x41D9 JUMP JUMPDEST PUSH2 0x12B4 JUMP JUMPDEST PUSH1 0x40 MLOAD PUSH2 0x414 SWAP2 SWAP1 PUSH2 0x401F JUMP JUMPDEST PUSH1 0x40 MLOAD DUP1 SWAP2 SUB SWAP1 RETURN JUMPDEST PUSH2 0x425 PUSH2 0x1351 JUMP JUMPDEST STOP JUMPDEST CALLVALUE DUP1 ISZERO PUSH2 0x433 JUMPI PUSH1 0x0 DUP1 REVERT JUMPDEST POP PUSH2 0x44E PUSH1 0x4 DUP1 CALLDATASIZE SUB DUP2 ADD SWAP1 PUSH2 0x449 SWAP2 SWAP1 PUSH2 0x3FA3 JUMP JUMPDEST PUSH2 0x143E JUMP JUMPDEST STOP JUMPDEST CALLVALUE DUP1 ISZERO PUSH2 0x45C JUMPI PUSH1 0x0 DUP1 REVERT JUMPDEST POP PUSH2 0x465 PUSH2 0x1498 JUMP JUMPDEST PUSH1 0x40 MLOAD PUSH2 0x472 SWAP2 SWAP1 PUSH2 0x433C JUMP JUMPDEST PUSH1 0x40 MLOAD DUP1 SWAP2 SUB SWAP1 RETURN JUMPDEST CALLVALUE DUP1 ISZERO PUSH2 0x487 JUMPI PUSH1 0x0 DUP1 REVERT JUMPDEST POP PUSH2 0x4A2 PUSH1 0x4 DUP1 CALLDATASIZE SUB DUP2 ADD SWAP1 PUSH2 0x49D SWAP2 SWAP1 PUSH2 0x41D9 JUMP JUMPDEST PUSH2 0x1575 JUMP JUMPDEST STOP JUMPDEST CALLVALUE DUP1 ISZERO PUSH2 0x4B0 JUMPI PUSH1 0x0 DUP1 REVERT JUMPDEST POP PUSH2 0x4CB PUSH1 0x4 DUP1 CALLDATASIZE SUB DUP2 ADD SWAP1 PUSH2 0x4C6 SWAP2 SWAP1 PUSH2 0x3FA3 JUMP JUMPDEST PUSH2 0x1761 JUMP JUMPDEST PUSH1 0x40 MLOAD PUSH2 0x4D8 SWAP2 SWAP1 PUSH2 0x433C JUMP JUMPDEST PUSH1 0x40 MLOAD DUP1 SWAP2 SUB SWAP1 RETURN JUMPDEST CALLVALUE DUP1 ISZERO PUSH2 0x4ED JUMPI PUSH1 0x0 DUP1 REVERT JUMPDEST POP PUSH2 0x508 PUSH1 0x4 DUP1 CALLDATASIZE SUB DUP2 ADD SWAP1 PUSH2 0x503 SWAP2 SWAP1 PUSH2 0x3FA3 JUMP JUMPDEST PUSH2 0x187D JUMP JUMPDEST STOP JUMPDEST CALLVALUE DUP1 ISZERO PUSH2 0x516 JUMPI PUSH1 0x0 DUP1 REVERT JUMPDEST POP PUSH2 0x531 PUSH1 0x4 DUP1 CALLDATASIZE SUB DUP2 ADD SWAP1 PUSH2 0x52C SWAP2 SWAP1 PUSH2 0x438A JUMP JUMPDEST PUSH2 0x19E5 JUMP JUMPDEST STOP JUMPDEST PUSH2 0x54D PUSH1 0x4 DUP1 CALLDATASIZE SUB DUP2 ADD SWAP1 PUSH2 0x548 SWAP2 SWAP1 PUSH2 0x41D9 JUMP JUMPDEST PUSH2 0x1A91 JUMP JUMPDEST STOP JUMPDEST CALLVALUE DUP1 ISZERO PUSH2 0x55B JUMPI PUSH1 0x0 DUP1 REVERT JUMPDEST POP PUSH2 0x576 PUSH1 0x4 DUP1 CALLDATASIZE SUB DUP2 ADD SWAP1 PUSH2 0x571 SWAP2 SWAP1 PUSH2 0x43CA JUMP JUMPDEST PUSH2 0x1E5A JUMP JUMPDEST STOP JUMPDEST CALLVALUE DUP1 ISZERO PUSH2 0x584 JUMPI PUSH1 0x0 DUP1 REVERT JUMPDEST POP PUSH2 0x59F PUSH1 0x4 DUP1 CALLDATASIZE SUB DUP2 ADD SWAP1 PUSH2 0x59A SWAP2 SWAP1 PUSH2 0x4455 JUMP JUMPDEST PUSH2 0x2155 JUMP JUMPDEST STOP JUMPDEST CALLVALUE DUP1 ISZERO PUSH2 0x5AD JUMPI PUSH1 0x0 DUP1 REVERT JUMPDEST POP PUSH2 0x5B6 PUSH2 0x2248 JUMP JUMPDEST PUSH1 0x40 MLOAD PUSH2 0x5C3 SWAP2 SWAP1 PUSH2 0x4657 JUMP JUMPDEST PUSH1 0x40 MLOAD DUP1 SWAP2 SUB SWAP1 RETURN JUMPDEST CALLVALUE DUP1 ISZERO PUSH2 0x5D8 JUMPI PUSH1 0x0 DUP1 REVERT JUMPDEST POP PUSH2 0x5F3 PUSH1 0x4 DUP1 CALLDATASIZE SUB DUP2 ADD SWAP1 PUSH2 0x5EE SWAP2 SWAP1 PUSH2 0x3FA3 JUMP JUMPDEST PUSH2 0x248B JUMP JUMPDEST PUSH1 0x40 MLOAD PUSH2 0x600 SWAP2 SWAP1 PUSH2 0x46C3 JUMP JUMPDEST PUSH1 0x40 MLOAD DUP1 SWAP2 SUB SWAP1 RETURN JUMPDEST CALLVALUE DUP1 ISZERO PUSH2 0x615 JUMPI PUSH1 0x0 DUP1 REVERT JUMPDEST POP PUSH2 0x61E PUSH2 0x25AE JUMP JUMPDEST PUSH1 0x40 MLOAD PUSH2 0x62B SWAP2 SWAP1 PUSH2 0x479D JUMP JUMPDEST PUSH1 0x40 MLOAD DUP1 SWAP2 SUB SWAP1 RETURN JUMPDEST CALLVALUE DUP1 ISZERO PUSH2 0x640 JUMPI PUSH1 0x0 DUP1 REVERT JUMPDEST POP PUSH2 0x649 PUSH2 0x26EE JUMP JUMPDEST PUSH1 0x40 MLOAD PUSH2 0x656 SWAP2 SWAP1 PUSH2 0x401F JUMP JUMPDEST PUSH1 0x40 MLOAD DUP1 SWAP2 SUB SWAP1 RETURN JUMPDEST CALLVALUE DUP1 ISZERO PUSH2 0x66B JUMPI PUSH1 0x0 DUP1 REVERT JUMPDEST POP PUSH2 0x686 PUSH1 0x4 DUP1 CALLDATASIZE SUB DUP2 ADD SWAP1 PUSH2 0x681 SWAP2 SWAP1 PUSH2 0x47B8 JUMP JUMPDEST PUSH2 0x26FA JUMP JUMPDEST PUSH1 0x40 MLOAD PUSH2 0x693 SWAP2 SWAP1 PUSH2 0x47F4 JUMP JUMPDEST PUSH1 0x40 MLOAD DUP1 SWAP2 SUB SWAP1 RETURN JUMPDEST CALLVALUE DUP1 ISZERO PUSH2 0x6A8 JUMPI PUSH1 0x0 DUP1 REVERT JUMPDEST POP PUSH2 0x6C3 PUSH1 0x4 DUP1 CALLDATASIZE SUB DUP2 ADD SWAP1 PUSH2 0x6BE SWAP2 SWAP1 PUSH2 0x3FA3 JUMP JUMPDEST PUSH2 0x2739 JUMP JUMPDEST PUSH1 0x40 MLOAD PUSH2 0x6D2 SWAP4 SWAP3 SWAP2 SWAP1 PUSH2 0x480F JUMP JUMPDEST PUSH1 0x40 MLOAD DUP1 SWAP2 SUB SWAP1 RETURN JUMPDEST CALLVALUE DUP1 ISZERO PUSH2 0x6E7 JUMPI PUSH1 0x0 DUP1 REVERT JUMPDEST POP PUSH2 0x6F0 PUSH2 0x2905 JUMP JUMPDEST PUSH1 0x40 MLOAD PUSH2 0x6FD SWAP2 SWAP1 PUSH2 0x3FEB JUMP JUMPDEST PUSH1 0x40 MLOAD DUP1 SWAP2 SUB SWAP1 RETURN JUMPDEST CALLVALUE DUP1 ISZERO PUSH2 0x712 JUMPI PUSH1 0x0 DUP1 REVERT JUMPDEST POP PUSH2 0x71B PUSH2 0x295C JUMP JUMPDEST PUSH1 0x40 MLOAD PUSH2 0x728 SWAP2 SWAP1 PUSH2 0x49B9 JUMP JUMPDEST PUSH1 0x40 MLOAD DUP1 SWAP2 SUB SWAP1 RETURN JUMPDEST CALLVALUE DUP1 ISZERO PUSH2 0x73D JUMPI PUSH1 0x0 DUP1 REVERT JUMPDEST POP PUSH2 0x758 PUSH1 0x4 DUP1 CALLDATASIZE SUB DUP2 ADD SWAP1 PUSH2 0x753 SWAP2 SWAP1 PUSH2 0x3FA3 JUMP JUMPDEST PUSH2 0x2C95 JUMP JUMPDEST PUSH1 0x40 MLOAD PUSH2 0x765 SWAP2 SWAP1 PUSH2 0x401F JUMP JUMPDEST PUSH1 0x40 MLOAD DUP1 SWAP2 SUB SWAP1 RETURN JUMPDEST CALLVALUE DUP1 ISZERO PUSH2 0x77A JUMPI PUSH1 0x0 DUP1 REVERT JUMPDEST POP PUSH2 0x795 PUSH1 0x4 DUP1 CALLDATASIZE SUB DUP2 ADD SWAP1 PUSH2 0x790 SWAP2 SWAP1 PUSH2 0x3FA3 JUMP JUMPDEST PUSH2 0x2D30 JUMP JUMPDEST PUSH1 0x40 MLOAD PUSH2 0x7A2 SWAP2 SWAP1 PUSH2 0x401F JUMP JUMPDEST PUSH1 0x40 MLOAD DUP1 SWAP2 SUB SWAP1 RETURN JUMPDEST CALLVALUE DUP1 ISZERO PUSH2 0x7B7 JUMPI PUSH1 0x0 DUP1 REVERT JUMPDEST POP PUSH2 0x7D2 PUSH1 0x4 DUP1 CALLDATASIZE SUB DUP2 ADD SWAP1 PUSH2 0x7CD SWAP2 SWAP1 PUSH2 0x3FA3 JUMP JUMPDEST PUSH2 0x2DC8 JUMP JUMPDEST STOP JUMPDEST CALLVALUE DUP1 ISZERO PUSH2 0x7E0 JUMPI PUSH1 0x0 DUP1 REVERT JUMPDEST POP PUSH2 0x7FB PUSH1 0x4 DUP1 CALLDATASIZE SUB DUP2 ADD SWAP1 PUSH2 0x7F6 SWAP2 SWAP1 PUSH2 0x41D9 JUMP JUMPDEST PUSH2 0x2F2E JUMP JUMPDEST PUSH1 0x40 MLOAD PUSH2 0x808 SWAP2 SWAP1 PUSH2 0x401F JUMP JUMPDEST PUSH1 0x40 MLOAD DUP1 SWAP2 SUB SWAP1 RETURN JUMPDEST CALLVALUE DUP1 ISZERO PUSH2 0x81D JUMPI PUSH1 0x0 DUP1 REVERT JUMPDEST POP PUSH2 0x838 PUSH1 0x4 DUP1 CALLDATASIZE SUB DUP2 ADD SWAP1 PUSH2 0x833 SWAP2 SWAP1 PUSH2 0x49DB JUMP JUMPDEST PUSH2 0x2F7B JUMP JUMPDEST PUSH1 0x40 MLOAD PUSH2 0x845 SWAP2 SWAP1 PUSH2 0x4A46 JUMP JUMPDEST PUSH1 0x40 MLOAD DUP1 SWAP2 SUB SWAP1 RETURN JUMPDEST PUSH2 0x856 PUSH2 0x964 JUMP JUMPDEST STOP JUMPDEST CALLVALUE DUP1 ISZERO PUSH2 0x864 JUMPI PUSH1 0x0 DUP1 REVERT JUMPDEST POP PUSH2 0x87F PUSH1 0x4 DUP1 CALLDATASIZE SUB DUP2 ADD SWAP1 PUSH2 0x87A SWAP2 SWAP1 PUSH2 0x4A8D JUMP JUMPDEST PUSH2 0x3026 JUMP JUMPDEST STOP JUMPDEST CALLVALUE DUP1 ISZERO PUSH2 0x88D JUMPI PUSH1 0x0 DUP1 REVERT JUMPDEST POP PUSH2 0x896 PUSH2 0x33B5 JUMP JUMPDEST PUSH1 0x40 MLOAD PUSH2 0x8A3 SWAP2 SWAP1 PUSH2 0x3FEB JUMP JUMPDEST PUSH1 0x40 MLOAD DUP1 SWAP2 SUB SWAP1 RETURN JUMPDEST CALLVALUE DUP1 ISZERO PUSH2 0x8B8 JUMPI PUSH1 0x0 DUP1 REVERT JUMPDEST POP PUSH2 0x8D3 PUSH1 0x4 DUP1 CALLDATASIZE SUB DUP2 ADD SWAP1 PUSH2 0x8CE SWAP2 SWAP1 PUSH2 0x3FA3 JUMP JUMPDEST PUSH2 0x33CC JUMP JUMPDEST STOP JUMPDEST CALLVALUE DUP1 ISZERO PUSH2 0x8E1 JUMPI PUSH1 0x0 DUP1 REVERT JUMPDEST POP PUSH2 0x8FC PUSH1 0x4 DUP1 CALLDATASIZE SUB DUP2 ADD SWAP1 PUSH2 0x8F7 SWAP2 SWAP1 PUSH2 0x41D9 JUMP JUMPDEST PUSH2 0x3609 JUMP JUMPDEST PUSH1 0x40 MLOAD PUSH2 0x909 SWAP2 SWAP1 PUSH2 0x3FEB JUMP JUMPDEST PUSH1 0x40 MLOAD DUP1 SWAP2 SUB SWAP1 RETURN JUMPDEST CALLVALUE DUP1 ISZERO PUSH2 0x91E JUMPI PUSH1 0x0 DUP1 REVERT JUMPDEST POP PUSH2 0x939 PUSH1 0x4 DUP1 CALLDATASIZE SUB DUP2 ADD SWAP1 PUSH2 0x934 SWAP2 SWAP1 PUSH2 0x4222 JUMP JUMPDEST PUSH2 0x368D JUMP JUMPDEST STOP JUMPDEST CALLVALUE DUP1 ISZERO PUSH2 0x947 JUMPI PUSH1 0x0 DUP1 REVERT JUMPDEST POP PUSH2 0x962 PUSH1 0x4 DUP1 CALLDATASIZE SUB DUP2 ADD SWAP1 PUSH2 0x95D SWAP2 SWAP1 PUSH2 0x4B24 JUMP JUMPDEST PUSH2 0x3958 JUMP JUMPDEST STOP JUMPDEST PUSH1 0x2 PUSH1 0x0 SWAP1 SLOAD SWAP1 PUSH2 0x100 EXP SWAP1 DIV PUSH1 0xFF AND PUSH2 0x9B3 JUMPI PUSH1 0x40 MLOAD PUSH32 0x8C379A000000000000000000000000000000000000000000000000000000000 DUP2 MSTORE PUSH1 0x4 ADD PUSH2 0x9AA SWAP1 PUSH2 0x4C05 JUMP JUMPDEST PUSH1 0x40 MLOAD DUP1 SWAP2 SUB SWAP1 REVERT JUMPDEST PUSH1 0x5 PUSH1 0x0 CALLER PUSH20 0xFFFFFFFFFFFFFFFFFFFFFFFFFFFFFFFFFFFFFFFF AND PUSH20 0xFFFFFFFFFFFFFFFFFFFFFFFFFFFFFFFFFFFFFFFF AND DUP2 MSTORE PUSH1 0x20 ADD SWAP1 DUP2 MSTORE PUSH1 0x20 ADD PUSH1 0x0 KECCAK256 PUSH1 0x1 ADD PUSH1 0x14 SWAP1 SLOAD SWAP1 PUSH2 0x100 EXP SWAP1 DIV PUSH1 0xFF AND PUSH2 0xA42 JUMPI PUSH1 0x40 MLOAD PUSH32 0x8C379A000000000000000000000000000000000000000000000000000000000 DUP2 MSTORE PUSH1 0x4 ADD PUSH2 0xA39 SWAP1 PUSH2 0x4C71 JUMP JUMPDEST PUSH1 0x40 MLOAD DUP1 SWAP2 SUB SWAP1 REVERT JUMPDEST CALLVALUE PUSH1 0x5 PUSH1 0x0 CALLER PUSH20 0xFFFFFFFFFFFFFFFFFFFFFFFFFFFFFFFFFFFFFFFF AND PUSH20 0xFFFFFFFFFFFFFFFFFFFFFFFFFFFFFFFFFFFFFFFF AND DUP2 MSTORE PUSH1 0x20 ADD SWAP1 DUP2 MSTORE PUSH1 0x20 ADD PUSH1 0x0 KECCAK256 PUSH1 0x2 ADD PUSH1 0x0 DUP3 DUP3 SLOAD PUSH2 0xA94 SWAP2 SWAP1 PUSH2 0x4CC0 JUMP JUMPDEST SWAP3 POP POP DUP2 SWAP1 SSTORE POP JUMP JUMPDEST PUSH1 0x0 PUSH1 0x2 PUSH1 0x0 SWAP1 SLOAD SWAP1 PUSH2 0x100 EXP SWAP1 DIV PUSH1 0xFF AND PUSH2 0xAEE JUMPI PUSH1 0x40 MLOAD PUSH32 0x8C379A000000000000000000000000000000000000000000000000000000000 DUP2 MSTORE PUSH1 0x4 ADD PUSH2 0xAE5 SWAP1 PUSH2 0x4C05 JUMP JUMPDEST PUSH1 0x40 MLOAD DUP1 SWAP2 SUB SWAP1 REVERT JUMPDEST PUSH1 0x5 PUSH1 0x0 DUP4 PUSH20 0xFFFFFFFFFFFFFFFFFFFFFFFFFFFFFFFFFFFFFFFF AND PUSH20 0xFFFFFFFFFFFFFFFFFFFFFFFFFFFFFFFFFFFFFFFF AND DUP2 MSTORE PUSH1 0x20 ADD SWAP1 DUP2 MSTORE PUSH1 0x20 ADD PUSH1 0x0 KECCAK256 PUSH1 0x1 ADD PUSH1 0x14 SWAP1 SLOAD SWAP1 PUSH2 0x100 EXP SWAP1 DIV PUSH1 0xFF AND SWAP1 POP SWAP2 SWAP1 POP JUMP JUMPDEST PUSH1 0x0 PUSH1 0x2 PUSH1 0x0 SWAP1 SLOAD SWAP1 PUSH2 0x100 EXP SWAP1 DIV PUSH1 0xFF AND PUSH2 0xB96 JUMPI PUSH1 0x40 MLOAD PUSH32 0x8C379A000000000000000000000000000000000000000000000000000000000 DUP2 MSTORE PUSH1 0x4 ADD PUSH2 0xB8D SWAP1 PUSH2 0x4C05 JUMP JUMPDEST PUSH1 0x40 MLOAD DUP1 SWAP2 SUB SWAP1 REVERT JUMPDEST PUSH1 0x1 SLOAD SWAP1 POP SWAP1 JUMP JUMPDEST PUSH1 0x0 PUSH1 0x11 PUSH1 0x0 CALLER PUSH20 0xFFFFFFFFFFFFFFFFFFFFFFFFFFFFFFFFFFFFFFFF AND PUSH20 0xFFFFFFFFFFFFFFFFFFFFFFFFFFFFFFFFFFFFFFFF AND DUP2 MSTORE PUSH1 0x20 ADD SWAP1 DUP2 MSTORE PUSH1 0x20 ADD PUSH1 0x0 KECCAK256 PUSH1 0x0 ADD PUSH1 0x0 SWAP1 SLOAD SWAP1 PUSH2 0x100 EXP SWAP1 DIV PUSH1 0xFF AND SWAP1 POP SWAP1 JUMP JUMPDEST PUSH1 0x0 DUP1 SLOAD SWAP1 PUSH2 0x100 EXP SWAP1 DIV PUSH20 0xFFFFFFFFFFFFFFFFFFFFFFFFFFFFFFFFFFFFFFFF AND PUSH20 0xFFFFFFFFFFFFFFFFFFFFFFFFFFFFFFFFFFFFFFFF AND CALLER PUSH20 0xFFFFFFFFFFFFFFFFFFFFFFFFFFFFFFFFFFFFFFFF AND EQ PUSH2 0xC83 JUMPI PUSH1 0x40 MLOAD PUSH32 0x8C379A000000000000000000000000000000000000000000000000000000000 DUP2 MSTORE PUSH1 0x4 ADD PUSH2 0xC7A SWAP1 PUSH2 0x4D40 JUMP JUMPDEST PUSH1 0x40 MLOAD DUP1 SWAP2 SUB SWAP1 REVERT JUMPDEST PUSH32 0xF21DB895CAF8541B06334A513512D7AF19D1BEDDFDB05EF5F24D990078588AC8 DUP2 PUSH1 0x40 MLOAD PUSH2 0xCB2 SWAP2 SWAP1 PUSH2 0x3FEB JUMP JUMPDEST PUSH1 0x40 MLOAD DUP1 SWAP2 SUB SWAP1 LOG1 DUP1 PUSH1 0x2 PUSH1 0x0 PUSH2 0x100 EXP DUP2 SLOAD DUP2 PUSH1 0xFF MUL NOT AND SWAP1 DUP4 ISZERO ISZERO MUL OR SWAP1 SSTORE POP POP JUMP JUMPDEST PUSH1 0x0 PUSH1 0x2 PUSH1 0x0 SWAP1 SLOAD SWAP1 PUSH2 0x100 EXP SWAP1 DIV PUSH1 0xFF AND PUSH2 0xD28 JUMPI PUSH1 0x40 MLOAD PUSH32 0x8C379A000000000000000000000000000000000000000000000000000000000 DUP2 MSTORE PUSH1 0x4 ADD PUSH2 0xD1F SWAP1 PUSH2 0x4C05 JUMP JUMPDEST PUSH1 0x40 MLOAD DUP1 SWAP2 SUB SWAP1 REVERT JUMPDEST SELFBALANCE SWAP1 POP SWAP1 JUMP JUMPDEST PUSH1 0x2 PUSH1 0x0 SWAP1 SLOAD SWAP1 PUSH2 0x100 EXP SWAP1 DIV PUSH1 0xFF AND PUSH2 0xD7D JUMPI PUSH1 0x40 MLOAD PUSH32 0x8C379A000000000000000000000000000000000000000000000000000000000 DUP2 MSTORE PUSH1 0x4 ADD PUSH2 0xD74 SWAP1 PUSH2 0x4C05 JUMP JUMPDEST PUSH1 0x40 MLOAD DUP1 SWAP2 SUB SWAP1 REVERT JUMPDEST PUSH1 0x1 PUSH1 0x9 DUP3 PUSH1 0x40 MLOAD PUSH2 0xD8F SWAP2 SWAP1 PUSH2 0x4D9C JUMP JUMPDEST SWAP1 DUP2 MSTORE PUSH1 0x20 ADD PUSH1 0x40 MLOAD DUP1 SWAP2 SUB SWAP1 KECCAK256 PUSH1 0x0 PUSH2 0x100 EXP DUP2 SLOAD DUP2 PUSH1 0xFF MUL NOT AND SWAP1 DUP4 ISZERO ISZERO MUL OR SWAP1 SSTORE POP POP JUMP JUMPDEST PUSH1 0x2 PUSH1 0x0 SWAP1 SLOAD SWAP1 PUSH2 0x100 EXP SWAP1 DIV PUSH1 0xFF AND PUSH2 0xE06 JUMPI PUSH1 0x40 MLOAD PUSH32 0x8C379A000000000000000000000000000000000000000000000000000000000 DUP2 MSTORE PUSH1 0x4 ADD PUSH2 0xDFD SWAP1 PUSH2 0x4C05 JUMP JUMPDEST PUSH1 0x40 MLOAD DUP1 SWAP2 SUB SWAP1 REVERT JUMPDEST PUSH1 0x1 PUSH1 0x8 PUSH1 0x0 CALLER PUSH20 0xFFFFFFFFFFFFFFFFFFFFFFFFFFFFFFFFFFFFFFFF AND PUSH20 0xFFFFFFFFFFFFFFFFFFFFFFFFFFFFFFFFFFFFFFFF AND DUP2 MSTORE PUSH1 0x20 ADD SWAP1 DUP2 MSTORE PUSH1 0x20 ADD PUSH1 0x0 KECCAK256 SLOAD EQ PUSH2 0xE88 JUMPI PUSH1 0x40 MLOAD PUSH32 0x8C379A000000000000000000000000000000000000000000000000000000000 DUP2 MSTORE PUSH1 0x4 ADD PUSH2 0xE7F SWAP1 PUSH2 0x4DFF JUMP JUMPDEST PUSH1 0x40 MLOAD DUP1 SWAP2 SUB SWAP1 REVERT JUMPDEST PUSH1 0x40 MLOAD DUP1 PUSH1 0x80 ADD PUSH1 0x40 MSTORE DUP1 DUP3 DUP2 MSTORE PUSH1 0x20 ADD DUP4 PUSH20 0xFFFFFFFFFFFFFFFFFFFFFFFFFFFFFFFFFFFFFFFF AND DUP2 MSTORE PUSH1 0x20 ADD PUSH1 0x1 ISZERO ISZERO DUP2 MSTORE PUSH1 0x20 ADD PUSH1 0x0 DUP2 MSTORE POP PUSH1 0x5 PUSH1 0x0 DUP5 PUSH20 0xFFFFFFFFFFFFFFFFFFFFFFFFFFFFFFFFFFFFFFFF AND PUSH20 0xFFFFFFFFFFFFFFFFFFFFFFFFFFFFFFFFFFFFFFFF AND DUP2 MSTORE PUSH1 0x20 ADD SWAP1 DUP2 MSTORE PUSH1 0x20 ADD PUSH1 0x0 KECCAK256 PUSH1 0x0 DUP3 ADD MLOAD DUP2 PUSH1 0x0 ADD SWAP1 DUP2 PUSH2 0xF17 SWAP2 SWAP1 PUSH2 0x502B JUMP JUMPDEST POP PUSH1 0x20 DUP3 ADD MLOAD DUP2 PUSH1 0x1 ADD PUSH1 0x0 PUSH2 0x100 EXP DUP2 SLOAD DUP2 PUSH20 0xFFFFFFFFFFFFFFFFFFFFFFFFFFFFFFFFFFFFFFFF MUL NOT AND SWAP1 DUP4 PUSH20 0xFFFFFFFFFFFFFFFFFFFFFFFFFFFFFFFFFFFFFFFF AND MUL OR SWAP1 SSTORE POP PUSH1 0x40 DUP3 ADD MLOAD DUP2 PUSH1 0x1 ADD PUSH1 0x14 PUSH2 0x100 EXP DUP2 SLOAD DUP2 PUSH1 0xFF MUL NOT AND SWAP1 DUP4 ISZERO ISZERO MUL OR SWAP1 SSTORE POP PUSH1 0x60 DUP3 ADD MLOAD DUP2 PUSH1 0x2 ADD SSTORE SWAP1 POP POP PUSH1 0x1 PUSH1 0x8 PUSH1 0x0 DUP5 PUSH20 0xFFFFFFFFFFFFFFFFFFFFFFFFFFFFFFFFFFFFFFFF AND PUSH20 0xFFFFFFFFFFFFFFFFFFFFFFFFFFFFFFFFFFFFFFFF AND DUP2 MSTORE PUSH1 0x20 ADD SWAP1 DUP2 MSTORE PUSH1 0x20 ADD PUSH1 0x0 KECCAK256 DUP2 SWAP1 SSTORE POP PUSH1 0x4 DUP3 SWAP1 DUP1 PUSH1 0x1 DUP2 SLOAD ADD DUP1 DUP3 SSTORE DUP1 SWAP2 POP POP PUSH1 0x1 SWAP1 SUB SWAP1 PUSH1 0x0 MSTORE PUSH1 0x20 PUSH1 0x0 KECCAK256 ADD PUSH1 0x0 SWAP1 SWAP2 SWAP1 SWAP2 SWAP1 SWAP2 PUSH2 0x100 EXP DUP2 SLOAD DUP2 PUSH20 0xFFFFFFFFFFFFFFFFFFFFFFFFFFFFFFFFFFFFFFFF MUL NOT AND SWAP1 DUP4 PUSH20 0xFFFFFFFFFFFFFFFFFFFFFFFFFFFFFFFFFFFFFFFF AND MUL OR SWAP1 SSTORE POP PUSH1 0x1 PUSH1 0x0 DUP2 SLOAD DUP1 SWAP3 SWAP2 SWAP1 PUSH2 0x1047 SWAP1 PUSH2 0x50FD JUMP JUMPDEST SWAP2 SWAP1 POP SSTORE POP POP POP JUMP JUMPDEST PUSH8 0xDE0B6B3A7640000 DUP2 JUMP JUMPDEST PUSH1 0x2 PUSH1 0x0 SWAP1 SLOAD SWAP1 PUSH2 0x100 EXP SWAP1 DIV PUSH1 0xFF AND PUSH2 0x10AB JUMPI PUSH1 0x40 MLOAD PUSH32 0x8C379A000000000000000000000000000000000000000000000000000000000 DUP2 MSTORE PUSH1 0x4 ADD PUSH2 0x10A2 SWAP1 PUSH2 0x4C05 JUMP JUMPDEST PUSH1 0x40 MLOAD DUP1 SWAP2 SUB SWAP1 REVERT JUMPDEST ORIGIN PUSH20 0xFFFFFFFFFFFFFFFFFFFFFFFFFFFFFFFFFFFFFFFF AND CALLER PUSH20 0xFFFFFFFFFFFFFFFFFFFFFFFFFFFFFFFFFFFFFFFF AND EQ PUSH2 0x1119 JUMPI PUSH1 0x40 MLOAD PUSH32 0x8C379A000000000000000000000000000000000000000000000000000000000 DUP2 MSTORE PUSH1 0x4 ADD PUSH2 0x1110 SWAP1 PUSH2 0x51B7 JUMP JUMPDEST PUSH1 0x40 MLOAD DUP1 SWAP2 SUB SWAP1 REVERT JUMPDEST PUSH1 0x0 DUP2 CALLER PUSH1 0x40 MLOAD PUSH1 0x20 ADD PUSH2 0x112E SWAP3 SWAP2 SWAP1 PUSH2 0x521F JUMP JUMPDEST PUSH1 0x40 MLOAD PUSH1 0x20 DUP2 DUP4 SUB SUB DUP2 MSTORE SWAP1 PUSH1 0x40 MSTORE DUP1 MLOAD SWAP1 PUSH1 0x20 ADD KECCAK256 SWAP1 POP PUSH1 0x0 PUSH1 0xA PUSH1 0x0 DUP4 DUP2 MSTORE PUSH1 0x20 ADD SWAP1 DUP2 MSTORE PUSH1 0x20 ADD PUSH1 0x0 KECCAK256 PUSH1 0x2 ADD SLOAD GT PUSH2 0x119F JUMPI PUSH1 0x40 MLOAD PUSH32 0x8C379A000000000000000000000000000000000000000000000000000000000 DUP2 MSTORE PUSH1 0x4 ADD PUSH2 0x1196 SWAP1 PUSH2 0x5293 JUMP JUMPDEST PUSH1 0x40 MLOAD DUP1 SWAP2 SUB SWAP1 REVERT JUMPDEST PUSH1 0x0 PUSH1 0xA PUSH1 0x0 DUP4 DUP2 MSTORE PUSH1 0x20 ADD SWAP1 DUP2 MSTORE PUSH1 0x20 ADD PUSH1 0x0 KECCAK256 PUSH1 0x2 ADD SLOAD SWAP1 POP DUP1 SELFBALANCE GT PUSH2 0x11FC JUMPI PUSH1 0x40 MLOAD PUSH32 0x8C379A000000000000000000000000000000000000000000000000000000000 DUP2 MSTORE PUSH1 0x4 ADD PUSH2 0x11F3 SWAP1 PUSH2 0x5325 JUMP JUMPDEST PUSH1 0x40 MLOAD DUP1 SWAP2 SUB SWAP1 REVERT JUMPDEST PUSH1 0x0 PUSH1 0xA PUSH1 0x0 DUP5 DUP2 MSTORE PUSH1 0x20 ADD SWAP1 DUP2 MSTORE PUSH1 0x20 ADD PUSH1 0x0 KECCAK256 PUSH1 0x2 ADD DUP2 SWAP1 SSTORE POP CALLER PUSH20 0xFFFFFFFFFFFFFFFFFFFFFFFFFFFFFFFFFFFFFFFF AND PUSH2 0x8FC DUP3 SWAP1 DUP2 ISZERO MUL SWAP1 PUSH1 0x40 MLOAD PUSH1 0x0 PUSH1 0x40 MLOAD DUP1 DUP4 SUB DUP2 DUP6 DUP9 DUP9 CALL SWAP4 POP POP POP POP ISZERO DUP1 ISZERO PUSH2 0x125E JUMPI RETURNDATASIZE PUSH1 0x0 DUP1 RETURNDATACOPY RETURNDATASIZE PUSH1 0x0 REVERT JUMPDEST POP CALLER PUSH20 0xFFFFFFFFFFFFFFFFFFFFFFFFFFFFFFFFFFFFFFFF AND PUSH32 0x37821217243A9021D21D3064EE513839A726184E5A5EC6068A9FAF8213FAD23D DUP5 DUP4 PUSH1 0x40 MLOAD PUSH2 0x12A7 SWAP3 SWAP2 SWAP1 PUSH2 0x5345 JUMP JUMPDEST PUSH1 0x40 MLOAD DUP1 SWAP2 SUB SWAP1 LOG2 POP POP POP JUMP JUMPDEST PUSH1 0x0 PUSH1 0x2 PUSH1 0x0 SWAP1 SLOAD SWAP1 PUSH2 0x100 EXP SWAP1 DIV PUSH1 0xFF AND PUSH2 0x1305 JUMPI PUSH1 0x40 MLOAD PUSH32 0x8C379A000000000000000000000000000000000000000000000000000000000 DUP2 MSTORE PUSH1 0x4 ADD PUSH2 0x12FC SWAP1 PUSH2 0x4C05 JUMP JUMPDEST PUSH1 0x40 MLOAD DUP1 SWAP2 SUB SWAP1 REVERT JUMPDEST PUSH1 0x0 DUP3 CALLER PUSH1 0x40 MLOAD PUSH1 0x20 ADD PUSH2 0x131A SWAP3 SWAP2 SWAP1 PUSH2 0x521F JUMP JUMPDEST PUSH1 0x40 MLOAD PUSH1 0x20 DUP2 DUP4 SUB SUB DUP2 MSTORE SWAP1 PUSH1 0x40 MSTORE DUP1 MLOAD SWAP1 PUSH1 0x20 ADD KECCAK256 SWAP1 POP PUSH1 0xA PUSH1 0x0 DUP3 DUP2 MSTORE PUSH1 0x20 ADD SWAP1 DUP2 MSTORE PUSH1 0x20 ADD PUSH1 0x0 KECCAK256 PUSH1 0x2 ADD SLOAD SWAP2 POP POP SWAP2 SWAP1 POP JUMP JUMPDEST PUSH8 0xDE0B6B3A7640000 CALLVALUE LT ISZERO PUSH2 0x139C JUMPI PUSH1 0x40 MLOAD PUSH32 0x8C379A000000000000000000000000000000000000000000000000000000000 DUP2 MSTORE PUSH1 0x4 ADD PUSH2 0x1393 SWAP1 PUSH2 0x53C1 JUMP JUMPDEST PUSH1 0x40 MLOAD DUP1 SWAP2 SUB SWAP1 REVERT JUMPDEST PUSH1 0x0 PUSH2 0x13A7 CALLER PUSH2 0x3AE9 JUMP JUMPDEST SWAP1 POP PUSH1 0x40 MLOAD DUP1 PUSH1 0x40 ADD PUSH1 0x40 MSTORE DUP1 PUSH1 0x1 ISZERO ISZERO DUP2 MSTORE PUSH1 0x20 ADD DUP3 DUP2 MSTORE POP PUSH1 0x11 PUSH1 0x0 CALLER PUSH20 0xFFFFFFFFFFFFFFFFFFFFFFFFFFFFFFFFFFFFFFFF AND PUSH20 0xFFFFFFFFFFFFFFFFFFFFFFFFFFFFFFFFFFFFFFFF AND DUP2 MSTORE PUSH1 0x20 ADD SWAP1 DUP2 MSTORE PUSH1 0x20 ADD PUSH1 0x0 KECCAK256 PUSH1 0x0 DUP3 ADD MLOAD DUP2 PUSH1 0x0 ADD PUSH1 0x0 PUSH2 0x100 EXP DUP2 SLOAD DUP2 PUSH1 0xFF MUL NOT AND SWAP1 DUP4 ISZERO ISZERO MUL OR SWAP1 SSTORE POP PUSH1 0x20 DUP3 ADD MLOAD DUP2 PUSH1 0x1 ADD SWAP1 PUSH1 0x3 PUSH2 0x1437 SWAP3 SWAP2 SWAP1 PUSH2 0x3DC0 JUMP JUMPDEST POP SWAP1 POP POP POP JUMP JUMPDEST PUSH1 0x1 PUSH1 0x6 PUSH1 0x0 DUP4 PUSH20 0xFFFFFFFFFFFFFFFFFFFFFFFFFFFFFFFFFFFFFFFF AND PUSH20 0xFFFFFFFFFFFFFFFFFFFFFFFFFFFFFFFFFFFFFFFF AND DUP2 MSTORE PUSH1 0x20 ADD SWAP1 DUP2 MSTORE PUSH1 0x20 ADD PUSH1 0x0 KECCAK256 PUSH1 0x0 DUP3 DUP3 SLOAD PUSH2 0x148E SWAP2 SWAP1 PUSH2 0x4CC0 JUMP JUMPDEST SWAP3 POP POP DUP2 SWAP1 SSTORE POP POP JUMP JUMPDEST PUSH1 0x60 PUSH1 0x2 PUSH1 0x0 SWAP1 SLOAD SWAP1 PUSH2 0x100 EXP SWAP1 DIV PUSH1 0xFF AND PUSH2 0x14E9 JUMPI PUSH1 0x40 MLOAD PUSH32 0x8C379A000000000000000000000000000000000000000000000000000000000 DUP2 MSTORE PUSH1 0x4 ADD PUSH2 0x14E0 SWAP1 PUSH2 0x4C05 JUMP JUMPDEST PUSH1 0x40 MLOAD DUP1 SWAP2 SUB SWAP1 REVERT JUMPDEST PUSH1 0x3 DUP1 SLOAD DUP1 PUSH1 0x20 MUL PUSH1 0x20 ADD PUSH1 0x40 MLOAD SWAP1 DUP2 ADD PUSH1 0x40 MSTORE DUP1 SWAP3 SWAP2 SWAP1 DUP2 DUP2 MSTORE PUSH1 0x20 ADD DUP3 DUP1 SLOAD DUP1 ISZERO PUSH2 0x156B JUMPI PUSH1 0x20 MUL DUP3 ADD SWAP2 SWAP1 PUSH1 0x0 MSTORE PUSH1 0x20 PUSH1 0x0 KECCAK256 SWAP1 JUMPDEST DUP2 PUSH1 0x0 SWAP1 SLOAD SWAP1 PUSH2 0x100 EXP SWAP1 DIV PUSH20 0xFFFFFFFFFFFFFFFFFFFFFFFFFFFFFFFFFFFFFFFF AND PUSH20 0xFFFFFFFFFFFFFFFFFFFFFFFFFFFFFFFFFFFFFFFF AND DUP2 MSTORE PUSH1 0x20 ADD SWAP1 PUSH1 0x1 ADD SWAP1 DUP1 DUP4 GT PUSH2 0x1521 JUMPI JUMPDEST POP POP POP POP POP SWAP1 POP SWAP1 JUMP JUMPDEST PUSH1 0x2 PUSH1 0x0 SWAP1 SLOAD SWAP1 PUSH2 0x100 EXP SWAP1 DIV PUSH1 0xFF AND PUSH2 0x15C4 JUMPI PUSH1 0x40 MLOAD PUSH32 0x8C379A000000000000000000000000000000000000000000000000000000000 DUP2 MSTORE PUSH1 0x4 ADD PUSH2 0x15BB SWAP1 PUSH2 0x4C05 JUMP JUMPDEST PUSH1 0x40 MLOAD DUP1 SWAP2 SUB SWAP1 REVERT JUMPDEST PUSH1 0x0 PUSH1 0x3 DUP1 SLOAD SWAP1 POP SWAP1 POP PUSH1 0x0 JUMPDEST DUP2 DUP2 LT ISZERO PUSH2 0x175C JUMPI PUSH1 0x0 DUP4 PUSH1 0x3 DUP4 DUP2 SLOAD DUP2 LT PUSH2 0x15F0 JUMPI PUSH2 0x15EF PUSH2 0x53E1 JUMP JUMPDEST JUMPDEST SWAP1 PUSH1 0x0 MSTORE PUSH1 0x20 PUSH1 0x0 KECCAK256 ADD PUSH1 0x0 SWAP1 SLOAD SWAP1 PUSH2 0x100 EXP SWAP1 DIV PUSH20 0xFFFFFFFFFFFFFFFFFFFFFFFFFFFFFFFFFFFFFFFF AND PUSH1 0x40 MLOAD PUSH1 0x20 ADD PUSH2 0x162C SWAP3 SWAP2 SWAP1 PUSH2 0x521F JUMP JUMPDEST PUSH1 0x40 MLOAD PUSH1 0x20 DUP2 DUP4 SUB SUB DUP2 MSTORE SWAP1 PUSH1 0x40 MSTORE DUP1 MLOAD SWAP1 PUSH1 0x20 ADD KECCAK256 SWAP1 POP PUSH1 0x0 PUSH20 0xFFFFFFFFFFFFFFFFFFFFFFFFFFFFFFFFFFFFFFFF AND PUSH1 0xA PUSH1 0x0 DUP4 DUP2 MSTORE PUSH1 0x20 ADD SWAP1 DUP2 MSTORE PUSH1 0x20 ADD PUSH1 0x0 KECCAK256 PUSH1 0x0 ADD PUSH1 0x0 SWAP1 SLOAD SWAP1 PUSH2 0x100 EXP SWAP1 DIV PUSH20 0xFFFFFFFFFFFFFFFFFFFFFFFFFFFFFFFFFFFFFFFF AND PUSH20 0xFFFFFFFFFFFFFFFFFFFFFFFFFFFFFFFFFFFFFFFF AND EQ PUSH2 0x1748 JUMPI PUSH1 0x0 PUSH1 0xA PUSH1 0x0 DUP4 DUP2 MSTORE PUSH1 0x20 ADD SWAP1 DUP2 MSTORE PUSH1 0x20 ADD PUSH1 0x0 KECCAK256 SWAP1 POP PUSH1 0x0 DUP2 PUSH1 0x2 ADD SLOAD SWAP1 POP PUSH1 0x0 DUP3 PUSH1 0x1 ADD DUP8 PUSH1 0x40 MLOAD PUSH2 0x16E2 SWAP2 SWAP1 PUSH2 0x4D9C JUMP JUMPDEST SWAP1 DUP2 MSTORE PUSH1 0x20 ADD PUSH1 0x40 MLOAD DUP1 SWAP2 SUB SWAP1 KECCAK256 SLOAD SWAP1 POP PUSH1 0x0 DUP4 PUSH1 0x1 ADD DUP9 PUSH1 0x40 MLOAD PUSH2 0x1707 SWAP2 SWAP1 PUSH2 0x4D9C JUMP JUMPDEST SWAP1 DUP2 MSTORE PUSH1 0x20 ADD PUSH1 0x40 MLOAD DUP1 SWAP2 SUB SWAP1 KECCAK256 DUP2 SWAP1 SSTORE POP PUSH1 0x2 DUP2 PUSH2 0x1726 SWAP2 SWAP1 PUSH2 0x543F JUMP JUMPDEST DUP2 PUSH2 0x1731 SWAP2 SWAP1 PUSH2 0x4CC0 JUMP JUMPDEST DUP3 PUSH2 0x173C SWAP2 SWAP1 PUSH2 0x4CC0 JUMP JUMPDEST DUP4 PUSH1 0x2 ADD DUP2 SWAP1 SSTORE POP POP POP POP JUMPDEST POP DUP1 DUP1 PUSH2 0x1754 SWAP1 PUSH2 0x50FD JUMP JUMPDEST SWAP2 POP POP PUSH2 0x15D1 JUMP JUMPDEST POP POP POP JUMP JUMPDEST PUSH1 0x60 PUSH1 0x2 PUSH1 0x0 SWAP1 SLOAD SWAP1 PUSH2 0x100 EXP SWAP1 DIV PUSH1 0xFF AND PUSH2 0x17B2 JUMPI PUSH1 0x40 MLOAD PUSH32 0x8C379A000000000000000000000000000000000000000000000000000000000 DUP2 MSTORE PUSH1 0x4 ADD PUSH2 0x17A9 SWAP1 PUSH2 0x4C05 JUMP JUMPDEST PUSH1 0x40 MLOAD DUP1 SWAP2 SUB SWAP1 REVERT JUMPDEST PUSH1 0x7 PUSH1 0x0 DUP4 PUSH20 0xFFFFFFFFFFFFFFFFFFFFFFFFFFFFFFFFFFFFFFFF AND PUSH20 0xFFFFFFFFFFFFFFFFFFFFFFFFFFFFFFFFFFFFFFFF AND DUP2 MSTORE PUSH1 0x20 ADD SWAP1 DUP2 MSTORE PUSH1 0x20 ADD PUSH1 0x0 KECCAK256 DUP1 SLOAD DUP1 PUSH1 0x20 MUL PUSH1 0x20 ADD PUSH1 0x40 MLOAD SWAP1 DUP2 ADD PUSH1 0x40 MSTORE DUP1 SWAP3 SWAP2 SWAP1 DUP2 DUP2 MSTORE PUSH1 0x20 ADD DUP3 DUP1 SLOAD DUP1 ISZERO PUSH2 0x1871 JUMPI PUSH1 0x20 MUL DUP3 ADD SWAP2 SWAP1 PUSH1 0x0 MSTORE PUSH1 0x20 PUSH1 0x0 KECCAK256 SWAP1 JUMPDEST DUP2 PUSH1 0x0 SWAP1 SLOAD SWAP1 PUSH2 0x100 EXP SWAP1 DIV PUSH20 0xFFFFFFFFFFFFFFFFFFFFFFFFFFFFFFFFFFFFFFFF AND PUSH20 0xFFFFFFFFFFFFFFFFFFFFFFFFFFFFFFFFFFFFFFFF AND DUP2 MSTORE PUSH1 0x20 ADD SWAP1 PUSH1 0x1 ADD SWAP1 DUP1 DUP4 GT PUSH2 0x1827 JUMPI JUMPDEST POP POP POP POP POP SWAP1 POP SWAP2 SWAP1 POP JUMP JUMPDEST PUSH1 0x0 DUP1 SLOAD SWAP1 PUSH2 0x100 EXP SWAP1 DIV PUSH20 0xFFFFFFFFFFFFFFFFFFFFFFFFFFFFFFFFFFFFFFFF AND PUSH20 0xFFFFFFFFFFFFFFFFFFFFFFFFFFFFFFFFFFFFFFFF AND CALLER PUSH20 0xFFFFFFFFFFFFFFFFFFFFFFFFFFFFFFFFFFFFFFFF AND EQ PUSH2 0x190B JUMPI PUSH1 0x40 MLOAD PUSH32 0x8C379A000000000000000000000000000000000000000000000000000000000 DUP2 MSTORE PUSH1 0x4 ADD PUSH2 0x1902 SWAP1 PUSH2 0x4D40 JUMP JUMPDEST PUSH1 0x40 MLOAD DUP1 SWAP2 SUB SWAP1 REVERT JUMPDEST PUSH1 0x2 PUSH1 0x0 SWAP1 SLOAD SWAP1 PUSH2 0x100 EXP SWAP1 DIV PUSH1 0xFF AND PUSH2 0x195A JUMPI PUSH1 0x40 MLOAD PUSH32 0x8C379A000000000000000000000000000000000000000000000000000000000 DUP2 MSTORE PUSH1 0x4 ADD PUSH2 0x1951 SWAP1 PUSH2 0x4C05 JUMP JUMPDEST PUSH1 0x40 MLOAD DUP1 SWAP2 SUB SWAP1 REVERT JUMPDEST PUSH1 0x1 PUSH1 0x8 PUSH1 0x0 DUP4 PUSH20 0xFFFFFFFFFFFFFFFFFFFFFFFFFFFFFFFFFFFFFFFF AND PUSH20 0xFFFFFFFFFFFFFFFFFFFFFFFFFFFFFFFFFFFFFFFF AND DUP2 MSTORE PUSH1 0x20 ADD SWAP1 DUP2 MSTORE PUSH1 0x20 ADD PUSH1 0x0 KECCAK256 DUP2 SWAP1 SSTORE POP DUP1 PUSH20 0xFFFFFFFFFFFFFFFFFFFFFFFFFFFFFFFFFFFFFFFF AND PUSH32 0x2C74592FDDAD593C2C4403101CE9B30930711AB87571268DDD1E1989EE1D7917 PUSH1 0x40 MLOAD PUSH1 0x40 MLOAD DUP1 SWAP2 SUB SWAP1 LOG2 POP JUMP JUMPDEST PUSH1 0x2 PUSH1 0x0 SWAP1 SLOAD SWAP1 PUSH2 0x100 EXP SWAP1 DIV PUSH1 0xFF AND PUSH2 0x1A34 JUMPI PUSH1 0x40 MLOAD PUSH32 0x8C379A000000000000000000000000000000000000000000000000000000000 DUP2 MSTORE PUSH1 0x4 ADD PUSH2 0x1A2B SWAP1 PUSH2 0x4C05 JUMP JUMPDEST PUSH1 0x40 MLOAD DUP1 SWAP2 SUB SWAP1 REVERT JUMPDEST DUP1 PUSH1 0x5 PUSH1 0x0 DUP5 PUSH20 0xFFFFFFFFFFFFFFFFFFFFFFFFFFFFFFFFFFFFFFFF AND PUSH20 0xFFFFFFFFFFFFFFFFFFFFFFFFFFFFFFFFFFFFFFFF AND DUP2 MSTORE PUSH1 0x20 ADD SWAP1 DUP2 MSTORE PUSH1 0x20 ADD PUSH1 0x0 KECCAK256 PUSH1 0x2 ADD PUSH1 0x0 DUP3 DUP3 SLOAD PUSH2 0x1A86 SWAP2 SWAP1 PUSH2 0x4CC0 JUMP JUMPDEST SWAP3 POP POP DUP2 SWAP1 SSTORE POP POP POP JUMP JUMPDEST PUSH1 0x2 PUSH1 0x0 SWAP1 SLOAD SWAP1 PUSH2 0x100 EXP SWAP1 DIV PUSH1 0xFF AND PUSH2 0x1AE0 JUMPI PUSH1 0x40 MLOAD PUSH32 0x8C379A000000000000000000000000000000000000000000000000000000000 DUP2 MSTORE PUSH1 0x4 ADD PUSH2 0x1AD7 SWAP1 PUSH2 0x4C05 JUMP JUMPDEST PUSH1 0x40 MLOAD DUP1 SWAP2 SUB SWAP1 REVERT JUMPDEST PUSH1 0x9 DUP2 PUSH1 0x40 MLOAD PUSH2 0x1AF0 SWAP2 SWAP1 PUSH2 0x4D9C JUMP JUMPDEST SWAP1 DUP2 MSTORE PUSH1 0x20 ADD PUSH1 0x40 MLOAD DUP1 SWAP2 SUB SWAP1 KECCAK256 PUSH1 0x0 SWAP1 SLOAD SWAP1 PUSH2 0x100 EXP SWAP1 DIV PUSH1 0xFF AND PUSH2 0x1B4B JUMPI PUSH1 0x40 MLOAD PUSH32 0x8C379A000000000000000000000000000000000000000000000000000000000 DUP2 MSTORE PUSH1 0x4 ADD PUSH2 0x1B42 SWAP1 PUSH2 0x54BC JUMP JUMPDEST PUSH1 0x40 MLOAD DUP1 SWAP2 SUB SWAP1 REVERT JUMPDEST ORIGIN PUSH20 0xFFFFFFFFFFFFFFFFFFFFFFFFFFFFFFFFFFFFFFFF AND CALLER PUSH20 0xFFFFFFFFFFFFFFFFFFFFFFFFFFFFFFFFFFFFFFFF AND EQ PUSH2 0x1BB9 JUMPI PUSH1 0x40 MLOAD PUSH32 0x8C379A000000000000000000000000000000000000000000000000000000000 DUP2 MSTORE PUSH1 0x4 ADD PUSH2 0x1BB0 SWAP1 PUSH2 0x51B7 JUMP JUMPDEST PUSH1 0x40 MLOAD DUP1 SWAP2 SUB SWAP1 REVERT JUMPDEST PUSH1 0x0 CALLVALUE GT PUSH2 0x1BFC JUMPI PUSH1 0x40 MLOAD PUSH32 0x8C379A000000000000000000000000000000000000000000000000000000000 DUP2 MSTORE PUSH1 0x4 ADD PUSH2 0x1BF3 SWAP1 PUSH2 0x554E JUMP JUMPDEST PUSH1 0x40 MLOAD DUP1 SWAP2 SUB SWAP1 REVERT JUMPDEST PUSH8 0xDE0B6B3A7640000 CALLVALUE GT ISZERO PUSH2 0x1C47 JUMPI PUSH1 0x40 MLOAD PUSH32 0x8C379A000000000000000000000000000000000000000000000000000000000 DUP2 MSTORE PUSH1 0x4 ADD PUSH2 0x1C3E SWAP1 PUSH2 0x55E0 JUMP JUMPDEST PUSH1 0x40 MLOAD DUP1 SWAP2 SUB SWAP1 REVERT JUMPDEST PUSH1 0x0 DUP2 CALLER PUSH1 0x40 MLOAD PUSH1 0x20 ADD PUSH2 0x1C5C SWAP3 SWAP2 SWAP1 PUSH2 0x521F JUMP JUMPDEST PUSH1 0x40 MLOAD PUSH1 0x20 DUP2 DUP4 SUB SUB DUP2 MSTORE SWAP1 PUSH1 0x40 MSTORE DUP1 MLOAD SWAP1 PUSH1 0x20 ADD KECCAK256 SWAP1 POP PUSH1 0x0 PUSH20 0xFFFFFFFFFFFFFFFFFFFFFFFFFFFFFFFFFFFFFFFF AND PUSH1 0xA PUSH1 0x0 DUP4 DUP2 MSTORE PUSH1 0x20 ADD SWAP1 DUP2 MSTORE PUSH1 0x20 ADD PUSH1 0x0 KECCAK256 PUSH1 0x0 ADD PUSH1 0x0 SWAP1 SLOAD SWAP1 PUSH2 0x100 EXP SWAP1 DIV PUSH20 0xFFFFFFFFFFFFFFFFFFFFFFFFFFFFFFFFFFFFFFFF AND PUSH20 0xFFFFFFFFFFFFFFFFFFFFFFFFFFFFFFFFFFFFFFFF AND EQ PUSH2 0x1D19 JUMPI PUSH1 0x40 MLOAD PUSH32 0x8C379A000000000000000000000000000000000000000000000000000000000 DUP2 MSTORE PUSH1 0x4 ADD PUSH2 0x1D10 SWAP1 PUSH2 0x564C JUMP JUMPDEST PUSH1 0x40 MLOAD DUP1 SWAP2 SUB SWAP1 REVERT JUMPDEST PUSH1 0x0 PUSH1 0xA PUSH1 0x0 DUP4 DUP2 MSTORE PUSH1 0x20 ADD SWAP1 DUP2 MSTORE PUSH1 0x20 ADD PUSH1 0x0 KECCAK256 SWAP1 POP CALLER DUP2 PUSH1 0x0 ADD PUSH1 0x0 PUSH2 0x100 EXP DUP2 SLOAD DUP2 PUSH20 0xFFFFFFFFFFFFFFFFFFFFFFFFFFFFFFFFFFFFFFFF MUL NOT AND SWAP1 DUP4 PUSH20 0xFFFFFFFFFFFFFFFFFFFFFFFFFFFFFFFFFFFFFFFF AND MUL OR SWAP1 SSTORE POP PUSH1 0x0 DUP2 PUSH1 0x2 ADD DUP2 SWAP1 SSTORE POP CALLVALUE DUP2 PUSH1 0x1 ADD DUP5 PUSH1 0x40 MLOAD PUSH2 0x1D90 SWAP2 SWAP1 PUSH2 0x4D9C JUMP JUMPDEST SWAP1 DUP2 MSTORE PUSH1 0x20 ADD PUSH1 0x40 MLOAD DUP1 SWAP2 SUB SWAP1 KECCAK256 DUP2 SWAP1 SSTORE POP PUSH1 0x3 CALLER SWAP1 DUP1 PUSH1 0x1 DUP2 SLOAD ADD DUP1 DUP3 SSTORE DUP1 SWAP2 POP POP PUSH1 0x1 SWAP1 SUB SWAP1 PUSH1 0x0 MSTORE PUSH1 0x20 PUSH1 0x0 KECCAK256 ADD PUSH1 0x0 SWAP1 SWAP2 SWAP1 SWAP2 SWAP1 SWAP2 PUSH2 0x100 EXP DUP2 SLOAD DUP2 PUSH20 0xFFFFFFFFFFFFFFFFFFFFFFFFFFFFFFFFFFFFFFFF MUL NOT AND SWAP1 DUP4 PUSH20 0xFFFFFFFFFFFFFFFFFFFFFFFFFFFFFFFFFFFFFFFF AND MUL OR SWAP1 SSTORE POP CALLER PUSH20 0xFFFFFFFFFFFFFFFFFFFFFFFFFFFFFFFFFFFFFFFF AND PUSH32 0x26AD90FBC61F14A22F36E3F307F548D6D4CB6193EC8FDFD8903077E2E3D8953D DUP5 CALLVALUE PUSH1 0x40 MLOAD PUSH2 0x1E4D SWAP3 SWAP2 SWAP1 PUSH2 0x5345 JUMP JUMPDEST PUSH1 0x40 MLOAD DUP1 SWAP2 SUB SWAP1 LOG2 POP POP POP JUMP JUMPDEST PUSH1 0x2 PUSH1 0x0 SWAP1 SLOAD SWAP1 PUSH2 0x100 EXP SWAP1 DIV PUSH1 0xFF AND PUSH2 0x1EA9 JUMPI PUSH1 0x40 MLOAD PUSH32 0x8C379A000000000000000000000000000000000000000000000000000000000 DUP2 MSTORE PUSH1 0x4 ADD PUSH2 0x1EA0 SWAP1 PUSH2 0x4C05 JUMP JUMPDEST PUSH1 0x40 MLOAD DUP1 SWAP2 SUB SWAP1 REVERT JUMPDEST PUSH1 0x0 DUP4 CALLER PUSH1 0x40 MLOAD PUSH1 0x20 ADD PUSH2 0x1EBE SWAP3 SWAP2 SWAP1 PUSH2 0x521F JUMP JUMPDEST PUSH1 0x40 MLOAD PUSH1 0x20 DUP2 DUP4 SUB SUB DUP2 MSTORE SWAP1 PUSH1 0x40 MSTORE DUP1 MLOAD SWAP1 PUSH1 0x20 ADD KECCAK256 SWAP1 POP PUSH1 0xF PUSH1 0x0 DUP3 DUP2 MSTORE PUSH1 0x20 ADD SWAP1 DUP2 MSTORE PUSH1 0x20 ADD PUSH1 0x0 KECCAK256 PUSH1 0x0 ADD PUSH1 0x0 SWAP1 SLOAD SWAP1 PUSH2 0x100 EXP SWAP1 DIV PUSH1 0xFF AND ISZERO PUSH2 0x1F3A JUMPI PUSH1 0x40 MLOAD PUSH32 0x8C379A000000000000000000000000000000000000000000000000000000000 DUP2 MSTORE PUSH1 0x4 ADD PUSH2 0x1F31 SWAP1 PUSH2 0x56B8 JUMP JUMPDEST PUSH1 0x40 MLOAD DUP1 SWAP2 SUB SWAP1 REVERT JUMPDEST PUSH8 0x8AC7230489E80000 PUSH2 0x1F4C CALLER PUSH2 0x2C95 JUMP JUMPDEST LT ISZERO PUSH2 0x1F8D JUMPI PUSH1 0x40 MLOAD PUSH32 0x8C379A000000000000000000000000000000000000000000000000000000000 DUP2 MSTORE PUSH1 0x4 ADD PUSH2 0x1F84 SWAP1 PUSH2 0x5770 JUMP JUMPDEST PUSH1 0x40 MLOAD DUP1 SWAP2 SUB SWAP1 REVERT JUMPDEST PUSH1 0x40 MLOAD DUP1 PUSH1 0xE0 ADD PUSH1 0x40 MSTORE DUP1 PUSH1 0x1 ISZERO ISZERO DUP2 MSTORE PUSH1 0x20 ADD PUSH1 0xA PUSH1 0xFF AND DUP2 MSTORE PUSH1 0x20 ADD DUP4 DUP2 MSTORE PUSH1 0x20 ADD CALLER PUSH20 0xFFFFFFFFFFFFFFFFFFFFFFFFFFFFFFFFFFFFFFFF AND DUP2 MSTORE PUSH1 0x20 ADD DUP6 DUP2 MSTORE PUSH1 0x20 ADD DUP5 DUP2 MSTORE PUSH1 0x20 ADD PUSH2 0x1FE2 CALLER PUSH2 0x248B JUMP JUMPDEST DUP2 MSTORE POP PUSH1 0xF PUSH1 0x0 DUP4 DUP2 MSTORE PUSH1 0x20 ADD SWAP1 DUP2 MSTORE PUSH1 0x20 ADD PUSH1 0x0 KECCAK256 PUSH1 0x0 DUP3 ADD MLOAD DUP2 PUSH1 0x0 ADD PUSH1 0x0 PUSH2 0x100 EXP DUP2 SLOAD DUP2 PUSH1 0xFF MUL NOT AND SWAP1 DUP4 ISZERO ISZERO MUL OR SWAP1 SSTORE POP PUSH1 0x20 DUP3 ADD MLOAD DUP2 PUSH1 0x0 ADD PUSH1 0x1 PUSH2 0x100 EXP DUP2 SLOAD DUP2 PUSH1 0xFF MUL NOT AND SWAP1 DUP4 PUSH1 0xFF AND MUL OR SWAP1 SSTORE POP PUSH1 0x40 DUP3 ADD MLOAD DUP2 PUSH1 0x1 ADD SSTORE PUSH1 0x60 DUP3 ADD MLOAD DUP2 PUSH1 0x2 ADD PUSH1 0x0 PUSH2 0x100 EXP DUP2 SLOAD DUP2 PUSH20 0xFFFFFFFFFFFFFFFFFFFFFFFFFFFFFFFFFFFFFFFF MUL NOT AND SWAP1 DUP4 PUSH20 0xFFFFFFFFFFFFFFFFFFFFFFFFFFFFFFFFFFFFFFFF AND MUL OR SWAP1 SSTORE POP PUSH1 0x80 DUP3 ADD MLOAD DUP2 PUSH1 0x3 ADD SWAP1 DUP2 PUSH2 0x209F SWAP2 SWAP1 PUSH2 0x502B JUMP JUMPDEST POP PUSH1 0xA0 DUP3 ADD MLOAD DUP2 PUSH1 0x4 ADD SWAP1 DUP2 PUSH2 0x20B5 SWAP2 SWAP1 PUSH2 0x502B JUMP JUMPDEST POP PUSH1 0xC0 DUP3 ADD MLOAD DUP2 PUSH1 0x5 ADD SWAP1 DUP2 PUSH2 0x20CB SWAP2 SWAP1 PUSH2 0x502B JUMP JUMPDEST POP SWAP1 POP POP PUSH2 0x20D8 DUP5 PUSH2 0xD2E JUMP JUMPDEST PUSH1 0xC DUP2 SWAP1 DUP1 PUSH1 0x1 DUP2 SLOAD ADD DUP1 DUP3 SSTORE DUP1 SWAP2 POP POP PUSH1 0x1 SWAP1 SUB SWAP1 PUSH1 0x0 MSTORE PUSH1 0x20 PUSH1 0x0 KECCAK256 ADD PUSH1 0x0 SWAP1 SWAP2 SWAP1 SWAP2 SWAP1 SWAP2 POP SSTORE CALLER PUSH20 0xFFFFFFFFFFFFFFFFFFFFFFFFFFFFFFFFFFFFFFFF AND PUSH32 0x1FDC292E3EA5CEE43214C05C8E59FE9F90DA27D2D40EFE99499147C28463FA34 DUP6 PUSH1 0x40 MLOAD PUSH2 0x2147 SWAP2 SWAP1 PUSH2 0x46C3 JUMP JUMPDEST PUSH1 0x40 MLOAD DUP1 SWAP2 SUB SWAP1 LOG2 POP POP POP POP JUMP JUMPDEST PUSH1 0x2 PUSH1 0x0 SWAP1 SLOAD SWAP1 PUSH2 0x100 EXP SWAP1 DIV PUSH1 0xFF AND PUSH2 0x21A4 JUMPI PUSH1 0x40 MLOAD PUSH32 0x8C379A000000000000000000000000000000000000000000000000000000000 DUP2 MSTORE PUSH1 0x4 ADD PUSH2 0x219B SWAP1 PUSH2 0x4C05 JUMP JUMPDEST PUSH1 0x40 MLOAD DUP1 SWAP2 SUB SWAP1 REVERT JUMPDEST PUSH1 0x7 PUSH1 0x0 DUP4 PUSH20 0xFFFFFFFFFFFFFFFFFFFFFFFFFFFFFFFFFFFFFFFF AND PUSH20 0xFFFFFFFFFFFFFFFFFFFFFFFFFFFFFFFFFFFFFFFF AND DUP2 MSTORE PUSH1 0x20 ADD SWAP1 DUP2 MSTORE PUSH1 0x20 ADD PUSH1 0x0 KECCAK256 DUP2 SWAP1 DUP1 PUSH1 0x1 DUP2 SLOAD ADD DUP1 DUP3 SSTORE DUP1 SWAP2 POP POP PUSH1 0x1 SWAP1 SUB SWAP1 PUSH1 0x0 MSTORE PUSH1 0x20 PUSH1 0x0 KECCAK256 ADD PUSH1 0x0 SWAP1 SWAP2 SWAP1 SWAP2 SWAP1 SWAP2 PUSH2 0x100 EXP DUP2 SLOAD DUP2 PUSH20 0xFFFFFFFFFFFFFFFFFFFFFFFFFFFFFFFFFFFFFFFF MUL NOT AND SWAP1 DUP4 PUSH20 0xFFFFFFFFFFFFFFFFFFFFFFFFFFFFFFFFFFFFFFFF AND MUL OR SWAP1 SSTORE POP POP POP JUMP JUMPDEST PUSH1 0x60 PUSH1 0x0 PUSH1 0x4 DUP1 SLOAD SWAP1 POP PUSH8 0xFFFFFFFFFFFFFFFF DUP2 GT ISZERO PUSH2 0x226B JUMPI PUSH2 0x226A PUSH2 0x40AE JUMP JUMPDEST JUMPDEST PUSH1 0x40 MLOAD SWAP1 DUP1 DUP3 MSTORE DUP1 PUSH1 0x20 MUL PUSH1 0x20 ADD DUP3 ADD PUSH1 0x40 MSTORE DUP1 ISZERO PUSH2 0x22A4 JUMPI DUP2 PUSH1 0x20 ADD JUMPDEST PUSH2 0x2291 PUSH2 0x3E5A JUMP JUMPDEST DUP2 MSTORE PUSH1 0x20 ADD SWAP1 PUSH1 0x1 SWAP1 SUB SWAP1 DUP2 PUSH2 0x2289 JUMPI SWAP1 POP JUMPDEST POP SWAP1 POP PUSH1 0x0 JUMPDEST PUSH1 0x4 DUP1 SLOAD SWAP1 POP DUP2 LT ISZERO PUSH2 0x2483 JUMPI PUSH1 0x0 PUSH1 0x5 PUSH1 0x0 PUSH1 0x4 DUP5 DUP2 SLOAD DUP2 LT PUSH2 0x22D1 JUMPI PUSH2 0x22D0 PUSH2 0x53E1 JUMP JUMPDEST JUMPDEST SWAP1 PUSH1 0x0 MSTORE PUSH1 0x20 PUSH1 0x0 KECCAK256 ADD PUSH1 0x0 SWAP1 SLOAD SWAP1 PUSH2 0x100 EXP SWAP1 DIV PUSH20 0xFFFFFFFFFFFFFFFFFFFFFFFFFFFFFFFFFFFFFFFF AND PUSH20 0xFFFFFFFFFFFFFFFFFFFFFFFFFFFFFFFFFFFFFFFF AND PUSH20 0xFFFFFFFFFFFFFFFFFFFFFFFFFFFFFFFFFFFFFFFF AND DUP2 MSTORE PUSH1 0x20 ADD SWAP1 DUP2 MSTORE PUSH1 0x20 ADD PUSH1 0x0 KECCAK256 SWAP1 POP DUP1 PUSH1 0x40 MLOAD DUP1 PUSH1 0x80 ADD PUSH1 0x40 MSTORE SWAP1 DUP2 PUSH1 0x0 DUP3 ADD DUP1 SLOAD PUSH2 0x2354 SWAP1 PUSH2 0x4E4E JUMP JUMPDEST DUP1 PUSH1 0x1F ADD PUSH1 0x20 DUP1 SWAP2 DIV MUL PUSH1 0x20 ADD PUSH1 0x40 MLOAD SWAP1 DUP2 ADD PUSH1 0x40 MSTORE DUP1 SWAP3 SWAP2 SWAP1 DUP2 DUP2 MSTORE PUSH1 0x20 ADD DUP3 DUP1 SLOAD PUSH2 0x2380 SWAP1 PUSH2 0x4E4E JUMP JUMPDEST DUP1 ISZERO PUSH2 0x23CD JUMPI DUP1 PUSH1 0x1F LT PUSH2 0x23A2 JUMPI PUSH2 0x100 DUP1 DUP4 SLOAD DIV MUL DUP4 MSTORE SWAP2 PUSH1 0x20 ADD SWAP2 PUSH2 0x23CD JUMP JUMPDEST DUP3 ADD SWAP2 SWAP1 PUSH1 0x0 MSTORE PUSH1 0x20 PUSH1 0x0 KECCAK256 SWAP1 JUMPDEST DUP2 SLOAD DUP2 MSTORE SWAP1 PUSH1 0x1 ADD SWAP1 PUSH1 0x20 ADD DUP1 DUP4 GT PUSH2 0x23B0 JUMPI DUP3 SWAP1 SUB PUSH1 0x1F AND DUP3 ADD SWAP2 JUMPDEST POP POP POP POP POP DUP2 MSTORE PUSH1 0x20 ADD PUSH1 0x1 DUP3 ADD PUSH1 0x0 SWAP1 SLOAD SWAP1 PUSH2 0x100 EXP SWAP1 DIV PUSH20 0xFFFFFFFFFFFFFFFFFFFFFFFFFFFFFFFFFFFFFFFF AND PUSH20 0xFFFFFFFFFFFFFFFFFFFFFFFFFFFFFFFFFFFFFFFF AND PUSH20 0xFFFFFFFFFFFFFFFFFFFFFFFFFFFFFFFFFFFFFFFF AND DUP2 MSTORE PUSH1 0x20 ADD PUSH1 0x1 DUP3 ADD PUSH1 0x14 SWAP1 SLOAD SWAP1 PUSH2 0x100 EXP SWAP1 DIV PUSH1 0xFF AND ISZERO ISZERO ISZERO ISZERO DUP2 MSTORE PUSH1 0x20 ADD PUSH1 0x2 DUP3 ADD SLOAD DUP2 MSTORE POP POP DUP4 DUP4 DUP2 MLOAD DUP2 LT PUSH2 0x2464 JUMPI PUSH2 0x2463 PUSH2 0x53E1 JUMP JUMPDEST JUMPDEST PUSH1 0x20 MUL PUSH1 0x20 ADD ADD DUP2 SWAP1 MSTORE POP POP DUP1 DUP1 PUSH2 0x247B SWAP1 PUSH2 0x50FD JUMP JUMPDEST SWAP2 POP POP PUSH2 0x22AA JUMP JUMPDEST POP DUP1 SWAP2 POP POP SWAP1 JUMP JUMPDEST PUSH1 0x60 PUSH1 0x2 PUSH1 0x0 SWAP1 SLOAD SWAP1 PUSH2 0x100 EXP SWAP1 DIV PUSH1 0xFF AND PUSH2 0x24DC JUMPI PUSH1 0x40 MLOAD PUSH32 0x8C379A000000000000000000000000000000000000000000000000000000000 DUP2 MSTORE PUSH1 0x4 ADD PUSH2 0x24D3 SWAP1 PUSH2 0x4C05 JUMP JUMPDEST PUSH1 0x40 MLOAD DUP1 SWAP2 SUB SWAP1 REVERT JUMPDEST PUSH1 0x5 PUSH1 0x0 DUP4 PUSH20 0xFFFFFFFFFFFFFFFFFFFFFFFFFFFFFFFFFFFFFFFF AND PUSH20 0xFFFFFFFFFFFFFFFFFFFFFFFFFFFFFFFFFFFFFFFF AND DUP2 MSTORE PUSH1 0x20 ADD SWAP1 DUP2 MSTORE PUSH1 0x20 ADD PUSH1 0x0 KECCAK256 PUSH1 0x0 ADD DUP1 SLOAD PUSH2 0x2529 SWAP1 PUSH2 0x4E4E JUMP JUMPDEST DUP1 PUSH1 0x1F ADD PUSH1 0x20 DUP1 SWAP2 DIV MUL PUSH1 0x20 ADD PUSH1 0x40 MLOAD SWAP1 DUP2 ADD PUSH1 0x40 MSTORE DUP1 SWAP3 SWAP2 SWAP1 DUP2 DUP2 MSTORE PUSH1 0x20 ADD DUP3 DUP1 SLOAD PUSH2 0x2555 SWAP1 PUSH2 0x4E4E JUMP JUMPDEST DUP1 ISZERO PUSH2 0x25A2 JUMPI DUP1 PUSH1 0x1F LT PUSH2 0x2577 JUMPI PUSH2 0x100 DUP1 DUP4 SLOAD DIV MUL DUP4 MSTORE SWAP2 PUSH1 0x20 ADD SWAP2 PUSH2 0x25A2 JUMP JUMPDEST DUP3 ADD SWAP2 SWAP1 PUSH1 0x0 MSTORE PUSH1 0x20 PUSH1 0x0 KECCAK256 SWAP1 JUMPDEST DUP2 SLOAD DUP2 MSTORE SWAP1 PUSH1 0x1 ADD SWAP1 PUSH1 0x20 ADD DUP1 DUP4 GT PUSH2 0x2585 JUMPI DUP3 SWAP1 SUB PUSH1 0x1F AND DUP3 ADD SWAP2 JUMPDEST POP POP POP POP POP SWAP1 POP SWAP2 SWAP1 POP JUMP JUMPDEST PUSH2 0x25B6 PUSH2 0x3E9A JUMP JUMPDEST PUSH1 0x11 PUSH1 0x0 CALLER PUSH20 0xFFFFFFFFFFFFFFFFFFFFFFFFFFFFFFFFFFFFFFFF AND PUSH20 0xFFFFFFFFFFFFFFFFFFFFFFFFFFFFFFFFFFFFFFFF AND DUP2 MSTORE PUSH1 0x20 ADD SWAP1 DUP2 MSTORE PUSH1 0x20 ADD PUSH1 0x0 KECCAK256 PUSH1 0x0 ADD PUSH1 0x0 SWAP1 SLOAD SWAP1 PUSH2 0x100 EXP SWAP1 DIV PUSH1 0xFF AND PUSH2 0x2645 JUMPI PUSH1 0x40 MLOAD PUSH32 0x8C379A000000000000000000000000000000000000000000000000000000000 DUP2 MSTORE PUSH1 0x4 ADD PUSH2 0x263C SWAP1 PUSH2 0x57DC JUMP JUMPDEST PUSH1 0x40 MLOAD DUP1 SWAP2 SUB SWAP1 REVERT JUMPDEST PUSH1 0x11 PUSH1 0x0 CALLER PUSH20 0xFFFFFFFFFFFFFFFFFFFFFFFFFFFFFFFFFFFFFFFF AND PUSH20 0xFFFFFFFFFFFFFFFFFFFFFFFFFFFFFFFFFFFFFFFF AND DUP2 MSTORE PUSH1 0x20 ADD SWAP1 DUP2 MSTORE PUSH1 0x20 ADD PUSH1 0x0 KECCAK256 PUSH1 0x1 ADD PUSH1 0x3 DUP1 PUSH1 0x20 MUL PUSH1 0x40 MLOAD SWAP1 DUP2 ADD PUSH1 0x40 MSTORE DUP1 SWAP3 SWAP2 SWAP1 DUP3 PUSH1 0x3 DUP1 ISZERO PUSH2 0x26E4 JUMPI PUSH1 0x20 MUL DUP3 ADD SWAP2 PUSH1 0x0 SWAP1 JUMPDEST DUP3 DUP3 SWAP1 SLOAD SWAP1 PUSH2 0x100 EXP SWAP1 DIV PUSH1 0xFF AND PUSH1 0xFF AND DUP2 MSTORE PUSH1 0x20 ADD SWAP1 PUSH1 0x1 ADD SWAP1 PUSH1 0x20 DUP3 PUSH1 0x0 ADD DIV SWAP3 DUP4 ADD SWAP3 PUSH1 0x1 SUB DUP3 MUL SWAP2 POP DUP1 DUP5 GT PUSH2 0x26AD JUMPI SWAP1 POP JUMPDEST POP POP POP POP POP SWAP1 POP SWAP1 JUMP JUMPDEST PUSH8 0xDE0B6B3A7640000 DUP2 JUMP JUMPDEST PUSH1 0x4 DUP2 DUP2 SLOAD DUP2 LT PUSH2 0x270A JUMPI PUSH1 0x0 DUP1 REVERT JUMPDEST SWAP1 PUSH1 0x0 MSTORE PUSH1 0x20 PUSH1 0x0 KECCAK256 ADD PUSH1 0x0 SWAP2 POP SLOAD SWAP1 PUSH2 0x100 EXP SWAP1 DIV PUSH20 0xFFFFFFFFFFFFFFFFFFFFFFFFFFFFFFFFFFFFFFFF AND DUP2 JUMP JUMPDEST PUSH1 0x60 PUSH1 0x0 DUP1 PUSH1 0x2 PUSH1 0x0 SWAP1 SLOAD SWAP1 PUSH2 0x100 EXP SWAP1 DIV PUSH1 0xFF AND PUSH2 0x278D JUMPI PUSH1 0x40 MLOAD PUSH32 0x8C379A000000000000000000000000000000000000000000000000000000000 DUP2 MSTORE PUSH1 0x4 ADD PUSH2 0x2784 SWAP1 PUSH2 0x4C05 JUMP JUMPDEST PUSH1 0x40 MLOAD DUP1 SWAP2 SUB SWAP1 REVERT JUMPDEST PUSH1 0x0 PUSH1 0x5 PUSH1 0x0 DUP7 PUSH20 0xFFFFFFFFFFFFFFFFFFFFFFFFFFFFFFFFFFFFFFFF AND PUSH20 0xFFFFFFFFFFFFFFFFFFFFFFFFFFFFFFFFFFFFFFFF AND DUP2 MSTORE PUSH1 0x20 ADD SWAP1 DUP2 MSTORE PUSH1 0x20 ADD PUSH1 0x0 KECCAK256 PUSH1 0x40 MLOAD DUP1 PUSH1 0x80 ADD PUSH1 0x40 MSTORE SWAP1 DUP2 PUSH1 0x0 DUP3 ADD DUP1 SLOAD PUSH2 0x27E9 SWAP1 PUSH2 0x4E4E JUMP JUMPDEST DUP1 PUSH1 0x1F ADD PUSH1 0x20 DUP1 SWAP2 DIV MUL PUSH1 0x20 ADD PUSH1 0x40 MLOAD SWAP1 DUP2 ADD PUSH1 0x40 MSTORE DUP1 SWAP3 SWAP2 SWAP1 DUP2 DUP2 MSTORE PUSH1 0x20 ADD DUP3 DUP1 SLOAD PUSH2 0x2815 SWAP1 PUSH2 0x4E4E JUMP JUMPDEST DUP1 ISZERO PUSH2 0x2862 JUMPI DUP1 PUSH1 0x1F LT PUSH2 0x2837 JUMPI PUSH2 0x100 DUP1 DUP4 SLOAD DIV MUL DUP4 MSTORE SWAP2 PUSH1 0x20 ADD SWAP2 PUSH2 0x2862 JUMP JUMPDEST DUP3 ADD SWAP2 SWAP1 PUSH1 0x0 MSTORE PUSH1 0x20 PUSH1 0x0 KECCAK256 SWAP1 JUMPDEST DUP2 SLOAD DUP2 MSTORE SWAP1 PUSH1 0x1 ADD SWAP1 PUSH1 0x20 ADD DUP1 DUP4 GT PUSH2 0x2845 JUMPI DUP3 SWAP1 SUB PUSH1 0x1F AND DUP3 ADD SWAP2 JUMPDEST POP POP POP POP POP DUP2 MSTORE PUSH1 0x20 ADD PUSH1 0x1 DUP3 ADD PUSH1 0x0 SWAP1 SLOAD SWAP1 PUSH2 0x100 EXP SWAP1 DIV PUSH20 0xFFFFFFFFFFFFFFFFFFFFFFFFFFFFFFFFFFFFFFFF AND PUSH20 0xFFFFFFFFFFFFFFFFFFFFFFFFFFFFFFFFFFFFFFFF AND PUSH20 0xFFFFFFFFFFFFFFFFFFFFFFFFFFFFFFFFFFFFFFFF AND DUP2 MSTORE PUSH1 0x20 ADD PUSH1 0x1 DUP3 ADD PUSH1 0x14 SWAP1 SLOAD SWAP1 PUSH2 0x100 EXP SWAP1 DIV PUSH1 0xFF AND ISZERO ISZERO ISZERO ISZERO DUP2 MSTORE PUSH1 0x20 ADD PUSH1 0x2 DUP3 ADD SLOAD DUP2 MSTORE POP POP SWAP1 POP DUP1 PUSH1 0x0 ADD MLOAD SWAP4 POP DUP1 PUSH1 0x40 ADD MLOAD SWAP3 POP DUP1 PUSH1 0x60 ADD MLOAD SWAP2 POP POP SWAP2 SWAP4 SWAP1 SWAP3 POP JUMP JUMPDEST PUSH1 0x0 DUP1 PUSH1 0x0 SWAP1 SLOAD SWAP1 PUSH2 0x100 EXP SWAP1 DIV PUSH20 0xFFFFFFFFFFFFFFFFFFFFFFFFFFFFFFFFFFFFFFFF AND PUSH20 0xFFFFFFFFFFFFFFFFFFFFFFFFFFFFFFFFFFFFFFFF AND CALLER PUSH20 0xFFFFFFFFFFFFFFFFFFFFFFFFFFFFFFFFFFFFFFFF AND EQ SWAP1 POP SWAP1 JUMP JUMPDEST PUSH1 0x60 PUSH1 0x0 PUSH1 0xC DUP1 SLOAD SWAP1 POP SWAP1 POP PUSH1 0x0 DUP2 PUSH8 0xFFFFFFFFFFFFFFFF DUP2 GT ISZERO PUSH2 0x2984 JUMPI PUSH2 0x2983 PUSH2 0x40AE JUMP JUMPDEST JUMPDEST PUSH1 0x40 MLOAD SWAP1 DUP1 DUP3 MSTORE DUP1 PUSH1 0x20 MUL PUSH1 0x20 ADD DUP3 ADD PUSH1 0x40 MSTORE DUP1 ISZERO PUSH2 0x29BD JUMPI DUP2 PUSH1 0x20 ADD JUMPDEST PUSH2 0x29AA PUSH2 0x3EBC JUMP JUMPDEST DUP2 MSTORE PUSH1 0x20 ADD SWAP1 PUSH1 0x1 SWAP1 SUB SWAP1 DUP2 PUSH2 0x29A2 JUMPI SWAP1 POP JUMPDEST POP SWAP1 POP PUSH1 0x0 JUMPDEST DUP3 DUP2 LT ISZERO PUSH2 0x2C8C JUMPI PUSH1 0x0 PUSH1 0xC DUP3 DUP2 SLOAD DUP2 LT PUSH2 0x29E1 JUMPI PUSH2 0x29E0 PUSH2 0x53E1 JUMP JUMPDEST JUMPDEST SWAP1 PUSH1 0x0 MSTORE PUSH1 0x20 PUSH1 0x0 KECCAK256 ADD SLOAD SWAP1 POP PUSH1 0xF PUSH1 0x0 DUP3 DUP2 MSTORE PUSH1 0x20 ADD SWAP1 DUP2 MSTORE PUSH1 0x20 ADD PUSH1 0x0 KECCAK256 PUSH1 0x40 MLOAD DUP1 PUSH1 0xE0 ADD PUSH1 0x40 MSTORE SWAP1 DUP2 PUSH1 0x0 DUP3 ADD PUSH1 0x0 SWAP1 SLOAD SWAP1 PUSH2 0x100 EXP SWAP1 DIV PUSH1 0xFF AND ISZERO ISZERO ISZERO ISZERO DUP2 MSTORE PUSH1 0x20 ADD PUSH1 0x0 DUP3 ADD PUSH1 0x1 SWAP1 SLOAD SWAP1 PUSH2 0x100 EXP SWAP1 DIV PUSH1 0xFF AND PUSH1 0xFF AND PUSH1 0xFF AND DUP2 MSTORE PUSH1 0x20 ADD PUSH1 0x1 DUP3 ADD SLOAD DUP2 MSTORE PUSH1 0x20 ADD PUSH1 0x2 DUP3 ADD PUSH1 0x0 SWAP1 SLOAD SWAP1 PUSH2 0x100 EXP SWAP1 DIV PUSH20 0xFFFFFFFFFFFFFFFFFFFFFFFFFFFFFFFFFFFFFFFF AND PUSH20 0xFFFFFFFFFFFFFFFFFFFFFFFFFFFFFFFFFFFFFFFF AND PUSH20 0xFFFFFFFFFFFFFFFFFFFFFFFFFFFFFFFFFFFFFFFF AND DUP2 MSTORE PUSH1 0x20 ADD PUSH1 0x3 DUP3 ADD DUP1 SLOAD PUSH2 0x2AB4 SWAP1 PUSH2 0x4E4E JUMP JUMPDEST DUP1 PUSH1 0x1F ADD PUSH1 0x20 DUP1 SWAP2 DIV MUL PUSH1 0x20 ADD PUSH1 0x40 MLOAD SWAP1 DUP2 ADD PUSH1 0x40 MSTORE DUP1 SWAP3 SWAP2 SWAP1 DUP2 DUP2 MSTORE PUSH1 0x20 ADD DUP3 DUP1 SLOAD PUSH2 0x2AE0 SWAP1 PUSH2 0x4E4E JUMP JUMPDEST DUP1 ISZERO PUSH2 0x2B2D JUMPI DUP1 PUSH1 0x1F LT PUSH2 0x2B02 JUMPI PUSH2 0x100 DUP1 DUP4 SLOAD DIV MUL DUP4 MSTORE SWAP2 PUSH1 0x20 ADD SWAP2 PUSH2 0x2B2D JUMP JUMPDEST DUP3 ADD SWAP2 SWAP1 PUSH1 0x0 MSTORE PUSH1 0x20 PUSH1 0x0 KECCAK256 SWAP1 JUMPDEST DUP2 SLOAD DUP2 MSTORE SWAP1 PUSH1 0x1 ADD SWAP1 PUSH1 0x20 ADD DUP1 DUP4 GT PUSH2 0x2B10 JUMPI DUP3 SWAP1 SUB PUSH1 0x1F AND DUP3 ADD SWAP2 JUMPDEST POP POP POP POP POP DUP2 MSTORE PUSH1 0x20 ADD PUSH1 0x4 DUP3 ADD DUP1 SLOAD PUSH2 0x2B46 SWAP1 PUSH2 0x4E4E JUMP JUMPDEST DUP1 PUSH1 0x1F ADD PUSH1 0x20 DUP1 SWAP2 DIV MUL PUSH1 0x20 ADD PUSH1 0x40 MLOAD SWAP1 DUP2 ADD PUSH1 0x40 MSTORE DUP1 SWAP3 SWAP2 SWAP1 DUP2 DUP2 MSTORE PUSH1 0x20 ADD DUP3 DUP1 SLOAD PUSH2 0x2B72 SWAP1 PUSH2 0x4E4E JUMP JUMPDEST DUP1 ISZERO PUSH2 0x2BBF JUMPI DUP1 PUSH1 0x1F LT PUSH2 0x2B94 JUMPI PUSH2 0x100 DUP1 DUP4 SLOAD DIV MUL DUP4 MSTORE SWAP2 PUSH1 0x20 ADD SWAP2 PUSH2 0x2BBF JUMP JUMPDEST DUP3 ADD SWAP2 SWAP1 PUSH1 0x0 MSTORE PUSH1 0x20 PUSH1 0x0 KECCAK256 SWAP1 JUMPDEST DUP2 SLOAD DUP2 MSTORE SWAP1 PUSH1 0x1 ADD SWAP1 PUSH1 0x20 ADD DUP1 DUP4 GT PUSH2 0x2BA2 JUMPI DUP3 SWAP1 SUB PUSH1 0x1F AND DUP3 ADD SWAP2 JUMPDEST POP POP POP POP POP DUP2 MSTORE PUSH1 0x20 ADD PUSH1 0x5 DUP3 ADD DUP1 SLOAD PUSH2 0x2BD8 SWAP1 PUSH2 0x4E4E JUMP JUMPDEST DUP1 PUSH1 0x1F ADD PUSH1 0x20 DUP1 SWAP2 DIV MUL PUSH1 0x20 ADD PUSH1 0x40 MLOAD SWAP1 DUP2 ADD PUSH1 0x40 MSTORE DUP1 SWAP3 SWAP2 SWAP1 DUP2 DUP2 MSTORE PUSH1 0x20 ADD DUP3 DUP1 SLOAD PUSH2 0x2C04 SWAP1 PUSH2 0x4E4E JUMP JUMPDEST DUP1 ISZERO PUSH2 0x2C51 JUMPI DUP1 PUSH1 0x1F LT PUSH2 0x2C26 JUMPI PUSH2 0x100 DUP1 DUP4 SLOAD DIV MUL DUP4 MSTORE SWAP2 PUSH1 0x20 ADD SWAP2 PUSH2 0x2C51 JUMP JUMPDEST DUP3 ADD SWAP2 SWAP1 PUSH1 0x0 MSTORE PUSH1 0x20 PUSH1 0x0 KECCAK256 SWAP1 JUMPDEST DUP2 SLOAD DUP2 MSTORE SWAP1 PUSH1 0x1 ADD SWAP1 PUSH1 0x20 ADD DUP1 DUP4 GT PUSH2 0x2C34 JUMPI DUP3 SWAP1 SUB PUSH1 0x1F AND DUP3 ADD SWAP2 JUMPDEST POP POP POP POP POP DUP2 MSTORE POP POP DUP4 DUP4 DUP2 MLOAD DUP2 LT PUSH2 0x2C6D JUMPI PUSH2 0x2C6C PUSH2 0x53E1 JUMP JUMPDEST JUMPDEST PUSH1 0x20 MUL PUSH1 0x20 ADD ADD DUP2 SWAP1 MSTORE POP POP DUP1 DUP1 PUSH2 0x2C84 SWAP1 PUSH2 0x50FD JUMP JUMPDEST SWAP2 POP POP PUSH2 0x29C3 JUMP JUMPDEST POP DUP1 SWAP3 POP POP POP SWAP1 JUMP JUMPDEST PUSH1 0x0 PUSH1 0x2 PUSH1 0x0 SWAP1 SLOAD SWAP1 PUSH2 0x100 EXP SWAP1 DIV PUSH1 0xFF AND PUSH2 0x2CE6 JUMPI PUSH1 0x40 MLOAD PUSH32 0x8C379A000000000000000000000000000000000000000000000000000000000 DUP2 MSTORE PUSH1 0x4 ADD PUSH2 0x2CDD SWAP1 PUSH2 0x4C05 JUMP JUMPDEST PUSH1 0x40 MLOAD DUP1 SWAP2 SUB SWAP1 REVERT JUMPDEST PUSH1 0x5 PUSH1 0x0 DUP4 PUSH20 0xFFFFFFFFFFFFFFFFFFFFFFFFFFFFFFFFFFFFFFFF AND PUSH20 0xFFFFFFFFFFFFFFFFFFFFFFFFFFFFFFFFFFFFFFFF AND DUP2 MSTORE PUSH1 0x20 ADD SWAP1 DUP2 MSTORE PUSH1 0x20 ADD PUSH1 0x0 KECCAK256 PUSH1 0x2 ADD SLOAD SWAP1 POP SWAP2 SWAP1 POP JUMP JUMPDEST PUSH1 0x0 PUSH1 0x2 PUSH1 0x0 SWAP1 SLOAD SWAP1 PUSH2 0x100 EXP SWAP1 DIV PUSH1 0xFF AND PUSH2 0x2D81 JUMPI PUSH1 0x40 MLOAD PUSH32 0x8C379A000000000000000000000000000000000000000000000000000000000 DUP2 MSTORE PUSH1 0x4 ADD PUSH2 0x2D78 SWAP1 PUSH2 0x4C05 JUMP JUMPDEST PUSH1 0x40 MLOAD DUP1 SWAP2 SUB SWAP1 REVERT JUMPDEST PUSH1 0x6 PUSH1 0x0 DUP4 PUSH20 0xFFFFFFFFFFFFFFFFFFFFFFFFFFFFFFFFFFFFFFFF AND PUSH20 0xFFFFFFFFFFFFFFFFFFFFFFFFFFFFFFFFFFFFFFFF AND DUP2 MSTORE PUSH1 0x20 ADD SWAP1 DUP2 MSTORE PUSH1 0x20 ADD PUSH1 0x0 KECCAK256 SLOAD SWAP1 POP SWAP2 SWAP1 POP JUMP JUMPDEST PUSH1 0x0 DUP1 SLOAD SWAP1 PUSH2 0x100 EXP SWAP1 DIV PUSH20 0xFFFFFFFFFFFFFFFFFFFFFFFFFFFFFFFFFFFFFFFF AND PUSH20 0xFFFFFFFFFFFFFFFFFFFFFFFFFFFFFFFFFFFFFFFF AND CALLER PUSH20 0xFFFFFFFFFFFFFFFFFFFFFFFFFFFFFFFFFFFFFFFF AND EQ PUSH2 0x2E56 JUMPI PUSH1 0x40 MLOAD PUSH32 0x8C379A000000000000000000000000000000000000000000000000000000000 DUP2 MSTORE PUSH1 0x4 ADD PUSH2 0x2E4D SWAP1 PUSH2 0x4D40 JUMP JUMPDEST PUSH1 0x40 MLOAD DUP1 SWAP2 SUB SWAP1 REVERT JUMPDEST PUSH1 0x2 PUSH1 0x0 SWAP1 SLOAD SWAP1 PUSH2 0x100 EXP SWAP1 DIV PUSH1 0xFF AND PUSH2 0x2EA5 JUMPI PUSH1 0x40 MLOAD PUSH32 0x8C379A000000000000000000000000000000000000000000000000000000000 DUP2 MSTORE PUSH1 0x4 ADD PUSH2 0x2E9C SWAP1 PUSH2 0x4C05 JUMP JUMPDEST PUSH1 0x40 MLOAD DUP1 SWAP2 SUB SWAP1 REVERT JUMPDEST PUSH1 0x8 PUSH1 0x0 DUP3 PUSH20 0xFFFFFFFFFFFFFFFFFFFFFFFFFFFFFFFFFFFFFFFF AND PUSH20 0xFFFFFFFFFFFFFFFFFFFFFFFFFFFFFFFFFFFFFFFF AND DUP2 MSTORE PUSH1 0x20 ADD SWAP1 DUP2 MSTORE PUSH1 0x20 ADD PUSH1 0x0 KECCAK256 PUSH1 0x0 SWAP1 SSTORE DUP1 PUSH20 0xFFFFFFFFFFFFFFFFFFFFFFFFFFFFFFFFFFFFFFFF AND PUSH32 0xD5CF915BCF19EE4A2EDF05F0ADD6E4520E02EDA58F4B4A99387BE2A7AE79CEFB PUSH1 0x40 MLOAD PUSH1 0x40 MLOAD DUP1 SWAP2 SUB SWAP1 LOG2 POP JUMP JUMPDEST PUSH1 0x0 DUP1 DUP3 CALLER PUSH1 0x40 MLOAD PUSH1 0x20 ADD PUSH2 0x2F44 SWAP3 SWAP2 SWAP1 PUSH2 0x521F JUMP JUMPDEST PUSH1 0x40 MLOAD PUSH1 0x20 DUP2 DUP4 SUB SUB DUP2 MSTORE SWAP1 PUSH1 0x40 MSTORE DUP1 MLOAD SWAP1 PUSH1 0x20 ADD KECCAK256 SWAP1 POP PUSH1 0xA PUSH1 0x0 DUP3 DUP2 MSTORE PUSH1 0x20 ADD SWAP1 DUP2 MSTORE PUSH1 0x20 ADD PUSH1 0x0 KECCAK256 PUSH1 0x2 ADD SLOAD SWAP2 POP POP SWAP2 SWAP1 POP JUMP JUMPDEST PUSH1 0x0 PUSH1 0x2 PUSH1 0x0 SWAP1 SLOAD SWAP1 PUSH2 0x100 EXP SWAP1 DIV PUSH1 0xFF AND PUSH2 0x2FCC JUMPI PUSH1 0x40 MLOAD PUSH32 0x8C379A000000000000000000000000000000000000000000000000000000000 DUP2 MSTORE PUSH1 0x4 ADD PUSH2 0x2FC3 SWAP1 PUSH2 0x4C05 JUMP JUMPDEST PUSH1 0x40 MLOAD DUP1 SWAP2 SUB SWAP1 REVERT JUMPDEST PUSH1 0x0 DUP4 DUP4 PUSH1 0x40 MLOAD PUSH1 0x20 ADD PUSH2 0x2FE1 SWAP3 SWAP2 SWAP1 PUSH2 0x521F JUMP JUMPDEST PUSH1 0x40 MLOAD PUSH1 0x20 DUP2 DUP4 SUB SUB DUP2 MSTORE SWAP1 PUSH1 0x40 MSTORE DUP1 MLOAD SWAP1 PUSH1 0x20 ADD KECCAK256 SWAP1 POP PUSH1 0xF PUSH1 0x0 DUP3 DUP2 MSTORE PUSH1 0x20 ADD SWAP1 DUP2 MSTORE PUSH1 0x20 ADD PUSH1 0x0 KECCAK256 PUSH1 0x0 ADD PUSH1 0x1 SWAP1 SLOAD SWAP1 PUSH2 0x100 EXP SWAP1 DIV PUSH1 0xFF AND SWAP2 POP POP SWAP3 SWAP2 POP POP JUMP JUMPDEST DUP5 PUSH1 0xFF AND PUSH1 0x11 PUSH1 0x0 CALLER PUSH20 0xFFFFFFFFFFFFFFFFFFFFFFFFFFFFFFFFFFFFFFFF AND PUSH20 0xFFFFFFFFFFFFFFFFFFFFFFFFFFFFFFFFFFFFFFFF AND DUP2 MSTORE PUSH1 0x20 ADD SWAP1 DUP2 MSTORE PUSH1 0x20 ADD PUSH1 0x0 KECCAK256 PUSH1 0x1 ADD PUSH1 0x0 PUSH1 0x3 DUP2 LT PUSH2 0x307F JUMPI PUSH2 0x307E PUSH2 0x53E1 JUMP JUMPDEST JUMPDEST PUSH1 0x20 SWAP2 DUP3 DUP3 DIV ADD SWAP2 SWAP1 MOD SWAP1 SLOAD SWAP1 PUSH2 0x100 EXP SWAP1 DIV PUSH1 0xFF AND PUSH1 0xFF AND EQ DUP1 PUSH2 0x3113 JUMPI POP DUP5 PUSH1 0xFF AND PUSH1 0x11 PUSH1 0x0 CALLER PUSH20 0xFFFFFFFFFFFFFFFFFFFFFFFFFFFFFFFFFFFFFFFF AND PUSH20 0xFFFFFFFFFFFFFFFFFFFFFFFFFFFFFFFFFFFFFFFF AND DUP2 MSTORE PUSH1 0x20 ADD SWAP1 DUP2 MSTORE PUSH1 0x20 ADD PUSH1 0x0 KECCAK256 PUSH1 0x1 ADD PUSH1 0x1 PUSH1 0x3 DUP2 LT PUSH2 0x30F8 JUMPI PUSH2 0x30F7 PUSH2 0x53E1 JUMP JUMPDEST JUMPDEST PUSH1 0x20 SWAP2 DUP3 DUP3 DIV ADD SWAP2 SWAP1 MOD SWAP1 SLOAD SWAP1 PUSH2 0x100 EXP SWAP1 DIV PUSH1 0xFF AND PUSH1 0xFF AND EQ JUMPDEST DUP1 PUSH2 0x318D JUMPI POP DUP5 PUSH1 0xFF AND PUSH1 0x11 PUSH1 0x0 CALLER PUSH20 0xFFFFFFFFFFFFFFFFFFFFFFFFFFFFFFFFFFFFFFFF AND PUSH20 0xFFFFFFFFFFFFFFFFFFFFFFFFFFFFFFFFFFFFFFFF AND DUP2 MSTORE PUSH1 0x20 ADD SWAP1 DUP2 MSTORE PUSH1 0x20 ADD PUSH1 0x0 KECCAK256 PUSH1 0x1 ADD PUSH1 0x2 PUSH1 0x3 DUP2 LT PUSH2 0x3172 JUMPI PUSH2 0x3171 PUSH2 0x53E1 JUMP JUMPDEST JUMPDEST PUSH1 0x20 SWAP2 DUP3 DUP3 DIV ADD SWAP2 SWAP1 MOD SWAP1 SLOAD SWAP1 PUSH2 0x100 EXP SWAP1 DIV PUSH1 0xFF AND PUSH1 0xFF AND EQ JUMPDEST PUSH2 0x31CC JUMPI PUSH1 0x40 MLOAD PUSH32 0x8C379A000000000000000000000000000000000000000000000000000000000 DUP2 MSTORE PUSH1 0x4 ADD PUSH2 0x31C3 SWAP1 PUSH2 0x586E JUMP JUMPDEST PUSH1 0x40 MLOAD DUP1 SWAP2 SUB SWAP1 REVERT JUMPDEST PUSH1 0x0 DUP6 DUP6 DUP6 DUP6 PUSH1 0x40 MLOAD PUSH1 0x20 ADD PUSH2 0x31E5 SWAP5 SWAP4 SWAP3 SWAP2 SWAP1 PUSH2 0x58E5 JUMP JUMPDEST PUSH1 0x40 MLOAD PUSH1 0x20 DUP2 DUP4 SUB SUB DUP2 MSTORE SWAP1 PUSH1 0x40 MSTORE DUP1 MLOAD SWAP1 PUSH1 0x20 ADD KECCAK256 SWAP1 POP PUSH1 0x10 PUSH1 0x0 DUP3 DUP2 MSTORE PUSH1 0x20 ADD SWAP1 DUP2 MSTORE PUSH1 0x20 ADD PUSH1 0x0 KECCAK256 PUSH1 0x0 ADD PUSH1 0x14 SWAP1 SLOAD SWAP1 PUSH2 0x100 EXP SWAP1 DIV PUSH1 0xFF AND PUSH2 0x3260 JUMPI PUSH1 0x40 MLOAD PUSH32 0x8C379A000000000000000000000000000000000000000000000000000000000 DUP2 MSTORE PUSH1 0x4 ADD PUSH2 0x3257 SWAP1 PUSH2 0x59A1 JUMP JUMPDEST PUSH1 0x40 MLOAD DUP1 SWAP2 SUB SWAP1 REVERT JUMPDEST PUSH1 0x10 PUSH1 0x0 DUP3 DUP2 MSTORE PUSH1 0x20 ADD SWAP1 DUP2 MSTORE PUSH1 0x20 ADD PUSH1 0x0 KECCAK256 PUSH1 0x1 ADD PUSH1 0x0 DUP4 PUSH1 0xFF AND PUSH1 0xFF AND DUP2 MSTORE PUSH1 0x20 ADD SWAP1 DUP2 MSTORE PUSH1 0x20 ADD PUSH1 0x0 KECCAK256 CALLER SWAP1 DUP1 PUSH1 0x1 DUP2 SLOAD ADD DUP1 DUP3 SSTORE DUP1 SWAP2 POP POP PUSH1 0x1 SWAP1 SUB SWAP1 PUSH1 0x0 MSTORE PUSH1 0x20 PUSH1 0x0 KECCAK256 ADD PUSH1 0x0 SWAP1 SWAP2 SWAP1 SWAP2 SWAP1 SWAP2 PUSH2 0x100 EXP DUP2 SLOAD DUP2 PUSH20 0xFFFFFFFFFFFFFFFFFFFFFFFFFFFFFFFFFFFFFFFF MUL NOT AND SWAP1 DUP4 PUSH20 0xFFFFFFFFFFFFFFFFFFFFFFFFFFFFFFFFFFFFFFFF AND MUL OR SWAP1 SSTORE POP PUSH32 0x43C853095C2752648493C88B4BAAC4D580D2594FFB00C6F1D4242D844514F783 DUP6 DUP6 DUP6 DUP6 PUSH1 0x40 MLOAD PUSH2 0x3323 SWAP5 SWAP4 SWAP3 SWAP2 SWAP1 PUSH2 0x59C1 JUMP JUMPDEST PUSH1 0x40 MLOAD DUP1 SWAP2 SUB SWAP1 LOG1 PUSH1 0x1 PUSH1 0x10 PUSH1 0x0 DUP4 DUP2 MSTORE PUSH1 0x20 ADD SWAP1 DUP2 MSTORE PUSH1 0x20 ADD PUSH1 0x0 KECCAK256 PUSH1 0x1 ADD PUSH1 0x0 DUP5 PUSH1 0xFF AND PUSH1 0xFF AND DUP2 MSTORE PUSH1 0x20 ADD SWAP1 DUP2 MSTORE PUSH1 0x20 ADD PUSH1 0x0 KECCAK256 DUP1 SLOAD SWAP1 POP LT PUSH2 0x33AD JUMPI PUSH32 0xE23F5229DE535C091E3B7BEC2665F5D698192D3B31393066E8987B7A05076B6C DUP6 DUP6 DUP6 DUP6 PUSH1 0x40 MLOAD PUSH2 0x3398 SWAP5 SWAP4 SWAP3 SWAP2 SWAP1 PUSH2 0x59C1 JUMP JUMPDEST PUSH1 0x40 MLOAD DUP1 SWAP2 SUB SWAP1 LOG1 PUSH2 0x33AC DUP6 DUP6 DUP6 DUP6 PUSH2 0x3BEF JUMP JUMPDEST JUMPDEST POP POP POP POP POP POP JUMP JUMPDEST PUSH1 0x0 PUSH1 0x2 PUSH1 0x0 SWAP1 SLOAD SWAP1 PUSH2 0x100 EXP SWAP1 DIV PUSH1 0xFF AND SWAP1 POP SWAP1 JUMP JUMPDEST PUSH1 0x2 PUSH1 0x0 SWAP1 SLOAD SWAP1 PUSH2 0x100 EXP SWAP1 DIV PUSH1 0xFF AND PUSH2 0x341B JUMPI PUSH1 0x40 MLOAD PUSH32 0x8C379A000000000000000000000000000000000000000000000000000000000 DUP2 MSTORE PUSH1 0x4 ADD PUSH2 0x3412 SWAP1 PUSH2 0x4C05 JUMP JUMPDEST PUSH1 0x40 MLOAD DUP1 SWAP2 SUB SWAP1 REVERT JUMPDEST PUSH8 0x8AC7230489E80000 PUSH2 0x342D CALLER PUSH2 0x2C95 JUMP JUMPDEST LT ISZERO PUSH2 0x346E JUMPI PUSH1 0x40 MLOAD PUSH32 0x8C379A000000000000000000000000000000000000000000000000000000000 DUP2 MSTORE PUSH1 0x4 ADD PUSH2 0x3465 SWAP1 PUSH2 0x5AA5 JUMP JUMPDEST PUSH1 0x40 MLOAD DUP1 SWAP2 SUB SWAP1 REVERT JUMPDEST PUSH1 0x0 PUSH20 0xFFFFFFFFFFFFFFFFFFFFFFFFFFFFFFFFFFFFFFFF AND DUP2 PUSH20 0xFFFFFFFFFFFFFFFFFFFFFFFFFFFFFFFFFFFFFFFF AND SUB PUSH2 0x34DD JUMPI PUSH1 0x40 MLOAD PUSH32 0x8C379A000000000000000000000000000000000000000000000000000000000 DUP2 MSTORE PUSH1 0x4 ADD PUSH2 0x34D4 SWAP1 PUSH2 0x5B11 JUMP JUMPDEST PUSH1 0x40 MLOAD DUP1 SWAP2 SUB SWAP1 REVERT JUMPDEST PUSH2 0x34E6 DUP2 PUSH2 0xA9D JUMP JUMPDEST ISZERO PUSH2 0x3526 JUMPI PUSH1 0x40 MLOAD PUSH32 0x8C379A000000000000000000000000000000000000000000000000000000000 DUP2 MSTORE PUSH1 0x4 ADD PUSH2 0x351D SWAP1 PUSH2 0x5B7D JUMP JUMPDEST PUSH1 0x40 MLOAD DUP1 SWAP2 SUB SWAP1 REVERT JUMPDEST PUSH1 0x0 PUSH2 0x3531 DUP3 PUSH2 0x1761 JUMP JUMPDEST SWAP1 POP PUSH1 0x0 DUP2 MLOAD SWAP1 POP PUSH1 0x0 DUP1 JUMPDEST DUP3 DUP2 LT ISZERO PUSH2 0x35AE JUMPI CALLER PUSH20 0xFFFFFFFFFFFFFFFFFFFFFFFFFFFFFFFFFFFFFFFF AND DUP5 DUP3 DUP2 MLOAD DUP2 LT PUSH2 0x356F JUMPI PUSH2 0x356E PUSH2 0x53E1 JUMP JUMPDEST JUMPDEST PUSH1 0x20 MUL PUSH1 0x20 ADD ADD MLOAD PUSH20 0xFFFFFFFFFFFFFFFFFFFFFFFFFFFFFFFFFFFFFFFF AND SUB PUSH2 0x359B JUMPI PUSH1 0x1 SWAP2 POP PUSH2 0x35AE JUMP JUMPDEST DUP1 DUP1 PUSH2 0x35A6 SWAP1 PUSH2 0x50FD JUMP JUMPDEST SWAP2 POP POP PUSH2 0x353D JUMP JUMPDEST POP DUP1 ISZERO PUSH2 0x35F0 JUMPI PUSH1 0x40 MLOAD PUSH32 0x8C379A000000000000000000000000000000000000000000000000000000000 DUP2 MSTORE PUSH1 0x4 ADD PUSH2 0x35E7 SWAP1 PUSH2 0x5C0F JUMP JUMPDEST PUSH1 0x40 MLOAD DUP1 SWAP2 SUB SWAP1 REVERT JUMPDEST PUSH2 0x35F9 DUP5 PUSH2 0x143E JUMP JUMPDEST PUSH2 0x3603 DUP5 CALLER PUSH2 0x2155 JUMP JUMPDEST POP POP POP POP JUMP JUMPDEST PUSH1 0x0 PUSH1 0x2 PUSH1 0x0 SWAP1 SLOAD SWAP1 PUSH2 0x100 EXP SWAP1 DIV PUSH1 0xFF AND PUSH2 0x365A JUMPI PUSH1 0x40 MLOAD PUSH32 0x8C379A000000000000000000000000000000000000000000000000000000000 DUP2 MSTORE PUSH1 0x4 ADD PUSH2 0x3651 SWAP1 PUSH2 0x4C05 JUMP JUMPDEST PUSH1 0x40 MLOAD DUP1 SWAP2 SUB SWAP1 REVERT JUMPDEST PUSH1 0x9 DUP3 PUSH1 0x40 MLOAD PUSH2 0x366A SWAP2 SWAP1 PUSH2 0x4D9C JUMP JUMPDEST SWAP1 DUP2 MSTORE PUSH1 0x20 ADD PUSH1 0x40 MLOAD DUP1 SWAP2 SUB SWAP1 KECCAK256 PUSH1 0x0 SWAP1 SLOAD SWAP1 PUSH2 0x100 EXP SWAP1 DIV PUSH1 0xFF AND SWAP1 POP SWAP2 SWAP1 POP JUMP JUMPDEST PUSH1 0x2 PUSH1 0x0 SWAP1 SLOAD SWAP1 PUSH2 0x100 EXP SWAP1 DIV PUSH1 0xFF AND PUSH2 0x36DC JUMPI PUSH1 0x40 MLOAD PUSH32 0x8C379A000000000000000000000000000000000000000000000000000000000 DUP2 MSTORE PUSH1 0x4 ADD PUSH2 0x36D3 SWAP1 PUSH2 0x4C05 JUMP JUMPDEST PUSH1 0x40 MLOAD DUP1 SWAP2 SUB SWAP1 REVERT JUMPDEST PUSH1 0x0 PUSH20 0xFFFFFFFFFFFFFFFFFFFFFFFFFFFFFFFFFFFFFFFF AND DUP3 PUSH20 0xFFFFFFFFFFFFFFFFFFFFFFFFFFFFFFFFFFFFFFFF AND SUB PUSH2 0x374B JUMPI PUSH1 0x40 MLOAD PUSH32 0x8C379A000000000000000000000000000000000000000000000000000000000 DUP2 MSTORE PUSH1 0x4 ADD PUSH2 0x3742 SWAP1 PUSH2 0x5B11 JUMP JUMPDEST PUSH1 0x40 MLOAD DUP1 SWAP2 SUB SWAP1 REVERT JUMPDEST PUSH2 0x3754 DUP3 PUSH2 0xA9D JUMP JUMPDEST ISZERO PUSH2 0x3794 JUMPI PUSH1 0x40 MLOAD PUSH32 0x8C379A000000000000000000000000000000000000000000000000000000000 DUP2 MSTORE PUSH1 0x4 ADD PUSH2 0x378B SWAP1 PUSH2 0x5B7D JUMP JUMPDEST PUSH1 0x40 MLOAD DUP1 SWAP2 SUB SWAP1 REVERT JUMPDEST PUSH1 0x0 PUSH2 0x379E PUSH2 0xB45 JUMP JUMPDEST SWAP1 POP PUSH1 0x4 PUSH1 0xFF AND DUP2 GT PUSH2 0x38A3 JUMPI PUSH2 0x37B4 CALLER PUSH2 0xA9D JUMP JUMPDEST PUSH2 0x37F3 JUMPI PUSH1 0x40 MLOAD PUSH32 0x8C379A000000000000000000000000000000000000000000000000000000000 DUP2 MSTORE PUSH1 0x4 ADD PUSH2 0x37EA SWAP1 PUSH2 0x5CA1 JUMP JUMPDEST PUSH1 0x40 MLOAD DUP1 SWAP2 SUB SWAP1 REVERT JUMPDEST PUSH8 0x8AC7230489E80000 PUSH2 0x3805 CALLER PUSH2 0x2C95 JUMP JUMPDEST LT ISZERO PUSH2 0x3846 JUMPI PUSH1 0x40 MLOAD PUSH32 0x8C379A000000000000000000000000000000000000000000000000000000000 DUP2 MSTORE PUSH1 0x4 ADD PUSH2 0x383D SWAP1 PUSH2 0x5D59 JUMP JUMPDEST PUSH1 0x40 MLOAD DUP1 SWAP2 SUB SWAP1 REVERT JUMPDEST PUSH2 0x3850 DUP4 DUP4 PUSH2 0xDB7 JUMP JUMPDEST DUP3 PUSH20 0xFFFFFFFFFFFFFFFFFFFFFFFFFFFFFFFFFFFFFFFF AND PUSH32 0xC8C24E3D7F44F1C6A263A7AF6B1D8EC0790AE452BC4D4D3598E5BCE0B12BE99A DUP4 PUSH1 0x40 MLOAD PUSH2 0x3896 SWAP2 SWAP1 PUSH2 0x46C3 JUMP JUMPDEST PUSH1 0x40 MLOAD DUP1 SWAP2 SUB SWAP1 LOG2 PUSH2 0x3953 JUMP JUMPDEST PUSH1 0x2 DUP2 PUSH2 0x38B0 SWAP2 SWAP1 PUSH2 0x543F JUMP JUMPDEST PUSH2 0x38B9 DUP5 PUSH2 0x2D30 JUMP JUMPDEST LT ISZERO PUSH2 0x38FA JUMPI PUSH1 0x40 MLOAD PUSH32 0x8C379A000000000000000000000000000000000000000000000000000000000 DUP2 MSTORE PUSH1 0x4 ADD PUSH2 0x38F1 SWAP1 PUSH2 0x5DEB JUMP JUMPDEST PUSH1 0x40 MLOAD DUP1 SWAP2 SUB SWAP1 REVERT JUMPDEST PUSH2 0x3904 DUP4 DUP4 PUSH2 0xDB7 JUMP JUMPDEST DUP3 PUSH20 0xFFFFFFFFFFFFFFFFFFFFFFFFFFFFFFFFFFFFFFFF AND PUSH32 0xC8C24E3D7F44F1C6A263A7AF6B1D8EC0790AE452BC4D4D3598E5BCE0B12BE99A DUP4 PUSH1 0x40 MLOAD PUSH2 0x394A SWAP2 SWAP1 PUSH2 0x46C3 JUMP JUMPDEST PUSH1 0x40 MLOAD DUP1 SWAP2 SUB SWAP1 LOG2 JUMPDEST POP POP POP JUMP JUMPDEST PUSH1 0x2 PUSH1 0x0 SWAP1 SLOAD SWAP1 PUSH2 0x100 EXP SWAP1 DIV PUSH1 0xFF AND PUSH2 0x39A7 JUMPI PUSH1 0x40 MLOAD PUSH32 0x8C379A000000000000000000000000000000000000000000000000000000000 DUP2 MSTORE PUSH1 0x4 ADD PUSH2 0x399E SWAP1 PUSH2 0x4C05 JUMP JUMPDEST PUSH1 0x40 MLOAD DUP1 SWAP2 SUB SWAP1 REVERT JUMPDEST PUSH2 0x39B0 DUP3 PUSH2 0x3609 JUMP JUMPDEST PUSH2 0x39EF JUMPI PUSH1 0x40 MLOAD PUSH32 0x8C379A000000000000000000000000000000000000000000000000000000000 DUP2 MSTORE PUSH1 0x4 ADD PUSH2 0x39E6 SWAP1 PUSH2 0x5E57 JUMP JUMPDEST PUSH1 0x40 MLOAD DUP1 SWAP2 SUB SWAP1 REVERT JUMPDEST PUSH1 0x0 PUSH2 0x39FA CALLER PUSH2 0x3D37 JUMP JUMPDEST SWAP1 POP PUSH1 0x0 DUP2 DUP6 DUP6 DUP6 PUSH1 0x40 MLOAD PUSH1 0x20 ADD PUSH2 0x3A15 SWAP5 SWAP4 SWAP3 SWAP2 SWAP1 PUSH2 0x58E5 JUMP JUMPDEST PUSH1 0x40 MLOAD PUSH1 0x20 DUP2 DUP4 SUB SUB DUP2 MSTORE SWAP1 PUSH1 0x40 MSTORE DUP1 MLOAD SWAP1 PUSH1 0x20 ADD KECCAK256 SWAP1 POP PUSH1 0x0 PUSH1 0x10 PUSH1 0x0 DUP4 DUP2 MSTORE PUSH1 0x20 ADD SWAP1 DUP2 MSTORE PUSH1 0x20 ADD PUSH1 0x0 KECCAK256 SWAP1 POP CALLER DUP2 PUSH1 0x0 ADD PUSH1 0x0 PUSH2 0x100 EXP DUP2 SLOAD DUP2 PUSH20 0xFFFFFFFFFFFFFFFFFFFFFFFFFFFFFFFFFFFFFFFF MUL NOT AND SWAP1 DUP4 PUSH20 0xFFFFFFFFFFFFFFFFFFFFFFFFFFFFFFFFFFFFFFFF AND MUL OR SWAP1 SSTORE POP PUSH1 0x1 DUP2 PUSH1 0x0 ADD PUSH1 0x14 PUSH2 0x100 EXP DUP2 SLOAD DUP2 PUSH1 0xFF MUL NOT AND SWAP1 DUP4 ISZERO ISZERO MUL OR SWAP1 SSTORE POP PUSH32 0x3ED01F2C3FC24C6B329D931E35B03E390D23497D22B3F90E15B600343E93DF11 DUP4 DUP8 DUP8 DUP8 PUSH1 0x40 MLOAD PUSH2 0x3AD9 SWAP5 SWAP4 SWAP3 SWAP2 SWAP1 PUSH2 0x5E77 JUMP JUMPDEST PUSH1 0x40 MLOAD DUP1 SWAP2 SUB SWAP1 LOG1 POP POP POP POP POP POP JUMP JUMPDEST PUSH2 0x3AF1 PUSH2 0x3E9A JUMP JUMPDEST PUSH2 0x3AF9 PUSH2 0x3E9A JUMP JUMPDEST PUSH1 0x0 JUMPDEST PUSH1 0x3 PUSH1 0xFF AND DUP2 PUSH1 0xFF AND LT ISZERO PUSH2 0x3BE5 JUMPI PUSH2 0x3B14 DUP5 PUSH2 0x3D37 JUMP JUMPDEST DUP3 DUP3 PUSH1 0xFF AND PUSH1 0x3 DUP2 LT PUSH2 0x3B2A JUMPI PUSH2 0x3B29 PUSH2 0x53E1 JUMP JUMPDEST JUMPDEST PUSH1 0x20 MUL ADD SWAP1 PUSH1 0xFF AND SWAP1 DUP2 PUSH1 0xFF AND DUP2 MSTORE POP POP PUSH1 0x0 JUMPDEST DUP2 PUSH1 0xFF AND DUP2 PUSH1 0xFF AND LT ISZERO PUSH2 0x3BD3 JUMPI DUP3 DUP3 PUSH1 0xFF AND PUSH1 0x3 DUP2 LT PUSH2 0x3B62 JUMPI PUSH2 0x3B61 PUSH2 0x53E1 JUMP JUMPDEST JUMPDEST PUSH1 0x20 MUL ADD MLOAD PUSH1 0xFF AND DUP4 DUP3 PUSH1 0xFF AND PUSH1 0x3 DUP2 LT PUSH2 0x3B80 JUMPI PUSH2 0x3B7F PUSH2 0x53E1 JUMP JUMPDEST JUMPDEST PUSH1 0x20 MUL ADD MLOAD PUSH1 0xFF AND SUB PUSH2 0x3BC2 JUMPI PUSH2 0x3B96 DUP6 PUSH2 0x3D37 JUMP JUMPDEST DUP4 DUP4 PUSH1 0xFF AND PUSH1 0x3 DUP2 LT PUSH2 0x3BAC JUMPI PUSH2 0x3BAB PUSH2 0x53E1 JUMP JUMPDEST JUMPDEST PUSH1 0x20 MUL ADD SWAP1 PUSH1 0xFF AND SWAP1 DUP2 PUSH1 0xFF AND DUP2 MSTORE POP POP PUSH1 0x0 SWAP1 POP JUMPDEST DUP1 PUSH2 0x3BCC SWAP1 PUSH2 0x5EC3 JUMP JUMPDEST SWAP1 POP PUSH2 0x3B3E JUMP JUMPDEST POP DUP1 PUSH2 0x3BDE SWAP1 PUSH2 0x5EC3 JUMP JUMPDEST SWAP1 POP PUSH2 0x3AFC JUMP JUMPDEST POP DUP1 SWAP2 POP POP SWAP2 SWAP1 POP JUMP JUMPDEST PUSH1 0x2 PUSH1 0x0 SWAP1 SLOAD SWAP1 PUSH2 0x100 EXP SWAP1 DIV PUSH1 0xFF AND PUSH2 0x3C3E JUMPI PUSH1 0x40 MLOAD PUSH32 0x8C379A000000000000000000000000000000000000000000000000000000000 DUP2 MSTORE PUSH1 0x4 ADD PUSH2 0x3C35 SWAP1 PUSH2 0x4C05 JUMP JUMPDEST PUSH1 0x40 MLOAD DUP1 SWAP2 SUB SWAP1 REVERT JUMPDEST PUSH1 0x0 DUP4 DUP6 PUSH1 0x40 MLOAD PUSH1 0x20 ADD PUSH2 0x3C53 SWAP3 SWAP2 SWAP1 PUSH2 0x521F JUMP JUMPDEST PUSH1 0x40 MLOAD PUSH1 0x20 DUP2 DUP4 SUB SUB DUP2 MSTORE SWAP1 PUSH1 0x40 MSTORE DUP1 MLOAD SWAP1 PUSH1 0x20 ADD KECCAK256 SWAP1 POP PUSH1 0xF PUSH1 0x0 DUP3 DUP2 MSTORE PUSH1 0x20 ADD SWAP1 DUP2 MSTORE PUSH1 0x20 ADD PUSH1 0x0 KECCAK256 PUSH1 0x0 ADD PUSH1 0x0 SWAP1 SLOAD SWAP1 PUSH2 0x100 EXP SWAP1 DIV PUSH1 0xFF AND PUSH2 0x3CCE JUMPI PUSH1 0x40 MLOAD PUSH32 0x8C379A000000000000000000000000000000000000000000000000000000000 DUP2 MSTORE PUSH1 0x4 ADD PUSH2 0x3CC5 SWAP1 PUSH2 0x5F38 JUMP JUMPDEST PUSH1 0x40 MLOAD DUP1 SWAP2 SUB SWAP1 REVERT JUMPDEST DUP3 PUSH1 0xF PUSH1 0x0 DUP4 DUP2 MSTORE PUSH1 0x20 ADD SWAP1 DUP2 MSTORE PUSH1 0x20 ADD PUSH1 0x0 KECCAK256 PUSH1 0x1 ADD DUP2 SWAP1 SSTORE POP DUP2 PUSH1 0xF PUSH1 0x0 DUP4 DUP2 MSTORE PUSH1 0x20 ADD SWAP1 DUP2 MSTORE PUSH1 0x20 ADD PUSH1 0x0 KECCAK256 PUSH1 0x0 ADD PUSH1 0x1 PUSH2 0x100 EXP DUP2 SLOAD DUP2 PUSH1 0xFF MUL NOT AND SWAP1 DUP4 PUSH1 0xFF AND MUL OR SWAP1 SSTORE POP PUSH1 0x14 PUSH1 0xFF AND DUP3 PUSH1 0xFF AND SUB PUSH2 0x3D30 JUMPI PUSH2 0x3D2F DUP5 PUSH2 0x1575 JUMP JUMPDEST JUMPDEST POP POP POP POP POP JUMP JUMPDEST PUSH1 0x0 DUP1 PUSH1 0xE PUSH1 0x0 SWAP1 SLOAD SWAP1 PUSH2 0x100 EXP SWAP1 DIV PUSH1 0xFF AND PUSH1 0xFF AND PUSH1 0x1 NUMBER PUSH2 0x3D5A SWAP2 SWAP1 PUSH2 0x5F58 JUMP JUMPDEST BLOCKHASH DUP5 PUSH1 0xD SLOAD PUSH1 0x40 MLOAD PUSH1 0x20 ADD PUSH2 0x3D71 SWAP4 SWAP3 SWAP2 SWAP1 PUSH2 0x5FB7 JUMP JUMPDEST PUSH1 0x40 MLOAD PUSH1 0x20 DUP2 DUP4 SUB SUB DUP2 MSTORE SWAP1 PUSH1 0x40 MSTORE DUP1 MLOAD SWAP1 PUSH1 0x20 ADD KECCAK256 PUSH1 0x0 SHR PUSH2 0x3D94 SWAP2 SWAP1 PUSH2 0x5FF4 JUMP JUMPDEST SWAP1 POP PUSH1 0xFB PUSH1 0x1 PUSH1 0xD SLOAD PUSH2 0x3DA7 SWAP2 SWAP1 PUSH2 0x4CC0 JUMP JUMPDEST PUSH2 0x3DB1 SWAP2 SWAP1 PUSH2 0x5FF4 JUMP JUMPDEST PUSH1 0xD DUP2 SWAP1 SSTORE POP DUP1 SWAP2 POP POP SWAP2 SWAP1 POP JUMP JUMPDEST DUP3 PUSH1 0x3 PUSH1 0x1F ADD PUSH1 0x20 SWAP1 DIV DUP2 ADD SWAP3 DUP3 ISZERO PUSH2 0x3E49 JUMPI SWAP2 PUSH1 0x20 MUL DUP3 ADD PUSH1 0x0 JUMPDEST DUP4 DUP3 GT ISZERO PUSH2 0x3E1A JUMPI DUP4 MLOAD DUP4 DUP3 PUSH2 0x100 EXP DUP2 SLOAD DUP2 PUSH1 0xFF MUL NOT AND SWAP1 DUP4 PUSH1 0xFF AND MUL OR SWAP1 SSTORE POP SWAP3 PUSH1 0x20 ADD SWAP3 PUSH1 0x1 ADD PUSH1 0x20 DUP2 PUSH1 0x0 ADD DIV SWAP3 DUP4 ADD SWAP3 PUSH1 0x1 SUB MUL PUSH2 0x3DDC JUMP JUMPDEST DUP1 ISZERO PUSH2 0x3E47 JUMPI DUP3 DUP2 PUSH2 0x100 EXP DUP2 SLOAD SWAP1 PUSH1 0xFF MUL NOT AND SWAP1 SSTORE PUSH1 0x1 ADD PUSH1 0x20 DUP2 PUSH1 0x0 ADD DIV SWAP3 DUP4 ADD SWAP3 PUSH1 0x1 SUB MUL PUSH2 0x3E1A JUMP JUMPDEST POP JUMPDEST POP SWAP1 POP PUSH2 0x3E56 SWAP2 SWAP1 PUSH2 0x3F14 JUMP JUMPDEST POP SWAP1 JUMP JUMPDEST PUSH1 0x40 MLOAD DUP1 PUSH1 0x80 ADD PUSH1 0x40 MSTORE DUP1 PUSH1 0x60 DUP2 MSTORE PUSH1 0x20 ADD PUSH1 0x0 PUSH20 0xFFFFFFFFFFFFFFFFFFFFFFFFFFFFFFFFFFFFFFFF AND DUP2 MSTORE PUSH1 0x20 ADD PUSH1 0x0 ISZERO ISZERO DUP2 MSTORE PUSH1 0x20 ADD PUSH1 0x0 DUP2 MSTORE POP SWAP1 JUMP JUMPDEST PUSH1 0x40 MLOAD DUP1 PUSH1 0x60 ADD PUSH1 0x40 MSTORE DUP1 PUSH1 0x3 SWAP1 PUSH1 0x20 DUP3 MUL DUP1 CALLDATASIZE DUP4 CALLDATACOPY DUP1 DUP3 ADD SWAP2 POP POP SWAP1 POP POP SWAP1 JUMP JUMPDEST PUSH1 0x40 MLOAD DUP1 PUSH1 0xE0 ADD PUSH1 0x40 MSTORE DUP1 PUSH1 0x0 ISZERO ISZERO DUP2 MSTORE PUSH1 0x20 ADD PUSH1 0x0 PUSH1 0xFF AND DUP2 MSTORE PUSH1 0x20 ADD PUSH1 0x0 DUP2 MSTORE PUSH1 0x20 ADD PUSH1 0x0 PUSH20 0xFFFFFFFFFFFFFFFFFFFFFFFFFFFFFFFFFFFFFFFF AND DUP2 MSTORE PUSH1 0x20 ADD PUSH1 0x60 DUP2 MSTORE PUSH1 0x20 ADD PUSH1 0x60 DUP2 MSTORE PUSH1 0x20 ADD PUSH1 0x60 DUP2 MSTORE POP SWAP1 JUMP JUMPDEST JUMPDEST DUP1 DUP3 GT ISZERO PUSH2 0x3F2D JUMPI PUSH1 0x0 DUP2 PUSH1 0x0 SWAP1 SSTORE POP PUSH1 0x1 ADD PUSH2 0x3F15 JUMP JUMPDEST POP SWAP1 JUMP JUMPDEST PUSH1 0x0 PUSH1 0x40 MLOAD SWAP1 POP SWAP1 JUMP JUMPDEST PUSH1 0x0 DUP1 REVERT JUMPDEST PUSH1 0x0 DUP1 REVERT JUMPDEST PUSH1 0x0 PUSH20 0xFFFFFFFFFFFFFFFFFFFFFFFFFFFFFFFFFFFFFFFF DUP3 AND SWAP1 POP SWAP2 SWAP1 POP JUMP JUMPDEST PUSH1 0x0 PUSH2 0x3F70 DUP3 PUSH2 0x3F45 JUMP JUMPDEST SWAP1 POP SWAP2 SWAP1 POP JUMP JUMPDEST PUSH2 0x3F80 DUP2 PUSH2 0x3F65 JUMP JUMPDEST DUP2 EQ PUSH2 0x3F8B JUMPI PUSH1 0x0 DUP1 REVERT JUMPDEST POP JUMP JUMPDEST PUSH1 0x0 DUP2 CALLDATALOAD SWAP1 POP PUSH2 0x3F9D DUP2 PUSH2 0x3F77 JUMP JUMPDEST SWAP3 SWAP2 POP POP JUMP JUMPDEST PUSH1 0x0 PUSH1 0x20 DUP3 DUP5 SUB SLT ISZERO PUSH2 0x3FB9 JUMPI PUSH2 0x3FB8 PUSH2 0x3F3B JUMP JUMPDEST JUMPDEST PUSH1 0x0 PUSH2 0x3FC7 DUP5 DUP3 DUP6 ADD PUSH2 0x3F8E JUMP JUMPDEST SWAP2 POP POP SWAP3 SWAP2 POP POP JUMP JUMPDEST PUSH1 0x0 DUP2 ISZERO ISZERO SWAP1 POP SWAP2 SWAP1 POP JUMP JUMPDEST PUSH2 0x3FE5 DUP2 PUSH2 0x3FD0 JUMP JUMPDEST DUP3 MSTORE POP POP JUMP JUMPDEST PUSH1 0x0 PUSH1 0x20 DUP3 ADD SWAP1 POP PUSH2 0x4000 PUSH1 0x0 DUP4 ADD DUP5 PUSH2 0x3FDC JUMP JUMPDEST SWAP3 SWAP2 POP POP JUMP JUMPDEST PUSH1 0x0 DUP2 SWAP1 POP SWAP2 SWAP1 POP JUMP JUMPDEST PUSH2 0x4019 DUP2 PUSH2 0x4006 JUMP JUMPDEST DUP3 MSTORE POP POP JUMP JUMPDEST PUSH1 0x0 PUSH1 0x20 DUP3 ADD SWAP1 POP PUSH2 0x4034 PUSH1 0x0 DUP4 ADD DUP5 PUSH2 0x4010 JUMP JUMPDEST SWAP3 SWAP2 POP POP JUMP JUMPDEST PUSH2 0x4043 DUP2 PUSH2 0x3FD0 JUMP JUMPDEST DUP2 EQ PUSH2 0x404E JUMPI PUSH1 0x0 DUP1 REVERT JUMPDEST POP JUMP JUMPDEST PUSH1 0x0 DUP2 CALLDATALOAD SWAP1 POP PUSH2 0x4060 DUP2 PUSH2 0x403A JUMP JUMPDEST SWAP3 SWAP2 POP POP JUMP JUMPDEST PUSH1 0x0 PUSH1 0x20 DUP3 DUP5 SUB SLT ISZERO PUSH2 0x407C JUMPI PUSH2 0x407B PUSH2 0x3F3B JUMP JUMPDEST JUMPDEST PUSH1 0x0 PUSH2 0x408A DUP5 DUP3 DUP6 ADD PUSH2 0x4051 JUMP JUMPDEST SWAP2 POP POP SWAP3 SWAP2 POP POP JUMP JUMPDEST PUSH1 0x0 DUP1 REVERT JUMPDEST PUSH1 0x0 DUP1 REVERT JUMPDEST PUSH1 0x0 PUSH1 0x1F NOT PUSH1 0x1F DUP4 ADD AND SWAP1 POP SWAP2 SWAP1 POP JUMP JUMPDEST PUSH32 0x4E487B7100000000000000000000000000000000000000000000000000000000 PUSH1 0x0 MSTORE PUSH1 0x41 PUSH1 0x4 MSTORE PUSH1 0x24 PUSH1 0x0 REVERT JUMPDEST PUSH2 0x40E6 DUP3 PUSH2 0x409D JUMP JUMPDEST DUP2 ADD DUP2 DUP2 LT PUSH8 0xFFFFFFFFFFFFFFFF DUP3 GT OR ISZERO PUSH2 0x4105 JUMPI PUSH2 0x4104 PUSH2 0x40AE JUMP JUMPDEST JUMPDEST DUP1 PUSH1 0x40 MSTORE POP POP POP JUMP JUMPDEST PUSH1 0x0 PUSH2 0x4118 PUSH2 0x3F31 JUMP JUMPDEST SWAP1 POP PUSH2 0x4124 DUP3 DUP3 PUSH2 0x40DD JUMP JUMPDEST SWAP2 SWAP1 POP JUMP JUMPDEST PUSH1 0x0 PUSH8 0xFFFFFFFFFFFFFFFF DUP3 GT ISZERO PUSH2 0x4144 JUMPI PUSH2 0x4143 PUSH2 0x40AE JUMP JUMPDEST JUMPDEST PUSH2 0x414D DUP3 PUSH2 0x409D JUMP JUMPDEST SWAP1 POP PUSH1 0x20 DUP2 ADD SWAP1 POP SWAP2 SWAP1 POP JUMP JUMPDEST DUP3 DUP2 DUP4 CALLDATACOPY PUSH1 0x0 DUP4 DUP4 ADD MSTORE POP POP POP JUMP JUMPDEST PUSH1 0x0 PUSH2 0x417C PUSH2 0x4177 DUP5 PUSH2 0x4129 JUMP JUMPDEST PUSH2 0x410E JUMP JUMPDEST SWAP1 POP DUP3 DUP2 MSTORE PUSH1 0x20 DUP2 ADD DUP5 DUP5 DUP5 ADD GT ISZERO PUSH2 0x4198 JUMPI PUSH2 0x4197 PUSH2 0x4098 JUMP JUMPDEST JUMPDEST PUSH2 0x41A3 DUP5 DUP3 DUP6 PUSH2 0x415A JUMP JUMPDEST POP SWAP4 SWAP3 POP POP POP JUMP JUMPDEST PUSH1 0x0 DUP3 PUSH1 0x1F DUP4 ADD SLT PUSH2 0x41C0 JUMPI PUSH2 0x41BF PUSH2 0x4093 JUMP JUMPDEST JUMPDEST DUP2 CALLDATALOAD PUSH2 0x41D0 DUP5 DUP3 PUSH1 0x20 DUP7 ADD PUSH2 0x4169 JUMP JUMPDEST SWAP2 POP POP SWAP3 SWAP2 POP POP JUMP JUMPDEST PUSH1 0x0 PUSH1 0x20 DUP3 DUP5 SUB SLT ISZERO PUSH2 0x41EF JUMPI PUSH2 0x41EE PUSH2 0x3F3B JUMP JUMPDEST JUMPDEST PUSH1 0x0 DUP3 ADD CALLDATALOAD PUSH8 0xFFFFFFFFFFFFFFFF DUP2 GT ISZERO PUSH2 0x420D JUMPI PUSH2 0x420C PUSH2 0x3F40 JUMP JUMPDEST JUMPDEST PUSH2 0x4219 DUP5 DUP3 DUP6 ADD PUSH2 0x41AB JUMP JUMPDEST SWAP2 POP POP SWAP3 SWAP2 POP POP JUMP JUMPDEST PUSH1 0x0 DUP1 PUSH1 0x40 DUP4 DUP6 SUB SLT ISZERO PUSH2 0x4239 JUMPI PUSH2 0x4238 PUSH2 0x3F3B JUMP JUMPDEST JUMPDEST PUSH1 0x0 PUSH2 0x4247 DUP6 DUP3 DUP7 ADD PUSH2 0x3F8E JUMP JUMPDEST SWAP3 POP POP PUSH1 0x20 DUP4 ADD CALLDATALOAD PUSH8 0xFFFFFFFFFFFFFFFF DUP2 GT ISZERO PUSH2 0x4268 JUMPI PUSH2 0x4267 PUSH2 0x3F40 JUMP JUMPDEST JUMPDEST PUSH2 0x4274 DUP6 DUP3 DUP7 ADD PUSH2 0x41AB JUMP JUMPDEST SWAP2 POP POP SWAP3 POP SWAP3 SWAP1 POP JUMP JUMPDEST PUSH1 0x0 DUP2 MLOAD SWAP1 POP SWAP2 SWAP1 POP JUMP JUMPDEST PUSH1 0x0 DUP3 DUP3 MSTORE PUSH1 0x20 DUP3 ADD SWAP1 POP SWAP3 SWAP2 POP POP JUMP JUMPDEST PUSH1 0x0 DUP2 SWAP1 POP PUSH1 0x20 DUP3 ADD SWAP1 POP SWAP2 SWAP1 POP JUMP JUMPDEST PUSH2 0x42B3 DUP2 PUSH2 0x3F65 JUMP JUMPDEST DUP3 MSTORE POP POP JUMP JUMPDEST PUSH1 0x0 PUSH2 0x42C5 DUP4 DUP4 PUSH2 0x42AA JUMP JUMPDEST PUSH1 0x20 DUP4 ADD SWAP1 POP SWAP3 SWAP2 POP POP JUMP JUMPDEST PUSH1 0x0 PUSH1 0x20 DUP3 ADD SWAP1 POP SWAP2 SWAP1 POP JUMP JUMPDEST PUSH1 0x0 PUSH2 0x42E9 DUP3 PUSH2 0x427E JUMP JUMPDEST PUSH2 0x42F3 DUP2 DUP6 PUSH2 0x4289 JUMP JUMPDEST SWAP4 POP PUSH2 0x42FE DUP4 PUSH2 0x429A JUMP JUMPDEST DUP1 PUSH1 0x0 JUMPDEST DUP4 DUP2 LT ISZERO PUSH2 0x432F JUMPI DUP2 MLOAD PUSH2 0x4316 DUP9 DUP3 PUSH2 0x42B9 JUMP JUMPDEST SWAP8 POP PUSH2 0x4321 DUP4 PUSH2 0x42D1 JUMP JUMPDEST SWAP3 POP POP PUSH1 0x1 DUP2 ADD SWAP1 POP PUSH2 0x4302 JUMP JUMPDEST POP DUP6 SWAP4 POP POP POP POP SWAP3 SWAP2 POP POP JUMP JUMPDEST PUSH1 0x0 PUSH1 0x20 DUP3 ADD SWAP1 POP DUP2 DUP2 SUB PUSH1 0x0 DUP4 ADD MSTORE PUSH2 0x4356 DUP2 DUP5 PUSH2 0x42DE JUMP JUMPDEST SWAP1 POP SWAP3 SWAP2 POP POP JUMP JUMPDEST PUSH2 0x4367 DUP2 PUSH2 0x4006 JUMP JUMPDEST DUP2 EQ PUSH2 0x4372 JUMPI PUSH1 0x0 DUP1 REVERT JUMPDEST POP JUMP JUMPDEST PUSH1 0x0 DUP2 CALLDATALOAD SWAP1 POP PUSH2 0x4384 DUP2 PUSH2 0x435E JUMP JUMPDEST SWAP3 SWAP2 POP POP JUMP JUMPDEST PUSH1 0x0 DUP1 PUSH1 0x40 DUP4 DUP6 SUB SLT ISZERO PUSH2 0x43A1 JUMPI PUSH2 0x43A0 PUSH2 0x3F3B JUMP JUMPDEST JUMPDEST PUSH1 0x0 PUSH2 0x43AF DUP6 DUP3 DUP7 ADD PUSH2 0x3F8E JUMP JUMPDEST SWAP3 POP POP PUSH1 0x20 PUSH2 0x43C0 DUP6 DUP3 DUP7 ADD PUSH2 0x4375 JUMP JUMPDEST SWAP2 POP POP SWAP3 POP SWAP3 SWAP1 POP JUMP JUMPDEST PUSH1 0x0 DUP1 PUSH1 0x0 PUSH1 0x60 DUP5 DUP7 SUB SLT ISZERO PUSH2 0x43E3 JUMPI PUSH2 0x43E2 PUSH2 0x3F3B JUMP JUMPDEST JUMPDEST PUSH1 0x0 DUP5 ADD CALLDATALOAD PUSH8 0xFFFFFFFFFFFFFFFF DUP2 GT ISZERO PUSH2 0x4401 JUMPI PUSH2 0x4400 PUSH2 0x3F40 JUMP JUMPDEST JUMPDEST PUSH2 0x440D DUP7 DUP3 DUP8 ADD PUSH2 0x41AB JUMP JUMPDEST SWAP4 POP POP PUSH1 0x20 DUP5 ADD CALLDATALOAD PUSH8 0xFFFFFFFFFFFFFFFF DUP2 GT ISZERO PUSH2 0x442E JUMPI PUSH2 0x442D PUSH2 0x3F40 JUMP JUMPDEST JUMPDEST PUSH2 0x443A DUP7 DUP3 DUP8 ADD PUSH2 0x41AB JUMP JUMPDEST SWAP3 POP POP PUSH1 0x40 PUSH2 0x444B DUP7 DUP3 DUP8 ADD PUSH2 0x4375 JUMP JUMPDEST SWAP2 POP POP SWAP3 POP SWAP3 POP SWAP3 JUMP JUMPDEST PUSH1 0x0 DUP1 PUSH1 0x40 DUP4 DUP6 SUB SLT ISZERO PUSH2 0x446C JUMPI PUSH2 0x446B PUSH2 0x3F3B JUMP JUMPDEST JUMPDEST PUSH1 0x0 PUSH2 0x447A DUP6 DUP3 DUP7 ADD PUSH2 0x3F8E JUMP JUMPDEST SWAP3 POP POP PUSH1 0x20 PUSH2 0x448B DUP6 DUP3 DUP7 ADD PUSH2 0x3F8E JUMP JUMPDEST SWAP2 POP POP SWAP3 POP SWAP3 SWAP1 POP JUMP JUMPDEST PUSH1 0x0 DUP2 MLOAD SWAP1 POP SWAP2 SWAP1 POP JUMP JUMPDEST PUSH1 0x0 DUP3 DUP3 MSTORE PUSH1 0x20 DUP3 ADD SWAP1 POP SWAP3 SWAP2 POP POP JUMP JUMPDEST PUSH1 0x0 DUP2 SWAP1 POP PUSH1 0x20 DUP3 ADD SWAP1 POP SWAP2 SWAP1 POP JUMP JUMPDEST PUSH1 0x0 DUP2 MLOAD SWAP1 POP SWAP2 SWAP1 POP JUMP JUMPDEST PUSH1 0x0 DUP3 DUP3 MSTORE PUSH1 0x20 DUP3 ADD SWAP1 POP SWAP3 SWAP2 POP POP JUMP JUMPDEST PUSH1 0x0 JUMPDEST DUP4 DUP2 LT ISZERO PUSH2 0x44FB JUMPI DUP1 DUP3 ADD MLOAD DUP2 DUP5 ADD MSTORE PUSH1 0x20 DUP2 ADD SWAP1 POP PUSH2 0x44E0 JUMP JUMPDEST PUSH1 0x0 DUP5 DUP5 ADD MSTORE POP POP POP POP JUMP JUMPDEST PUSH1 0x0 PUSH2 0x4512 DUP3 PUSH2 0x44C1 JUMP JUMPDEST PUSH2 0x451C DUP2 DUP6 PUSH2 0x44CC JUMP JUMPDEST SWAP4 POP PUSH2 0x452C DUP2 DUP6 PUSH1 0x20 DUP7 ADD PUSH2 0x44DD JUMP JUMPDEST PUSH2 0x4535 DUP2 PUSH2 0x409D JUMP JUMPDEST DUP5 ADD SWAP2 POP POP SWAP3 SWAP2 POP POP JUMP JUMPDEST PUSH2 0x4549 DUP2 PUSH2 0x3FD0 JUMP JUMPDEST DUP3 MSTORE POP POP JUMP JUMPDEST PUSH2 0x4558 DUP2 PUSH2 0x4006 JUMP JUMPDEST DUP3 MSTORE POP POP JUMP JUMPDEST PUSH1 0x0 PUSH1 0x80 DUP4 ADD PUSH1 0x0 DUP4 ADD MLOAD DUP5 DUP3 SUB PUSH1 0x0 DUP7 ADD MSTORE PUSH2 0x457B DUP3 DUP3 PUSH2 0x4507 JUMP JUMPDEST SWAP2 POP POP PUSH1 0x20 DUP4 ADD MLOAD PUSH2 0x4590 PUSH1 0x20 DUP7 ADD DUP3 PUSH2 0x42AA JUMP JUMPDEST POP PUSH1 0x40 DUP4 ADD MLOAD PUSH2 0x45A3 PUSH1 0x40 DUP7 ADD DUP3 PUSH2 0x4540 JUMP JUMPDEST POP PUSH1 0x60 DUP4 ADD MLOAD PUSH2 0x45B6 PUSH1 0x60 DUP7 ADD DUP3 PUSH2 0x454F JUMP JUMPDEST POP DUP1 SWAP2 POP POP SWAP3 SWAP2 POP POP JUMP JUMPDEST PUSH1 0x0 PUSH2 0x45CD DUP4 DUP4 PUSH2 0x455E JUMP JUMPDEST SWAP1 POP SWAP3 SWAP2 POP POP JUMP JUMPDEST PUSH1 0x0 PUSH1 0x20 DUP3 ADD SWAP1 POP SWAP2 SWAP1 POP JUMP JUMPDEST PUSH1 0x0 PUSH2 0x45ED DUP3 PUSH2 0x4495 JUMP JUMPDEST PUSH2 0x45F7 DUP2 DUP6 PUSH2 0x44A0 JUMP JUMPDEST SWAP4 POP DUP4 PUSH1 0x20 DUP3 MUL DUP6 ADD PUSH2 0x4609 DUP6 PUSH2 0x44B1 JUMP JUMPDEST DUP1 PUSH1 0x0 JUMPDEST DUP6 DUP2 LT ISZERO PUSH2 0x4645 JUMPI DUP5 DUP5 SUB DUP10 MSTORE DUP2 MLOAD PUSH2 0x4626 DUP6 DUP3 PUSH2 0x45C1 JUMP JUMPDEST SWAP5 POP PUSH2 0x4631 DUP4 PUSH2 0x45D5 JUMP JUMPDEST SWAP3 POP PUSH1 0x20 DUP11 ADD SWAP10 POP POP PUSH1 0x1 DUP2 ADD SWAP1 POP PUSH2 0x460D JUMP JUMPDEST POP DUP3 SWAP8 POP DUP8 SWAP6 POP POP POP POP POP POP SWAP3 SWAP2 POP POP JUMP JUMPDEST PUSH1 0x0 PUSH1 0x20 DUP3 ADD SWAP1 POP DUP2 DUP2 SUB PUSH1 0x0 DUP4 ADD MSTORE PUSH2 0x4671 DUP2 DUP5 PUSH2 0x45E2 JUMP JUMPDEST SWAP1 POP SWAP3 SWAP2 POP POP JUMP JUMPDEST PUSH1 0x0 DUP3 DUP3 MSTORE PUSH1 0x20 DUP3 ADD SWAP1 POP SWAP3 SWAP2 POP POP JUMP JUMPDEST PUSH1 0x0 PUSH2 0x4695 DUP3 PUSH2 0x44C1 JUMP JUMPDEST PUSH2 0x469F DUP2 DUP6 PUSH2 0x4679 JUMP JUMPDEST SWAP4 POP PUSH2 0x46AF DUP2 DUP6 PUSH1 0x20 DUP7 ADD PUSH2 0x44DD JUMP JUMPDEST PUSH2 0x46B8 DUP2 PUSH2 0x409D JUMP JUMPDEST DUP5 ADD SWAP2 POP POP SWAP3 SWAP2 POP POP JUMP JUMPDEST PUSH1 0x0 PUSH1 0x20 DUP3 ADD SWAP1 POP DUP2 DUP2 SUB PUSH1 0x0 DUP4 ADD MSTORE PUSH2 0x46DD DUP2 DUP5 PUSH2 0x468A JUMP JUMPDEST SWAP1 POP SWAP3 SWAP2 POP POP JUMP JUMPDEST PUSH1 0x0 PUSH1 0x3 SWAP1 POP SWAP2 SWAP1 POP JUMP JUMPDEST PUSH1 0x0 DUP2 SWAP1 POP SWAP3 SWAP2 POP POP JUMP JUMPDEST PUSH1 0x0 DUP2 SWAP1 POP SWAP2 SWAP1 POP JUMP JUMPDEST PUSH1 0x0 PUSH1 0xFF DUP3 AND SWAP1 POP SWAP2 SWAP1 POP JUMP JUMPDEST PUSH2 0x471B DUP2 PUSH2 0x4705 JUMP JUMPDEST DUP3 MSTORE POP POP JUMP JUMPDEST PUSH1 0x0 PUSH2 0x472D DUP4 DUP4 PUSH2 0x4712 JUMP JUMPDEST PUSH1 0x20 DUP4 ADD SWAP1 POP SWAP3 SWAP2 POP POP JUMP JUMPDEST PUSH1 0x0 PUSH1 0x20 DUP3 ADD SWAP1 POP SWAP2 SWAP1 POP JUMP JUMPDEST PUSH2 0x474F DUP2 PUSH2 0x46E5 JUMP JUMPDEST PUSH2 0x4759 DUP2 DUP5 PUSH2 0x46F0 JUMP JUMPDEST SWAP3 POP PUSH2 0x4764 DUP3 PUSH2 0x46FB JUMP JUMPDEST DUP1 PUSH1 0x0 JUMPDEST DUP4 DUP2 LT ISZERO PUSH2 0x4795 JUMPI DUP2 MLOAD PUSH2 0x477C DUP8 DUP3 PUSH2 0x4721 JUMP JUMPDEST SWAP7 POP PUSH2 0x4787 DUP4 PUSH2 0x4739 JUMP JUMPDEST SWAP3 POP POP PUSH1 0x1 DUP2 ADD SWAP1 POP PUSH2 0x4768 JUMP JUMPDEST POP POP POP POP POP POP JUMP JUMPDEST PUSH1 0x0 PUSH1 0x60 DUP3 ADD SWAP1 POP PUSH2 0x47B2 PUSH1 0x0 DUP4 ADD DUP5 PUSH2 0x4746 JUMP JUMPDEST SWAP3 SWAP2 POP POP JUMP JUMPDEST PUSH1 0x0 PUSH1 0x20 DUP3 DUP5 SUB SLT ISZERO PUSH2 0x47CE JUMPI PUSH2 0x47CD PUSH2 0x3F3B JUMP JUMPDEST JUMPDEST PUSH1 0x0 PUSH2 0x47DC DUP5 DUP3 DUP6 ADD PUSH2 0x4375 JUMP JUMPDEST SWAP2 POP POP SWAP3 SWAP2 POP POP JUMP JUMPDEST PUSH2 0x47EE DUP2 PUSH2 0x3F65 JUMP JUMPDEST DUP3 MSTORE POP POP JUMP JUMPDEST PUSH1 0x0 PUSH1 0x20 DUP3 ADD SWAP1 POP PUSH2 0x4809 PUSH1 0x0 DUP4 ADD DUP5 PUSH2 0x47E5 JUMP JUMPDEST SWAP3 SWAP2 POP POP JUMP JUMPDEST PUSH1 0x0 PUSH1 0x60 DUP3 ADD SWAP1 POP DUP2 DUP2 SUB PUSH1 0x0 DUP4 ADD MSTORE PUSH2 0x4829 DUP2 DUP7 PUSH2 0x468A JUMP JUMPDEST SWAP1 POP PUSH2 0x4838 PUSH1 0x20 DUP4 ADD DUP6 PUSH2 0x3FDC JUMP JUMPDEST PUSH2 0x4845 PUSH1 0x40 DUP4 ADD DUP5 PUSH2 0x4010 JUMP JUMPDEST SWAP5 SWAP4 POP POP POP POP JUMP JUMPDEST PUSH1 0x0 DUP2 MLOAD SWAP1 POP SWAP2 SWAP1 POP JUMP JUMPDEST PUSH1 0x0 DUP3 DUP3 MSTORE PUSH1 0x20 DUP3 ADD SWAP1 POP SWAP3 SWAP2 POP POP JUMP JUMPDEST PUSH1 0x0 DUP2 SWAP1 POP PUSH1 0x20 DUP3 ADD SWAP1 POP SWAP2 SWAP1 POP JUMP JUMPDEST PUSH1 0x0 PUSH1 0xE0 DUP4 ADD PUSH1 0x0 DUP4 ADD MLOAD PUSH2 0x4891 PUSH1 0x0 DUP7 ADD DUP3 PUSH2 0x4540 JUMP JUMPDEST POP PUSH1 0x20 DUP4 ADD MLOAD PUSH2 0x48A4 PUSH1 0x20 DUP7 ADD DUP3 PUSH2 0x4712 JUMP JUMPDEST POP PUSH1 0x40 DUP4 ADD MLOAD PUSH2 0x48B7 PUSH1 0x40 DUP7 ADD DUP3 PUSH2 0x454F JUMP JUMPDEST POP PUSH1 0x60 DUP4 ADD MLOAD PUSH2 0x48CA PUSH1 0x60 DUP7 ADD DUP3 PUSH2 0x42AA JUMP JUMPDEST POP PUSH1 0x80 DUP4 ADD MLOAD DUP5 DUP3 SUB PUSH1 0x80 DUP7 ADD MSTORE PUSH2 0x48E2 DUP3 DUP3 PUSH2 0x4507 JUMP JUMPDEST SWAP2 POP POP PUSH1 0xA0 DUP4 ADD MLOAD DUP5 DUP3 SUB PUSH1 0xA0 DUP7 ADD MSTORE PUSH2 0x48FC DUP3 DUP3 PUSH2 0x4507 JUMP JUMPDEST SWAP2 POP POP PUSH1 0xC0 DUP4 ADD MLOAD DUP5 DUP3 SUB PUSH1 0xC0 DUP7 ADD MSTORE PUSH2 0x4916 DUP3 DUP3 PUSH2 0x4507 JUMP JUMPDEST SWAP2 POP POP DUP1 SWAP2 POP POP SWAP3 SWAP2 POP POP JUMP JUMPDEST PUSH1 0x0 PUSH2 0x492F DUP4 DUP4 PUSH2 0x4879 JUMP JUMPDEST SWAP1 POP SWAP3 SWAP2 POP POP JUMP JUMPDEST PUSH1 0x0 PUSH1 0x20 DUP3 ADD SWAP1 POP SWAP2 SWAP1 POP JUMP JUMPDEST PUSH1 0x0 PUSH2 0x494F DUP3 PUSH2 0x484D JUMP JUMPDEST PUSH2 0x4959 DUP2 DUP6 PUSH2 0x4858 JUMP JUMPDEST SWAP4 POP DUP4 PUSH1 0x20 DUP3 MUL DUP6 ADD PUSH2 0x496B DUP6 PUSH2 0x4869 JUMP JUMPDEST DUP1 PUSH1 0x0 JUMPDEST DUP6 DUP2 LT ISZERO PUSH2 0x49A7 JUMPI DUP5 DUP5 SUB DUP10 MSTORE DUP2 MLOAD PUSH2 0x4988 DUP6 DUP3 PUSH2 0x4923 JUMP JUMPDEST SWAP5 POP PUSH2 0x4993 DUP4 PUSH2 0x4937 JUMP JUMPDEST SWAP3 POP PUSH1 0x20 DUP11 ADD SWAP10 POP POP PUSH1 0x1 DUP2 ADD SWAP1 POP PUSH2 0x496F JUMP JUMPDEST POP DUP3 SWAP8 POP DUP8 SWAP6 POP POP POP POP POP POP SWAP3 SWAP2 POP POP JUMP JUMPDEST PUSH1 0x0 PUSH1 0x20 DUP3 ADD SWAP1 POP DUP2 DUP2 SUB PUSH1 0x0 DUP4 ADD MSTORE PUSH2 0x49D3 DUP2 DUP5 PUSH2 0x4944 JUMP JUMPDEST SWAP1 POP SWAP3 SWAP2 POP POP JUMP JUMPDEST PUSH1 0x0 DUP1 PUSH1 0x40 DUP4 DUP6 SUB SLT ISZERO PUSH2 0x49F2 JUMPI PUSH2 0x49F1 PUSH2 0x3F3B JUMP JUMPDEST JUMPDEST PUSH1 0x0 DUP4 ADD CALLDATALOAD PUSH8 0xFFFFFFFFFFFFFFFF DUP2 GT ISZERO PUSH2 0x4A10 JUMPI PUSH2 0x4A0F PUSH2 0x3F40 JUMP JUMPDEST JUMPDEST PUSH2 0x4A1C DUP6 DUP3 DUP7 ADD PUSH2 0x41AB JUMP JUMPDEST SWAP3 POP POP PUSH1 0x20 PUSH2 0x4A2D DUP6 DUP3 DUP7 ADD PUSH2 0x3F8E JUMP JUMPDEST SWAP2 POP POP SWAP3 POP SWAP3 SWAP1 POP JUMP JUMPDEST PUSH2 0x4A40 DUP2 PUSH2 0x4705 JUMP JUMPDEST DUP3 MSTORE POP POP JUMP JUMPDEST PUSH1 0x0 PUSH1 0x20 DUP3 ADD SWAP1 POP PUSH2 0x4A5B PUSH1 0x0 DUP4 ADD DUP5 PUSH2 0x4A37 JUMP JUMPDEST SWAP3 SWAP2 POP POP JUMP JUMPDEST PUSH2 0x4A6A DUP2 PUSH2 0x4705 JUMP JUMPDEST DUP2 EQ PUSH2 0x4A75 JUMPI PUSH1 0x0 DUP1 REVERT JUMPDEST POP JUMP JUMPDEST PUSH1 0x0 DUP2 CALLDATALOAD SWAP1 POP PUSH2 0x4A87 DUP2 PUSH2 0x4A61 JUMP JUMPDEST SWAP3 SWAP2 POP POP JUMP JUMPDEST PUSH1 0x0 DUP1 PUSH1 0x0 DUP1 PUSH1 0x0 PUSH1 0xA0 DUP7 DUP9 SUB SLT ISZERO PUSH2 0x4AA9 JUMPI PUSH2 0x4AA8 PUSH2 0x3F3B JUMP JUMPDEST JUMPDEST PUSH1 0x0 PUSH2 0x4AB7 DUP9 DUP3 DUP10 ADD PUSH2 0x4A78 JUMP JUMPDEST SWAP6 POP POP PUSH1 0x20 PUSH2 0x4AC8 DUP9 DUP3 DUP10 ADD PUSH2 0x3F8E JUMP JUMPDEST SWAP5 POP POP PUSH1 0x40 DUP7 ADD CALLDATALOAD PUSH8 0xFFFFFFFFFFFFFFFF DUP2 GT ISZERO PUSH2 0x4AE9 JUMPI PUSH2 0x4AE8 PUSH2 0x3F40 JUMP JUMPDEST JUMPDEST PUSH2 0x4AF5 DUP9 DUP3 DUP10 ADD PUSH2 0x41AB JUMP JUMPDEST SWAP4 POP POP PUSH1 0x60 PUSH2 0x4B06 DUP9 DUP3 DUP10 ADD PUSH2 0x4375 JUMP JUMPDEST SWAP3 POP POP PUSH1 0x80 PUSH2 0x4B17 DUP9 DUP3 DUP10 ADD PUSH2 0x4A78 JUMP JUMPDEST SWAP2 POP POP SWAP3 SWAP6 POP SWAP3 SWAP6 SWAP1 SWAP4 POP JUMP JUMPDEST PUSH1 0x0 DUP1 PUSH1 0x0 PUSH1 0x60 DUP5 DUP7 SUB SLT ISZERO PUSH2 0x4B3D JUMPI PUSH2 0x4B3C PUSH2 0x3F3B JUMP JUMPDEST JUMPDEST PUSH1 0x0 PUSH2 0x4B4B DUP7 DUP3 DUP8 ADD PUSH2 0x3F8E JUMP JUMPDEST SWAP4 POP POP PUSH1 0x20 DUP5 ADD CALLDATALOAD PUSH8 0xFFFFFFFFFFFFFFFF DUP2 GT ISZERO PUSH2 0x4B6C JUMPI PUSH2 0x4B6B PUSH2 0x3F40 JUMP JUMPDEST JUMPDEST PUSH2 0x4B78 DUP7 DUP3 DUP8 ADD PUSH2 0x41AB JUMP JUMPDEST SWAP3 POP POP PUSH1 0x40 PUSH2 0x4B89 DUP7 DUP3 DUP8 ADD PUSH2 0x4375 JUMP JUMPDEST SWAP2 POP POP SWAP3 POP SWAP3 POP SWAP3 JUMP JUMPDEST PUSH32 0x436F6E74726163742069732063757272656E746C79206E6F74206F7065726174 PUSH1 0x0 DUP3 ADD MSTORE PUSH32 0x696F6E616C000000000000000000000000000000000000000000000000000000 PUSH1 0x20 DUP3 ADD MSTORE POP JUMP JUMPDEST PUSH1 0x0 PUSH2 0x4BEF PUSH1 0x25 DUP4 PUSH2 0x4679 JUMP JUMPDEST SWAP2 POP PUSH2 0x4BFA DUP3 PUSH2 0x4B93 JUMP JUMPDEST PUSH1 0x40 DUP3 ADD SWAP1 POP SWAP2 SWAP1 POP JUMP JUMPDEST PUSH1 0x0 PUSH1 0x20 DUP3 ADD SWAP1 POP DUP2 DUP2 SUB PUSH1 0x0 DUP4 ADD MSTORE PUSH2 0x4C1E DUP2 PUSH2 0x4BE2 JUMP JUMPDEST SWAP1 POP SWAP2 SWAP1 POP JUMP JUMPDEST PUSH32 0x4169726C696E65206973206E6F74207265676973746572656400000000000000 PUSH1 0x0 DUP3 ADD MSTORE POP JUMP JUMPDEST PUSH1 0x0 PUSH2 0x4C5B PUSH1 0x19 DUP4 PUSH2 0x4679 JUMP JUMPDEST SWAP2 POP PUSH2 0x4C66 DUP3 PUSH2 0x4C25 JUMP JUMPDEST PUSH1 0x20 DUP3 ADD SWAP1 POP SWAP2 SWAP1 POP JUMP JUMPDEST PUSH1 0x0 PUSH1 0x20 DUP3 ADD SWAP1 POP DUP2 DUP2 SUB PUSH1 0x0 DUP4 ADD MSTORE PUSH2 0x4C8A DUP2 PUSH2 0x4C4E JUMP JUMPDEST SWAP1 POP SWAP2 SWAP1 POP JUMP JUMPDEST PUSH32 0x4E487B7100000000000000000000000000000000000000000000000000000000 PUSH1 0x0 MSTORE PUSH1 0x11 PUSH1 0x4 MSTORE PUSH1 0x24 PUSH1 0x0 REVERT JUMPDEST PUSH1 0x0 PUSH2 0x4CCB DUP3 PUSH2 0x4006 JUMP JUMPDEST SWAP2 POP PUSH2 0x4CD6 DUP4 PUSH2 0x4006 JUMP JUMPDEST SWAP3 POP DUP3 DUP3 ADD SWAP1 POP DUP1 DUP3 GT ISZERO PUSH2 0x4CEE JUMPI PUSH2 0x4CED PUSH2 0x4C91 JUMP JUMPDEST JUMPDEST SWAP3 SWAP2 POP POP JUMP JUMPDEST PUSH32 0x43616C6C6572206973206E6F7420636F6E7472616374206F776E657200000000 PUSH1 0x0 DUP3 ADD MSTORE POP JUMP JUMPDEST PUSH1 0x0 PUSH2 0x4D2A PUSH1 0x1C DUP4 PUSH2 0x4679 JUMP JUMPDEST SWAP2 POP PUSH2 0x4D35 DUP3 PUSH2 0x4CF4 JUMP JUMPDEST PUSH1 0x20 DUP3 ADD SWAP1 POP SWAP2 SWAP1 POP JUMP JUMPDEST PUSH1 0x0 PUSH1 0x20 DUP3 ADD SWAP1 POP DUP2 DUP2 SUB PUSH1 0x0 DUP4 ADD MSTORE PUSH2 0x4D59 DUP2 PUSH2 0x4D1D JUMP JUMPDEST SWAP1 POP SWAP2 SWAP1 POP JUMP JUMPDEST PUSH1 0x0 DUP2 SWAP1 POP SWAP3 SWAP2 POP POP JUMP JUMPDEST PUSH1 0x0 PUSH2 0x4D76 DUP3 PUSH2 0x44C1 JUMP JUMPDEST PUSH2 0x4D80 DUP2 DUP6 PUSH2 0x4D60 JUMP JUMPDEST SWAP4 POP PUSH2 0x4D90 DUP2 DUP6 PUSH1 0x20 DUP7 ADD PUSH2 0x44DD JUMP JUMPDEST DUP1 DUP5 ADD SWAP2 POP POP SWAP3 SWAP2 POP POP JUMP JUMPDEST PUSH1 0x0 PUSH2 0x4DA8 DUP3 DUP5 PUSH2 0x4D6B JUMP JUMPDEST SWAP2 POP DUP2 SWAP1 POP SWAP3 SWAP2 POP POP JUMP JUMPDEST PUSH32 0x43616C6C6572206973206E6F7420617574686F72697A65643A20000000000000 PUSH1 0x0 DUP3 ADD MSTORE POP JUMP JUMPDEST PUSH1 0x0 PUSH2 0x4DE9 PUSH1 0x1A DUP4 PUSH2 0x4679 JUMP JUMPDEST SWAP2 POP PUSH2 0x4DF4 DUP3 PUSH2 0x4DB3 JUMP JUMPDEST PUSH1 0x20 DUP3 ADD SWAP1 POP SWAP2 SWAP1 POP JUMP JUMPDEST PUSH1 0x0 PUSH1 0x20 DUP3 ADD SWAP1 POP DUP2 DUP2 SUB PUSH1 0x0 DUP4 ADD MSTORE PUSH2 0x4E18 DUP2 PUSH2 0x4DDC JUMP JUMPDEST SWAP1 POP SWAP2 SWAP1 POP JUMP JUMPDEST PUSH32 0x4E487B7100000000000000000000000000000000000000000000000000000000 PUSH1 0x0 MSTORE PUSH1 0x22 PUSH1 0x4 MSTORE PUSH1 0x24 PUSH1 0x0 REVERT JUMPDEST PUSH1 0x0 PUSH1 0x2 DUP3 DIV SWAP1 POP PUSH1 0x1 DUP3 AND DUP1 PUSH2 0x4E66 JUMPI PUSH1 0x7F DUP3 AND SWAP2 POP JUMPDEST PUSH1 0x20 DUP3 LT DUP2 SUB PUSH2 0x4E79 JUMPI PUSH2 0x4E78 PUSH2 0x4E1F JUMP JUMPDEST JUMPDEST POP SWAP2 SWAP1 POP JUMP JUMPDEST PUSH1 0x0 DUP2 SWAP1 POP DUP2 PUSH1 0x0 MSTORE PUSH1 0x20 PUSH1 0x0 KECCAK256 SWAP1 POP SWAP2 SWAP1 POP JUMP JUMPDEST PUSH1 0x0 PUSH1 0x20 PUSH1 0x1F DUP4 ADD DIV SWAP1 POP SWAP2 SWAP1 POP JUMP JUMPDEST PUSH1 0x0 DUP3 DUP3 SHL SWAP1 POP SWAP3 SWAP2 POP POP JUMP JUMPDEST PUSH1 0x0 PUSH1 0x8 DUP4 MUL PUSH2 0x4EE1 PUSH32 0xFFFFFFFFFFFFFFFFFFFFFFFFFFFFFFFFFFFFFFFFFFFFFFFFFFFFFFFFFFFFFFFF DUP3 PUSH2 0x4EA4 JUMP JUMPDEST PUSH2 0x4EEB DUP7 DUP4 PUSH2 0x4EA4 JUMP JUMPDEST SWAP6 POP DUP1 NOT DUP5 AND SWAP4 POP DUP1 DUP7 AND DUP5 OR SWAP3 POP POP POP SWAP4 SWAP3 POP POP POP JUMP JUMPDEST PUSH1 0x0 DUP2 SWAP1 POP SWAP2 SWAP1 POP JUMP JUMPDEST PUSH1 0x0 PUSH2 0x4F28 PUSH2 0x4F23 PUSH2 0x4F1E DUP5 PUSH2 0x4006 JUMP JUMPDEST PUSH2 0x4F03 JUMP JUMPDEST PUSH2 0x4006 JUMP JUMPDEST SWAP1 POP SWAP2 SWAP1 POP JUMP JUMPDEST PUSH1 0x0 DUP2 SWAP1 POP SWAP2 SWAP1 POP JUMP JUMPDEST PUSH2 0x4F42 DUP4 PUSH2 0x4F0D JUMP JUMPDEST PUSH2 0x4F56 PUSH2 0x4F4E DUP3 PUSH2 0x4F2F JUMP JUMPDEST DUP5 DUP5 SLOAD PUSH2 0x4EB1 JUMP JUMPDEST DUP3 SSTORE POP POP POP POP JUMP JUMPDEST PUSH1 0x0 SWAP1 JUMP JUMPDEST PUSH2 0x4F6B PUSH2 0x4F5E JUMP JUMPDEST PUSH2 0x4F76 DUP2 DUP5 DUP5 PUSH2 0x4F39 JUMP JUMPDEST POP POP POP JUMP JUMPDEST JUMPDEST DUP2 DUP2 LT ISZERO PUSH2 0x4F9A JUMPI PUSH2 0x4F8F PUSH1 0x0 DUP3 PUSH2 0x4F63 JUMP JUMPDEST PUSH1 0x1 DUP2 ADD SWAP1 POP PUSH2 0x4F7C JUMP JUMPDEST POP POP JUMP JUMPDEST PUSH1 0x1F DUP3 GT ISZERO PUSH2 0x4FDF JUMPI PUSH2 0x4FB0 DUP2 PUSH2 0x4E7F JUMP JUMPDEST PUSH2 0x4FB9 DUP5 PUSH2 0x4E94 JUMP JUMPDEST DUP2 ADD PUSH1 0x20 DUP6 LT ISZERO PUSH2 0x4FC8 JUMPI DUP2 SWAP1 POP JUMPDEST PUSH2 0x4FDC PUSH2 0x4FD4 DUP6 PUSH2 0x4E94 JUMP JUMPDEST DUP4 ADD DUP3 PUSH2 0x4F7B JUMP JUMPDEST POP POP JUMPDEST POP POP POP JUMP JUMPDEST PUSH1 0x0 DUP3 DUP3 SHR SWAP1 POP SWAP3 SWAP2 POP POP JUMP JUMPDEST PUSH1 0x0 PUSH2 0x5002 PUSH1 0x0 NOT DUP5 PUSH1 0x8 MUL PUSH2 0x4FE4 JUMP JUMPDEST NOT DUP1 DUP4 AND SWAP2 POP POP SWAP3 SWAP2 POP POP JUMP JUMPDEST PUSH1 0x0 PUSH2 0x501B DUP4 DUP4 PUSH2 0x4FF1 JUMP JUMPDEST SWAP2 POP DUP3 PUSH1 0x2 MUL DUP3 OR SWAP1 POP SWAP3 SWAP2 POP POP JUMP JUMPDEST PUSH2 0x5034 DUP3 PUSH2 0x44C1 JUMP JUMPDEST PUSH8 0xFFFFFFFFFFFFFFFF DUP2 GT ISZERO PUSH2 0x504D JUMPI PUSH2 0x504C PUSH2 0x40AE JUMP JUMPDEST JUMPDEST PUSH2 0x5057 DUP3 SLOAD PUSH2 0x4E4E JUMP JUMPDEST PUSH2 0x5062 DUP3 DUP3 DUP6 PUSH2 0x4F9E JUMP JUMPDEST PUSH1 0x0 PUSH1 0x20 SWAP1 POP PUSH1 0x1F DUP4 GT PUSH1 0x1 DUP2 EQ PUSH2 0x5095 JUMPI PUSH1 0x0 DUP5 ISZERO PUSH2 0x5083 JUMPI DUP3 DUP8 ADD MLOAD SWAP1 POP JUMPDEST PUSH2 0x508D DUP6 DUP3 PUSH2 0x500F JUMP JUMPDEST DUP7 SSTORE POP PUSH2 0x50F5 JUMP JUMPDEST PUSH1 0x1F NOT DUP5 AND PUSH2 0x50A3 DUP7 PUSH2 0x4E7F JUMP JUMPDEST PUSH1 0x0 JUMPDEST DUP3 DUP2 LT ISZERO PUSH2 0x50CB JUMPI DUP5 DUP10 ADD MLOAD DUP3 SSTORE PUSH1 0x1 DUP3 ADD SWAP2 POP PUSH1 0x20 DUP6 ADD SWAP5 POP PUSH1 0x20 DUP2 ADD SWAP1 POP PUSH2 0x50A6 JUMP JUMPDEST DUP7 DUP4 LT ISZERO PUSH2 0x50E8 JUMPI DUP5 DUP10 ADD MLOAD PUSH2 0x50E4 PUSH1 0x1F DUP10 AND DUP3 PUSH2 0x4FF1 JUMP JUMPDEST DUP4 SSTORE POP JUMPDEST PUSH1 0x1 PUSH1 0x2 DUP9 MUL ADD DUP9 SSTORE POP POP POP JUMPDEST POP POP POP POP POP POP JUMP JUMPDEST PUSH1 0x0 PUSH2 0x5108 DUP3 PUSH2 0x4006 JUMP JUMPDEST SWAP2 POP PUSH32 0xFFFFFFFFFFFFFFFFFFFFFFFFFFFFFFFFFFFFFFFFFFFFFFFFFFFFFFFFFFFFFFFF DUP3 SUB PUSH2 0x513A JUMPI PUSH2 0x5139 PUSH2 0x4C91 JUMP JUMPDEST JUMPDEST PUSH1 0x1 DUP3 ADD SWAP1 POP SWAP2 SWAP1 POP JUMP JUMPDEST PUSH32 0x436F6E7472616374732063616E6E6F742063616C6C20746869732066756E6374 PUSH1 0x0 DUP3 ADD MSTORE PUSH32 0x696F6E2E00000000000000000000000000000000000000000000000000000000 PUSH1 0x20 DUP3 ADD MSTORE POP JUMP JUMPDEST PUSH1 0x0 PUSH2 0x51A1 PUSH1 0x24 DUP4 PUSH2 0x4679 JUMP JUMPDEST SWAP2 POP PUSH2 0x51AC DUP3 PUSH2 0x5145 JUMP JUMPDEST PUSH1 0x40 DUP3 ADD SWAP1 POP SWAP2 SWAP1 POP JUMP JUMPDEST PUSH1 0x0 PUSH1 0x20 DUP3 ADD SWAP1 POP DUP2 DUP2 SUB PUSH1 0x0 DUP4 ADD MSTORE PUSH2 0x51D0 DUP2 PUSH2 0x5194 JUMP JUMPDEST SWAP1 POP SWAP2 SWAP1 POP JUMP JUMPDEST PUSH1 0x0 DUP2 PUSH1 0x60 SHL SWAP1 POP SWAP2 SWAP1 POP JUMP JUMPDEST PUSH1 0x0 PUSH2 0x51EF DUP3 PUSH2 0x51D7 JUMP JUMPDEST SWAP1 POP SWAP2 SWAP1 POP JUMP JUMPDEST PUSH1 0x0 PUSH2 0x5201 DUP3 PUSH2 0x51E4 JUMP JUMPDEST SWAP1 POP SWAP2 SWAP1 POP JUMP JUMPDEST PUSH2 0x5219 PUSH2 0x5214 DUP3 PUSH2 0x3F65 JUMP JUMPDEST PUSH2 0x51F6 JUMP JUMPDEST DUP3 MSTORE POP POP JUMP JUMPDEST PUSH1 0x0 PUSH2 0x522B DUP3 DUP6 PUSH2 0x4D6B JUMP JUMPDEST SWAP2 POP PUSH2 0x5237 DUP3 DUP5 PUSH2 0x5208 JUMP JUMPDEST PUSH1 0x14 DUP3 ADD SWAP2 POP DUP2 SWAP1 POP SWAP4 SWAP3 POP POP POP JUMP JUMPDEST PUSH32 0x4E6F2063726564697420746F2062652077697468647261776E00000000000000 PUSH1 0x0 DUP3 ADD MSTORE POP JUMP JUMPDEST PUSH1 0x0 PUSH2 0x527D PUSH1 0x19 DUP4 PUSH2 0x4679 JUMP JUMPDEST SWAP2 POP PUSH2 0x5288 DUP3 PUSH2 0x5247 JUMP JUMPDEST PUSH1 0x20 DUP3 ADD SWAP1 POP SWAP2 SWAP1 POP JUMP JUMPDEST PUSH1 0x0 PUSH1 0x20 DUP3 ADD SWAP1 POP DUP2 DUP2 SUB PUSH1 0x0 DUP4 ADD MSTORE PUSH2 0x52AC DUP2 PUSH2 0x5270 JUMP JUMPDEST SWAP1 POP SWAP2 SWAP1 POP JUMP JUMPDEST PUSH32 0x54686520636F6E747261637420646F6573206E6F74206861766520656E6F7567 PUSH1 0x0 DUP3 ADD MSTORE PUSH32 0x682066756E647320746F20706179207468652063726564697400000000000000 PUSH1 0x20 DUP3 ADD MSTORE POP JUMP JUMPDEST PUSH1 0x0 PUSH2 0x530F PUSH1 0x39 DUP4 PUSH2 0x4679 JUMP JUMPDEST SWAP2 POP PUSH2 0x531A DUP3 PUSH2 0x52B3 JUMP JUMPDEST PUSH1 0x40 DUP3 ADD SWAP1 POP SWAP2 SWAP1 POP JUMP JUMPDEST PUSH1 0x0 PUSH1 0x20 DUP3 ADD SWAP1 POP DUP2 DUP2 SUB PUSH1 0x0 DUP4 ADD MSTORE PUSH2 0x533E DUP2 PUSH2 0x5302 JUMP JUMPDEST SWAP1 POP SWAP2 SWAP1 POP JUMP JUMPDEST PUSH1 0x0 PUSH1 0x40 DUP3 ADD SWAP1 POP DUP2 DUP2 SUB PUSH1 0x0 DUP4 ADD MSTORE PUSH2 0x535F DUP2 DUP6 PUSH2 0x468A JUMP JUMPDEST SWAP1 POP PUSH2 0x536E PUSH1 0x20 DUP4 ADD DUP5 PUSH2 0x4010 JUMP JUMPDEST SWAP4 SWAP3 POP POP POP JUMP JUMPDEST PUSH32 0x526567697374726174696F6E2066656520697320726571756972656400000000 PUSH1 0x0 DUP3 ADD MSTORE POP JUMP JUMPDEST PUSH1 0x0 PUSH2 0x53AB PUSH1 0x1C DUP4 PUSH2 0x4679 JUMP JUMPDEST SWAP2 POP PUSH2 0x53B6 DUP3 PUSH2 0x5375 JUMP JUMPDEST PUSH1 0x20 DUP3 ADD SWAP1 POP SWAP2 SWAP1 POP JUMP JUMPDEST PUSH1 0x0 PUSH1 0x20 DUP3 ADD SWAP1 POP DUP2 DUP2 SUB PUSH1 0x0 DUP4 ADD MSTORE PUSH2 0x53DA DUP2 PUSH2 0x539E JUMP JUMPDEST SWAP1 POP SWAP2 SWAP1 POP JUMP JUMPDEST PUSH32 0x4E487B7100000000000000000000000000000000000000000000000000000000 PUSH1 0x0 MSTORE PUSH1 0x32 PUSH1 0x4 MSTORE PUSH1 0x24 PUSH1 0x0 REVERT JUMPDEST PUSH32 0x4E487B7100000000000000000000000000000000000000000000000000000000 PUSH1 0x0 MSTORE PUSH1 0x12 PUSH1 0x4 MSTORE PUSH1 0x24 PUSH1 0x0 REVERT JUMPDEST PUSH1 0x0 PUSH2 0x544A DUP3 PUSH2 0x4006 JUMP JUMPDEST SWAP2 POP PUSH2 0x5455 DUP4 PUSH2 0x4006 JUMP JUMPDEST SWAP3 POP DUP3 PUSH2 0x5465 JUMPI PUSH2 0x5464 PUSH2 0x5410 JUMP JUMPDEST JUMPDEST DUP3 DUP3 DIV SWAP1 POP SWAP3 SWAP2 POP POP JUMP JUMPDEST PUSH32 0x466C6967687420646F6573206E6F742065786973740000000000000000000000 PUSH1 0x0 DUP3 ADD MSTORE POP JUMP JUMPDEST PUSH1 0x0 PUSH2 0x54A6 PUSH1 0x15 DUP4 PUSH2 0x4679 JUMP JUMPDEST SWAP2 POP PUSH2 0x54B1 DUP3 PUSH2 0x5470 JUMP JUMPDEST PUSH1 0x20 DUP3 ADD SWAP1 POP SWAP2 SWAP1 POP JUMP JUMPDEST PUSH1 0x0 PUSH1 0x20 DUP3 ADD SWAP1 POP DUP2 DUP2 SUB PUSH1 0x0 DUP4 ADD MSTORE PUSH2 0x54D5 DUP2 PUSH2 0x5499 JUMP JUMPDEST SWAP1 POP SWAP2 SWAP1 POP JUMP JUMPDEST PUSH32 0x416D6F756E74206E6565647320746F2062652067726561746572207468616E20 PUSH1 0x0 DUP3 ADD MSTORE PUSH32 0x3000000000000000000000000000000000000000000000000000000000000000 PUSH1 0x20 DUP3 ADD MSTORE POP JUMP JUMPDEST PUSH1 0x0 PUSH2 0x5538 PUSH1 0x21 DUP4 PUSH2 0x4679 JUMP JUMPDEST SWAP2 POP PUSH2 0x5543 DUP3 PUSH2 0x54DC JUMP JUMPDEST PUSH1 0x40 DUP3 ADD SWAP1 POP SWAP2 SWAP1 POP JUMP JUMPDEST PUSH1 0x0 PUSH1 0x20 DUP3 ADD SWAP1 POP DUP2 DUP2 SUB PUSH1 0x0 DUP4 ADD MSTORE PUSH2 0x5567 DUP2 PUSH2 0x552B JUMP JUMPDEST SWAP1 POP SWAP2 SWAP1 POP JUMP JUMPDEST PUSH32 0x43616E6E6F7420627579206D6F7265207468616E203120455448206F6620696E PUSH1 0x0 DUP3 ADD MSTORE PUSH32 0x737572616E636500000000000000000000000000000000000000000000000000 PUSH1 0x20 DUP3 ADD MSTORE POP JUMP JUMPDEST PUSH1 0x0 PUSH2 0x55CA PUSH1 0x27 DUP4 PUSH2 0x4679 JUMP JUMPDEST SWAP2 POP PUSH2 0x55D5 DUP3 PUSH2 0x556E JUMP JUMPDEST PUSH1 0x40 DUP3 ADD SWAP1 POP SWAP2 SWAP1 POP JUMP JUMPDEST PUSH1 0x0 PUSH1 0x20 DUP3 ADD SWAP1 POP DUP2 DUP2 SUB PUSH1 0x0 DUP4 ADD MSTORE PUSH2 0x55F9 DUP2 PUSH2 0x55BD JUMP JUMPDEST SWAP1 POP SWAP2 SWAP1 POP JUMP JUMPDEST PUSH32 0x416C726561647920696E737572656420666F72207468697320666C6967687400 PUSH1 0x0 DUP3 ADD MSTORE POP JUMP JUMPDEST PUSH1 0x0 PUSH2 0x5636 PUSH1 0x1F DUP4 PUSH2 0x4679 JUMP JUMPDEST SWAP2 POP PUSH2 0x5641 DUP3 PUSH2 0x5600 JUMP JUMPDEST PUSH1 0x20 DUP3 ADD SWAP1 POP SWAP2 SWAP1 POP JUMP JUMPDEST PUSH1 0x0 PUSH1 0x20 DUP3 ADD SWAP1 POP DUP2 DUP2 SUB PUSH1 0x0 DUP4 ADD MSTORE PUSH2 0x5665 DUP2 PUSH2 0x5629 JUMP JUMPDEST SWAP1 POP SWAP2 SWAP1 POP JUMP JUMPDEST PUSH32 0x466C6967687420697320616C726561647920726567697374657265642E000000 PUSH1 0x0 DUP3 ADD MSTORE POP JUMP JUMPDEST PUSH1 0x0 PUSH2 0x56A2 PUSH1 0x1D DUP4 PUSH2 0x4679 JUMP JUMPDEST SWAP2 POP PUSH2 0x56AD DUP3 PUSH2 0x566C JUMP JUMPDEST PUSH1 0x20 DUP3 ADD SWAP1 POP SWAP2 SWAP1 POP JUMP JUMPDEST PUSH1 0x0 PUSH1 0x20 DUP3 ADD SWAP1 POP DUP2 DUP2 SUB PUSH1 0x0 DUP4 ADD MSTORE PUSH2 0x56D1 DUP2 PUSH2 0x5695 JUMP JUMPDEST SWAP1 POP SWAP2 SWAP1 POP JUMP JUMPDEST PUSH32 0x4169726C696E6520646F6573206E6F74206D656574206D696E696D756D206675 PUSH1 0x0 DUP3 ADD MSTORE PUSH32 0x6E64696E6720746F207265676973746572206120666C696768742E20436F6E74 PUSH1 0x20 DUP3 ADD MSTORE PUSH32 0x7261637420676F7665726E616E63652064656E69656421212100000000000000 PUSH1 0x40 DUP3 ADD MSTORE POP JUMP JUMPDEST PUSH1 0x0 PUSH2 0x575A PUSH1 0x59 DUP4 PUSH2 0x4679 JUMP JUMPDEST SWAP2 POP PUSH2 0x5765 DUP3 PUSH2 0x56D8 JUMP JUMPDEST PUSH1 0x60 DUP3 ADD SWAP1 POP SWAP2 SWAP1 POP JUMP JUMPDEST PUSH1 0x0 PUSH1 0x20 DUP3 ADD SWAP1 POP DUP2 DUP2 SUB PUSH1 0x0 DUP4 ADD MSTORE PUSH2 0x5789 DUP2 PUSH2 0x574D JUMP JUMPDEST SWAP1 POP SWAP2 SWAP1 POP JUMP JUMPDEST PUSH32 0x4E6F74207265676973746572656420617320616E206F7261636C650000000000 PUSH1 0x0 DUP3 ADD MSTORE POP JUMP JUMPDEST PUSH1 0x0 PUSH2 0x57C6 PUSH1 0x1B DUP4 PUSH2 0x4679 JUMP JUMPDEST SWAP2 POP PUSH2 0x57D1 DUP3 PUSH2 0x5790 JUMP JUMPDEST PUSH1 0x20 DUP3 ADD SWAP1 POP SWAP2 SWAP1 POP JUMP JUMPDEST PUSH1 0x0 PUSH1 0x20 DUP3 ADD SWAP1 POP DUP2 DUP2 SUB PUSH1 0x0 DUP4 ADD MSTORE PUSH2 0x57F5 DUP2 PUSH2 0x57B9 JUMP JUMPDEST SWAP1 POP SWAP2 SWAP1 POP JUMP JUMPDEST PUSH32 0x496E64657820646F6573206E6F74206D61746368206F7261636C652072657175 PUSH1 0x0 DUP3 ADD MSTORE PUSH32 0x6573740000000000000000000000000000000000000000000000000000000000 PUSH1 0x20 DUP3 ADD MSTORE POP JUMP JUMPDEST PUSH1 0x0 PUSH2 0x5858 PUSH1 0x23 DUP4 PUSH2 0x4679 JUMP JUMPDEST SWAP2 POP PUSH2 0x5863 DUP3 PUSH2 0x57FC JUMP JUMPDEST PUSH1 0x40 DUP3 ADD SWAP1 POP SWAP2 SWAP1 POP JUMP JUMPDEST PUSH1 0x0 PUSH1 0x20 DUP3 ADD SWAP1 POP DUP2 DUP2 SUB PUSH1 0x0 DUP4 ADD MSTORE PUSH2 0x5887 DUP2 PUSH2 0x584B JUMP JUMPDEST SWAP1 POP SWAP2 SWAP1 POP JUMP JUMPDEST PUSH1 0x0 DUP2 PUSH1 0xF8 SHL SWAP1 POP SWAP2 SWAP1 POP JUMP JUMPDEST PUSH1 0x0 PUSH2 0x58A6 DUP3 PUSH2 0x588E JUMP JUMPDEST SWAP1 POP SWAP2 SWAP1 POP JUMP JUMPDEST PUSH2 0x58BE PUSH2 0x58B9 DUP3 PUSH2 0x4705 JUMP JUMPDEST PUSH2 0x589B JUMP JUMPDEST DUP3 MSTORE POP POP JUMP JUMPDEST PUSH1 0x0 DUP2 SWAP1 POP SWAP2 SWAP1 POP JUMP JUMPDEST PUSH2 0x58DF PUSH2 0x58DA DUP3 PUSH2 0x4006 JUMP JUMPDEST PUSH2 0x58C4 JUMP JUMPDEST DUP3 MSTORE POP POP JUMP JUMPDEST PUSH1 0x0 PUSH2 0x58F1 DUP3 DUP8 PUSH2 0x58AD JUMP JUMPDEST PUSH1 0x1 DUP3 ADD SWAP2 POP PUSH2 0x5901 DUP3 DUP7 PUSH2 0x5208 JUMP JUMPDEST PUSH1 0x14 DUP3 ADD SWAP2 POP PUSH2 0x5911 DUP3 DUP6 PUSH2 0x4D6B JUMP JUMPDEST SWAP2 POP PUSH2 0x591D DUP3 DUP5 PUSH2 0x58CE JUMP JUMPDEST PUSH1 0x20 DUP3 ADD SWAP2 POP DUP2 SWAP1 POP SWAP6 SWAP5 POP POP POP POP POP JUMP JUMPDEST PUSH32 0x466C69676874206F722074696D657374616D7020646F206E6F74206D61746368 PUSH1 0x0 DUP3 ADD MSTORE PUSH32 0x206F7261636C6520726571756573740000000000000000000000000000000000 PUSH1 0x20 DUP3 ADD MSTORE POP JUMP JUMPDEST PUSH1 0x0 PUSH2 0x598B PUSH1 0x2F DUP4 PUSH2 0x4679 JUMP JUMPDEST SWAP2 POP PUSH2 0x5996 DUP3 PUSH2 0x592F JUMP JUMPDEST PUSH1 0x40 DUP3 ADD SWAP1 POP SWAP2 SWAP1 POP JUMP JUMPDEST PUSH1 0x0 PUSH1 0x20 DUP3 ADD SWAP1 POP DUP2 DUP2 SUB PUSH1 0x0 DUP4 ADD MSTORE PUSH2 0x59BA DUP2 PUSH2 0x597E JUMP JUMPDEST SWAP1 POP SWAP2 SWAP1 POP JUMP JUMPDEST PUSH1 0x0 PUSH1 0x80 DUP3 ADD SWAP1 POP PUSH2 0x59D6 PUSH1 0x0 DUP4 ADD DUP8 PUSH2 0x47E5 JUMP JUMPDEST DUP2 DUP2 SUB PUSH1 0x20 DUP4 ADD MSTORE PUSH2 0x59E8 DUP2 DUP7 PUSH2 0x468A JUMP JUMPDEST SWAP1 POP PUSH2 0x59F7 PUSH1 0x40 DUP4 ADD DUP6 PUSH2 0x4010 JUMP JUMPDEST PUSH2 0x5A04 PUSH1 0x60 DUP4 ADD DUP5 PUSH2 0x4A37 JUMP JUMPDEST SWAP6 SWAP5 POP POP POP POP POP JUMP JUMPDEST PUSH32 0x4169726C696E6520646F6573206E6F74206D656574206D696E696D756D206675 PUSH1 0x0 DUP3 ADD MSTORE PUSH32 0x6E64696E6720746F20766F746520666F7220616E6F74686572206169726C696E PUSH1 0x20 DUP3 ADD MSTORE PUSH32 0x652E20436F6E747261637420676F7665726E616E63652064656E696564212121 PUSH1 0x40 DUP3 ADD MSTORE POP JUMP JUMPDEST PUSH1 0x0 PUSH2 0x5A8F PUSH1 0x60 DUP4 PUSH2 0x4679 JUMP JUMPDEST SWAP2 POP PUSH2 0x5A9A DUP3 PUSH2 0x5A0D JUMP JUMPDEST PUSH1 0x60 DUP3 ADD SWAP1 POP SWAP2 SWAP1 POP JUMP JUMPDEST PUSH1 0x0 PUSH1 0x20 DUP3 ADD SWAP1 POP DUP2 DUP2 SUB PUSH1 0x0 DUP4 ADD MSTORE PUSH2 0x5ABE DUP2 PUSH2 0x5A82 JUMP JUMPDEST SWAP1 POP SWAP2 SWAP1 POP JUMP JUMPDEST PUSH32 0x496E76616C696420616464726573730000000000000000000000000000000000 PUSH1 0x0 DUP3 ADD MSTORE POP JUMP JUMPDEST PUSH1 0x0 PUSH2 0x5AFB PUSH1 0xF DUP4 PUSH2 0x4679 JUMP JUMPDEST SWAP2 POP PUSH2 0x5B06 DUP3 PUSH2 0x5AC5 JUMP JUMPDEST PUSH1 0x20 DUP3 ADD SWAP1 POP SWAP2 SWAP1 POP JUMP JUMPDEST PUSH1 0x0 PUSH1 0x20 DUP3 ADD SWAP1 POP DUP2 DUP2 SUB PUSH1 0x0 DUP4 ADD MSTORE PUSH2 0x5B2A DUP2 PUSH2 0x5AEE JUMP JUMPDEST SWAP1 POP SWAP2 SWAP1 POP JUMP JUMPDEST PUSH32 0x4169726C696E6520697320616C72656164792072656769737465726564000000 PUSH1 0x0 DUP3 ADD MSTORE POP JUMP JUMPDEST PUSH1 0x0 PUSH2 0x5B67 PUSH1 0x1D DUP4 PUSH2 0x4679 JUMP JUMPDEST SWAP2 POP PUSH2 0x5B72 DUP3 PUSH2 0x5B31 JUMP JUMPDEST PUSH1 0x20 DUP3 ADD SWAP1 POP SWAP2 SWAP1 POP JUMP JUMPDEST PUSH1 0x0 PUSH1 0x20 DUP3 ADD SWAP1 POP DUP2 DUP2 SUB PUSH1 0x0 DUP4 ADD MSTORE PUSH2 0x5B96 DUP2 PUSH2 0x5B5A JUMP JUMPDEST SWAP1 POP SWAP2 SWAP1 POP JUMP JUMPDEST PUSH32 0x43616C6C65722068617320616C726561647920766F74656420666F7220746869 PUSH1 0x0 DUP3 ADD MSTORE PUSH32 0x73206169726C696E650000000000000000000000000000000000000000000000 PUSH1 0x20 DUP3 ADD MSTORE POP JUMP JUMPDEST PUSH1 0x0 PUSH2 0x5BF9 PUSH1 0x29 DUP4 PUSH2 0x4679 JUMP JUMPDEST SWAP2 POP PUSH2 0x5C04 DUP3 PUSH2 0x5B9D JUMP JUMPDEST PUSH1 0x40 DUP3 ADD SWAP1 POP SWAP2 SWAP1 POP JUMP JUMPDEST PUSH1 0x0 PUSH1 0x20 DUP3 ADD SWAP1 POP DUP2 DUP2 SUB PUSH1 0x0 DUP4 ADD MSTORE PUSH2 0x5C28 DUP2 PUSH2 0x5BEC JUMP JUMPDEST SWAP1 POP SWAP2 SWAP1 POP JUMP JUMPDEST PUSH32 0x4F6E6C79206578697374696E67206169726C696E65206D617920726567697374 PUSH1 0x0 DUP3 ADD MSTORE PUSH32 0x65722061206E6577206169726C696E6500000000000000000000000000000000 PUSH1 0x20 DUP3 ADD MSTORE POP JUMP JUMPDEST PUSH1 0x0 PUSH2 0x5C8B PUSH1 0x30 DUP4 PUSH2 0x4679 JUMP JUMPDEST SWAP2 POP PUSH2 0x5C96 DUP3 PUSH2 0x5C2F JUMP JUMPDEST PUSH1 0x40 DUP3 ADD SWAP1 POP SWAP2 SWAP1 POP JUMP JUMPDEST PUSH1 0x0 PUSH1 0x20 DUP3 ADD SWAP1 POP DUP2 DUP2 SUB PUSH1 0x0 DUP4 ADD MSTORE PUSH2 0x5CBA DUP2 PUSH2 0x5C7E JUMP JUMPDEST SWAP1 POP SWAP2 SWAP1 POP JUMP JUMPDEST PUSH32 0x4169726C696E6520646F6573206E6F74206D656574206D696E696D756D206675 PUSH1 0x0 DUP3 ADD MSTORE PUSH32 0x6E64696E6720746F20726567697374657220616E6F74686572206169726C696E PUSH1 0x20 DUP3 ADD MSTORE PUSH32 0x652E20436F6E747261637420676F7665726E616E63652064656E696564212121 PUSH1 0x40 DUP3 ADD MSTORE POP JUMP JUMPDEST PUSH1 0x0 PUSH2 0x5D43 PUSH1 0x60 DUP4 PUSH2 0x4679 JUMP JUMPDEST SWAP2 POP PUSH2 0x5D4E DUP3 PUSH2 0x5CC1 JUMP JUMPDEST PUSH1 0x60 DUP3 ADD SWAP1 POP SWAP2 SWAP1 POP JUMP JUMPDEST PUSH1 0x0 PUSH1 0x20 DUP3 ADD SWAP1 POP DUP2 DUP2 SUB PUSH1 0x0 DUP4 ADD MSTORE PUSH2 0x5D72 DUP2 PUSH2 0x5D36 JUMP JUMPDEST SWAP1 POP SWAP2 SWAP1 POP JUMP JUMPDEST PUSH32 0x4E656564206D6F7265207468616E2068616C6620766F74657320746F20626520 PUSH1 0x0 DUP3 ADD MSTORE PUSH32 0x726567697374657265642E000000000000000000000000000000000000000000 PUSH1 0x20 DUP3 ADD MSTORE POP JUMP JUMPDEST PUSH1 0x0 PUSH2 0x5DD5 PUSH1 0x2B DUP4 PUSH2 0x4679 JUMP JUMPDEST SWAP2 POP PUSH2 0x5DE0 DUP3 PUSH2 0x5D79 JUMP JUMPDEST PUSH1 0x40 DUP3 ADD SWAP1 POP SWAP2 SWAP1 POP JUMP JUMPDEST PUSH1 0x0 PUSH1 0x20 DUP3 ADD SWAP1 POP DUP2 DUP2 SUB PUSH1 0x0 DUP4 ADD MSTORE PUSH2 0x5E04 DUP2 PUSH2 0x5DC8 JUMP JUMPDEST SWAP1 POP SWAP2 SWAP1 POP JUMP JUMPDEST PUSH32 0x464C6967687420646F6573206E6F742065786973740000000000000000000000 PUSH1 0x0 DUP3 ADD MSTORE POP JUMP JUMPDEST PUSH1 0x0 PUSH2 0x5E41 PUSH1 0x15 DUP4 PUSH2 0x4679 JUMP JUMPDEST SWAP2 POP PUSH2 0x5E4C DUP3 PUSH2 0x5E0B JUMP JUMPDEST PUSH1 0x20 DUP3 ADD SWAP1 POP SWAP2 SWAP1 POP JUMP JUMPDEST PUSH1 0x0 PUSH1 0x20 DUP3 ADD SWAP1 POP DUP2 DUP2 SUB PUSH1 0x0 DUP4 ADD MSTORE PUSH2 0x5E70 DUP2 PUSH2 0x5E34 JUMP JUMPDEST SWAP1 POP SWAP2 SWAP1 POP JUMP JUMPDEST PUSH1 0x0 PUSH1 0x80 DUP3 ADD SWAP1 POP PUSH2 0x5E8C PUSH1 0x0 DUP4 ADD DUP8 PUSH2 0x4A37 JUMP JUMPDEST PUSH2 0x5E99 PUSH1 0x20 DUP4 ADD DUP7 PUSH2 0x47E5 JUMP JUMPDEST DUP2 DUP2 SUB PUSH1 0x40 DUP4 ADD MSTORE PUSH2 0x5EAB DUP2 DUP6 PUSH2 0x468A JUMP JUMPDEST SWAP1 POP PUSH2 0x5EBA PUSH1 0x60 DUP4 ADD DUP5 PUSH2 0x4010 JUMP JUMPDEST SWAP6 SWAP5 POP POP POP POP POP JUMP JUMPDEST PUSH1 0x0 PUSH2 0x5ECE DUP3 PUSH2 0x4705 JUMP JUMPDEST SWAP2 POP PUSH1 0xFF DUP3 SUB PUSH2 0x5EE1 JUMPI PUSH2 0x5EE0 PUSH2 0x4C91 JUMP JUMPDEST JUMPDEST PUSH1 0x1 DUP3 ADD SWAP1 POP SWAP2 SWAP1 POP JUMP JUMPDEST PUSH32 0x466C69676874206973206E6F7420726567697374657265642E00000000000000 PUSH1 0x0 DUP3 ADD MSTORE POP JUMP JUMPDEST PUSH1 0x0 PUSH2 0x5F22 PUSH1 0x19 DUP4 PUSH2 0x4679 JUMP JUMPDEST SWAP2 POP PUSH2 0x5F2D DUP3 PUSH2 0x5EEC JUMP JUMPDEST PUSH1 0x20 DUP3 ADD SWAP1 POP SWAP2 SWAP1 POP JUMP JUMPDEST PUSH1 0x0 PUSH1 0x20 DUP3 ADD SWAP1 POP DUP2 DUP2 SUB PUSH1 0x0 DUP4 ADD MSTORE PUSH2 0x5F51 DUP2 PUSH2 0x5F15 JUMP JUMPDEST SWAP1 POP SWAP2 SWAP1 POP JUMP JUMPDEST PUSH1 0x0 PUSH2 0x5F63 DUP3 PUSH2 0x4006 JUMP JUMPDEST SWAP2 POP PUSH2 0x5F6E DUP4 PUSH2 0x4006 JUMP JUMPDEST SWAP3 POP DUP3 DUP3 SUB SWAP1 POP DUP2 DUP2 GT ISZERO PUSH2 0x5F86 JUMPI PUSH2 0x5F85 PUSH2 0x4C91 JUMP JUMPDEST JUMPDEST SWAP3 SWAP2 POP POP JUMP JUMPDEST PUSH1 0x0 DUP2 SWAP1 POP SWAP2 SWAP1 POP JUMP JUMPDEST PUSH1 0x0 DUP2 SWAP1 POP SWAP2 SWAP1 POP JUMP JUMPDEST PUSH2 0x5FB1 PUSH2 0x5FAC DUP3 PUSH2 0x5F8C JUMP JUMPDEST PUSH2 0x5F96 JUMP JUMPDEST DUP3 MSTORE POP POP JUMP JUMPDEST PUSH1 0x0 PUSH2 0x5FC3 DUP3 DUP7 PUSH2 0x5FA0 JUMP JUMPDEST PUSH1 0x20 DUP3 ADD SWAP2 POP PUSH2 0x5FD3 DUP3 DUP6 PUSH2 0x5208 JUMP JUMPDEST PUSH1 0x14 DUP3 ADD SWAP2 POP PUSH2 0x5FE3 DUP3 DUP5 PUSH2 0x58CE JUMP JUMPDEST PUSH1 0x20 DUP3 ADD SWAP2 POP DUP2 SWAP1 POP SWAP5 SWAP4 POP POP POP POP JUMP JUMPDEST PUSH1 0x0 PUSH2 0x5FFF DUP3 PUSH2 0x4006 JUMP JUMPDEST SWAP2 POP PUSH2 0x600A DUP4 PUSH2 0x4006 JUMP JUMPDEST SWAP3 POP DUP3 PUSH2 0x601A JUMPI PUSH2 0x6019 PUSH2 0x5410 JUMP JUMPDEST JUMPDEST DUP3 DUP3 MOD SWAP1 POP SWAP3 SWAP2 POP POP JUMP INVALID LOG2 PUSH5 0x6970667358 0x22 SLT KECCAK256 LOG0 PUSH17 0xF8115D4BF97C775EB5140183177E4879ED 0xB5 BLOCKHASH 0xC2 DUP11 SWAP13 MLOAD 0xAB 0xDA 0x2F DUP14 0x4F SWAP6 0x4D PUSH5 0x736F6C6343 STOP ADDMOD SGT STOP CALLER "},"methodIdentifiers":{"INSURANCE_PRICE_LIMIT()":"29e18e5d","REGISTRATION_FEE()":"64b4f751","addAirline(address,string)":"29df66cc","airlineAddresses(uint256)":"64dcb7bf","authorizeCallers(address)":"487d7200","buy(string)":"492cc769","creditInsurees(string)":"3fcf1cf4","deAuthorizeContract(address)":"a1a5faf1","fetchFlightStatus(address,string,uint256)":"f83f11c0","fund()":"b60d4288","getAirlineFunding(address)":"94e2177a","getAirlineInfo(address)":"720c7cbb","getAirlineName(address)":"524b6100","getAirlineVoters(address)":"46ee941a","getAirlinesCount()":"05e931f4","getAllAirlines()":"4cc7dbee","getBalance()":"12065fe0","getCreditToPay(string)":"2ca8eb0e","getFlightExistsStatus(string)":"ebc5c8ea","getFlights()":"94c260ee","getMyIndexes()":"5f1cc0e6","getPassengerAddresses()":"3afb50d7","getPassengerCredit(string)":"ab900d24","getVotes(address)":"9ab24eb0","isAirlineRegistered(address)":"010c5c97","isOperational()":"cd905dff","isOracleRegistered()":"0d1db1f0","isOwner()":"8f32d59b","pay(string)":"2b66d72e","registerAirline(address,string)":"ee38a749","registerFlight(string,string,uint256)":"49b24807","registerOracle()":"339d2590","setAirlineFunding(address,uint256)":"490e1f66","setAirlineVoters(address,address)":"4c8d0274","setFlightExistsStatus(string)":"1d630670","setOperatingStatus(bool)":"110466ed","setVotes(address)":"39004b27","submitOracleResponse(uint8,address,string,uint256,uint8)":"c10f2700","viewFlightStatus(string,address)":"b5bb52d7","voteAirline(address)":"d8ab5b89"}}}}}