{"contracts/FlightSuretyData.sol":{"FlightSuretyData":{"abi":[{"inputs":[{"internalType":"address","name":"_airlineAddress","type":"address"}],"stateMutability":"nonpayable","type":"constructor"},{"anonymous":false,"inputs":[{"indexed":true,"internalType":"address","name":"addr","type":"address"}],"name":"AuthorizedContract","type":"event"},{"anonymous":false,"inputs":[{"indexed":true,"internalType":"address","name":"passenger","type":"address"},{"indexed":false,"internalType":"string","name":"flightNumber","type":"string"},{"indexed":false,"internalType":"uint256","name":"amount","type":"uint256"}],"name":"CreditWithdrawn","type":"event"},{"anonymous":false,"inputs":[{"indexed":true,"internalType":"address","name":"addr","type":"address"}],"name":"DeAuthorizedContract","type":"event"},{"anonymous":false,"inputs":[{"indexed":true,"internalType":"address","name":"passenger","type":"address"},{"indexed":false,"internalType":"string","name":"flightNumber","type":"string"},{"indexed":false,"internalType":"uint256","name":"amount","type":"uint256"}],"name":"InsuranceBought","type":"event"},{"anonymous":false,"inputs":[{"indexed":false,"internalType":"bool","name":"mode","type":"bool"}],"name":"UpdateOperatingStatus","type":"event"},{"inputs":[],"name":"INSURANCE_PRICE_LIMIT","outputs":[{"internalType":"uint256","name":"","type":"uint256"}],"stateMutability":"view","type":"function"},{"inputs":[{"internalType":"address","name":"_airlineAddress","type":"address"},{"internalType":"string","name":"_name","type":"string"}],"name":"addAirline","outputs":[],"stateMutability":"nonpayable","type":"function"},{"inputs":[{"internalType":"uint256","name":"","type":"uint256"}],"name":"airlineAddresses","outputs":[{"internalType":"address","name":"","type":"address"}],"stateMutability":"view","type":"function"},{"inputs":[{"internalType":"address","name":"_address","type":"address"}],"name":"authorizeCallers","outputs":[],"stateMutability":"nonpayable","type":"function"},{"inputs":[{"internalType":"string","name":"flightNumber","type":"string"}],"name":"buy","outputs":[],"stateMutability":"payable","type":"function"},{"inputs":[{"internalType":"string","name":"flightNumber","type":"string"}],"name":"creditInsurees","outputs":[],"stateMutability":"nonpayable","type":"function"},{"inputs":[{"internalType":"address","name":"_address","type":"address"}],"name":"deAuthorizeContract","outputs":[],"stateMutability":"nonpayable","type":"function"},{"inputs":[],"name":"fund","outputs":[],"stateMutability":"payable","type":"function"},{"inputs":[{"internalType":"address","name":"_airlineAddress","type":"address"}],"name":"getAirlineFunding","outputs":[{"internalType":"uint256","name":"","type":"uint256"}],"stateMutability":"view","type":"function"},{"inputs":[{"internalType":"address","name":"_airlineAddress","type":"address"}],"name":"getAirlineInfo","outputs":[{"internalType":"string","name":"name","type":"string"},{"internalType":"bool","name":"isRegistered","type":"bool"},{"internalType":"uint256","name":"funding","type":"uint256"}],"stateMutability":"view","type":"function"},{"inputs":[{"internalType":"address","name":"_airlineAddress","type":"address"}],"name":"getAirlineName","outputs":[{"internalType":"string","name":"","type":"string"}],"stateMutability":"view","type":"function"},{"inputs":[{"internalType":"address","name":"_airlineAddress","type":"address"}],"name":"getAirlineVoters","outputs":[{"internalType":"address[]","name":"","type":"address[]"}],"stateMutability":"view","type":"function"},{"inputs":[],"name":"getAirlinesCount","outputs":[{"internalType":"uint256","name":"","type":"uint256"}],"stateMutability":"view","type":"function"},{"inputs":[],"name":"getAllAirlines","outputs":[{"components":[{"internalType":"string","name":"name","type":"string"},{"internalType":"address","name":"_address","type":"address"},{"internalType":"bool","name":"isRegistered","type":"bool"},{"internalType":"uint256","name":"funding","type":"uint256"}],"internalType":"struct FlightSuretyData.Airline[]","name":"","type":"tuple[]"}],"stateMutability":"view","type":"function"},{"inputs":[],"name":"getBalance","outputs":[{"internalType":"uint256","name":"","type":"uint256"}],"stateMutability":"view","type":"function"},{"inputs":[{"internalType":"string","name":"flightNumber","type":"string"}],"name":"getCreditToPay","outputs":[{"internalType":"uint256","name":"","type":"uint256"}],"stateMutability":"view","type":"function"},{"inputs":[{"internalType":"string","name":"flightNumber","type":"string"}],"name":"getFlightExistsStatus","outputs":[{"internalType":"bool","name":"","type":"bool"}],"stateMutability":"view","type":"function"},{"inputs":[],"name":"getPassengerAddresses","outputs":[{"internalType":"address[]","name":"","type":"address[]"}],"stateMutability":"view","type":"function"},{"inputs":[{"internalType":"string","name":"flightNumber","type":"string"}],"name":"getPassengerCredit","outputs":[{"internalType":"uint256","name":"","type":"uint256"}],"stateMutability":"view","type":"function"},{"inputs":[{"internalType":"address","name":"_airlineAddress","type":"address"}],"name":"getVotes","outputs":[{"internalType":"uint256","name":"","type":"uint256"}],"stateMutability":"view","type":"function"},{"inputs":[{"internalType":"address","name":"_airlineAddress","type":"address"}],"name":"isAirlineRegistered","outputs":[{"internalType":"bool","name":"","type":"bool"}],"stateMutability":"view","type":"function"},{"inputs":[],"name":"isOperational","outputs":[{"internalType":"bool","name":"","type":"bool"}],"stateMutability":"view","type":"function"},{"inputs":[],"name":"isOwner","outputs":[{"internalType":"bool","name":"","type":"bool"}],"stateMutability":"view","type":"function"},{"inputs":[{"internalType":"string","name":"flightNumber","type":"string"}],"name":"pay","outputs":[],"stateMutability":"nonpayable","type":"function"},{"inputs":[{"internalType":"address","name":"_airlineAddress","type":"address"},{"internalType":"uint256","name":"amount","type":"uint256"}],"name":"setAirlineFunding","outputs":[],"stateMutability":"nonpayable","type":"function"},{"inputs":[{"internalType":"address","name":"_airlineAddress","type":"address"},{"internalType":"address","name":"voter","type":"address"}],"name":"setAirlineVoters","outputs":[],"stateMutability":"nonpayable","type":"function"},{"inputs":[{"internalType":"string","name":"flightNumber","type":"string"}],"name":"setFlightExistsStatus","outputs":[],"stateMutability":"nonpayable","type":"function"},{"inputs":[{"internalType":"bool","name":"mode","type":"bool"}],"name":"setOperatingStatus","outputs":[],"stateMutability":"nonpayable","type":"function"},{"inputs":[{"internalType":"address","name":"_airlineAddress","type":"address"}],"name":"setVotes","outputs":[],"stateMutability":"nonpayable","type":"function"},{"stateMutability":"payable","type":"receive"}],"evm":{"bytecode":{"linkReferences":{},"object":"60806040526001600260006101000a81548160ff0219169083151502179055503480156200002c57600080fd5b5060405162003f4638038062003f4683398181016040528101906200005291906200036d565b336000806101000a81548173ffffffffffffffffffffffffffffffffffffffff021916908373ffffffffffffffffffffffffffffffffffffffff1602179055506004819080600181540180825580915050600190039060005260206000200160009091909190916101000a81548173ffffffffffffffffffffffffffffffffffffffff021916908373ffffffffffffffffffffffffffffffffffffffff16021790555060405180608001604052806040518060400160405280600a81526020017f4d79204169726c696e650000000000000000000000000000000000000000000081525081526020018273ffffffffffffffffffffffffffffffffffffffff168152602001600115158152602001678ac7230489e80000815250600560008373ffffffffffffffffffffffffffffffffffffffff1673ffffffffffffffffffffffffffffffffffffffff1681526020019081526020016000206000820151816000019081620001c2919062000619565b5060208201518160010160006101000a81548173ffffffffffffffffffffffffffffffffffffffff021916908373ffffffffffffffffffffffffffffffffffffffff16021790555060408201518160010160146101000a81548160ff021916908315150217905550606082015181600201559050506001600860008373ffffffffffffffffffffffffffffffffffffffff1673ffffffffffffffffffffffffffffffffffffffff168152602001908152602001600020819055506001600860008060009054906101000a900473ffffffffffffffffffffffffffffffffffffffff1673ffffffffffffffffffffffffffffffffffffffff1673ffffffffffffffffffffffffffffffffffffffff1681526020019081526020016000208190555060016000815480929190620002f7906200072f565b9190505550506200077c565b600080fd5b600073ffffffffffffffffffffffffffffffffffffffff82169050919050565b6000620003358262000308565b9050919050565b620003478162000328565b81146200035357600080fd5b50565b60008151905062000367816200033c565b92915050565b60006020828403121562000386576200038562000303565b5b6000620003968482850162000356565b91505092915050565b600081519050919050565b7f4e487b7100000000000000000000000000000000000000000000000000000000600052604160045260246000fd5b7f4e487b7100000000000000000000000000000000000000000000000000000000600052602260045260246000fd5b600060028204905060018216806200042157607f821691505b602082108103620004375762000436620003d9565b5b50919050565b60008190508160005260206000209050919050565b60006020601f8301049050919050565b600082821b905092915050565b600060088302620004a17fffffffffffffffffffffffffffffffffffffffffffffffffffffffffffffffff8262000462565b620004ad868362000462565b95508019841693508086168417925050509392505050565b6000819050919050565b6000819050919050565b6000620004fa620004f4620004ee84620004c5565b620004cf565b620004c5565b9050919050565b6000819050919050565b6200051683620004d9565b6200052e620005258262000501565b8484546200046f565b825550505050565b600090565b6200054562000536565b620005528184846200050b565b505050565b5b818110156200057a576200056e6000826200053b565b60018101905062000558565b5050565b601f821115620005c95762000593816200043d565b6200059e8462000452565b81016020851015620005ae578190505b620005c6620005bd8562000452565b83018262000557565b50505b505050565b600082821c905092915050565b6000620005ee60001984600802620005ce565b1980831691505092915050565b6000620006098383620005db565b9150826002028217905092915050565b62000624826200039f565b67ffffffffffffffff81111562000640576200063f620003aa565b5b6200064c825462000408565b620006598282856200057e565b600060209050601f8311600181146200069157600084156200067c578287015190505b620006888582620005fb565b865550620006f8565b601f198416620006a1866200043d565b60005b82811015620006cb57848901518255600182019150602085019450602081019050620006a4565b86831015620006eb5784890151620006e7601f891682620005db565b8355505b6001600288020188555050505b505050505050565b7f4e487b7100000000000000000000000000000000000000000000000000000000600052601160045260246000fd5b60006200073c82620004c5565b91507fffffffffffffffffffffffffffffffffffffffffffffffffffffffffffffffff820362000771576200077062000700565b5b600182019050919050565b6137ba806200078c6000396000f3fe6080604052600436106101c65760003560e01c8063490e1f66116100f75780638f32d59b11610095578063ab900d2411610064578063ab900d241461067c578063b60d4288146106b9578063cd905dff146106c3578063ebc5c8ea146106ee576101d5565b80638f32d59b146105ae57806394e2177a146105d95780639ab24eb014610616578063a1a5faf114610653576101d5565b80634cc7dbee116100d15780634cc7dbee146104ca578063524b6100146104f557806364dcb7bf14610532578063720c7cbb1461056f576101d5565b8063490e1f661461045c578063492cc769146104855780634c8d0274146104a1576101d5565b80632b66d72e116101645780633afb50d71161013e5780633afb50d7146103a25780633fcf1cf4146103cd57806346ee941a146103f6578063487d720014610433576101d5565b80632b66d72e146103135780632ca8eb0e1461033c57806339004b2714610379576101d5565b806312065fe0116101a057806312065fe01461026b5780631d6306701461029657806329df66cc146102bf57806329e18e5d146102e8576101d5565b8063010c5c97146101da57806305e931f414610217578063110466ed14610242576101d5565b366101d5576101d361072b565b005b600080fd5b3480156101e657600080fd5b5061020160048036038101906101fc91906125cb565b610864565b60405161020e9190612613565b60405180910390f35b34801561022357600080fd5b5061022c61090c565b6040516102399190612647565b60405180910390f35b34801561024e57600080fd5b506102696004803603810190610264919061268e565b610965565b005b34801561027757600080fd5b50610280610a47565b60405161028d9190612647565b60405180910390f35b3480156102a257600080fd5b506102bd60048036038101906102b89190612801565b610a9e565b005b3480156102cb57600080fd5b506102e660048036038101906102e1919061284a565b610b27565b005b3480156102f457600080fd5b506102fd610dc0565b60405161030a9190612647565b60405180910390f35b34801561031f57600080fd5b5061033a60048036038101906103359190612801565b610dcc565b005b34801561034857600080fd5b50610363600480360381019061035e9190612801565b611024565b6040516103709190612647565b60405180910390f35b34801561038557600080fd5b506103a0600480360381019061039b91906125cb565b6110c1565b005b3480156103ae57600080fd5b506103b761111b565b6040516103c49190612964565b60405180910390f35b3480156103d957600080fd5b506103f460048036038101906103ef9190612801565b6111f8565b005b34801561040257600080fd5b5061041d600480360381019061041891906125cb565b6113e4565b60405161042a9190612964565b60405180910390f35b34801561043f57600080fd5b5061045a600480360381019061045591906125cb565b611500565b005b34801561046857600080fd5b50610483600480360381019061047e91906129b2565b611668565b005b61049f600480360381019061049a9190612801565b611714565b005b3480156104ad57600080fd5b506104c860048036038101906104c391906129f2565b611add565b005b3480156104d657600080fd5b506104df611bd0565b6040516104ec9190612bf4565b60405180910390f35b34801561050157600080fd5b5061051c600480360381019061051791906125cb565b611e13565b6040516105299190612c60565b60405180910390f35b34801561053e57600080fd5b5061055960048036038101906105549190612c82565b611f36565b6040516105669190612cbe565b60405180910390f35b34801561057b57600080fd5b50610596600480360381019061059191906125cb565b611f75565b6040516105a593929190612cd9565b60405180910390f35b3480156105ba57600080fd5b506105c3612141565b6040516105d09190612613565b60405180910390f35b3480156105e557600080fd5b5061060060048036038101906105fb91906125cb565b612198565b60405161060d9190612647565b60405180910390f35b34801561062257600080fd5b5061063d600480360381019061063891906125cb565b612233565b60405161064a9190612647565b60405180910390f35b34801561065f57600080fd5b5061067a600480360381019061067591906125cb565b6122cb565b005b34801561068857600080fd5b506106a3600480360381019061069e9190612801565b612431565b6040516106b09190612647565b60405180910390f35b6106c161072b565b005b3480156106cf57600080fd5b506106d861247e565b6040516106e59190612613565b60405180910390f35b3480156106fa57600080fd5b5061071560048036038101906107109190612801565b612495565b6040516107229190612613565b60405180910390f35b600260009054906101000a900460ff1661077a576040517f08c379a000000000000000000000000000000000000000000000000000000000815260040161077190612d89565b60405180910390fd5b600560003373ffffffffffffffffffffffffffffffffffffffff1673ffffffffffffffffffffffffffffffffffffffff16815260200190815260200160002060010160149054906101000a900460ff16610809576040517f08c379a000000000000000000000000000000000000000000000000000000000815260040161080090612df5565b60405180910390fd5b34600560003373ffffffffffffffffffffffffffffffffffffffff1673ffffffffffffffffffffffffffffffffffffffff168152602001908152602001600020600201600082825461085b9190612e44565b92505081905550565b6000600260009054906101000a900460ff166108b5576040517f08c379a00000000000000000000000000000000000000000000000000000000081526004016108ac90612d89565b60405180910390fd5b600560008373ffffffffffffffffffffffffffffffffffffffff1673ffffffffffffffffffffffffffffffffffffffff16815260200190815260200160002060010160149054906101000a900460ff169050919050565b6000600260009054906101000a900460ff1661095d576040517f08c379a000000000000000000000000000000000000000000000000000000000815260040161095490612d89565b60405180910390fd5b600154905090565b60008054906101000a900473ffffffffffffffffffffffffffffffffffffffff1673ffffffffffffffffffffffffffffffffffffffff163373ffffffffffffffffffffffffffffffffffffffff16146109f3576040517f08c379a00000000000000000000000000000000000000000000000000000000081526004016109ea90612ec4565b60405180910390fd5b7ff21db895caf8541b06334a513512d7af19d1beddfdb05ef5f24d990078588ac881604051610a229190612613565b60405180910390a180600260006101000a81548160ff02191690831515021790555050565b6000600260009054906101000a900460ff16610a98576040517f08c379a0000000000000000000000000000000000000000000000000000000008152600401610a8f90612d89565b60405180910390fd5b47905090565b600260009054906101000a900460ff16610aed576040517f08c379a0000000000000000000000000000000000000000000000000000000008152600401610ae490612d89565b60405180910390fd5b6001600982604051610aff9190612f20565b908152602001604051809103902060006101000a81548160ff02191690831515021790555050565b600260009054906101000a900460ff16610b76576040517f08c379a0000000000000000000000000000000000000000000000000000000008152600401610b6d90612d89565b60405180910390fd5b6001600860003373ffffffffffffffffffffffffffffffffffffffff1673ffffffffffffffffffffffffffffffffffffffff1681526020019081526020016000205414610bf8576040517f08c379a0000000000000000000000000000000000000000000000000000000008152600401610bef90612f83565b60405180910390fd5b60405180608001604052808281526020018373ffffffffffffffffffffffffffffffffffffffff1681526020016001151581526020016000815250600560008473ffffffffffffffffffffffffffffffffffffffff1673ffffffffffffffffffffffffffffffffffffffff1681526020019081526020016000206000820151816000019081610c8791906131af565b5060208201518160010160006101000a81548173ffffffffffffffffffffffffffffffffffffffff021916908373ffffffffffffffffffffffffffffffffffffffff16021790555060408201518160010160146101000a81548160ff021916908315150217905550606082015181600201559050506001600860008473ffffffffffffffffffffffffffffffffffffffff1673ffffffffffffffffffffffffffffffffffffffff168152602001908152602001600020819055506004829080600181540180825580915050600190039060005260206000200160009091909190916101000a81548173ffffffffffffffffffffffffffffffffffffffff021916908373ffffffffffffffffffffffffffffffffffffffff16021790555060016000815480929190610db790613281565b91905055505050565b670de0b6b3a764000081565b600260009054906101000a900460ff16610e1b576040517f08c379a0000000000000000000000000000000000000000000000000000000008152600401610e1290612d89565b60405180910390fd5b3273ffffffffffffffffffffffffffffffffffffffff163373ffffffffffffffffffffffffffffffffffffffff1614610e89576040517f08c379a0000000000000000000000000000000000000000000000000000000008152600401610e809061333b565b60405180910390fd5b60008133604051602001610e9e9291906133a3565b6040516020818303038152906040528051906020012090506000600a60008381526020019081526020016000206002015411610f0f576040517f08c379a0000000000000000000000000000000000000000000000000000000008152600401610f0690613417565b60405180910390fd5b6000600a6000838152602001908152602001600020600201549050804711610f6c576040517f08c379a0000000000000000000000000000000000000000000000000000000008152600401610f63906134a9565b60405180910390fd5b6000600a6000848152602001908152602001600020600201819055503373ffffffffffffffffffffffffffffffffffffffff166108fc829081150290604051600060405180830381858888f19350505050158015610fce573d6000803e3d6000fd5b503373ffffffffffffffffffffffffffffffffffffffff167f37821217243a9021d21d3064ee513839a726184e5a5ec6068a9faf8213fad23d84836040516110179291906134c9565b60405180910390a2505050565b6000600260009054906101000a900460ff16611075576040517f08c379a000000000000000000000000000000000000000000000000000000000815260040161106c90612d89565b60405180910390fd5b6000823360405160200161108a9291906133a3565b604051602081830303815290604052805190602001209050600a600082815260200190815260200160002060020154915050919050565b6001600660008373ffffffffffffffffffffffffffffffffffffffff1673ffffffffffffffffffffffffffffffffffffffff16815260200190815260200160002060008282546111119190612e44565b9250508190555050565b6060600260009054906101000a900460ff1661116c576040517f08c379a000000000000000000000000000000000000000000000000000000000815260040161116390612d89565b60405180910390fd5b60038054806020026020016040519081016040528092919081815260200182805480156111ee57602002820191906000526020600020905b8160009054906101000a900473ffffffffffffffffffffffffffffffffffffffff1673ffffffffffffffffffffffffffffffffffffffff16815260200190600101908083116111a4575b5050505050905090565b600260009054906101000a900460ff16611247576040517f08c379a000000000000000000000000000000000000000000000000000000000815260040161123e90612d89565b60405180910390fd5b6000600380549050905060005b818110156113df5760008360038381548110611273576112726134f9565b5b9060005260206000200160009054906101000a900473ffffffffffffffffffffffffffffffffffffffff166040516020016112af9291906133a3565b604051602081830303815290604052805190602001209050600073ffffffffffffffffffffffffffffffffffffffff16600a600083815260200190815260200160002060000160009054906101000a900473ffffffffffffffffffffffffffffffffffffffff1673ffffffffffffffffffffffffffffffffffffffff16146113cb576000600a60008381526020019081526020016000209050600081600201549050600082600101876040516113659190612f20565b90815260200160405180910390205490506000836001018860405161138a9190612f20565b9081526020016040518091039020819055506002816113a99190613557565b816113b49190612e44565b826113bf9190612e44565b83600201819055505050505b5080806113d790613281565b915050611254565b505050565b6060600260009054906101000a900460ff16611435576040517f08c379a000000000000000000000000000000000000000000000000000000000815260040161142c90612d89565b60405180910390fd5b600760008373ffffffffffffffffffffffffffffffffffffffff1673ffffffffffffffffffffffffffffffffffffffff1681526020019081526020016000208054806020026020016040519081016040528092919081815260200182805480156114f457602002820191906000526020600020905b8160009054906101000a900473ffffffffffffffffffffffffffffffffffffffff1673ffffffffffffffffffffffffffffffffffffffff16815260200190600101908083116114aa575b50505050509050919050565b60008054906101000a900473ffffffffffffffffffffffffffffffffffffffff1673ffffffffffffffffffffffffffffffffffffffff163373ffffffffffffffffffffffffffffffffffffffff161461158e576040517f08c379a000000000000000000000000000000000000000000000000000000000815260040161158590612ec4565b60405180910390fd5b600260009054906101000a900460ff166115dd576040517f08c379a00000000000000000000000000000000000000000000000000000000081526004016115d490612d89565b60405180910390fd5b6001600860008373ffffffffffffffffffffffffffffffffffffffff1673ffffffffffffffffffffffffffffffffffffffff168152602001908152602001600020819055508073ffffffffffffffffffffffffffffffffffffffff167f2c74592fddad593c2c4403101ce9b30930711ab87571268ddd1e1989ee1d791760405160405180910390a250565b600260009054906101000a900460ff166116b7576040517f08c379a00000000000000000000000000000000000000000000000000000000081526004016116ae90612d89565b60405180910390fd5b80600560008473ffffffffffffffffffffffffffffffffffffffff1673ffffffffffffffffffffffffffffffffffffffff16815260200190815260200160002060020160008282546117099190612e44565b925050819055505050565b600260009054906101000a900460ff16611763576040517f08c379a000000000000000000000000000000000000000000000000000000000815260040161175a90612d89565b60405180910390fd5b6009816040516117739190612f20565b908152602001604051809103902060009054906101000a900460ff166117ce576040517f08c379a00000000000000000000000000000000000000000000000000000000081526004016117c5906135d4565b60405180910390fd5b3273ffffffffffffffffffffffffffffffffffffffff163373ffffffffffffffffffffffffffffffffffffffff161461183c576040517f08c379a00000000000000000000000000000000000000000000000000000000081526004016118339061333b565b60405180910390fd5b6000341161187f576040517f08c379a000000000000000000000000000000000000000000000000000000000815260040161187690613666565b60405180910390fd5b670de0b6b3a76400003411156118ca576040517f08c379a00000000000000000000000000000000000000000000000000000000081526004016118c1906136f8565b60405180910390fd5b600081336040516020016118df9291906133a3565b604051602081830303815290604052805190602001209050600073ffffffffffffffffffffffffffffffffffffffff16600a600083815260200190815260200160002060000160009054906101000a900473ffffffffffffffffffffffffffffffffffffffff1673ffffffffffffffffffffffffffffffffffffffff161461199c576040517f08c379a000000000000000000000000000000000000000000000000000000000815260040161199390613764565b60405180910390fd5b6000600a60008381526020019081526020016000209050338160000160006101000a81548173ffffffffffffffffffffffffffffffffffffffff021916908373ffffffffffffffffffffffffffffffffffffffff16021790555060008160020181905550348160010184604051611a139190612f20565b9081526020016040518091039020819055506003339080600181540180825580915050600190039060005260206000200160009091909190916101000a81548173ffffffffffffffffffffffffffffffffffffffff021916908373ffffffffffffffffffffffffffffffffffffffff1602179055503373ffffffffffffffffffffffffffffffffffffffff167f26ad90fbc61f14a22f36e3f307f548d6d4cb6193ec8fdfd8903077e2e3d8953d8434604051611ad09291906134c9565b60405180910390a2505050565b600260009054906101000a900460ff16611b2c576040517f08c379a0000000000000000000000000000000000000000000000000000000008152600401611b2390612d89565b60405180910390fd5b600760008373ffffffffffffffffffffffffffffffffffffffff1673ffffffffffffffffffffffffffffffffffffffff168152602001908152602001600020819080600181540180825580915050600190039060005260206000200160009091909190916101000a81548173ffffffffffffffffffffffffffffffffffffffff021916908373ffffffffffffffffffffffffffffffffffffffff1602179055505050565b6060600060048054905067ffffffffffffffff811115611bf357611bf26126d6565b5b604051908082528060200260200182016040528015611c2c57816020015b611c19612519565b815260200190600190039081611c115790505b50905060005b600480549050811015611e0b5760006005600060048481548110611c5957611c586134f9565b5b9060005260206000200160009054906101000a900473ffffffffffffffffffffffffffffffffffffffff1673ffffffffffffffffffffffffffffffffffffffff1673ffffffffffffffffffffffffffffffffffffffff168152602001908152602001600020905080604051806080016040529081600082018054611cdc90612fd2565b80601f0160208091040260200160405190810160405280929190818152602001828054611d0890612fd2565b8015611d555780601f10611d2a57610100808354040283529160200191611d55565b820191906000526020600020905b815481529060010190602001808311611d3857829003601f168201915b505050505081526020016001820160009054906101000a900473ffffffffffffffffffffffffffffffffffffffff1673ffffffffffffffffffffffffffffffffffffffff1673ffffffffffffffffffffffffffffffffffffffff1681526020016001820160149054906101000a900460ff16151515158152602001600282015481525050838381518110611dec57611deb6134f9565b5b6020026020010181905250508080611e0390613281565b915050611c32565b508091505090565b6060600260009054906101000a900460ff16611e64576040517f08c379a0000000000000000000000000000000000000000000000000000000008152600401611e5b90612d89565b60405180910390fd5b600560008373ffffffffffffffffffffffffffffffffffffffff1673ffffffffffffffffffffffffffffffffffffffff1681526020019081526020016000206000018054611eb190612fd2565b80601f0160208091040260200160405190810160405280929190818152602001828054611edd90612fd2565b8015611f2a5780601f10611eff57610100808354040283529160200191611f2a565b820191906000526020600020905b815481529060010190602001808311611f0d57829003601f168201915b50505050509050919050565b60048181548110611f4657600080fd5b906000526020600020016000915054906101000a900473ffffffffffffffffffffffffffffffffffffffff1681565b6060600080600260009054906101000a900460ff16611fc9576040517f08c379a0000000000000000000000000000000000000000000000000000000008152600401611fc090612d89565b60405180910390fd5b6000600560008673ffffffffffffffffffffffffffffffffffffffff1673ffffffffffffffffffffffffffffffffffffffff16815260200190815260200160002060405180608001604052908160008201805461202590612fd2565b80601f016020809104026020016040519081016040528092919081815260200182805461205190612fd2565b801561209e5780601f106120735761010080835404028352916020019161209e565b820191906000526020600020905b81548152906001019060200180831161208157829003601f168201915b505050505081526020016001820160009054906101000a900473ffffffffffffffffffffffffffffffffffffffff1673ffffffffffffffffffffffffffffffffffffffff1673ffffffffffffffffffffffffffffffffffffffff1681526020016001820160149054906101000a900460ff161515151581526020016002820154815250509050806000015193508060400151925080606001519150509193909250565b60008060009054906101000a900473ffffffffffffffffffffffffffffffffffffffff1673ffffffffffffffffffffffffffffffffffffffff163373ffffffffffffffffffffffffffffffffffffffff1614905090565b6000600260009054906101000a900460ff166121e9576040517f08c379a00000000000000000000000000000000000000000000000000000000081526004016121e090612d89565b60405180910390fd5b600560008373ffffffffffffffffffffffffffffffffffffffff1673ffffffffffffffffffffffffffffffffffffffff168152602001908152602001600020600201549050919050565b6000600260009054906101000a900460ff16612284576040517f08c379a000000000000000000000000000000000000000000000000000000000815260040161227b90612d89565b60405180910390fd5b600660008373ffffffffffffffffffffffffffffffffffffffff1673ffffffffffffffffffffffffffffffffffffffff168152602001908152602001600020549050919050565b60008054906101000a900473ffffffffffffffffffffffffffffffffffffffff1673ffffffffffffffffffffffffffffffffffffffff163373ffffffffffffffffffffffffffffffffffffffff1614612359576040517f08c379a000000000000000000000000000000000000000000000000000000000815260040161235090612ec4565b60405180910390fd5b600260009054906101000a900460ff166123a8576040517f08c379a000000000000000000000000000000000000000000000000000000000815260040161239f90612d89565b60405180910390fd5b600860008273ffffffffffffffffffffffffffffffffffffffff1673ffffffffffffffffffffffffffffffffffffffff168152602001908152602001600020600090558073ffffffffffffffffffffffffffffffffffffffff167fd5cf915bcf19ee4a2edf05f0add6e4520e02eda58f4b4a99387be2a7ae79cefb60405160405180910390a250565b60008082336040516020016124479291906133a3565b604051602081830303815290604052805190602001209050600a600082815260200190815260200160002060020154915050919050565b6000600260009054906101000a900460ff16905090565b6000600260009054906101000a900460ff166124e6576040517f08c379a00000000000000000000000000000000000000000000000000000000081526004016124dd90612d89565b60405180910390fd5b6009826040516124f69190612f20565b908152602001604051809103902060009054906101000a900460ff169050919050565b604051806080016040528060608152602001600073ffffffffffffffffffffffffffffffffffffffff168152602001600015158152602001600081525090565b6000604051905090565b600080fd5b600080fd5b600073ffffffffffffffffffffffffffffffffffffffff82169050919050565b60006125988261256d565b9050919050565b6125a88161258d565b81146125b357600080fd5b50565b6000813590506125c58161259f565b92915050565b6000602082840312156125e1576125e0612563565b5b60006125ef848285016125b6565b91505092915050565b60008115159050919050565b61260d816125f8565b82525050565b60006020820190506126286000830184612604565b92915050565b6000819050919050565b6126418161262e565b82525050565b600060208201905061265c6000830184612638565b92915050565b61266b816125f8565b811461267657600080fd5b50565b60008135905061268881612662565b92915050565b6000602082840312156126a4576126a3612563565b5b60006126b284828501612679565b91505092915050565b600080fd5b600080fd5b6000601f19601f8301169050919050565b7f4e487b7100000000000000000000000000000000000000000000000000000000600052604160045260246000fd5b61270e826126c5565b810181811067ffffffffffffffff8211171561272d5761272c6126d6565b5b80604052505050565b6000612740612559565b905061274c8282612705565b919050565b600067ffffffffffffffff82111561276c5761276b6126d6565b5b612775826126c5565b9050602081019050919050565b82818337600083830152505050565b60006127a461279f84612751565b612736565b9050828152602081018484840111156127c0576127bf6126c0565b5b6127cb848285612782565b509392505050565b600082601f8301126127e8576127e76126bb565b5b81356127f8848260208601612791565b91505092915050565b60006020828403121561281757612816612563565b5b600082013567ffffffffffffffff81111561283557612834612568565b5b612841848285016127d3565b91505092915050565b6000806040838503121561286157612860612563565b5b600061286f858286016125b6565b925050602083013567ffffffffffffffff8111156128905761288f612568565b5b61289c858286016127d3565b9150509250929050565b600081519050919050565b600082825260208201905092915050565b6000819050602082019050919050565b6128db8161258d565b82525050565b60006128ed83836128d2565b60208301905092915050565b6000602082019050919050565b6000612911826128a6565b61291b81856128b1565b9350612926836128c2565b8060005b8381101561295757815161293e88826128e1565b9750612949836128f9565b92505060018101905061292a565b5085935050505092915050565b6000602082019050818103600083015261297e8184612906565b905092915050565b61298f8161262e565b811461299a57600080fd5b50565b6000813590506129ac81612986565b92915050565b600080604083850312156129c9576129c8612563565b5b60006129d7858286016125b6565b92505060206129e88582860161299d565b9150509250929050565b60008060408385031215612a0957612a08612563565b5b6000612a17858286016125b6565b9250506020612a28858286016125b6565b9150509250929050565b600081519050919050565b600082825260208201905092915050565b6000819050602082019050919050565b600081519050919050565b600082825260208201905092915050565b60005b83811015612a98578082015181840152602081019050612a7d565b60008484015250505050565b6000612aaf82612a5e565b612ab98185612a69565b9350612ac9818560208601612a7a565b612ad2816126c5565b840191505092915050565b612ae6816125f8565b82525050565b612af58161262e565b82525050565b60006080830160008301518482036000860152612b188282612aa4565b9150506020830151612b2d60208601826128d2565b506040830151612b406040860182612add565b506060830151612b536060860182612aec565b508091505092915050565b6000612b6a8383612afb565b905092915050565b6000602082019050919050565b6000612b8a82612a32565b612b948185612a3d565b935083602082028501612ba685612a4e565b8060005b85811015612be25784840389528151612bc38582612b5e565b9450612bce83612b72565b925060208a01995050600181019050612baa565b50829750879550505050505092915050565b60006020820190508181036000830152612c0e8184612b7f565b905092915050565b600082825260208201905092915050565b6000612c3282612a5e565b612c3c8185612c16565b9350612c4c818560208601612a7a565b612c55816126c5565b840191505092915050565b60006020820190508181036000830152612c7a8184612c27565b905092915050565b600060208284031215612c9857612c97612563565b5b6000612ca68482850161299d565b91505092915050565b612cb88161258d565b82525050565b6000602082019050612cd36000830184612caf565b92915050565b60006060820190508181036000830152612cf38186612c27565b9050612d026020830185612604565b612d0f6040830184612638565b949350505050565b7f436f6e74726163742069732063757272656e746c79206e6f74206f706572617460008201527f696f6e616c000000000000000000000000000000000000000000000000000000602082015250565b6000612d73602583612c16565b9150612d7e82612d17565b604082019050919050565b60006020820190508181036000830152612da281612d66565b9050919050565b7f4169726c696e65206973206e6f74207265676973746572656400000000000000600082015250565b6000612ddf601983612c16565b9150612dea82612da9565b602082019050919050565b60006020820190508181036000830152612e0e81612dd2565b9050919050565b7f4e487b7100000000000000000000000000000000000000000000000000000000600052601160045260246000fd5b6000612e4f8261262e565b9150612e5a8361262e565b9250828201905080821115612e7257612e71612e15565b5b92915050565b7f43616c6c6572206973206e6f7420636f6e7472616374206f776e657200000000600082015250565b6000612eae601c83612c16565b9150612eb982612e78565b602082019050919050565b60006020820190508181036000830152612edd81612ea1565b9050919050565b600081905092915050565b6000612efa82612a5e565b612f048185612ee4565b9350612f14818560208601612a7a565b80840191505092915050565b6000612f2c8284612eef565b915081905092915050565b7f43616c6c6572206973206e6f7420617574686f72697a65643a20000000000000600082015250565b6000612f6d601a83612c16565b9150612f7882612f37565b602082019050919050565b60006020820190508181036000830152612f9c81612f60565b9050919050565b7f4e487b7100000000000000000000000000000000000000000000000000000000600052602260045260246000fd5b60006002820490506001821680612fea57607f821691505b602082108103612ffd57612ffc612fa3565b5b50919050565b60008190508160005260206000209050919050565b60006020601f8301049050919050565b600082821b905092915050565b6000600883026130657fffffffffffffffffffffffffffffffffffffffffffffffffffffffffffffffff82613028565b61306f8683613028565b95508019841693508086168417925050509392505050565b6000819050919050565b60006130ac6130a76130a28461262e565b613087565b61262e565b9050919050565b6000819050919050565b6130c683613091565b6130da6130d2826130b3565b848454613035565b825550505050565b600090565b6130ef6130e2565b6130fa8184846130bd565b505050565b5b8181101561311e576131136000826130e7565b600181019050613100565b5050565b601f8211156131635761313481613003565b61313d84613018565b8101602085101561314c578190505b61316061315885613018565b8301826130ff565b50505b505050565b600082821c905092915050565b600061318660001984600802613168565b1980831691505092915050565b600061319f8383613175565b9150826002028217905092915050565b6131b882612a5e565b67ffffffffffffffff8111156131d1576131d06126d6565b5b6131db8254612fd2565b6131e6828285613122565b600060209050601f8311600181146132195760008415613207578287015190505b6132118582613193565b865550613279565b601f19841661322786613003565b60005b8281101561324f5784890151825560018201915060208501945060208101905061322a565b8683101561326c5784890151613268601f891682613175565b8355505b6001600288020188555050505b505050505050565b600061328c8261262e565b91507fffffffffffffffffffffffffffffffffffffffffffffffffffffffffffffffff82036132be576132bd612e15565b5b600182019050919050565b7f436f6e7472616374732063616e6e6f742063616c6c20746869732066756e637460008201527f696f6e2e00000000000000000000000000000000000000000000000000000000602082015250565b6000613325602483612c16565b9150613330826132c9565b604082019050919050565b6000602082019050818103600083015261335481613318565b9050919050565b60008160601b9050919050565b60006133738261335b565b9050919050565b600061338582613368565b9050919050565b61339d6133988261258d565b61337a565b82525050565b60006133af8285612eef565b91506133bb828461338c565b6014820191508190509392505050565b7f4e6f2063726564697420746f2062652077697468647261776e00000000000000600082015250565b6000613401601983612c16565b915061340c826133cb565b602082019050919050565b60006020820190508181036000830152613430816133f4565b9050919050565b7f54686520636f6e747261637420646f6573206e6f74206861766520656e6f756760008201527f682066756e647320746f20706179207468652063726564697400000000000000602082015250565b6000613493603983612c16565b915061349e82613437565b604082019050919050565b600060208201905081810360008301526134c281613486565b9050919050565b600060408201905081810360008301526134e38185612c27565b90506134f26020830184612638565b9392505050565b7f4e487b7100000000000000000000000000000000000000000000000000000000600052603260045260246000fd5b7f4e487b7100000000000000000000000000000000000000000000000000000000600052601260045260246000fd5b60006135628261262e565b915061356d8361262e565b92508261357d5761357c613528565b5b828204905092915050565b7f466c6967687420646f6573206e6f742065786973740000000000000000000000600082015250565b60006135be601583612c16565b91506135c982613588565b602082019050919050565b600060208201905081810360008301526135ed816135b1565b9050919050565b7f416d6f756e74206e6565647320746f2062652067726561746572207468616e2060008201527f3000000000000000000000000000000000000000000000000000000000000000602082015250565b6000613650602183612c16565b915061365b826135f4565b604082019050919050565b6000602082019050818103600083015261367f81613643565b9050919050565b7f43616e6e6f7420627579206d6f7265207468616e203120455448206f6620696e60008201527f737572616e636500000000000000000000000000000000000000000000000000602082015250565b60006136e2602783612c16565b91506136ed82613686565b604082019050919050565b60006020820190508181036000830152613711816136d5565b9050919050565b7f416c726561647920696e737572656420666f72207468697320666c6967687400600082015250565b600061374e601f83612c16565b915061375982613718565b602082019050919050565b6000602082019050818103600083015261377d81613741565b905091905056fea264697066735822122040f6e4ae18f1c732f3b2e39534ab474308b427981106f6e97af2a7520ea0a02064736f6c63430008130033","opcodes":"PUSH1 0x80 PUSH1 0x40 MSTORE PUSH1 0x1 PUSH1 0x2 PUSH1 0x0 PUSH2 0x100 EXP DUP2 SLOAD DUP2 PUSH1 0xFF MUL NOT AND SWAP1 DUP4 ISZERO ISZERO MUL OR SWAP1 SSTORE POP CALLVALUE DUP1 ISZERO PUSH3 0x2C JUMPI PUSH1 0x0 DUP1 REVERT JUMPDEST POP PUSH1 0x40 MLOAD PUSH3 0x3F46 CODESIZE SUB DUP1 PUSH3 0x3F46 DUP4 CODECOPY DUP2 DUP2 ADD PUSH1 0x40 MSTORE DUP2 ADD SWAP1 PUSH3 0x52 SWAP2 SWAP1 PUSH3 0x36D JUMP JUMPDEST CALLER PUSH1 0x0 DUP1 PUSH2 0x100 EXP DUP2 SLOAD DUP2 PUSH20 0xFFFFFFFFFFFFFFFFFFFFFFFFFFFFFFFFFFFFFFFF MUL NOT AND SWAP1 DUP4 PUSH20 0xFFFFFFFFFFFFFFFFFFFFFFFFFFFFFFFFFFFFFFFF AND MUL OR SWAP1 SSTORE POP PUSH1 0x4 DUP2 SWAP1 DUP1 PUSH1 0x1 DUP2 SLOAD ADD DUP1 DUP3 SSTORE DUP1 SWAP2 POP POP PUSH1 0x1 SWAP1 SUB SWAP1 PUSH1 0x0 MSTORE PUSH1 0x20 PUSH1 0x0 KECCAK256 ADD PUSH1 0x0 SWAP1 SWAP2 SWAP1 SWAP2 SWAP1 SWAP2 PUSH2 0x100 EXP DUP2 SLOAD DUP2 PUSH20 0xFFFFFFFFFFFFFFFFFFFFFFFFFFFFFFFFFFFFFFFF MUL NOT AND SWAP1 DUP4 PUSH20 0xFFFFFFFFFFFFFFFFFFFFFFFFFFFFFFFFFFFFFFFF AND MUL OR SWAP1 SSTORE POP PUSH1 0x40 MLOAD DUP1 PUSH1 0x80 ADD PUSH1 0x40 MSTORE DUP1 PUSH1 0x40 MLOAD DUP1 PUSH1 0x40 ADD PUSH1 0x40 MSTORE DUP1 PUSH1 0xA DUP2 MSTORE PUSH1 0x20 ADD PUSH32 0x4D79204169726C696E6500000000000000000000000000000000000000000000 DUP2 MSTORE POP DUP2 MSTORE PUSH1 0x20 ADD DUP3 PUSH20 0xFFFFFFFFFFFFFFFFFFFFFFFFFFFFFFFFFFFFFFFF AND DUP2 MSTORE PUSH1 0x20 ADD PUSH1 0x1 ISZERO ISZERO DUP2 MSTORE PUSH1 0x20 ADD PUSH8 0x8AC7230489E80000 DUP2 MSTORE POP PUSH1 0x5 PUSH1 0x0 DUP4 PUSH20 0xFFFFFFFFFFFFFFFFFFFFFFFFFFFFFFFFFFFFFFFF AND PUSH20 0xFFFFFFFFFFFFFFFFFFFFFFFFFFFFFFFFFFFFFFFF AND DUP2 MSTORE PUSH1 0x20 ADD SWAP1 DUP2 MSTORE PUSH1 0x20 ADD PUSH1 0x0 KECCAK256 PUSH1 0x0 DUP3 ADD MLOAD DUP2 PUSH1 0x0 ADD SWAP1 DUP2 PUSH3 0x1C2 SWAP2 SWAP1 PUSH3 0x619 JUMP JUMPDEST POP PUSH1 0x20 DUP3 ADD MLOAD DUP2 PUSH1 0x1 ADD PUSH1 0x0 PUSH2 0x100 EXP DUP2 SLOAD DUP2 PUSH20 0xFFFFFFFFFFFFFFFFFFFFFFFFFFFFFFFFFFFFFFFF MUL NOT AND SWAP1 DUP4 PUSH20 0xFFFFFFFFFFFFFFFFFFFFFFFFFFFFFFFFFFFFFFFF AND MUL OR SWAP1 SSTORE POP PUSH1 0x40 DUP3 ADD MLOAD DUP2 PUSH1 0x1 ADD PUSH1 0x14 PUSH2 0x100 EXP DUP2 SLOAD DUP2 PUSH1 0xFF MUL NOT AND SWAP1 DUP4 ISZERO ISZERO MUL OR SWAP1 SSTORE POP PUSH1 0x60 DUP3 ADD MLOAD DUP2 PUSH1 0x2 ADD SSTORE SWAP1 POP POP PUSH1 0x1 PUSH1 0x8 PUSH1 0x0 DUP4 PUSH20 0xFFFFFFFFFFFFFFFFFFFFFFFFFFFFFFFFFFFFFFFF AND PUSH20 0xFFFFFFFFFFFFFFFFFFFFFFFFFFFFFFFFFFFFFFFF AND DUP2 MSTORE PUSH1 0x20 ADD SWAP1 DUP2 MSTORE PUSH1 0x20 ADD PUSH1 0x0 KECCAK256 DUP2 SWAP1 SSTORE POP PUSH1 0x1 PUSH1 0x8 PUSH1 0x0 DUP1 PUSH1 0x0 SWAP1 SLOAD SWAP1 PUSH2 0x100 EXP SWAP1 DIV PUSH20 0xFFFFFFFFFFFFFFFFFFFFFFFFFFFFFFFFFFFFFFFF AND PUSH20 0xFFFFFFFFFFFFFFFFFFFFFFFFFFFFFFFFFFFFFFFF AND PUSH20 0xFFFFFFFFFFFFFFFFFFFFFFFFFFFFFFFFFFFFFFFF AND DUP2 MSTORE PUSH1 0x20 ADD SWAP1 DUP2 MSTORE PUSH1 0x20 ADD PUSH1 0x0 KECCAK256 DUP2 SWAP1 SSTORE POP PUSH1 0x1 PUSH1 0x0 DUP2 SLOAD DUP1 SWAP3 SWAP2 SWAP1 PUSH3 0x2F7 SWAP1 PUSH3 0x72F JUMP JUMPDEST SWAP2 SWAP1 POP SSTORE POP POP PUSH3 0x77C JUMP JUMPDEST PUSH1 0x0 DUP1 REVERT JUMPDEST PUSH1 0x0 PUSH20 0xFFFFFFFFFFFFFFFFFFFFFFFFFFFFFFFFFFFFFFFF DUP3 AND SWAP1 POP SWAP2 SWAP1 POP JUMP JUMPDEST PUSH1 0x0 PUSH3 0x335 DUP3 PUSH3 0x308 JUMP JUMPDEST SWAP1 POP SWAP2 SWAP1 POP JUMP JUMPDEST PUSH3 0x347 DUP2 PUSH3 0x328 JUMP JUMPDEST DUP2 EQ PUSH3 0x353 JUMPI PUSH1 0x0 DUP1 REVERT JUMPDEST POP JUMP JUMPDEST PUSH1 0x0 DUP2 MLOAD SWAP1 POP PUSH3 0x367 DUP2 PUSH3 0x33C JUMP JUMPDEST SWAP3 SWAP2 POP POP JUMP JUMPDEST PUSH1 0x0 PUSH1 0x20 DUP3 DUP5 SUB SLT ISZERO PUSH3 0x386 JUMPI PUSH3 0x385 PUSH3 0x303 JUMP JUMPDEST JUMPDEST PUSH1 0x0 PUSH3 0x396 DUP5 DUP3 DUP6 ADD PUSH3 0x356 JUMP JUMPDEST SWAP2 POP POP SWAP3 SWAP2 POP POP JUMP JUMPDEST PUSH1 0x0 DUP2 MLOAD SWAP1 POP SWAP2 SWAP1 POP JUMP JUMPDEST PUSH32 0x4E487B7100000000000000000000000000000000000000000000000000000000 PUSH1 0x0 MSTORE PUSH1 0x41 PUSH1 0x4 MSTORE PUSH1 0x24 PUSH1 0x0 REVERT JUMPDEST PUSH32 0x4E487B7100000000000000000000000000000000000000000000000000000000 PUSH1 0x0 MSTORE PUSH1 0x22 PUSH1 0x4 MSTORE PUSH1 0x24 PUSH1 0x0 REVERT JUMPDEST PUSH1 0x0 PUSH1 0x2 DUP3 DIV SWAP1 POP PUSH1 0x1 DUP3 AND DUP1 PUSH3 0x421 JUMPI PUSH1 0x7F DUP3 AND SWAP2 POP JUMPDEST PUSH1 0x20 DUP3 LT DUP2 SUB PUSH3 0x437 JUMPI PUSH3 0x436 PUSH3 0x3D9 JUMP JUMPDEST JUMPDEST POP SWAP2 SWAP1 POP JUMP JUMPDEST PUSH1 0x0 DUP2 SWAP1 POP DUP2 PUSH1 0x0 MSTORE PUSH1 0x20 PUSH1 0x0 KECCAK256 SWAP1 POP SWAP2 SWAP1 POP JUMP JUMPDEST PUSH1 0x0 PUSH1 0x20 PUSH1 0x1F DUP4 ADD DIV SWAP1 POP SWAP2 SWAP1 POP JUMP JUMPDEST PUSH1 0x0 DUP3 DUP3 SHL SWAP1 POP SWAP3 SWAP2 POP POP JUMP JUMPDEST PUSH1 0x0 PUSH1 0x8 DUP4 MUL PUSH3 0x4A1 PUSH32 0xFFFFFFFFFFFFFFFFFFFFFFFFFFFFFFFFFFFFFFFFFFFFFFFFFFFFFFFFFFFFFFFF DUP3 PUSH3 0x462 JUMP JUMPDEST PUSH3 0x4AD DUP7 DUP4 PUSH3 0x462 JUMP JUMPDEST SWAP6 POP DUP1 NOT DUP5 AND SWAP4 POP DUP1 DUP7 AND DUP5 OR SWAP3 POP POP POP SWAP4 SWAP3 POP POP POP JUMP JUMPDEST PUSH1 0x0 DUP2 SWAP1 POP SWAP2 SWAP1 POP JUMP JUMPDEST PUSH1 0x0 DUP2 SWAP1 POP SWAP2 SWAP1 POP JUMP JUMPDEST PUSH1 0x0 PUSH3 0x4FA PUSH3 0x4F4 PUSH3 0x4EE DUP5 PUSH3 0x4C5 JUMP JUMPDEST PUSH3 0x4CF JUMP JUMPDEST PUSH3 0x4C5 JUMP JUMPDEST SWAP1 POP SWAP2 SWAP1 POP JUMP JUMPDEST PUSH1 0x0 DUP2 SWAP1 POP SWAP2 SWAP1 POP JUMP JUMPDEST PUSH3 0x516 DUP4 PUSH3 0x4D9 JUMP JUMPDEST PUSH3 0x52E PUSH3 0x525 DUP3 PUSH3 0x501 JUMP JUMPDEST DUP5 DUP5 SLOAD PUSH3 0x46F JUMP JUMPDEST DUP3 SSTORE POP POP POP POP JUMP JUMPDEST PUSH1 0x0 SWAP1 JUMP JUMPDEST PUSH3 0x545 PUSH3 0x536 JUMP JUMPDEST PUSH3 0x552 DUP2 DUP5 DUP5 PUSH3 0x50B JUMP JUMPDEST POP POP POP JUMP JUMPDEST JUMPDEST DUP2 DUP2 LT ISZERO PUSH3 0x57A JUMPI PUSH3 0x56E PUSH1 0x0 DUP3 PUSH3 0x53B JUMP JUMPDEST PUSH1 0x1 DUP2 ADD SWAP1 POP PUSH3 0x558 JUMP JUMPDEST POP POP JUMP JUMPDEST PUSH1 0x1F DUP3 GT ISZERO PUSH3 0x5C9 JUMPI PUSH3 0x593 DUP2 PUSH3 0x43D JUMP JUMPDEST PUSH3 0x59E DUP5 PUSH3 0x452 JUMP JUMPDEST DUP2 ADD PUSH1 0x20 DUP6 LT ISZERO PUSH3 0x5AE JUMPI DUP2 SWAP1 POP JUMPDEST PUSH3 0x5C6 PUSH3 0x5BD DUP6 PUSH3 0x452 JUMP JUMPDEST DUP4 ADD DUP3 PUSH3 0x557 JUMP JUMPDEST POP POP JUMPDEST POP POP POP JUMP JUMPDEST PUSH1 0x0 DUP3 DUP3 SHR SWAP1 POP SWAP3 SWAP2 POP POP JUMP JUMPDEST PUSH1 0x0 PUSH3 0x5EE PUSH1 0x0 NOT DUP5 PUSH1 0x8 MUL PUSH3 0x5CE JUMP JUMPDEST NOT DUP1 DUP4 AND SWAP2 POP POP SWAP3 SWAP2 POP POP JUMP JUMPDEST PUSH1 0x0 PUSH3 0x609 DUP4 DUP4 PUSH3 0x5DB JUMP JUMPDEST SWAP2 POP DUP3 PUSH1 0x2 MUL DUP3 OR SWAP1 POP SWAP3 SWAP2 POP POP JUMP JUMPDEST PUSH3 0x624 DUP3 PUSH3 0x39F JUMP JUMPDEST PUSH8 0xFFFFFFFFFFFFFFFF DUP2 GT ISZERO PUSH3 0x640 JUMPI PUSH3 0x63F PUSH3 0x3AA JUMP JUMPDEST JUMPDEST PUSH3 0x64C DUP3 SLOAD PUSH3 0x408 JUMP JUMPDEST PUSH3 0x659 DUP3 DUP3 DUP6 PUSH3 0x57E JUMP JUMPDEST PUSH1 0x0 PUSH1 0x20 SWAP1 POP PUSH1 0x1F DUP4 GT PUSH1 0x1 DUP2 EQ PUSH3 0x691 JUMPI PUSH1 0x0 DUP5 ISZERO PUSH3 0x67C JUMPI DUP3 DUP8 ADD MLOAD SWAP1 POP JUMPDEST PUSH3 0x688 DUP6 DUP3 PUSH3 0x5FB JUMP JUMPDEST DUP7 SSTORE POP PUSH3 0x6F8 JUMP JUMPDEST PUSH1 0x1F NOT DUP5 AND PUSH3 0x6A1 DUP7 PUSH3 0x43D JUMP JUMPDEST PUSH1 0x0 JUMPDEST DUP3 DUP2 LT ISZERO PUSH3 0x6CB JUMPI DUP5 DUP10 ADD MLOAD DUP3 SSTORE PUSH1 0x1 DUP3 ADD SWAP2 POP PUSH1 0x20 DUP6 ADD SWAP5 POP PUSH1 0x20 DUP2 ADD SWAP1 POP PUSH3 0x6A4 JUMP JUMPDEST DUP7 DUP4 LT ISZERO PUSH3 0x6EB JUMPI DUP5 DUP10 ADD MLOAD PUSH3 0x6E7 PUSH1 0x1F DUP10 AND DUP3 PUSH3 0x5DB JUMP JUMPDEST DUP4 SSTORE POP JUMPDEST PUSH1 0x1 PUSH1 0x2 DUP9 MUL ADD DUP9 SSTORE POP POP POP JUMPDEST POP POP POP POP POP POP JUMP JUMPDEST PUSH32 0x4E487B7100000000000000000000000000000000000000000000000000000000 PUSH1 0x0 MSTORE PUSH1 0x11 PUSH1 0x4 MSTORE PUSH1 0x24 PUSH1 0x0 REVERT JUMPDEST PUSH1 0x0 PUSH3 0x73C DUP3 PUSH3 0x4C5 JUMP JUMPDEST SWAP2 POP PUSH32 0xFFFFFFFFFFFFFFFFFFFFFFFFFFFFFFFFFFFFFFFFFFFFFFFFFFFFFFFFFFFFFFFF DUP3 SUB PUSH3 0x771 JUMPI PUSH3 0x770 PUSH3 0x700 JUMP JUMPDEST JUMPDEST PUSH1 0x1 DUP3 ADD SWAP1 POP SWAP2 SWAP1 POP JUMP JUMPDEST PUSH2 0x37BA DUP1 PUSH3 0x78C PUSH1 0x0 CODECOPY PUSH1 0x0 RETURN INVALID PUSH1 0x80 PUSH1 0x40 MSTORE PUSH1 0x4 CALLDATASIZE LT PUSH2 0x1C6 JUMPI PUSH1 0x0 CALLDATALOAD PUSH1 0xE0 SHR DUP1 PUSH4 0x490E1F66 GT PUSH2 0xF7 JUMPI DUP1 PUSH4 0x8F32D59B GT PUSH2 0x95 JUMPI DUP1 PUSH4 0xAB900D24 GT PUSH2 0x64 JUMPI DUP1 PUSH4 0xAB900D24 EQ PUSH2 0x67C JUMPI DUP1 PUSH4 0xB60D4288 EQ PUSH2 0x6B9 JUMPI DUP1 PUSH4 0xCD905DFF EQ PUSH2 0x6C3 JUMPI DUP1 PUSH4 0xEBC5C8EA EQ PUSH2 0x6EE JUMPI PUSH2 0x1D5 JUMP JUMPDEST DUP1 PUSH4 0x8F32D59B EQ PUSH2 0x5AE JUMPI DUP1 PUSH4 0x94E2177A EQ PUSH2 0x5D9 JUMPI DUP1 PUSH4 0x9AB24EB0 EQ PUSH2 0x616 JUMPI DUP1 PUSH4 0xA1A5FAF1 EQ PUSH2 0x653 JUMPI PUSH2 0x1D5 JUMP JUMPDEST DUP1 PUSH4 0x4CC7DBEE GT PUSH2 0xD1 JUMPI DUP1 PUSH4 0x4CC7DBEE EQ PUSH2 0x4CA JUMPI DUP1 PUSH4 0x524B6100 EQ PUSH2 0x4F5 JUMPI DUP1 PUSH4 0x64DCB7BF EQ PUSH2 0x532 JUMPI DUP1 PUSH4 0x720C7CBB EQ PUSH2 0x56F JUMPI PUSH2 0x1D5 JUMP JUMPDEST DUP1 PUSH4 0x490E1F66 EQ PUSH2 0x45C JUMPI DUP1 PUSH4 0x492CC769 EQ PUSH2 0x485 JUMPI DUP1 PUSH4 0x4C8D0274 EQ PUSH2 0x4A1 JUMPI PUSH2 0x1D5 JUMP JUMPDEST DUP1 PUSH4 0x2B66D72E GT PUSH2 0x164 JUMPI DUP1 PUSH4 0x3AFB50D7 GT PUSH2 0x13E JUMPI DUP1 PUSH4 0x3AFB50D7 EQ PUSH2 0x3A2 JUMPI DUP1 PUSH4 0x3FCF1CF4 EQ PUSH2 0x3CD JUMPI DUP1 PUSH4 0x46EE941A EQ PUSH2 0x3F6 JUMPI DUP1 PUSH4 0x487D7200 EQ PUSH2 0x433 JUMPI PUSH2 0x1D5 JUMP JUMPDEST DUP1 PUSH4 0x2B66D72E EQ PUSH2 0x313 JUMPI DUP1 PUSH4 0x2CA8EB0E EQ PUSH2 0x33C JUMPI DUP1 PUSH4 0x39004B27 EQ PUSH2 0x379 JUMPI PUSH2 0x1D5 JUMP JUMPDEST DUP1 PUSH4 0x12065FE0 GT PUSH2 0x1A0 JUMPI DUP1 PUSH4 0x12065FE0 EQ PUSH2 0x26B JUMPI DUP1 PUSH4 0x1D630670 EQ PUSH2 0x296 JUMPI DUP1 PUSH4 0x29DF66CC EQ PUSH2 0x2BF JUMPI DUP1 PUSH4 0x29E18E5D EQ PUSH2 0x2E8 JUMPI PUSH2 0x1D5 JUMP JUMPDEST DUP1 PUSH4 0x10C5C97 EQ PUSH2 0x1DA JUMPI DUP1 PUSH4 0x5E931F4 EQ PUSH2 0x217 JUMPI DUP1 PUSH4 0x110466ED EQ PUSH2 0x242 JUMPI PUSH2 0x1D5 JUMP JUMPDEST CALLDATASIZE PUSH2 0x1D5 JUMPI PUSH2 0x1D3 PUSH2 0x72B JUMP JUMPDEST STOP JUMPDEST PUSH1 0x0 DUP1 REVERT JUMPDEST CALLVALUE DUP1 ISZERO PUSH2 0x1E6 JUMPI PUSH1 0x0 DUP1 REVERT JUMPDEST POP PUSH2 0x201 PUSH1 0x4 DUP1 CALLDATASIZE SUB DUP2 ADD SWAP1 PUSH2 0x1FC SWAP2 SWAP1 PUSH2 0x25CB JUMP JUMPDEST PUSH2 0x864 JUMP JUMPDEST PUSH1 0x40 MLOAD PUSH2 0x20E SWAP2 SWAP1 PUSH2 0x2613 JUMP JUMPDEST PUSH1 0x40 MLOAD DUP1 SWAP2 SUB SWAP1 RETURN JUMPDEST CALLVALUE DUP1 ISZERO PUSH2 0x223 JUMPI PUSH1 0x0 DUP1 REVERT JUMPDEST POP PUSH2 0x22C PUSH2 0x90C JUMP JUMPDEST PUSH1 0x40 MLOAD PUSH2 0x239 SWAP2 SWAP1 PUSH2 0x2647 JUMP JUMPDEST PUSH1 0x40 MLOAD DUP1 SWAP2 SUB SWAP1 RETURN JUMPDEST CALLVALUE DUP1 ISZERO PUSH2 0x24E JUMPI PUSH1 0x0 DUP1 REVERT JUMPDEST POP PUSH2 0x269 PUSH1 0x4 DUP1 CALLDATASIZE SUB DUP2 ADD SWAP1 PUSH2 0x264 SWAP2 SWAP1 PUSH2 0x268E JUMP JUMPDEST PUSH2 0x965 JUMP JUMPDEST STOP JUMPDEST CALLVALUE DUP1 ISZERO PUSH2 0x277 JUMPI PUSH1 0x0 DUP1 REVERT JUMPDEST POP PUSH2 0x280 PUSH2 0xA47 JUMP JUMPDEST PUSH1 0x40 MLOAD PUSH2 0x28D SWAP2 SWAP1 PUSH2 0x2647 JUMP JUMPDEST PUSH1 0x40 MLOAD DUP1 SWAP2 SUB SWAP1 RETURN JUMPDEST CALLVALUE DUP1 ISZERO PUSH2 0x2A2 JUMPI PUSH1 0x0 DUP1 REVERT JUMPDEST POP PUSH2 0x2BD PUSH1 0x4 DUP1 CALLDATASIZE SUB DUP2 ADD SWAP1 PUSH2 0x2B8 SWAP2 SWAP1 PUSH2 0x2801 JUMP JUMPDEST PUSH2 0xA9E JUMP JUMPDEST STOP JUMPDEST CALLVALUE DUP1 ISZERO PUSH2 0x2CB JUMPI PUSH1 0x0 DUP1 REVERT JUMPDEST POP PUSH2 0x2E6 PUSH1 0x4 DUP1 CALLDATASIZE SUB DUP2 ADD SWAP1 PUSH2 0x2E1 SWAP2 SWAP1 PUSH2 0x284A JUMP JUMPDEST PUSH2 0xB27 JUMP JUMPDEST STOP JUMPDEST CALLVALUE DUP1 ISZERO PUSH2 0x2F4 JUMPI PUSH1 0x0 DUP1 REVERT JUMPDEST POP PUSH2 0x2FD PUSH2 0xDC0 JUMP JUMPDEST PUSH1 0x40 MLOAD PUSH2 0x30A SWAP2 SWAP1 PUSH2 0x2647 JUMP JUMPDEST PUSH1 0x40 MLOAD DUP1 SWAP2 SUB SWAP1 RETURN JUMPDEST CALLVALUE DUP1 ISZERO PUSH2 0x31F JUMPI PUSH1 0x0 DUP1 REVERT JUMPDEST POP PUSH2 0x33A PUSH1 0x4 DUP1 CALLDATASIZE SUB DUP2 ADD SWAP1 PUSH2 0x335 SWAP2 SWAP1 PUSH2 0x2801 JUMP JUMPDEST PUSH2 0xDCC JUMP JUMPDEST STOP JUMPDEST CALLVALUE DUP1 ISZERO PUSH2 0x348 JUMPI PUSH1 0x0 DUP1 REVERT JUMPDEST POP PUSH2 0x363 PUSH1 0x4 DUP1 CALLDATASIZE SUB DUP2 ADD SWAP1 PUSH2 0x35E SWAP2 SWAP1 PUSH2 0x2801 JUMP JUMPDEST PUSH2 0x1024 JUMP JUMPDEST PUSH1 0x40 MLOAD PUSH2 0x370 SWAP2 SWAP1 PUSH2 0x2647 JUMP JUMPDEST PUSH1 0x40 MLOAD DUP1 SWAP2 SUB SWAP1 RETURN JUMPDEST CALLVALUE DUP1 ISZERO PUSH2 0x385 JUMPI PUSH1 0x0 DUP1 REVERT JUMPDEST POP PUSH2 0x3A0 PUSH1 0x4 DUP1 CALLDATASIZE SUB DUP2 ADD SWAP1 PUSH2 0x39B SWAP2 SWAP1 PUSH2 0x25CB JUMP JUMPDEST PUSH2 0x10C1 JUMP JUMPDEST STOP JUMPDEST CALLVALUE DUP1 ISZERO PUSH2 0x3AE JUMPI PUSH1 0x0 DUP1 REVERT JUMPDEST POP PUSH2 0x3B7 PUSH2 0x111B JUMP JUMPDEST PUSH1 0x40 MLOAD PUSH2 0x3C4 SWAP2 SWAP1 PUSH2 0x2964 JUMP JUMPDEST PUSH1 0x40 MLOAD DUP1 SWAP2 SUB SWAP1 RETURN JUMPDEST CALLVALUE DUP1 ISZERO PUSH2 0x3D9 JUMPI PUSH1 0x0 DUP1 REVERT JUMPDEST POP PUSH2 0x3F4 PUSH1 0x4 DUP1 CALLDATASIZE SUB DUP2 ADD SWAP1 PUSH2 0x3EF SWAP2 SWAP1 PUSH2 0x2801 JUMP JUMPDEST PUSH2 0x11F8 JUMP JUMPDEST STOP JUMPDEST CALLVALUE DUP1 ISZERO PUSH2 0x402 JUMPI PUSH1 0x0 DUP1 REVERT JUMPDEST POP PUSH2 0x41D PUSH1 0x4 DUP1 CALLDATASIZE SUB DUP2 ADD SWAP1 PUSH2 0x418 SWAP2 SWAP1 PUSH2 0x25CB JUMP JUMPDEST PUSH2 0x13E4 JUMP JUMPDEST PUSH1 0x40 MLOAD PUSH2 0x42A SWAP2 SWAP1 PUSH2 0x2964 JUMP JUMPDEST PUSH1 0x40 MLOAD DUP1 SWAP2 SUB SWAP1 RETURN JUMPDEST CALLVALUE DUP1 ISZERO PUSH2 0x43F JUMPI PUSH1 0x0 DUP1 REVERT JUMPDEST POP PUSH2 0x45A PUSH1 0x4 DUP1 CALLDATASIZE SUB DUP2 ADD SWAP1 PUSH2 0x455 SWAP2 SWAP1 PUSH2 0x25CB JUMP JUMPDEST PUSH2 0x1500 JUMP JUMPDEST STOP JUMPDEST CALLVALUE DUP1 ISZERO PUSH2 0x468 JUMPI PUSH1 0x0 DUP1 REVERT JUMPDEST POP PUSH2 0x483 PUSH1 0x4 DUP1 CALLDATASIZE SUB DUP2 ADD SWAP1 PUSH2 0x47E SWAP2 SWAP1 PUSH2 0x29B2 JUMP JUMPDEST PUSH2 0x1668 JUMP JUMPDEST STOP JUMPDEST PUSH2 0x49F PUSH1 0x4 DUP1 CALLDATASIZE SUB DUP2 ADD SWAP1 PUSH2 0x49A SWAP2 SWAP1 PUSH2 0x2801 JUMP JUMPDEST PUSH2 0x1714 JUMP JUMPDEST STOP JUMPDEST CALLVALUE DUP1 ISZERO PUSH2 0x4AD JUMPI PUSH1 0x0 DUP1 REVERT JUMPDEST POP PUSH2 0x4C8 PUSH1 0x4 DUP1 CALLDATASIZE SUB DUP2 ADD SWAP1 PUSH2 0x4C3 SWAP2 SWAP1 PUSH2 0x29F2 JUMP JUMPDEST PUSH2 0x1ADD JUMP JUMPDEST STOP JUMPDEST CALLVALUE DUP1 ISZERO PUSH2 0x4D6 JUMPI PUSH1 0x0 DUP1 REVERT JUMPDEST POP PUSH2 0x4DF PUSH2 0x1BD0 JUMP JUMPDEST PUSH1 0x40 MLOAD PUSH2 0x4EC SWAP2 SWAP1 PUSH2 0x2BF4 JUMP JUMPDEST PUSH1 0x40 MLOAD DUP1 SWAP2 SUB SWAP1 RETURN JUMPDEST CALLVALUE DUP1 ISZERO PUSH2 0x501 JUMPI PUSH1 0x0 DUP1 REVERT JUMPDEST POP PUSH2 0x51C PUSH1 0x4 DUP1 CALLDATASIZE SUB DUP2 ADD SWAP1 PUSH2 0x517 SWAP2 SWAP1 PUSH2 0x25CB JUMP JUMPDEST PUSH2 0x1E13 JUMP JUMPDEST PUSH1 0x40 MLOAD PUSH2 0x529 SWAP2 SWAP1 PUSH2 0x2C60 JUMP JUMPDEST PUSH1 0x40 MLOAD DUP1 SWAP2 SUB SWAP1 RETURN JUMPDEST CALLVALUE DUP1 ISZERO PUSH2 0x53E JUMPI PUSH1 0x0 DUP1 REVERT JUMPDEST POP PUSH2 0x559 PUSH1 0x4 DUP1 CALLDATASIZE SUB DUP2 ADD SWAP1 PUSH2 0x554 SWAP2 SWAP1 PUSH2 0x2C82 JUMP JUMPDEST PUSH2 0x1F36 JUMP JUMPDEST PUSH1 0x40 MLOAD PUSH2 0x566 SWAP2 SWAP1 PUSH2 0x2CBE JUMP JUMPDEST PUSH1 0x40 MLOAD DUP1 SWAP2 SUB SWAP1 RETURN JUMPDEST CALLVALUE DUP1 ISZERO PUSH2 0x57B JUMPI PUSH1 0x0 DUP1 REVERT JUMPDEST POP PUSH2 0x596 PUSH1 0x4 DUP1 CALLDATASIZE SUB DUP2 ADD SWAP1 PUSH2 0x591 SWAP2 SWAP1 PUSH2 0x25CB JUMP JUMPDEST PUSH2 0x1F75 JUMP JUMPDEST PUSH1 0x40 MLOAD PUSH2 0x5A5 SWAP4 SWAP3 SWAP2 SWAP1 PUSH2 0x2CD9 JUMP JUMPDEST PUSH1 0x40 MLOAD DUP1 SWAP2 SUB SWAP1 RETURN JUMPDEST CALLVALUE DUP1 ISZERO PUSH2 0x5BA JUMPI PUSH1 0x0 DUP1 REVERT JUMPDEST POP PUSH2 0x5C3 PUSH2 0x2141 JUMP JUMPDEST PUSH1 0x40 MLOAD PUSH2 0x5D0 SWAP2 SWAP1 PUSH2 0x2613 JUMP JUMPDEST PUSH1 0x40 MLOAD DUP1 SWAP2 SUB SWAP1 RETURN JUMPDEST CALLVALUE DUP1 ISZERO PUSH2 0x5E5 JUMPI PUSH1 0x0 DUP1 REVERT JUMPDEST POP PUSH2 0x600 PUSH1 0x4 DUP1 CALLDATASIZE SUB DUP2 ADD SWAP1 PUSH2 0x5FB SWAP2 SWAP1 PUSH2 0x25CB JUMP JUMPDEST PUSH2 0x2198 JUMP JUMPDEST PUSH1 0x40 MLOAD PUSH2 0x60D SWAP2 SWAP1 PUSH2 0x2647 JUMP JUMPDEST PUSH1 0x40 MLOAD DUP1 SWAP2 SUB SWAP1 RETURN JUMPDEST CALLVALUE DUP1 ISZERO PUSH2 0x622 JUMPI PUSH1 0x0 DUP1 REVERT JUMPDEST POP PUSH2 0x63D PUSH1 0x4 DUP1 CALLDATASIZE SUB DUP2 ADD SWAP1 PUSH2 0x638 SWAP2 SWAP1 PUSH2 0x25CB JUMP JUMPDEST PUSH2 0x2233 JUMP JUMPDEST PUSH1 0x40 MLOAD PUSH2 0x64A SWAP2 SWAP1 PUSH2 0x2647 JUMP JUMPDEST PUSH1 0x40 MLOAD DUP1 SWAP2 SUB SWAP1 RETURN JUMPDEST CALLVALUE DUP1 ISZERO PUSH2 0x65F JUMPI PUSH1 0x0 DUP1 REVERT JUMPDEST POP PUSH2 0x67A PUSH1 0x4 DUP1 CALLDATASIZE SUB DUP2 ADD SWAP1 PUSH2 0x675 SWAP2 SWAP1 PUSH2 0x25CB JUMP JUMPDEST PUSH2 0x22CB JUMP JUMPDEST STOP JUMPDEST CALLVALUE DUP1 ISZERO PUSH2 0x688 JUMPI PUSH1 0x0 DUP1 REVERT JUMPDEST POP PUSH2 0x6A3 PUSH1 0x4 DUP1 CALLDATASIZE SUB DUP2 ADD SWAP1 PUSH2 0x69E SWAP2 SWAP1 PUSH2 0x2801 JUMP JUMPDEST PUSH2 0x2431 JUMP JUMPDEST PUSH1 0x40 MLOAD PUSH2 0x6B0 SWAP2 SWAP1 PUSH2 0x2647 JUMP JUMPDEST PUSH1 0x40 MLOAD DUP1 SWAP2 SUB SWAP1 RETURN JUMPDEST PUSH2 0x6C1 PUSH2 0x72B JUMP JUMPDEST STOP JUMPDEST CALLVALUE DUP1 ISZERO PUSH2 0x6CF JUMPI PUSH1 0x0 DUP1 REVERT JUMPDEST POP PUSH2 0x6D8 PUSH2 0x247E JUMP JUMPDEST PUSH1 0x40 MLOAD PUSH2 0x6E5 SWAP2 SWAP1 PUSH2 0x2613 JUMP JUMPDEST PUSH1 0x40 MLOAD DUP1 SWAP2 SUB SWAP1 RETURN JUMPDEST CALLVALUE DUP1 ISZERO PUSH2 0x6FA JUMPI PUSH1 0x0 DUP1 REVERT JUMPDEST POP PUSH2 0x715 PUSH1 0x4 DUP1 CALLDATASIZE SUB DUP2 ADD SWAP1 PUSH2 0x710 SWAP2 SWAP1 PUSH2 0x2801 JUMP JUMPDEST PUSH2 0x2495 JUMP JUMPDEST PUSH1 0x40 MLOAD PUSH2 0x722 SWAP2 SWAP1 PUSH2 0x2613 JUMP JUMPDEST PUSH1 0x40 MLOAD DUP1 SWAP2 SUB SWAP1 RETURN JUMPDEST PUSH1 0x2 PUSH1 0x0 SWAP1 SLOAD SWAP1 PUSH2 0x100 EXP SWAP1 DIV PUSH1 0xFF AND PUSH2 0x77A JUMPI PUSH1 0x40 MLOAD PUSH32 0x8C379A000000000000000000000000000000000000000000000000000000000 DUP2 MSTORE PUSH1 0x4 ADD PUSH2 0x771 SWAP1 PUSH2 0x2D89 JUMP JUMPDEST PUSH1 0x40 MLOAD DUP1 SWAP2 SUB SWAP1 REVERT JUMPDEST PUSH1 0x5 PUSH1 0x0 CALLER PUSH20 0xFFFFFFFFFFFFFFFFFFFFFFFFFFFFFFFFFFFFFFFF AND PUSH20 0xFFFFFFFFFFFFFFFFFFFFFFFFFFFFFFFFFFFFFFFF AND DUP2 MSTORE PUSH1 0x20 ADD SWAP1 DUP2 MSTORE PUSH1 0x20 ADD PUSH1 0x0 KECCAK256 PUSH1 0x1 ADD PUSH1 0x14 SWAP1 SLOAD SWAP1 PUSH2 0x100 EXP SWAP1 DIV PUSH1 0xFF AND PUSH2 0x809 JUMPI PUSH1 0x40 MLOAD PUSH32 0x8C379A000000000000000000000000000000000000000000000000000000000 DUP2 MSTORE PUSH1 0x4 ADD PUSH2 0x800 SWAP1 PUSH2 0x2DF5 JUMP JUMPDEST PUSH1 0x40 MLOAD DUP1 SWAP2 SUB SWAP1 REVERT JUMPDEST CALLVALUE PUSH1 0x5 PUSH1 0x0 CALLER PUSH20 0xFFFFFFFFFFFFFFFFFFFFFFFFFFFFFFFFFFFFFFFF AND PUSH20 0xFFFFFFFFFFFFFFFFFFFFFFFFFFFFFFFFFFFFFFFF AND DUP2 MSTORE PUSH1 0x20 ADD SWAP1 DUP2 MSTORE PUSH1 0x20 ADD PUSH1 0x0 KECCAK256 PUSH1 0x2 ADD PUSH1 0x0 DUP3 DUP3 SLOAD PUSH2 0x85B SWAP2 SWAP1 PUSH2 0x2E44 JUMP JUMPDEST SWAP3 POP POP DUP2 SWAP1 SSTORE POP JUMP JUMPDEST PUSH1 0x0 PUSH1 0x2 PUSH1 0x0 SWAP1 SLOAD SWAP1 PUSH2 0x100 EXP SWAP1 DIV PUSH1 0xFF AND PUSH2 0x8B5 JUMPI PUSH1 0x40 MLOAD PUSH32 0x8C379A000000000000000000000000000000000000000000000000000000000 DUP2 MSTORE PUSH1 0x4 ADD PUSH2 0x8AC SWAP1 PUSH2 0x2D89 JUMP JUMPDEST PUSH1 0x40 MLOAD DUP1 SWAP2 SUB SWAP1 REVERT JUMPDEST PUSH1 0x5 PUSH1 0x0 DUP4 PUSH20 0xFFFFFFFFFFFFFFFFFFFFFFFFFFFFFFFFFFFFFFFF AND PUSH20 0xFFFFFFFFFFFFFFFFFFFFFFFFFFFFFFFFFFFFFFFF AND DUP2 MSTORE PUSH1 0x20 ADD SWAP1 DUP2 MSTORE PUSH1 0x20 ADD PUSH1 0x0 KECCAK256 PUSH1 0x1 ADD PUSH1 0x14 SWAP1 SLOAD SWAP1 PUSH2 0x100 EXP SWAP1 DIV PUSH1 0xFF AND SWAP1 POP SWAP2 SWAP1 POP JUMP JUMPDEST PUSH1 0x0 PUSH1 0x2 PUSH1 0x0 SWAP1 SLOAD SWAP1 PUSH2 0x100 EXP SWAP1 DIV PUSH1 0xFF AND PUSH2 0x95D JUMPI PUSH1 0x40 MLOAD PUSH32 0x8C379A000000000000000000000000000000000000000000000000000000000 DUP2 MSTORE PUSH1 0x4 ADD PUSH2 0x954 SWAP1 PUSH2 0x2D89 JUMP JUMPDEST PUSH1 0x40 MLOAD DUP1 SWAP2 SUB SWAP1 REVERT JUMPDEST PUSH1 0x1 SLOAD SWAP1 POP SWAP1 JUMP JUMPDEST PUSH1 0x0 DUP1 SLOAD SWAP1 PUSH2 0x100 EXP SWAP1 DIV PUSH20 0xFFFFFFFFFFFFFFFFFFFFFFFFFFFFFFFFFFFFFFFF AND PUSH20 0xFFFFFFFFFFFFFFFFFFFFFFFFFFFFFFFFFFFFFFFF AND CALLER PUSH20 0xFFFFFFFFFFFFFFFFFFFFFFFFFFFFFFFFFFFFFFFF AND EQ PUSH2 0x9F3 JUMPI PUSH1 0x40 MLOAD PUSH32 0x8C379A000000000000000000000000000000000000000000000000000000000 DUP2 MSTORE PUSH1 0x4 ADD PUSH2 0x9EA SWAP1 PUSH2 0x2EC4 JUMP JUMPDEST PUSH1 0x40 MLOAD DUP1 SWAP2 SUB SWAP1 REVERT JUMPDEST PUSH32 0xF21DB895CAF8541B06334A513512D7AF19D1BEDDFDB05EF5F24D990078588AC8 DUP2 PUSH1 0x40 MLOAD PUSH2 0xA22 SWAP2 SWAP1 PUSH2 0x2613 JUMP JUMPDEST PUSH1 0x40 MLOAD DUP1 SWAP2 SUB SWAP1 LOG1 DUP1 PUSH1 0x2 PUSH1 0x0 PUSH2 0x100 EXP DUP2 SLOAD DUP2 PUSH1 0xFF MUL NOT AND SWAP1 DUP4 ISZERO ISZERO MUL OR SWAP1 SSTORE POP POP JUMP JUMPDEST PUSH1 0x0 PUSH1 0x2 PUSH1 0x0 SWAP1 SLOAD SWAP1 PUSH2 0x100 EXP SWAP1 DIV PUSH1 0xFF AND PUSH2 0xA98 JUMPI PUSH1 0x40 MLOAD PUSH32 0x8C379A000000000000000000000000000000000000000000000000000000000 DUP2 MSTORE PUSH1 0x4 ADD PUSH2 0xA8F SWAP1 PUSH2 0x2D89 JUMP JUMPDEST PUSH1 0x40 MLOAD DUP1 SWAP2 SUB SWAP1 REVERT JUMPDEST SELFBALANCE SWAP1 POP SWAP1 JUMP JUMPDEST PUSH1 0x2 PUSH1 0x0 SWAP1 SLOAD SWAP1 PUSH2 0x100 EXP SWAP1 DIV PUSH1 0xFF AND PUSH2 0xAED JUMPI PUSH1 0x40 MLOAD PUSH32 0x8C379A000000000000000000000000000000000000000000000000000000000 DUP2 MSTORE PUSH1 0x4 ADD PUSH2 0xAE4 SWAP1 PUSH2 0x2D89 JUMP JUMPDEST PUSH1 0x40 MLOAD DUP1 SWAP2 SUB SWAP1 REVERT JUMPDEST PUSH1 0x1 PUSH1 0x9 DUP3 PUSH1 0x40 MLOAD PUSH2 0xAFF SWAP2 SWAP1 PUSH2 0x2F20 JUMP JUMPDEST SWAP1 DUP2 MSTORE PUSH1 0x20 ADD PUSH1 0x40 MLOAD DUP1 SWAP2 SUB SWAP1 KECCAK256 PUSH1 0x0 PUSH2 0x100 EXP DUP2 SLOAD DUP2 PUSH1 0xFF MUL NOT AND SWAP1 DUP4 ISZERO ISZERO MUL OR SWAP1 SSTORE POP POP JUMP JUMPDEST PUSH1 0x2 PUSH1 0x0 SWAP1 SLOAD SWAP1 PUSH2 0x100 EXP SWAP1 DIV PUSH1 0xFF AND PUSH2 0xB76 JUMPI PUSH1 0x40 MLOAD PUSH32 0x8C379A000000000000000000000000000000000000000000000000000000000 DUP2 MSTORE PUSH1 0x4 ADD PUSH2 0xB6D SWAP1 PUSH2 0x2D89 JUMP JUMPDEST PUSH1 0x40 MLOAD DUP1 SWAP2 SUB SWAP1 REVERT JUMPDEST PUSH1 0x1 PUSH1 0x8 PUSH1 0x0 CALLER PUSH20 0xFFFFFFFFFFFFFFFFFFFFFFFFFFFFFFFFFFFFFFFF AND PUSH20 0xFFFFFFFFFFFFFFFFFFFFFFFFFFFFFFFFFFFFFFFF AND DUP2 MSTORE PUSH1 0x20 ADD SWAP1 DUP2 MSTORE PUSH1 0x20 ADD PUSH1 0x0 KECCAK256 SLOAD EQ PUSH2 0xBF8 JUMPI PUSH1 0x40 MLOAD PUSH32 0x8C379A000000000000000000000000000000000000000000000000000000000 DUP2 MSTORE PUSH1 0x4 ADD PUSH2 0xBEF SWAP1 PUSH2 0x2F83 JUMP JUMPDEST PUSH1 0x40 MLOAD DUP1 SWAP2 SUB SWAP1 REVERT JUMPDEST PUSH1 0x40 MLOAD DUP1 PUSH1 0x80 ADD PUSH1 0x40 MSTORE DUP1 DUP3 DUP2 MSTORE PUSH1 0x20 ADD DUP4 PUSH20 0xFFFFFFFFFFFFFFFFFFFFFFFFFFFFFFFFFFFFFFFF AND DUP2 MSTORE PUSH1 0x20 ADD PUSH1 0x1 ISZERO ISZERO DUP2 MSTORE PUSH1 0x20 ADD PUSH1 0x0 DUP2 MSTORE POP PUSH1 0x5 PUSH1 0x0 DUP5 PUSH20 0xFFFFFFFFFFFFFFFFFFFFFFFFFFFFFFFFFFFFFFFF AND PUSH20 0xFFFFFFFFFFFFFFFFFFFFFFFFFFFFFFFFFFFFFFFF AND DUP2 MSTORE PUSH1 0x20 ADD SWAP1 DUP2 MSTORE PUSH1 0x20 ADD PUSH1 0x0 KECCAK256 PUSH1 0x0 DUP3 ADD MLOAD DUP2 PUSH1 0x0 ADD SWAP1 DUP2 PUSH2 0xC87 SWAP2 SWAP1 PUSH2 0x31AF JUMP JUMPDEST POP PUSH1 0x20 DUP3 ADD MLOAD DUP2 PUSH1 0x1 ADD PUSH1 0x0 PUSH2 0x100 EXP DUP2 SLOAD DUP2 PUSH20 0xFFFFFFFFFFFFFFFFFFFFFFFFFFFFFFFFFFFFFFFF MUL NOT AND SWAP1 DUP4 PUSH20 0xFFFFFFFFFFFFFFFFFFFFFFFFFFFFFFFFFFFFFFFF AND MUL OR SWAP1 SSTORE POP PUSH1 0x40 DUP3 ADD MLOAD DUP2 PUSH1 0x1 ADD PUSH1 0x14 PUSH2 0x100 EXP DUP2 SLOAD DUP2 PUSH1 0xFF MUL NOT AND SWAP1 DUP4 ISZERO ISZERO MUL OR SWAP1 SSTORE POP PUSH1 0x60 DUP3 ADD MLOAD DUP2 PUSH1 0x2 ADD SSTORE SWAP1 POP POP PUSH1 0x1 PUSH1 0x8 PUSH1 0x0 DUP5 PUSH20 0xFFFFFFFFFFFFFFFFFFFFFFFFFFFFFFFFFFFFFFFF AND PUSH20 0xFFFFFFFFFFFFFFFFFFFFFFFFFFFFFFFFFFFFFFFF AND DUP2 MSTORE PUSH1 0x20 ADD SWAP1 DUP2 MSTORE PUSH1 0x20 ADD PUSH1 0x0 KECCAK256 DUP2 SWAP1 SSTORE POP PUSH1 0x4 DUP3 SWAP1 DUP1 PUSH1 0x1 DUP2 SLOAD ADD DUP1 DUP3 SSTORE DUP1 SWAP2 POP POP PUSH1 0x1 SWAP1 SUB SWAP1 PUSH1 0x0 MSTORE PUSH1 0x20 PUSH1 0x0 KECCAK256 ADD PUSH1 0x0 SWAP1 SWAP2 SWAP1 SWAP2 SWAP1 SWAP2 PUSH2 0x100 EXP DUP2 SLOAD DUP2 PUSH20 0xFFFFFFFFFFFFFFFFFFFFFFFFFFFFFFFFFFFFFFFF MUL NOT AND SWAP1 DUP4 PUSH20 0xFFFFFFFFFFFFFFFFFFFFFFFFFFFFFFFFFFFFFFFF AND MUL OR SWAP1 SSTORE POP PUSH1 0x1 PUSH1 0x0 DUP2 SLOAD DUP1 SWAP3 SWAP2 SWAP1 PUSH2 0xDB7 SWAP1 PUSH2 0x3281 JUMP JUMPDEST SWAP2 SWAP1 POP SSTORE POP POP POP JUMP JUMPDEST PUSH8 0xDE0B6B3A7640000 DUP2 JUMP JUMPDEST PUSH1 0x2 PUSH1 0x0 SWAP1 SLOAD SWAP1 PUSH2 0x100 EXP SWAP1 DIV PUSH1 0xFF AND PUSH2 0xE1B JUMPI PUSH1 0x40 MLOAD PUSH32 0x8C379A000000000000000000000000000000000000000000000000000000000 DUP2 MSTORE PUSH1 0x4 ADD PUSH2 0xE12 SWAP1 PUSH2 0x2D89 JUMP JUMPDEST PUSH1 0x40 MLOAD DUP1 SWAP2 SUB SWAP1 REVERT JUMPDEST ORIGIN PUSH20 0xFFFFFFFFFFFFFFFFFFFFFFFFFFFFFFFFFFFFFFFF AND CALLER PUSH20 0xFFFFFFFFFFFFFFFFFFFFFFFFFFFFFFFFFFFFFFFF AND EQ PUSH2 0xE89 JUMPI PUSH1 0x40 MLOAD PUSH32 0x8C379A000000000000000000000000000000000000000000000000000000000 DUP2 MSTORE PUSH1 0x4 ADD PUSH2 0xE80 SWAP1 PUSH2 0x333B JUMP JUMPDEST PUSH1 0x40 MLOAD DUP1 SWAP2 SUB SWAP1 REVERT JUMPDEST PUSH1 0x0 DUP2 CALLER PUSH1 0x40 MLOAD PUSH1 0x20 ADD PUSH2 0xE9E SWAP3 SWAP2 SWAP1 PUSH2 0x33A3 JUMP JUMPDEST PUSH1 0x40 MLOAD PUSH1 0x20 DUP2 DUP4 SUB SUB DUP2 MSTORE SWAP1 PUSH1 0x40 MSTORE DUP1 MLOAD SWAP1 PUSH1 0x20 ADD KECCAK256 SWAP1 POP PUSH1 0x0 PUSH1 0xA PUSH1 0x0 DUP4 DUP2 MSTORE PUSH1 0x20 ADD SWAP1 DUP2 MSTORE PUSH1 0x20 ADD PUSH1 0x0 KECCAK256 PUSH1 0x2 ADD SLOAD GT PUSH2 0xF0F JUMPI PUSH1 0x40 MLOAD PUSH32 0x8C379A000000000000000000000000000000000000000000000000000000000 DUP2 MSTORE PUSH1 0x4 ADD PUSH2 0xF06 SWAP1 PUSH2 0x3417 JUMP JUMPDEST PUSH1 0x40 MLOAD DUP1 SWAP2 SUB SWAP1 REVERT JUMPDEST PUSH1 0x0 PUSH1 0xA PUSH1 0x0 DUP4 DUP2 MSTORE PUSH1 0x20 ADD SWAP1 DUP2 MSTORE PUSH1 0x20 ADD PUSH1 0x0 KECCAK256 PUSH1 0x2 ADD SLOAD SWAP1 POP DUP1 SELFBALANCE GT PUSH2 0xF6C JUMPI PUSH1 0x40 MLOAD PUSH32 0x8C379A000000000000000000000000000000000000000000000000000000000 DUP2 MSTORE PUSH1 0x4 ADD PUSH2 0xF63 SWAP1 PUSH2 0x34A9 JUMP JUMPDEST PUSH1 0x40 MLOAD DUP1 SWAP2 SUB SWAP1 REVERT JUMPDEST PUSH1 0x0 PUSH1 0xA PUSH1 0x0 DUP5 DUP2 MSTORE PUSH1 0x20 ADD SWAP1 DUP2 MSTORE PUSH1 0x20 ADD PUSH1 0x0 KECCAK256 PUSH1 0x2 ADD DUP2 SWAP1 SSTORE POP CALLER PUSH20 0xFFFFFFFFFFFFFFFFFFFFFFFFFFFFFFFFFFFFFFFF AND PUSH2 0x8FC DUP3 SWAP1 DUP2 ISZERO MUL SWAP1 PUSH1 0x40 MLOAD PUSH1 0x0 PUSH1 0x40 MLOAD DUP1 DUP4 SUB DUP2 DUP6 DUP9 DUP9 CALL SWAP4 POP POP POP POP ISZERO DUP1 ISZERO PUSH2 0xFCE JUMPI RETURNDATASIZE PUSH1 0x0 DUP1 RETURNDATACOPY RETURNDATASIZE PUSH1 0x0 REVERT JUMPDEST POP CALLER PUSH20 0xFFFFFFFFFFFFFFFFFFFFFFFFFFFFFFFFFFFFFFFF AND PUSH32 0x37821217243A9021D21D3064EE513839A726184E5A5EC6068A9FAF8213FAD23D DUP5 DUP4 PUSH1 0x40 MLOAD PUSH2 0x1017 SWAP3 SWAP2 SWAP1 PUSH2 0x34C9 JUMP JUMPDEST PUSH1 0x40 MLOAD DUP1 SWAP2 SUB SWAP1 LOG2 POP POP POP JUMP JUMPDEST PUSH1 0x0 PUSH1 0x2 PUSH1 0x0 SWAP1 SLOAD SWAP1 PUSH2 0x100 EXP SWAP1 DIV PUSH1 0xFF AND PUSH2 0x1075 JUMPI PUSH1 0x40 MLOAD PUSH32 0x8C379A000000000000000000000000000000000000000000000000000000000 DUP2 MSTORE PUSH1 0x4 ADD PUSH2 0x106C SWAP1 PUSH2 0x2D89 JUMP JUMPDEST PUSH1 0x40 MLOAD DUP1 SWAP2 SUB SWAP1 REVERT JUMPDEST PUSH1 0x0 DUP3 CALLER PUSH1 0x40 MLOAD PUSH1 0x20 ADD PUSH2 0x108A SWAP3 SWAP2 SWAP1 PUSH2 0x33A3 JUMP JUMPDEST PUSH1 0x40 MLOAD PUSH1 0x20 DUP2 DUP4 SUB SUB DUP2 MSTORE SWAP1 PUSH1 0x40 MSTORE DUP1 MLOAD SWAP1 PUSH1 0x20 ADD KECCAK256 SWAP1 POP PUSH1 0xA PUSH1 0x0 DUP3 DUP2 MSTORE PUSH1 0x20 ADD SWAP1 DUP2 MSTORE PUSH1 0x20 ADD PUSH1 0x0 KECCAK256 PUSH1 0x2 ADD SLOAD SWAP2 POP POP SWAP2 SWAP1 POP JUMP JUMPDEST PUSH1 0x1 PUSH1 0x6 PUSH1 0x0 DUP4 PUSH20 0xFFFFFFFFFFFFFFFFFFFFFFFFFFFFFFFFFFFFFFFF AND PUSH20 0xFFFFFFFFFFFFFFFFFFFFFFFFFFFFFFFFFFFFFFFF AND DUP2 MSTORE PUSH1 0x20 ADD SWAP1 DUP2 MSTORE PUSH1 0x20 ADD PUSH1 0x0 KECCAK256 PUSH1 0x0 DUP3 DUP3 SLOAD PUSH2 0x1111 SWAP2 SWAP1 PUSH2 0x2E44 JUMP JUMPDEST SWAP3 POP POP DUP2 SWAP1 SSTORE POP POP JUMP JUMPDEST PUSH1 0x60 PUSH1 0x2 PUSH1 0x0 SWAP1 SLOAD SWAP1 PUSH2 0x100 EXP SWAP1 DIV PUSH1 0xFF AND PUSH2 0x116C JUMPI PUSH1 0x40 MLOAD PUSH32 0x8C379A000000000000000000000000000000000000000000000000000000000 DUP2 MSTORE PUSH1 0x4 ADD PUSH2 0x1163 SWAP1 PUSH2 0x2D89 JUMP JUMPDEST PUSH1 0x40 MLOAD DUP1 SWAP2 SUB SWAP1 REVERT JUMPDEST PUSH1 0x3 DUP1 SLOAD DUP1 PUSH1 0x20 MUL PUSH1 0x20 ADD PUSH1 0x40 MLOAD SWAP1 DUP2 ADD PUSH1 0x40 MSTORE DUP1 SWAP3 SWAP2 SWAP1 DUP2 DUP2 MSTORE PUSH1 0x20 ADD DUP3 DUP1 SLOAD DUP1 ISZERO PUSH2 0x11EE JUMPI PUSH1 0x20 MUL DUP3 ADD SWAP2 SWAP1 PUSH1 0x0 MSTORE PUSH1 0x20 PUSH1 0x0 KECCAK256 SWAP1 JUMPDEST DUP2 PUSH1 0x0 SWAP1 SLOAD SWAP1 PUSH2 0x100 EXP SWAP1 DIV PUSH20 0xFFFFFFFFFFFFFFFFFFFFFFFFFFFFFFFFFFFFFFFF AND PUSH20 0xFFFFFFFFFFFFFFFFFFFFFFFFFFFFFFFFFFFFFFFF AND DUP2 MSTORE PUSH1 0x20 ADD SWAP1 PUSH1 0x1 ADD SWAP1 DUP1 DUP4 GT PUSH2 0x11A4 JUMPI JUMPDEST POP POP POP POP POP SWAP1 POP SWAP1 JUMP JUMPDEST PUSH1 0x2 PUSH1 0x0 SWAP1 SLOAD SWAP1 PUSH2 0x100 EXP SWAP1 DIV PUSH1 0xFF AND PUSH2 0x1247 JUMPI PUSH1 0x40 MLOAD PUSH32 0x8C379A000000000000000000000000000000000000000000000000000000000 DUP2 MSTORE PUSH1 0x4 ADD PUSH2 0x123E SWAP1 PUSH2 0x2D89 JUMP JUMPDEST PUSH1 0x40 MLOAD DUP1 SWAP2 SUB SWAP1 REVERT JUMPDEST PUSH1 0x0 PUSH1 0x3 DUP1 SLOAD SWAP1 POP SWAP1 POP PUSH1 0x0 JUMPDEST DUP2 DUP2 LT ISZERO PUSH2 0x13DF JUMPI PUSH1 0x0 DUP4 PUSH1 0x3 DUP4 DUP2 SLOAD DUP2 LT PUSH2 0x1273 JUMPI PUSH2 0x1272 PUSH2 0x34F9 JUMP JUMPDEST JUMPDEST SWAP1 PUSH1 0x0 MSTORE PUSH1 0x20 PUSH1 0x0 KECCAK256 ADD PUSH1 0x0 SWAP1 SLOAD SWAP1 PUSH2 0x100 EXP SWAP1 DIV PUSH20 0xFFFFFFFFFFFFFFFFFFFFFFFFFFFFFFFFFFFFFFFF AND PUSH1 0x40 MLOAD PUSH1 0x20 ADD PUSH2 0x12AF SWAP3 SWAP2 SWAP1 PUSH2 0x33A3 JUMP JUMPDEST PUSH1 0x40 MLOAD PUSH1 0x20 DUP2 DUP4 SUB SUB DUP2 MSTORE SWAP1 PUSH1 0x40 MSTORE DUP1 MLOAD SWAP1 PUSH1 0x20 ADD KECCAK256 SWAP1 POP PUSH1 0x0 PUSH20 0xFFFFFFFFFFFFFFFFFFFFFFFFFFFFFFFFFFFFFFFF AND PUSH1 0xA PUSH1 0x0 DUP4 DUP2 MSTORE PUSH1 0x20 ADD SWAP1 DUP2 MSTORE PUSH1 0x20 ADD PUSH1 0x0 KECCAK256 PUSH1 0x0 ADD PUSH1 0x0 SWAP1 SLOAD SWAP1 PUSH2 0x100 EXP SWAP1 DIV PUSH20 0xFFFFFFFFFFFFFFFFFFFFFFFFFFFFFFFFFFFFFFFF AND PUSH20 0xFFFFFFFFFFFFFFFFFFFFFFFFFFFFFFFFFFFFFFFF AND EQ PUSH2 0x13CB JUMPI PUSH1 0x0 PUSH1 0xA PUSH1 0x0 DUP4 DUP2 MSTORE PUSH1 0x20 ADD SWAP1 DUP2 MSTORE PUSH1 0x20 ADD PUSH1 0x0 KECCAK256 SWAP1 POP PUSH1 0x0 DUP2 PUSH1 0x2 ADD SLOAD SWAP1 POP PUSH1 0x0 DUP3 PUSH1 0x1 ADD DUP8 PUSH1 0x40 MLOAD PUSH2 0x1365 SWAP2 SWAP1 PUSH2 0x2F20 JUMP JUMPDEST SWAP1 DUP2 MSTORE PUSH1 0x20 ADD PUSH1 0x40 MLOAD DUP1 SWAP2 SUB SWAP1 KECCAK256 SLOAD SWAP1 POP PUSH1 0x0 DUP4 PUSH1 0x1 ADD DUP9 PUSH1 0x40 MLOAD PUSH2 0x138A SWAP2 SWAP1 PUSH2 0x2F20 JUMP JUMPDEST SWAP1 DUP2 MSTORE PUSH1 0x20 ADD PUSH1 0x40 MLOAD DUP1 SWAP2 SUB SWAP1 KECCAK256 DUP2 SWAP1 SSTORE POP PUSH1 0x2 DUP2 PUSH2 0x13A9 SWAP2 SWAP1 PUSH2 0x3557 JUMP JUMPDEST DUP2 PUSH2 0x13B4 SWAP2 SWAP1 PUSH2 0x2E44 JUMP JUMPDEST DUP3 PUSH2 0x13BF SWAP2 SWAP1 PUSH2 0x2E44 JUMP JUMPDEST DUP4 PUSH1 0x2 ADD DUP2 SWAP1 SSTORE POP POP POP POP JUMPDEST POP DUP1 DUP1 PUSH2 0x13D7 SWAP1 PUSH2 0x3281 JUMP JUMPDEST SWAP2 POP POP PUSH2 0x1254 JUMP JUMPDEST POP POP POP JUMP JUMPDEST PUSH1 0x60 PUSH1 0x2 PUSH1 0x0 SWAP1 SLOAD SWAP1 PUSH2 0x100 EXP SWAP1 DIV PUSH1 0xFF AND PUSH2 0x1435 JUMPI PUSH1 0x40 MLOAD PUSH32 0x8C379A000000000000000000000000000000000000000000000000000000000 DUP2 MSTORE PUSH1 0x4 ADD PUSH2 0x142C SWAP1 PUSH2 0x2D89 JUMP JUMPDEST PUSH1 0x40 MLOAD DUP1 SWAP2 SUB SWAP1 REVERT JUMPDEST PUSH1 0x7 PUSH1 0x0 DUP4 PUSH20 0xFFFFFFFFFFFFFFFFFFFFFFFFFFFFFFFFFFFFFFFF AND PUSH20 0xFFFFFFFFFFFFFFFFFFFFFFFFFFFFFFFFFFFFFFFF AND DUP2 MSTORE PUSH1 0x20 ADD SWAP1 DUP2 MSTORE PUSH1 0x20 ADD PUSH1 0x0 KECCAK256 DUP1 SLOAD DUP1 PUSH1 0x20 MUL PUSH1 0x20 ADD PUSH1 0x40 MLOAD SWAP1 DUP2 ADD PUSH1 0x40 MSTORE DUP1 SWAP3 SWAP2 SWAP1 DUP2 DUP2 MSTORE PUSH1 0x20 ADD DUP3 DUP1 SLOAD DUP1 ISZERO PUSH2 0x14F4 JUMPI PUSH1 0x20 MUL DUP3 ADD SWAP2 SWAP1 PUSH1 0x0 MSTORE PUSH1 0x20 PUSH1 0x0 KECCAK256 SWAP1 JUMPDEST DUP2 PUSH1 0x0 SWAP1 SLOAD SWAP1 PUSH2 0x100 EXP SWAP1 DIV PUSH20 0xFFFFFFFFFFFFFFFFFFFFFFFFFFFFFFFFFFFFFFFF AND PUSH20 0xFFFFFFFFFFFFFFFFFFFFFFFFFFFFFFFFFFFFFFFF AND DUP2 MSTORE PUSH1 0x20 ADD SWAP1 PUSH1 0x1 ADD SWAP1 DUP1 DUP4 GT PUSH2 0x14AA JUMPI JUMPDEST POP POP POP POP POP SWAP1 POP SWAP2 SWAP1 POP JUMP JUMPDEST PUSH1 0x0 DUP1 SLOAD SWAP1 PUSH2 0x100 EXP SWAP1 DIV PUSH20 0xFFFFFFFFFFFFFFFFFFFFFFFFFFFFFFFFFFFFFFFF AND PUSH20 0xFFFFFFFFFFFFFFFFFFFFFFFFFFFFFFFFFFFFFFFF AND CALLER PUSH20 0xFFFFFFFFFFFFFFFFFFFFFFFFFFFFFFFFFFFFFFFF AND EQ PUSH2 0x158E JUMPI PUSH1 0x40 MLOAD PUSH32 0x8C379A000000000000000000000000000000000000000000000000000000000 DUP2 MSTORE PUSH1 0x4 ADD PUSH2 0x1585 SWAP1 PUSH2 0x2EC4 JUMP JUMPDEST PUSH1 0x40 MLOAD DUP1 SWAP2 SUB SWAP1 REVERT JUMPDEST PUSH1 0x2 PUSH1 0x0 SWAP1 SLOAD SWAP1 PUSH2 0x100 EXP SWAP1 DIV PUSH1 0xFF AND PUSH2 0x15DD JUMPI PUSH1 0x40 MLOAD PUSH32 0x8C379A000000000000000000000000000000000000000000000000000000000 DUP2 MSTORE PUSH1 0x4 ADD PUSH2 0x15D4 SWAP1 PUSH2 0x2D89 JUMP JUMPDEST PUSH1 0x40 MLOAD DUP1 SWAP2 SUB SWAP1 REVERT JUMPDEST PUSH1 0x1 PUSH1 0x8 PUSH1 0x0 DUP4 PUSH20 0xFFFFFFFFFFFFFFFFFFFFFFFFFFFFFFFFFFFFFFFF AND PUSH20 0xFFFFFFFFFFFFFFFFFFFFFFFFFFFFFFFFFFFFFFFF AND DUP2 MSTORE PUSH1 0x20 ADD SWAP1 DUP2 MSTORE PUSH1 0x20 ADD PUSH1 0x0 KECCAK256 DUP2 SWAP1 SSTORE POP DUP1 PUSH20 0xFFFFFFFFFFFFFFFFFFFFFFFFFFFFFFFFFFFFFFFF AND PUSH32 0x2C74592FDDAD593C2C4403101CE9B30930711AB87571268DDD1E1989EE1D7917 PUSH1 0x40 MLOAD PUSH1 0x40 MLOAD DUP1 SWAP2 SUB SWAP1 LOG2 POP JUMP JUMPDEST PUSH1 0x2 PUSH1 0x0 SWAP1 SLOAD SWAP1 PUSH2 0x100 EXP SWAP1 DIV PUSH1 0xFF AND PUSH2 0x16B7 JUMPI PUSH1 0x40 MLOAD PUSH32 0x8C379A000000000000000000000000000000000000000000000000000000000 DUP2 MSTORE PUSH1 0x4 ADD PUSH2 0x16AE SWAP1 PUSH2 0x2D89 JUMP JUMPDEST PUSH1 0x40 MLOAD DUP1 SWAP2 SUB SWAP1 REVERT JUMPDEST DUP1 PUSH1 0x5 PUSH1 0x0 DUP5 PUSH20 0xFFFFFFFFFFFFFFFFFFFFFFFFFFFFFFFFFFFFFFFF AND PUSH20 0xFFFFFFFFFFFFFFFFFFFFFFFFFFFFFFFFFFFFFFFF AND DUP2 MSTORE PUSH1 0x20 ADD SWAP1 DUP2 MSTORE PUSH1 0x20 ADD PUSH1 0x0 KECCAK256 PUSH1 0x2 ADD PUSH1 0x0 DUP3 DUP3 SLOAD PUSH2 0x1709 SWAP2 SWAP1 PUSH2 0x2E44 JUMP JUMPDEST SWAP3 POP POP DUP2 SWAP1 SSTORE POP POP POP JUMP JUMPDEST PUSH1 0x2 PUSH1 0x0 SWAP1 SLOAD SWAP1 PUSH2 0x100 EXP SWAP1 DIV PUSH1 0xFF AND PUSH2 0x1763 JUMPI PUSH1 0x40 MLOAD PUSH32 0x8C379A000000000000000000000000000000000000000000000000000000000 DUP2 MSTORE PUSH1 0x4 ADD PUSH2 0x175A SWAP1 PUSH2 0x2D89 JUMP JUMPDEST PUSH1 0x40 MLOAD DUP1 SWAP2 SUB SWAP1 REVERT JUMPDEST PUSH1 0x9 DUP2 PUSH1 0x40 MLOAD PUSH2 0x1773 SWAP2 SWAP1 PUSH2 0x2F20 JUMP JUMPDEST SWAP1 DUP2 MSTORE PUSH1 0x20 ADD PUSH1 0x40 MLOAD DUP1 SWAP2 SUB SWAP1 KECCAK256 PUSH1 0x0 SWAP1 SLOAD SWAP1 PUSH2 0x100 EXP SWAP1 DIV PUSH1 0xFF AND PUSH2 0x17CE JUMPI PUSH1 0x40 MLOAD PUSH32 0x8C379A000000000000000000000000000000000000000000000000000000000 DUP2 MSTORE PUSH1 0x4 ADD PUSH2 0x17C5 SWAP1 PUSH2 0x35D4 JUMP JUMPDEST PUSH1 0x40 MLOAD DUP1 SWAP2 SUB SWAP1 REVERT JUMPDEST ORIGIN PUSH20 0xFFFFFFFFFFFFFFFFFFFFFFFFFFFFFFFFFFFFFFFF AND CALLER PUSH20 0xFFFFFFFFFFFFFFFFFFFFFFFFFFFFFFFFFFFFFFFF AND EQ PUSH2 0x183C JUMPI PUSH1 0x40 MLOAD PUSH32 0x8C379A000000000000000000000000000000000000000000000000000000000 DUP2 MSTORE PUSH1 0x4 ADD PUSH2 0x1833 SWAP1 PUSH2 0x333B JUMP JUMPDEST PUSH1 0x40 MLOAD DUP1 SWAP2 SUB SWAP1 REVERT JUMPDEST PUSH1 0x0 CALLVALUE GT PUSH2 0x187F JUMPI PUSH1 0x40 MLOAD PUSH32 0x8C379A000000000000000000000000000000000000000000000000000000000 DUP2 MSTORE PUSH1 0x4 ADD PUSH2 0x1876 SWAP1 PUSH2 0x3666 JUMP JUMPDEST PUSH1 0x40 MLOAD DUP1 SWAP2 SUB SWAP1 REVERT JUMPDEST PUSH8 0xDE0B6B3A7640000 CALLVALUE GT ISZERO PUSH2 0x18CA JUMPI PUSH1 0x40 MLOAD PUSH32 0x8C379A000000000000000000000000000000000000000000000000000000000 DUP2 MSTORE PUSH1 0x4 ADD PUSH2 0x18C1 SWAP1 PUSH2 0x36F8 JUMP JUMPDEST PUSH1 0x40 MLOAD DUP1 SWAP2 SUB SWAP1 REVERT JUMPDEST PUSH1 0x0 DUP2 CALLER PUSH1 0x40 MLOAD PUSH1 0x20 ADD PUSH2 0x18DF SWAP3 SWAP2 SWAP1 PUSH2 0x33A3 JUMP JUMPDEST PUSH1 0x40 MLOAD PUSH1 0x20 DUP2 DUP4 SUB SUB DUP2 MSTORE SWAP1 PUSH1 0x40 MSTORE DUP1 MLOAD SWAP1 PUSH1 0x20 ADD KECCAK256 SWAP1 POP PUSH1 0x0 PUSH20 0xFFFFFFFFFFFFFFFFFFFFFFFFFFFFFFFFFFFFFFFF AND PUSH1 0xA PUSH1 0x0 DUP4 DUP2 MSTORE PUSH1 0x20 ADD SWAP1 DUP2 MSTORE PUSH1 0x20 ADD PUSH1 0x0 KECCAK256 PUSH1 0x0 ADD PUSH1 0x0 SWAP1 SLOAD SWAP1 PUSH2 0x100 EXP SWAP1 DIV PUSH20 0xFFFFFFFFFFFFFFFFFFFFFFFFFFFFFFFFFFFFFFFF AND PUSH20 0xFFFFFFFFFFFFFFFFFFFFFFFFFFFFFFFFFFFFFFFF AND EQ PUSH2 0x199C JUMPI PUSH1 0x40 MLOAD PUSH32 0x8C379A000000000000000000000000000000000000000000000000000000000 DUP2 MSTORE PUSH1 0x4 ADD PUSH2 0x1993 SWAP1 PUSH2 0x3764 JUMP JUMPDEST PUSH1 0x40 MLOAD DUP1 SWAP2 SUB SWAP1 REVERT JUMPDEST PUSH1 0x0 PUSH1 0xA PUSH1 0x0 DUP4 DUP2 MSTORE PUSH1 0x20 ADD SWAP1 DUP2 MSTORE PUSH1 0x20 ADD PUSH1 0x0 KECCAK256 SWAP1 POP CALLER DUP2 PUSH1 0x0 ADD PUSH1 0x0 PUSH2 0x100 EXP DUP2 SLOAD DUP2 PUSH20 0xFFFFFFFFFFFFFFFFFFFFFFFFFFFFFFFFFFFFFFFF MUL NOT AND SWAP1 DUP4 PUSH20 0xFFFFFFFFFFFFFFFFFFFFFFFFFFFFFFFFFFFFFFFF AND MUL OR SWAP1 SSTORE POP PUSH1 0x0 DUP2 PUSH1 0x2 ADD DUP2 SWAP1 SSTORE POP CALLVALUE DUP2 PUSH1 0x1 ADD DUP5 PUSH1 0x40 MLOAD PUSH2 0x1A13 SWAP2 SWAP1 PUSH2 0x2F20 JUMP JUMPDEST SWAP1 DUP2 MSTORE PUSH1 0x20 ADD PUSH1 0x40 MLOAD DUP1 SWAP2 SUB SWAP1 KECCAK256 DUP2 SWAP1 SSTORE POP PUSH1 0x3 CALLER SWAP1 DUP1 PUSH1 0x1 DUP2 SLOAD ADD DUP1 DUP3 SSTORE DUP1 SWAP2 POP POP PUSH1 0x1 SWAP1 SUB SWAP1 PUSH1 0x0 MSTORE PUSH1 0x20 PUSH1 0x0 KECCAK256 ADD PUSH1 0x0 SWAP1 SWAP2 SWAP1 SWAP2 SWAP1 SWAP2 PUSH2 0x100 EXP DUP2 SLOAD DUP2 PUSH20 0xFFFFFFFFFFFFFFFFFFFFFFFFFFFFFFFFFFFFFFFF MUL NOT AND SWAP1 DUP4 PUSH20 0xFFFFFFFFFFFFFFFFFFFFFFFFFFFFFFFFFFFFFFFF AND MUL OR SWAP1 SSTORE POP CALLER PUSH20 0xFFFFFFFFFFFFFFFFFFFFFFFFFFFFFFFFFFFFFFFF AND PUSH32 0x26AD90FBC61F14A22F36E3F307F548D6D4CB6193EC8FDFD8903077E2E3D8953D DUP5 CALLVALUE PUSH1 0x40 MLOAD PUSH2 0x1AD0 SWAP3 SWAP2 SWAP1 PUSH2 0x34C9 JUMP JUMPDEST PUSH1 0x40 MLOAD DUP1 SWAP2 SUB SWAP1 LOG2 POP POP POP JUMP JUMPDEST PUSH1 0x2 PUSH1 0x0 SWAP1 SLOAD SWAP1 PUSH2 0x100 EXP SWAP1 DIV PUSH1 0xFF AND PUSH2 0x1B2C JUMPI PUSH1 0x40 MLOAD PUSH32 0x8C379A000000000000000000000000000000000000000000000000000000000 DUP2 MSTORE PUSH1 0x4 ADD PUSH2 0x1B23 SWAP1 PUSH2 0x2D89 JUMP JUMPDEST PUSH1 0x40 MLOAD DUP1 SWAP2 SUB SWAP1 REVERT JUMPDEST PUSH1 0x7 PUSH1 0x0 DUP4 PUSH20 0xFFFFFFFFFFFFFFFFFFFFFFFFFFFFFFFFFFFFFFFF AND PUSH20 0xFFFFFFFFFFFFFFFFFFFFFFFFFFFFFFFFFFFFFFFF AND DUP2 MSTORE PUSH1 0x20 ADD SWAP1 DUP2 MSTORE PUSH1 0x20 ADD PUSH1 0x0 KECCAK256 DUP2 SWAP1 DUP1 PUSH1 0x1 DUP2 SLOAD ADD DUP1 DUP3 SSTORE DUP1 SWAP2 POP POP PUSH1 0x1 SWAP1 SUB SWAP1 PUSH1 0x0 MSTORE PUSH1 0x20 PUSH1 0x0 KECCAK256 ADD PUSH1 0x0 SWAP1 SWAP2 SWAP1 SWAP2 SWAP1 SWAP2 PUSH2 0x100 EXP DUP2 SLOAD DUP2 PUSH20 0xFFFFFFFFFFFFFFFFFFFFFFFFFFFFFFFFFFFFFFFF MUL NOT AND SWAP1 DUP4 PUSH20 0xFFFFFFFFFFFFFFFFFFFFFFFFFFFFFFFFFFFFFFFF AND MUL OR SWAP1 SSTORE POP POP POP JUMP JUMPDEST PUSH1 0x60 PUSH1 0x0 PUSH1 0x4 DUP1 SLOAD SWAP1 POP PUSH8 0xFFFFFFFFFFFFFFFF DUP2 GT ISZERO PUSH2 0x1BF3 JUMPI PUSH2 0x1BF2 PUSH2 0x26D6 JUMP JUMPDEST JUMPDEST PUSH1 0x40 MLOAD SWAP1 DUP1 DUP3 MSTORE DUP1 PUSH1 0x20 MUL PUSH1 0x20 ADD DUP3 ADD PUSH1 0x40 MSTORE DUP1 ISZERO PUSH2 0x1C2C JUMPI DUP2 PUSH1 0x20 ADD JUMPDEST PUSH2 0x1C19 PUSH2 0x2519 JUMP JUMPDEST DUP2 MSTORE PUSH1 0x20 ADD SWAP1 PUSH1 0x1 SWAP1 SUB SWAP1 DUP2 PUSH2 0x1C11 JUMPI SWAP1 POP JUMPDEST POP SWAP1 POP PUSH1 0x0 JUMPDEST PUSH1 0x4 DUP1 SLOAD SWAP1 POP DUP2 LT ISZERO PUSH2 0x1E0B JUMPI PUSH1 0x0 PUSH1 0x5 PUSH1 0x0 PUSH1 0x4 DUP5 DUP2 SLOAD DUP2 LT PUSH2 0x1C59 JUMPI PUSH2 0x1C58 PUSH2 0x34F9 JUMP JUMPDEST JUMPDEST SWAP1 PUSH1 0x0 MSTORE PUSH1 0x20 PUSH1 0x0 KECCAK256 ADD PUSH1 0x0 SWAP1 SLOAD SWAP1 PUSH2 0x100 EXP SWAP1 DIV PUSH20 0xFFFFFFFFFFFFFFFFFFFFFFFFFFFFFFFFFFFFFFFF AND PUSH20 0xFFFFFFFFFFFFFFFFFFFFFFFFFFFFFFFFFFFFFFFF AND PUSH20 0xFFFFFFFFFFFFFFFFFFFFFFFFFFFFFFFFFFFFFFFF AND DUP2 MSTORE PUSH1 0x20 ADD SWAP1 DUP2 MSTORE PUSH1 0x20 ADD PUSH1 0x0 KECCAK256 SWAP1 POP DUP1 PUSH1 0x40 MLOAD DUP1 PUSH1 0x80 ADD PUSH1 0x40 MSTORE SWAP1 DUP2 PUSH1 0x0 DUP3 ADD DUP1 SLOAD PUSH2 0x1CDC SWAP1 PUSH2 0x2FD2 JUMP JUMPDEST DUP1 PUSH1 0x1F ADD PUSH1 0x20 DUP1 SWAP2 DIV MUL PUSH1 0x20 ADD PUSH1 0x40 MLOAD SWAP1 DUP2 ADD PUSH1 0x40 MSTORE DUP1 SWAP3 SWAP2 SWAP1 DUP2 DUP2 MSTORE PUSH1 0x20 ADD DUP3 DUP1 SLOAD PUSH2 0x1D08 SWAP1 PUSH2 0x2FD2 JUMP JUMPDEST DUP1 ISZERO PUSH2 0x1D55 JUMPI DUP1 PUSH1 0x1F LT PUSH2 0x1D2A JUMPI PUSH2 0x100 DUP1 DUP4 SLOAD DIV MUL DUP4 MSTORE SWAP2 PUSH1 0x20 ADD SWAP2 PUSH2 0x1D55 JUMP JUMPDEST DUP3 ADD SWAP2 SWAP1 PUSH1 0x0 MSTORE PUSH1 0x20 PUSH1 0x0 KECCAK256 SWAP1 JUMPDEST DUP2 SLOAD DUP2 MSTORE SWAP1 PUSH1 0x1 ADD SWAP1 PUSH1 0x20 ADD DUP1 DUP4 GT PUSH2 0x1D38 JUMPI DUP3 SWAP1 SUB PUSH1 0x1F AND DUP3 ADD SWAP2 JUMPDEST POP POP POP POP POP DUP2 MSTORE PUSH1 0x20 ADD PUSH1 0x1 DUP3 ADD PUSH1 0x0 SWAP1 SLOAD SWAP1 PUSH2 0x100 EXP SWAP1 DIV PUSH20 0xFFFFFFFFFFFFFFFFFFFFFFFFFFFFFFFFFFFFFFFF AND PUSH20 0xFFFFFFFFFFFFFFFFFFFFFFFFFFFFFFFFFFFFFFFF AND PUSH20 0xFFFFFFFFFFFFFFFFFFFFFFFFFFFFFFFFFFFFFFFF AND DUP2 MSTORE PUSH1 0x20 ADD PUSH1 0x1 DUP3 ADD PUSH1 0x14 SWAP1 SLOAD SWAP1 PUSH2 0x100 EXP SWAP1 DIV PUSH1 0xFF AND ISZERO ISZERO ISZERO ISZERO DUP2 MSTORE PUSH1 0x20 ADD PUSH1 0x2 DUP3 ADD SLOAD DUP2 MSTORE POP POP DUP4 DUP4 DUP2 MLOAD DUP2 LT PUSH2 0x1DEC JUMPI PUSH2 0x1DEB PUSH2 0x34F9 JUMP JUMPDEST JUMPDEST PUSH1 0x20 MUL PUSH1 0x20 ADD ADD DUP2 SWAP1 MSTORE POP POP DUP1 DUP1 PUSH2 0x1E03 SWAP1 PUSH2 0x3281 JUMP JUMPDEST SWAP2 POP POP PUSH2 0x1C32 JUMP JUMPDEST POP DUP1 SWAP2 POP POP SWAP1 JUMP JUMPDEST PUSH1 0x60 PUSH1 0x2 PUSH1 0x0 SWAP1 SLOAD SWAP1 PUSH2 0x100 EXP SWAP1 DIV PUSH1 0xFF AND PUSH2 0x1E64 JUMPI PUSH1 0x40 MLOAD PUSH32 0x8C379A000000000000000000000000000000000000000000000000000000000 DUP2 MSTORE PUSH1 0x4 ADD PUSH2 0x1E5B SWAP1 PUSH2 0x2D89 JUMP JUMPDEST PUSH1 0x40 MLOAD DUP1 SWAP2 SUB SWAP1 REVERT JUMPDEST PUSH1 0x5 PUSH1 0x0 DUP4 PUSH20 0xFFFFFFFFFFFFFFFFFFFFFFFFFFFFFFFFFFFFFFFF AND PUSH20 0xFFFFFFFFFFFFFFFFFFFFFFFFFFFFFFFFFFFFFFFF AND DUP2 MSTORE PUSH1 0x20 ADD SWAP1 DUP2 MSTORE PUSH1 0x20 ADD PUSH1 0x0 KECCAK256 PUSH1 0x0 ADD DUP1 SLOAD PUSH2 0x1EB1 SWAP1 PUSH2 0x2FD2 JUMP JUMPDEST DUP1 PUSH1 0x1F ADD PUSH1 0x20 DUP1 SWAP2 DIV MUL PUSH1 0x20 ADD PUSH1 0x40 MLOAD SWAP1 DUP2 ADD PUSH1 0x40 MSTORE DUP1 SWAP3 SWAP2 SWAP1 DUP2 DUP2 MSTORE PUSH1 0x20 ADD DUP3 DUP1 SLOAD PUSH2 0x1EDD SWAP1 PUSH2 0x2FD2 JUMP JUMPDEST DUP1 ISZERO PUSH2 0x1F2A JUMPI DUP1 PUSH1 0x1F LT PUSH2 0x1EFF JUMPI PUSH2 0x100 DUP1 DUP4 SLOAD DIV MUL DUP4 MSTORE SWAP2 PUSH1 0x20 ADD SWAP2 PUSH2 0x1F2A JUMP JUMPDEST DUP3 ADD SWAP2 SWAP1 PUSH1 0x0 MSTORE PUSH1 0x20 PUSH1 0x0 KECCAK256 SWAP1 JUMPDEST DUP2 SLOAD DUP2 MSTORE SWAP1 PUSH1 0x1 ADD SWAP1 PUSH1 0x20 ADD DUP1 DUP4 GT PUSH2 0x1F0D JUMPI DUP3 SWAP1 SUB PUSH1 0x1F AND DUP3 ADD SWAP2 JUMPDEST POP POP POP POP POP SWAP1 POP SWAP2 SWAP1 POP JUMP JUMPDEST PUSH1 0x4 DUP2 DUP2 SLOAD DUP2 LT PUSH2 0x1F46 JUMPI PUSH1 0x0 DUP1 REVERT JUMPDEST SWAP1 PUSH1 0x0 MSTORE PUSH1 0x20 PUSH1 0x0 KECCAK256 ADD PUSH1 0x0 SWAP2 POP SLOAD SWAP1 PUSH2 0x100 EXP SWAP1 DIV PUSH20 0xFFFFFFFFFFFFFFFFFFFFFFFFFFFFFFFFFFFFFFFF AND DUP2 JUMP JUMPDEST PUSH1 0x60 PUSH1 0x0 DUP1 PUSH1 0x2 PUSH1 0x0 SWAP1 SLOAD SWAP1 PUSH2 0x100 EXP SWAP1 DIV PUSH1 0xFF AND PUSH2 0x1FC9 JUMPI PUSH1 0x40 MLOAD PUSH32 0x8C379A000000000000000000000000000000000000000000000000000000000 DUP2 MSTORE PUSH1 0x4 ADD PUSH2 0x1FC0 SWAP1 PUSH2 0x2D89 JUMP JUMPDEST PUSH1 0x40 MLOAD DUP1 SWAP2 SUB SWAP1 REVERT JUMPDEST PUSH1 0x0 PUSH1 0x5 PUSH1 0x0 DUP7 PUSH20 0xFFFFFFFFFFFFFFFFFFFFFFFFFFFFFFFFFFFFFFFF AND PUSH20 0xFFFFFFFFFFFFFFFFFFFFFFFFFFFFFFFFFFFFFFFF AND DUP2 MSTORE PUSH1 0x20 ADD SWAP1 DUP2 MSTORE PUSH1 0x20 ADD PUSH1 0x0 KECCAK256 PUSH1 0x40 MLOAD DUP1 PUSH1 0x80 ADD PUSH1 0x40 MSTORE SWAP1 DUP2 PUSH1 0x0 DUP3 ADD DUP1 SLOAD PUSH2 0x2025 SWAP1 PUSH2 0x2FD2 JUMP JUMPDEST DUP1 PUSH1 0x1F ADD PUSH1 0x20 DUP1 SWAP2 DIV MUL PUSH1 0x20 ADD PUSH1 0x40 MLOAD SWAP1 DUP2 ADD PUSH1 0x40 MSTORE DUP1 SWAP3 SWAP2 SWAP1 DUP2 DUP2 MSTORE PUSH1 0x20 ADD DUP3 DUP1 SLOAD PUSH2 0x2051 SWAP1 PUSH2 0x2FD2 JUMP JUMPDEST DUP1 ISZERO PUSH2 0x209E JUMPI DUP1 PUSH1 0x1F LT PUSH2 0x2073 JUMPI PUSH2 0x100 DUP1 DUP4 SLOAD DIV MUL DUP4 MSTORE SWAP2 PUSH1 0x20 ADD SWAP2 PUSH2 0x209E JUMP JUMPDEST DUP3 ADD SWAP2 SWAP1 PUSH1 0x0 MSTORE PUSH1 0x20 PUSH1 0x0 KECCAK256 SWAP1 JUMPDEST DUP2 SLOAD DUP2 MSTORE SWAP1 PUSH1 0x1 ADD SWAP1 PUSH1 0x20 ADD DUP1 DUP4 GT PUSH2 0x2081 JUMPI DUP3 SWAP1 SUB PUSH1 0x1F AND DUP3 ADD SWAP2 JUMPDEST POP POP POP POP POP DUP2 MSTORE PUSH1 0x20 ADD PUSH1 0x1 DUP3 ADD PUSH1 0x0 SWAP1 SLOAD SWAP1 PUSH2 0x100 EXP SWAP1 DIV PUSH20 0xFFFFFFFFFFFFFFFFFFFFFFFFFFFFFFFFFFFFFFFF AND PUSH20 0xFFFFFFFFFFFFFFFFFFFFFFFFFFFFFFFFFFFFFFFF AND PUSH20 0xFFFFFFFFFFFFFFFFFFFFFFFFFFFFFFFFFFFFFFFF AND DUP2 MSTORE PUSH1 0x20 ADD PUSH1 0x1 DUP3 ADD PUSH1 0x14 SWAP1 SLOAD SWAP1 PUSH2 0x100 EXP SWAP1 DIV PUSH1 0xFF AND ISZERO ISZERO ISZERO ISZERO DUP2 MSTORE PUSH1 0x20 ADD PUSH1 0x2 DUP3 ADD SLOAD DUP2 MSTORE POP POP SWAP1 POP DUP1 PUSH1 0x0 ADD MLOAD SWAP4 POP DUP1 PUSH1 0x40 ADD MLOAD SWAP3 POP DUP1 PUSH1 0x60 ADD MLOAD SWAP2 POP POP SWAP2 SWAP4 SWAP1 SWAP3 POP JUMP JUMPDEST PUSH1 0x0 DUP1 PUSH1 0x0 SWAP1 SLOAD SWAP1 PUSH2 0x100 EXP SWAP1 DIV PUSH20 0xFFFFFFFFFFFFFFFFFFFFFFFFFFFFFFFFFFFFFFFF AND PUSH20 0xFFFFFFFFFFFFFFFFFFFFFFFFFFFFFFFFFFFFFFFF AND CALLER PUSH20 0xFFFFFFFFFFFFFFFFFFFFFFFFFFFFFFFFFFFFFFFF AND EQ SWAP1 POP SWAP1 JUMP JUMPDEST PUSH1 0x0 PUSH1 0x2 PUSH1 0x0 SWAP1 SLOAD SWAP1 PUSH2 0x100 EXP SWAP1 DIV PUSH1 0xFF AND PUSH2 0x21E9 JUMPI PUSH1 0x40 MLOAD PUSH32 0x8C379A000000000000000000000000000000000000000000000000000000000 DUP2 MSTORE PUSH1 0x4 ADD PUSH2 0x21E0 SWAP1 PUSH2 0x2D89 JUMP JUMPDEST PUSH1 0x40 MLOAD DUP1 SWAP2 SUB SWAP1 REVERT JUMPDEST PUSH1 0x5 PUSH1 0x0 DUP4 PUSH20 0xFFFFFFFFFFFFFFFFFFFFFFFFFFFFFFFFFFFFFFFF AND PUSH20 0xFFFFFFFFFFFFFFFFFFFFFFFFFFFFFFFFFFFFFFFF AND DUP2 MSTORE PUSH1 0x20 ADD SWAP1 DUP2 MSTORE PUSH1 0x20 ADD PUSH1 0x0 KECCAK256 PUSH1 0x2 ADD SLOAD SWAP1 POP SWAP2 SWAP1 POP JUMP JUMPDEST PUSH1 0x0 PUSH1 0x2 PUSH1 0x0 SWAP1 SLOAD SWAP1 PUSH2 0x100 EXP SWAP1 DIV PUSH1 0xFF AND PUSH2 0x2284 JUMPI PUSH1 0x40 MLOAD PUSH32 0x8C379A000000000000000000000000000000000000000000000000000000000 DUP2 MSTORE PUSH1 0x4 ADD PUSH2 0x227B SWAP1 PUSH2 0x2D89 JUMP JUMPDEST PUSH1 0x40 MLOAD DUP1 SWAP2 SUB SWAP1 REVERT JUMPDEST PUSH1 0x6 PUSH1 0x0 DUP4 PUSH20 0xFFFFFFFFFFFFFFFFFFFFFFFFFFFFFFFFFFFFFFFF AND PUSH20 0xFFFFFFFFFFFFFFFFFFFFFFFFFFFFFFFFFFFFFFFF AND DUP2 MSTORE PUSH1 0x20 ADD SWAP1 DUP2 MSTORE PUSH1 0x20 ADD PUSH1 0x0 KECCAK256 SLOAD SWAP1 POP SWAP2 SWAP1 POP JUMP JUMPDEST PUSH1 0x0 DUP1 SLOAD SWAP1 PUSH2 0x100 EXP SWAP1 DIV PUSH20 0xFFFFFFFFFFFFFFFFFFFFFFFFFFFFFFFFFFFFFFFF AND PUSH20 0xFFFFFFFFFFFFFFFFFFFFFFFFFFFFFFFFFFFFFFFF AND CALLER PUSH20 0xFFFFFFFFFFFFFFFFFFFFFFFFFFFFFFFFFFFFFFFF AND EQ PUSH2 0x2359 JUMPI PUSH1 0x40 MLOAD PUSH32 0x8C379A000000000000000000000000000000000000000000000000000000000 DUP2 MSTORE PUSH1 0x4 ADD PUSH2 0x2350 SWAP1 PUSH2 0x2EC4 JUMP JUMPDEST PUSH1 0x40 MLOAD DUP1 SWAP2 SUB SWAP1 REVERT JUMPDEST PUSH1 0x2 PUSH1 0x0 SWAP1 SLOAD SWAP1 PUSH2 0x100 EXP SWAP1 DIV PUSH1 0xFF AND PUSH2 0x23A8 JUMPI PUSH1 0x40 MLOAD PUSH32 0x8C379A000000000000000000000000000000000000000000000000000000000 DUP2 MSTORE PUSH1 0x4 ADD PUSH2 0x239F SWAP1 PUSH2 0x2D89 JUMP JUMPDEST PUSH1 0x40 MLOAD DUP1 SWAP2 SUB SWAP1 REVERT JUMPDEST PUSH1 0x8 PUSH1 0x0 DUP3 PUSH20 0xFFFFFFFFFFFFFFFFFFFFFFFFFFFFFFFFFFFFFFFF AND PUSH20 0xFFFFFFFFFFFFFFFFFFFFFFFFFFFFFFFFFFFFFFFF AND DUP2 MSTORE PUSH1 0x20 ADD SWAP1 DUP2 MSTORE PUSH1 0x20 ADD PUSH1 0x0 KECCAK256 PUSH1 0x0 SWAP1 SSTORE DUP1 PUSH20 0xFFFFFFFFFFFFFFFFFFFFFFFFFFFFFFFFFFFFFFFF AND PUSH32 0xD5CF915BCF19EE4A2EDF05F0ADD6E4520E02EDA58F4B4A99387BE2A7AE79CEFB PUSH1 0x40 MLOAD PUSH1 0x40 MLOAD DUP1 SWAP2 SUB SWAP1 LOG2 POP JUMP JUMPDEST PUSH1 0x0 DUP1 DUP3 CALLER PUSH1 0x40 MLOAD PUSH1 0x20 ADD PUSH2 0x2447 SWAP3 SWAP2 SWAP1 PUSH2 0x33A3 JUMP JUMPDEST PUSH1 0x40 MLOAD PUSH1 0x20 DUP2 DUP4 SUB SUB DUP2 MSTORE SWAP1 PUSH1 0x40 MSTORE DUP1 MLOAD SWAP1 PUSH1 0x20 ADD KECCAK256 SWAP1 POP PUSH1 0xA PUSH1 0x0 DUP3 DUP2 MSTORE PUSH1 0x20 ADD SWAP1 DUP2 MSTORE PUSH1 0x20 ADD PUSH1 0x0 KECCAK256 PUSH1 0x2 ADD SLOAD SWAP2 POP POP SWAP2 SWAP1 POP JUMP JUMPDEST PUSH1 0x0 PUSH1 0x2 PUSH1 0x0 SWAP1 SLOAD SWAP1 PUSH2 0x100 EXP SWAP1 DIV PUSH1 0xFF AND SWAP1 POP SWAP1 JUMP JUMPDEST PUSH1 0x0 PUSH1 0x2 PUSH1 0x0 SWAP1 SLOAD SWAP1 PUSH2 0x100 EXP SWAP1 DIV PUSH1 0xFF AND PUSH2 0x24E6 JUMPI PUSH1 0x40 MLOAD PUSH32 0x8C379A000000000000000000000000000000000000000000000000000000000 DUP2 MSTORE PUSH1 0x4 ADD PUSH2 0x24DD SWAP1 PUSH2 0x2D89 JUMP JUMPDEST PUSH1 0x40 MLOAD DUP1 SWAP2 SUB SWAP1 REVERT JUMPDEST PUSH1 0x9 DUP3 PUSH1 0x40 MLOAD PUSH2 0x24F6 SWAP2 SWAP1 PUSH2 0x2F20 JUMP JUMPDEST SWAP1 DUP2 MSTORE PUSH1 0x20 ADD PUSH1 0x40 MLOAD DUP1 SWAP2 SUB SWAP1 KECCAK256 PUSH1 0x0 SWAP1 SLOAD SWAP1 PUSH2 0x100 EXP SWAP1 DIV PUSH1 0xFF AND SWAP1 POP SWAP2 SWAP1 POP JUMP JUMPDEST PUSH1 0x40 MLOAD DUP1 PUSH1 0x80 ADD PUSH1 0x40 MSTORE DUP1 PUSH1 0x60 DUP2 MSTORE PUSH1 0x20 ADD PUSH1 0x0 PUSH20 0xFFFFFFFFFFFFFFFFFFFFFFFFFFFFFFFFFFFFFFFF AND DUP2 MSTORE PUSH1 0x20 ADD PUSH1 0x0 ISZERO ISZERO DUP2 MSTORE PUSH1 0x20 ADD PUSH1 0x0 DUP2 MSTORE POP SWAP1 JUMP JUMPDEST PUSH1 0x0 PUSH1 0x40 MLOAD SWAP1 POP SWAP1 JUMP JUMPDEST PUSH1 0x0 DUP1 REVERT JUMPDEST PUSH1 0x0 DUP1 REVERT JUMPDEST PUSH1 0x0 PUSH20 0xFFFFFFFFFFFFFFFFFFFFFFFFFFFFFFFFFFFFFFFF DUP3 AND SWAP1 POP SWAP2 SWAP1 POP JUMP JUMPDEST PUSH1 0x0 PUSH2 0x2598 DUP3 PUSH2 0x256D JUMP JUMPDEST SWAP1 POP SWAP2 SWAP1 POP JUMP JUMPDEST PUSH2 0x25A8 DUP2 PUSH2 0x258D JUMP JUMPDEST DUP2 EQ PUSH2 0x25B3 JUMPI PUSH1 0x0 DUP1 REVERT JUMPDEST POP JUMP JUMPDEST PUSH1 0x0 DUP2 CALLDATALOAD SWAP1 POP PUSH2 0x25C5 DUP2 PUSH2 0x259F JUMP JUMPDEST SWAP3 SWAP2 POP POP JUMP JUMPDEST PUSH1 0x0 PUSH1 0x20 DUP3 DUP5 SUB SLT ISZERO PUSH2 0x25E1 JUMPI PUSH2 0x25E0 PUSH2 0x2563 JUMP JUMPDEST JUMPDEST PUSH1 0x0 PUSH2 0x25EF DUP5 DUP3 DUP6 ADD PUSH2 0x25B6 JUMP JUMPDEST SWAP2 POP POP SWAP3 SWAP2 POP POP JUMP JUMPDEST PUSH1 0x0 DUP2 ISZERO ISZERO SWAP1 POP SWAP2 SWAP1 POP JUMP JUMPDEST PUSH2 0x260D DUP2 PUSH2 0x25F8 JUMP JUMPDEST DUP3 MSTORE POP POP JUMP JUMPDEST PUSH1 0x0 PUSH1 0x20 DUP3 ADD SWAP1 POP PUSH2 0x2628 PUSH1 0x0 DUP4 ADD DUP5 PUSH2 0x2604 JUMP JUMPDEST SWAP3 SWAP2 POP POP JUMP JUMPDEST PUSH1 0x0 DUP2 SWAP1 POP SWAP2 SWAP1 POP JUMP JUMPDEST PUSH2 0x2641 DUP2 PUSH2 0x262E JUMP JUMPDEST DUP3 MSTORE POP POP JUMP JUMPDEST PUSH1 0x0 PUSH1 0x20 DUP3 ADD SWAP1 POP PUSH2 0x265C PUSH1 0x0 DUP4 ADD DUP5 PUSH2 0x2638 JUMP JUMPDEST SWAP3 SWAP2 POP POP JUMP JUMPDEST PUSH2 0x266B DUP2 PUSH2 0x25F8 JUMP JUMPDEST DUP2 EQ PUSH2 0x2676 JUMPI PUSH1 0x0 DUP1 REVERT JUMPDEST POP JUMP JUMPDEST PUSH1 0x0 DUP2 CALLDATALOAD SWAP1 POP PUSH2 0x2688 DUP2 PUSH2 0x2662 JUMP JUMPDEST SWAP3 SWAP2 POP POP JUMP JUMPDEST PUSH1 0x0 PUSH1 0x20 DUP3 DUP5 SUB SLT ISZERO PUSH2 0x26A4 JUMPI PUSH2 0x26A3 PUSH2 0x2563 JUMP JUMPDEST JUMPDEST PUSH1 0x0 PUSH2 0x26B2 DUP5 DUP3 DUP6 ADD PUSH2 0x2679 JUMP JUMPDEST SWAP2 POP POP SWAP3 SWAP2 POP POP JUMP JUMPDEST PUSH1 0x0 DUP1 REVERT JUMPDEST PUSH1 0x0 DUP1 REVERT JUMPDEST PUSH1 0x0 PUSH1 0x1F NOT PUSH1 0x1F DUP4 ADD AND SWAP1 POP SWAP2 SWAP1 POP JUMP JUMPDEST PUSH32 0x4E487B7100000000000000000000000000000000000000000000000000000000 PUSH1 0x0 MSTORE PUSH1 0x41 PUSH1 0x4 MSTORE PUSH1 0x24 PUSH1 0x0 REVERT JUMPDEST PUSH2 0x270E DUP3 PUSH2 0x26C5 JUMP JUMPDEST DUP2 ADD DUP2 DUP2 LT PUSH8 0xFFFFFFFFFFFFFFFF DUP3 GT OR ISZERO PUSH2 0x272D JUMPI PUSH2 0x272C PUSH2 0x26D6 JUMP JUMPDEST JUMPDEST DUP1 PUSH1 0x40 MSTORE POP POP POP JUMP JUMPDEST PUSH1 0x0 PUSH2 0x2740 PUSH2 0x2559 JUMP JUMPDEST SWAP1 POP PUSH2 0x274C DUP3 DUP3 PUSH2 0x2705 JUMP JUMPDEST SWAP2 SWAP1 POP JUMP JUMPDEST PUSH1 0x0 PUSH8 0xFFFFFFFFFFFFFFFF DUP3 GT ISZERO PUSH2 0x276C JUMPI PUSH2 0x276B PUSH2 0x26D6 JUMP JUMPDEST JUMPDEST PUSH2 0x2775 DUP3 PUSH2 0x26C5 JUMP JUMPDEST SWAP1 POP PUSH1 0x20 DUP2 ADD SWAP1 POP SWAP2 SWAP1 POP JUMP JUMPDEST DUP3 DUP2 DUP4 CALLDATACOPY PUSH1 0x0 DUP4 DUP4 ADD MSTORE POP POP POP JUMP JUMPDEST PUSH1 0x0 PUSH2 0x27A4 PUSH2 0x279F DUP5 PUSH2 0x2751 JUMP JUMPDEST PUSH2 0x2736 JUMP JUMPDEST SWAP1 POP DUP3 DUP2 MSTORE PUSH1 0x20 DUP2 ADD DUP5 DUP5 DUP5 ADD GT ISZERO PUSH2 0x27C0 JUMPI PUSH2 0x27BF PUSH2 0x26C0 JUMP JUMPDEST JUMPDEST PUSH2 0x27CB DUP5 DUP3 DUP6 PUSH2 0x2782 JUMP JUMPDEST POP SWAP4 SWAP3 POP POP POP JUMP JUMPDEST PUSH1 0x0 DUP3 PUSH1 0x1F DUP4 ADD SLT PUSH2 0x27E8 JUMPI PUSH2 0x27E7 PUSH2 0x26BB JUMP JUMPDEST JUMPDEST DUP2 CALLDATALOAD PUSH2 0x27F8 DUP5 DUP3 PUSH1 0x20 DUP7 ADD PUSH2 0x2791 JUMP JUMPDEST SWAP2 POP POP SWAP3 SWAP2 POP POP JUMP JUMPDEST PUSH1 0x0 PUSH1 0x20 DUP3 DUP5 SUB SLT ISZERO PUSH2 0x2817 JUMPI PUSH2 0x2816 PUSH2 0x2563 JUMP JUMPDEST JUMPDEST PUSH1 0x0 DUP3 ADD CALLDATALOAD PUSH8 0xFFFFFFFFFFFFFFFF DUP2 GT ISZERO PUSH2 0x2835 JUMPI PUSH2 0x2834 PUSH2 0x2568 JUMP JUMPDEST JUMPDEST PUSH2 0x2841 DUP5 DUP3 DUP6 ADD PUSH2 0x27D3 JUMP JUMPDEST SWAP2 POP POP SWAP3 SWAP2 POP POP JUMP JUMPDEST PUSH1 0x0 DUP1 PUSH1 0x40 DUP4 DUP6 SUB SLT ISZERO PUSH2 0x2861 JUMPI PUSH2 0x2860 PUSH2 0x2563 JUMP JUMPDEST JUMPDEST PUSH1 0x0 PUSH2 0x286F DUP6 DUP3 DUP7 ADD PUSH2 0x25B6 JUMP JUMPDEST SWAP3 POP POP PUSH1 0x20 DUP4 ADD CALLDATALOAD PUSH8 0xFFFFFFFFFFFFFFFF DUP2 GT ISZERO PUSH2 0x2890 JUMPI PUSH2 0x288F PUSH2 0x2568 JUMP JUMPDEST JUMPDEST PUSH2 0x289C DUP6 DUP3 DUP7 ADD PUSH2 0x27D3 JUMP JUMPDEST SWAP2 POP POP SWAP3 POP SWAP3 SWAP1 POP JUMP JUMPDEST PUSH1 0x0 DUP2 MLOAD SWAP1 POP SWAP2 SWAP1 POP JUMP JUMPDEST PUSH1 0x0 DUP3 DUP3 MSTORE PUSH1 0x20 DUP3 ADD SWAP1 POP SWAP3 SWAP2 POP POP JUMP JUMPDEST PUSH1 0x0 DUP2 SWAP1 POP PUSH1 0x20 DUP3 ADD SWAP1 POP SWAP2 SWAP1 POP JUMP JUMPDEST PUSH2 0x28DB DUP2 PUSH2 0x258D JUMP JUMPDEST DUP3 MSTORE POP POP JUMP JUMPDEST PUSH1 0x0 PUSH2 0x28ED DUP4 DUP4 PUSH2 0x28D2 JUMP JUMPDEST PUSH1 0x20 DUP4 ADD SWAP1 POP SWAP3 SWAP2 POP POP JUMP JUMPDEST PUSH1 0x0 PUSH1 0x20 DUP3 ADD SWAP1 POP SWAP2 SWAP1 POP JUMP JUMPDEST PUSH1 0x0 PUSH2 0x2911 DUP3 PUSH2 0x28A6 JUMP JUMPDEST PUSH2 0x291B DUP2 DUP6 PUSH2 0x28B1 JUMP JUMPDEST SWAP4 POP PUSH2 0x2926 DUP4 PUSH2 0x28C2 JUMP JUMPDEST DUP1 PUSH1 0x0 JUMPDEST DUP4 DUP2 LT ISZERO PUSH2 0x2957 JUMPI DUP2 MLOAD PUSH2 0x293E DUP9 DUP3 PUSH2 0x28E1 JUMP JUMPDEST SWAP8 POP PUSH2 0x2949 DUP4 PUSH2 0x28F9 JUMP JUMPDEST SWAP3 POP POP PUSH1 0x1 DUP2 ADD SWAP1 POP PUSH2 0x292A JUMP JUMPDEST POP DUP6 SWAP4 POP POP POP POP SWAP3 SWAP2 POP POP JUMP JUMPDEST PUSH1 0x0 PUSH1 0x20 DUP3 ADD SWAP1 POP DUP2 DUP2 SUB PUSH1 0x0 DUP4 ADD MSTORE PUSH2 0x297E DUP2 DUP5 PUSH2 0x2906 JUMP JUMPDEST SWAP1 POP SWAP3 SWAP2 POP POP JUMP JUMPDEST PUSH2 0x298F DUP2 PUSH2 0x262E JUMP JUMPDEST DUP2 EQ PUSH2 0x299A JUMPI PUSH1 0x0 DUP1 REVERT JUMPDEST POP JUMP JUMPDEST PUSH1 0x0 DUP2 CALLDATALOAD SWAP1 POP PUSH2 0x29AC DUP2 PUSH2 0x2986 JUMP JUMPDEST SWAP3 SWAP2 POP POP JUMP JUMPDEST PUSH1 0x0 DUP1 PUSH1 0x40 DUP4 DUP6 SUB SLT ISZERO PUSH2 0x29C9 JUMPI PUSH2 0x29C8 PUSH2 0x2563 JUMP JUMPDEST JUMPDEST PUSH1 0x0 PUSH2 0x29D7 DUP6 DUP3 DUP7 ADD PUSH2 0x25B6 JUMP JUMPDEST SWAP3 POP POP PUSH1 0x20 PUSH2 0x29E8 DUP6 DUP3 DUP7 ADD PUSH2 0x299D JUMP JUMPDEST SWAP2 POP POP SWAP3 POP SWAP3 SWAP1 POP JUMP JUMPDEST PUSH1 0x0 DUP1 PUSH1 0x40 DUP4 DUP6 SUB SLT ISZERO PUSH2 0x2A09 JUMPI PUSH2 0x2A08 PUSH2 0x2563 JUMP JUMPDEST JUMPDEST PUSH1 0x0 PUSH2 0x2A17 DUP6 DUP3 DUP7 ADD PUSH2 0x25B6 JUMP JUMPDEST SWAP3 POP POP PUSH1 0x20 PUSH2 0x2A28 DUP6 DUP3 DUP7 ADD PUSH2 0x25B6 JUMP JUMPDEST SWAP2 POP POP SWAP3 POP SWAP3 SWAP1 POP JUMP JUMPDEST PUSH1 0x0 DUP2 MLOAD SWAP1 POP SWAP2 SWAP1 POP JUMP JUMPDEST PUSH1 0x0 DUP3 DUP3 MSTORE PUSH1 0x20 DUP3 ADD SWAP1 POP SWAP3 SWAP2 POP POP JUMP JUMPDEST PUSH1 0x0 DUP2 SWAP1 POP PUSH1 0x20 DUP3 ADD SWAP1 POP SWAP2 SWAP1 POP JUMP JUMPDEST PUSH1 0x0 DUP2 MLOAD SWAP1 POP SWAP2 SWAP1 POP JUMP JUMPDEST PUSH1 0x0 DUP3 DUP3 MSTORE PUSH1 0x20 DUP3 ADD SWAP1 POP SWAP3 SWAP2 POP POP JUMP JUMPDEST PUSH1 0x0 JUMPDEST DUP4 DUP2 LT ISZERO PUSH2 0x2A98 JUMPI DUP1 DUP3 ADD MLOAD DUP2 DUP5 ADD MSTORE PUSH1 0x20 DUP2 ADD SWAP1 POP PUSH2 0x2A7D JUMP JUMPDEST PUSH1 0x0 DUP5 DUP5 ADD MSTORE POP POP POP POP JUMP JUMPDEST PUSH1 0x0 PUSH2 0x2AAF DUP3 PUSH2 0x2A5E JUMP JUMPDEST PUSH2 0x2AB9 DUP2 DUP6 PUSH2 0x2A69 JUMP JUMPDEST SWAP4 POP PUSH2 0x2AC9 DUP2 DUP6 PUSH1 0x20 DUP7 ADD PUSH2 0x2A7A JUMP JUMPDEST PUSH2 0x2AD2 DUP2 PUSH2 0x26C5 JUMP JUMPDEST DUP5 ADD SWAP2 POP POP SWAP3 SWAP2 POP POP JUMP JUMPDEST PUSH2 0x2AE6 DUP2 PUSH2 0x25F8 JUMP JUMPDEST DUP3 MSTORE POP POP JUMP JUMPDEST PUSH2 0x2AF5 DUP2 PUSH2 0x262E JUMP JUMPDEST DUP3 MSTORE POP POP JUMP JUMPDEST PUSH1 0x0 PUSH1 0x80 DUP4 ADD PUSH1 0x0 DUP4 ADD MLOAD DUP5 DUP3 SUB PUSH1 0x0 DUP7 ADD MSTORE PUSH2 0x2B18 DUP3 DUP3 PUSH2 0x2AA4 JUMP JUMPDEST SWAP2 POP POP PUSH1 0x20 DUP4 ADD MLOAD PUSH2 0x2B2D PUSH1 0x20 DUP7 ADD DUP3 PUSH2 0x28D2 JUMP JUMPDEST POP PUSH1 0x40 DUP4 ADD MLOAD PUSH2 0x2B40 PUSH1 0x40 DUP7 ADD DUP3 PUSH2 0x2ADD JUMP JUMPDEST POP PUSH1 0x60 DUP4 ADD MLOAD PUSH2 0x2B53 PUSH1 0x60 DUP7 ADD DUP3 PUSH2 0x2AEC JUMP JUMPDEST POP DUP1 SWAP2 POP POP SWAP3 SWAP2 POP POP JUMP JUMPDEST PUSH1 0x0 PUSH2 0x2B6A DUP4 DUP4 PUSH2 0x2AFB JUMP JUMPDEST SWAP1 POP SWAP3 SWAP2 POP POP JUMP JUMPDEST PUSH1 0x0 PUSH1 0x20 DUP3 ADD SWAP1 POP SWAP2 SWAP1 POP JUMP JUMPDEST PUSH1 0x0 PUSH2 0x2B8A DUP3 PUSH2 0x2A32 JUMP JUMPDEST PUSH2 0x2B94 DUP2 DUP6 PUSH2 0x2A3D JUMP JUMPDEST SWAP4 POP DUP4 PUSH1 0x20 DUP3 MUL DUP6 ADD PUSH2 0x2BA6 DUP6 PUSH2 0x2A4E JUMP JUMPDEST DUP1 PUSH1 0x0 JUMPDEST DUP6 DUP2 LT ISZERO PUSH2 0x2BE2 JUMPI DUP5 DUP5 SUB DUP10 MSTORE DUP2 MLOAD PUSH2 0x2BC3 DUP6 DUP3 PUSH2 0x2B5E JUMP JUMPDEST SWAP5 POP PUSH2 0x2BCE DUP4 PUSH2 0x2B72 JUMP JUMPDEST SWAP3 POP PUSH1 0x20 DUP11 ADD SWAP10 POP POP PUSH1 0x1 DUP2 ADD SWAP1 POP PUSH2 0x2BAA JUMP JUMPDEST POP DUP3 SWAP8 POP DUP8 SWAP6 POP POP POP POP POP POP SWAP3 SWAP2 POP POP JUMP JUMPDEST PUSH1 0x0 PUSH1 0x20 DUP3 ADD SWAP1 POP DUP2 DUP2 SUB PUSH1 0x0 DUP4 ADD MSTORE PUSH2 0x2C0E DUP2 DUP5 PUSH2 0x2B7F JUMP JUMPDEST SWAP1 POP SWAP3 SWAP2 POP POP JUMP JUMPDEST PUSH1 0x0 DUP3 DUP3 MSTORE PUSH1 0x20 DUP3 ADD SWAP1 POP SWAP3 SWAP2 POP POP JUMP JUMPDEST PUSH1 0x0 PUSH2 0x2C32 DUP3 PUSH2 0x2A5E JUMP JUMPDEST PUSH2 0x2C3C DUP2 DUP6 PUSH2 0x2C16 JUMP JUMPDEST SWAP4 POP PUSH2 0x2C4C DUP2 DUP6 PUSH1 0x20 DUP7 ADD PUSH2 0x2A7A JUMP JUMPDEST PUSH2 0x2C55 DUP2 PUSH2 0x26C5 JUMP JUMPDEST DUP5 ADD SWAP2 POP POP SWAP3 SWAP2 POP POP JUMP JUMPDEST PUSH1 0x0 PUSH1 0x20 DUP3 ADD SWAP1 POP DUP2 DUP2 SUB PUSH1 0x0 DUP4 ADD MSTORE PUSH2 0x2C7A DUP2 DUP5 PUSH2 0x2C27 JUMP JUMPDEST SWAP1 POP SWAP3 SWAP2 POP POP JUMP JUMPDEST PUSH1 0x0 PUSH1 0x20 DUP3 DUP5 SUB SLT ISZERO PUSH2 0x2C98 JUMPI PUSH2 0x2C97 PUSH2 0x2563 JUMP JUMPDEST JUMPDEST PUSH1 0x0 PUSH2 0x2CA6 DUP5 DUP3 DUP6 ADD PUSH2 0x299D JUMP JUMPDEST SWAP2 POP POP SWAP3 SWAP2 POP POP JUMP JUMPDEST PUSH2 0x2CB8 DUP2 PUSH2 0x258D JUMP JUMPDEST DUP3 MSTORE POP POP JUMP JUMPDEST PUSH1 0x0 PUSH1 0x20 DUP3 ADD SWAP1 POP PUSH2 0x2CD3 PUSH1 0x0 DUP4 ADD DUP5 PUSH2 0x2CAF JUMP JUMPDEST SWAP3 SWAP2 POP POP JUMP JUMPDEST PUSH1 0x0 PUSH1 0x60 DUP3 ADD SWAP1 POP DUP2 DUP2 SUB PUSH1 0x0 DUP4 ADD MSTORE PUSH2 0x2CF3 DUP2 DUP7 PUSH2 0x2C27 JUMP JUMPDEST SWAP1 POP PUSH2 0x2D02 PUSH1 0x20 DUP4 ADD DUP6 PUSH2 0x2604 JUMP JUMPDEST PUSH2 0x2D0F PUSH1 0x40 DUP4 ADD DUP5 PUSH2 0x2638 JUMP JUMPDEST SWAP5 SWAP4 POP POP POP POP JUMP JUMPDEST PUSH32 0x436F6E74726163742069732063757272656E746C79206E6F74206F7065726174 PUSH1 0x0 DUP3 ADD MSTORE PUSH32 0x696F6E616C000000000000000000000000000000000000000000000000000000 PUSH1 0x20 DUP3 ADD MSTORE POP JUMP JUMPDEST PUSH1 0x0 PUSH2 0x2D73 PUSH1 0x25 DUP4 PUSH2 0x2C16 JUMP JUMPDEST SWAP2 POP PUSH2 0x2D7E DUP3 PUSH2 0x2D17 JUMP JUMPDEST PUSH1 0x40 DUP3 ADD SWAP1 POP SWAP2 SWAP1 POP JUMP JUMPDEST PUSH1 0x0 PUSH1 0x20 DUP3 ADD SWAP1 POP DUP2 DUP2 SUB PUSH1 0x0 DUP4 ADD MSTORE PUSH2 0x2DA2 DUP2 PUSH2 0x2D66 JUMP JUMPDEST SWAP1 POP SWAP2 SWAP1 POP JUMP JUMPDEST PUSH32 0x4169726C696E65206973206E6F74207265676973746572656400000000000000 PUSH1 0x0 DUP3 ADD MSTORE POP JUMP JUMPDEST PUSH1 0x0 PUSH2 0x2DDF PUSH1 0x19 DUP4 PUSH2 0x2C16 JUMP JUMPDEST SWAP2 POP PUSH2 0x2DEA DUP3 PUSH2 0x2DA9 JUMP JUMPDEST PUSH1 0x20 DUP3 ADD SWAP1 POP SWAP2 SWAP1 POP JUMP JUMPDEST PUSH1 0x0 PUSH1 0x20 DUP3 ADD SWAP1 POP DUP2 DUP2 SUB PUSH1 0x0 DUP4 ADD MSTORE PUSH2 0x2E0E DUP2 PUSH2 0x2DD2 JUMP JUMPDEST SWAP1 POP SWAP2 SWAP1 POP JUMP JUMPDEST PUSH32 0x4E487B7100000000000000000000000000000000000000000000000000000000 PUSH1 0x0 MSTORE PUSH1 0x11 PUSH1 0x4 MSTORE PUSH1 0x24 PUSH1 0x0 REVERT JUMPDEST PUSH1 0x0 PUSH2 0x2E4F DUP3 PUSH2 0x262E JUMP JUMPDEST SWAP2 POP PUSH2 0x2E5A DUP4 PUSH2 0x262E JUMP JUMPDEST SWAP3 POP DUP3 DUP3 ADD SWAP1 POP DUP1 DUP3 GT ISZERO PUSH2 0x2E72 JUMPI PUSH2 0x2E71 PUSH2 0x2E15 JUMP JUMPDEST JUMPDEST SWAP3 SWAP2 POP POP JUMP JUMPDEST PUSH32 0x43616C6C6572206973206E6F7420636F6E7472616374206F776E657200000000 PUSH1 0x0 DUP3 ADD MSTORE POP JUMP JUMPDEST PUSH1 0x0 PUSH2 0x2EAE PUSH1 0x1C DUP4 PUSH2 0x2C16 JUMP JUMPDEST SWAP2 POP PUSH2 0x2EB9 DUP3 PUSH2 0x2E78 JUMP JUMPDEST PUSH1 0x20 DUP3 ADD SWAP1 POP SWAP2 SWAP1 POP JUMP JUMPDEST PUSH1 0x0 PUSH1 0x20 DUP3 ADD SWAP1 POP DUP2 DUP2 SUB PUSH1 0x0 DUP4 ADD MSTORE PUSH2 0x2EDD DUP2 PUSH2 0x2EA1 JUMP JUMPDEST SWAP1 POP SWAP2 SWAP1 POP JUMP JUMPDEST PUSH1 0x0 DUP2 SWAP1 POP SWAP3 SWAP2 POP POP JUMP JUMPDEST PUSH1 0x0 PUSH2 0x2EFA DUP3 PUSH2 0x2A5E JUMP JUMPDEST PUSH2 0x2F04 DUP2 DUP6 PUSH2 0x2EE4 JUMP JUMPDEST SWAP4 POP PUSH2 0x2F14 DUP2 DUP6 PUSH1 0x20 DUP7 ADD PUSH2 0x2A7A JUMP JUMPDEST DUP1 DUP5 ADD SWAP2 POP POP SWAP3 SWAP2 POP POP JUMP JUMPDEST PUSH1 0x0 PUSH2 0x2F2C DUP3 DUP5 PUSH2 0x2EEF JUMP JUMPDEST SWAP2 POP DUP2 SWAP1 POP SWAP3 SWAP2 POP POP JUMP JUMPDEST PUSH32 0x43616C6C6572206973206E6F7420617574686F72697A65643A20000000000000 PUSH1 0x0 DUP3 ADD MSTORE POP JUMP JUMPDEST PUSH1 0x0 PUSH2 0x2F6D PUSH1 0x1A DUP4 PUSH2 0x2C16 JUMP JUMPDEST SWAP2 POP PUSH2 0x2F78 DUP3 PUSH2 0x2F37 JUMP JUMPDEST PUSH1 0x20 DUP3 ADD SWAP1 POP SWAP2 SWAP1 POP JUMP JUMPDEST PUSH1 0x0 PUSH1 0x20 DUP3 ADD SWAP1 POP DUP2 DUP2 SUB PUSH1 0x0 DUP4 ADD MSTORE PUSH2 0x2F9C DUP2 PUSH2 0x2F60 JUMP JUMPDEST SWAP1 POP SWAP2 SWAP1 POP JUMP JUMPDEST PUSH32 0x4E487B7100000000000000000000000000000000000000000000000000000000 PUSH1 0x0 MSTORE PUSH1 0x22 PUSH1 0x4 MSTORE PUSH1 0x24 PUSH1 0x0 REVERT JUMPDEST PUSH1 0x0 PUSH1 0x2 DUP3 DIV SWAP1 POP PUSH1 0x1 DUP3 AND DUP1 PUSH2 0x2FEA JUMPI PUSH1 0x7F DUP3 AND SWAP2 POP JUMPDEST PUSH1 0x20 DUP3 LT DUP2 SUB PUSH2 0x2FFD JUMPI PUSH2 0x2FFC PUSH2 0x2FA3 JUMP JUMPDEST JUMPDEST POP SWAP2 SWAP1 POP JUMP JUMPDEST PUSH1 0x0 DUP2 SWAP1 POP DUP2 PUSH1 0x0 MSTORE PUSH1 0x20 PUSH1 0x0 KECCAK256 SWAP1 POP SWAP2 SWAP1 POP JUMP JUMPDEST PUSH1 0x0 PUSH1 0x20 PUSH1 0x1F DUP4 ADD DIV SWAP1 POP SWAP2 SWAP1 POP JUMP JUMPDEST PUSH1 0x0 DUP3 DUP3 SHL SWAP1 POP SWAP3 SWAP2 POP POP JUMP JUMPDEST PUSH1 0x0 PUSH1 0x8 DUP4 MUL PUSH2 0x3065 PUSH32 0xFFFFFFFFFFFFFFFFFFFFFFFFFFFFFFFFFFFFFFFFFFFFFFFFFFFFFFFFFFFFFFFF DUP3 PUSH2 0x3028 JUMP JUMPDEST PUSH2 0x306F DUP7 DUP4 PUSH2 0x3028 JUMP JUMPDEST SWAP6 POP DUP1 NOT DUP5 AND SWAP4 POP DUP1 DUP7 AND DUP5 OR SWAP3 POP POP POP SWAP4 SWAP3 POP POP POP JUMP JUMPDEST PUSH1 0x0 DUP2 SWAP1 POP SWAP2 SWAP1 POP JUMP JUMPDEST PUSH1 0x0 PUSH2 0x30AC PUSH2 0x30A7 PUSH2 0x30A2 DUP5 PUSH2 0x262E JUMP JUMPDEST PUSH2 0x3087 JUMP JUMPDEST PUSH2 0x262E JUMP JUMPDEST SWAP1 POP SWAP2 SWAP1 POP JUMP JUMPDEST PUSH1 0x0 DUP2 SWAP1 POP SWAP2 SWAP1 POP JUMP JUMPDEST PUSH2 0x30C6 DUP4 PUSH2 0x3091 JUMP JUMPDEST PUSH2 0x30DA PUSH2 0x30D2 DUP3 PUSH2 0x30B3 JUMP JUMPDEST DUP5 DUP5 SLOAD PUSH2 0x3035 JUMP JUMPDEST DUP3 SSTORE POP POP POP POP JUMP JUMPDEST PUSH1 0x0 SWAP1 JUMP JUMPDEST PUSH2 0x30EF PUSH2 0x30E2 JUMP JUMPDEST PUSH2 0x30FA DUP2 DUP5 DUP5 PUSH2 0x30BD JUMP JUMPDEST POP POP POP JUMP JUMPDEST JUMPDEST DUP2 DUP2 LT ISZERO PUSH2 0x311E JUMPI PUSH2 0x3113 PUSH1 0x0 DUP3 PUSH2 0x30E7 JUMP JUMPDEST PUSH1 0x1 DUP2 ADD SWAP1 POP PUSH2 0x3100 JUMP JUMPDEST POP POP JUMP JUMPDEST PUSH1 0x1F DUP3 GT ISZERO PUSH2 0x3163 JUMPI PUSH2 0x3134 DUP2 PUSH2 0x3003 JUMP JUMPDEST PUSH2 0x313D DUP5 PUSH2 0x3018 JUMP JUMPDEST DUP2 ADD PUSH1 0x20 DUP6 LT ISZERO PUSH2 0x314C JUMPI DUP2 SWAP1 POP JUMPDEST PUSH2 0x3160 PUSH2 0x3158 DUP6 PUSH2 0x3018 JUMP JUMPDEST DUP4 ADD DUP3 PUSH2 0x30FF JUMP JUMPDEST POP POP JUMPDEST POP POP POP JUMP JUMPDEST PUSH1 0x0 DUP3 DUP3 SHR SWAP1 POP SWAP3 SWAP2 POP POP JUMP JUMPDEST PUSH1 0x0 PUSH2 0x3186 PUSH1 0x0 NOT DUP5 PUSH1 0x8 MUL PUSH2 0x3168 JUMP JUMPDEST NOT DUP1 DUP4 AND SWAP2 POP POP SWAP3 SWAP2 POP POP JUMP JUMPDEST PUSH1 0x0 PUSH2 0x319F DUP4 DUP4 PUSH2 0x3175 JUMP JUMPDEST SWAP2 POP DUP3 PUSH1 0x2 MUL DUP3 OR SWAP1 POP SWAP3 SWAP2 POP POP JUMP JUMPDEST PUSH2 0x31B8 DUP3 PUSH2 0x2A5E JUMP JUMPDEST PUSH8 0xFFFFFFFFFFFFFFFF DUP2 GT ISZERO PUSH2 0x31D1 JUMPI PUSH2 0x31D0 PUSH2 0x26D6 JUMP JUMPDEST JUMPDEST PUSH2 0x31DB DUP3 SLOAD PUSH2 0x2FD2 JUMP JUMPDEST PUSH2 0x31E6 DUP3 DUP3 DUP6 PUSH2 0x3122 JUMP JUMPDEST PUSH1 0x0 PUSH1 0x20 SWAP1 POP PUSH1 0x1F DUP4 GT PUSH1 0x1 DUP2 EQ PUSH2 0x3219 JUMPI PUSH1 0x0 DUP5 ISZERO PUSH2 0x3207 JUMPI DUP3 DUP8 ADD MLOAD SWAP1 POP JUMPDEST PUSH2 0x3211 DUP6 DUP3 PUSH2 0x3193 JUMP JUMPDEST DUP7 SSTORE POP PUSH2 0x3279 JUMP JUMPDEST PUSH1 0x1F NOT DUP5 AND PUSH2 0x3227 DUP7 PUSH2 0x3003 JUMP JUMPDEST PUSH1 0x0 JUMPDEST DUP3 DUP2 LT ISZERO PUSH2 0x324F JUMPI DUP5 DUP10 ADD MLOAD DUP3 SSTORE PUSH1 0x1 DUP3 ADD SWAP2 POP PUSH1 0x20 DUP6 ADD SWAP5 POP PUSH1 0x20 DUP2 ADD SWAP1 POP PUSH2 0x322A JUMP JUMPDEST DUP7 DUP4 LT ISZERO PUSH2 0x326C JUMPI DUP5 DUP10 ADD MLOAD PUSH2 0x3268 PUSH1 0x1F DUP10 AND DUP3 PUSH2 0x3175 JUMP JUMPDEST DUP4 SSTORE POP JUMPDEST PUSH1 0x1 PUSH1 0x2 DUP9 MUL ADD DUP9 SSTORE POP POP POP JUMPDEST POP POP POP POP POP POP JUMP JUMPDEST PUSH1 0x0 PUSH2 0x328C DUP3 PUSH2 0x262E JUMP JUMPDEST SWAP2 POP PUSH32 0xFFFFFFFFFFFFFFFFFFFFFFFFFFFFFFFFFFFFFFFFFFFFFFFFFFFFFFFFFFFFFFFF DUP3 SUB PUSH2 0x32BE JUMPI PUSH2 0x32BD PUSH2 0x2E15 JUMP JUMPDEST JUMPDEST PUSH1 0x1 DUP3 ADD SWAP1 POP SWAP2 SWAP1 POP JUMP JUMPDEST PUSH32 0x436F6E7472616374732063616E6E6F742063616C6C20746869732066756E6374 PUSH1 0x0 DUP3 ADD MSTORE PUSH32 0x696F6E2E00000000000000000000000000000000000000000000000000000000 PUSH1 0x20 DUP3 ADD MSTORE POP JUMP JUMPDEST PUSH1 0x0 PUSH2 0x3325 PUSH1 0x24 DUP4 PUSH2 0x2C16 JUMP JUMPDEST SWAP2 POP PUSH2 0x3330 DUP3 PUSH2 0x32C9 JUMP JUMPDEST PUSH1 0x40 DUP3 ADD SWAP1 POP SWAP2 SWAP1 POP JUMP JUMPDEST PUSH1 0x0 PUSH1 0x20 DUP3 ADD SWAP1 POP DUP2 DUP2 SUB PUSH1 0x0 DUP4 ADD MSTORE PUSH2 0x3354 DUP2 PUSH2 0x3318 JUMP JUMPDEST SWAP1 POP SWAP2 SWAP1 POP JUMP JUMPDEST PUSH1 0x0 DUP2 PUSH1 0x60 SHL SWAP1 POP SWAP2 SWAP1 POP JUMP JUMPDEST PUSH1 0x0 PUSH2 0x3373 DUP3 PUSH2 0x335B JUMP JUMPDEST SWAP1 POP SWAP2 SWAP1 POP JUMP JUMPDEST PUSH1 0x0 PUSH2 0x3385 DUP3 PUSH2 0x3368 JUMP JUMPDEST SWAP1 POP SWAP2 SWAP1 POP JUMP JUMPDEST PUSH2 0x339D PUSH2 0x3398 DUP3 PUSH2 0x258D JUMP JUMPDEST PUSH2 0x337A JUMP JUMPDEST DUP3 MSTORE POP POP JUMP JUMPDEST PUSH1 0x0 PUSH2 0x33AF DUP3 DUP6 PUSH2 0x2EEF JUMP JUMPDEST SWAP2 POP PUSH2 0x33BB DUP3 DUP5 PUSH2 0x338C JUMP JUMPDEST PUSH1 0x14 DUP3 ADD SWAP2 POP DUP2 SWAP1 POP SWAP4 SWAP3 POP POP POP JUMP JUMPDEST PUSH32 0x4E6F2063726564697420746F2062652077697468647261776E00000000000000 PUSH1 0x0 DUP3 ADD MSTORE POP JUMP JUMPDEST PUSH1 0x0 PUSH2 0x3401 PUSH1 0x19 DUP4 PUSH2 0x2C16 JUMP JUMPDEST SWAP2 POP PUSH2 0x340C DUP3 PUSH2 0x33CB JUMP JUMPDEST PUSH1 0x20 DUP3 ADD SWAP1 POP SWAP2 SWAP1 POP JUMP JUMPDEST PUSH1 0x0 PUSH1 0x20 DUP3 ADD SWAP1 POP DUP2 DUP2 SUB PUSH1 0x0 DUP4 ADD MSTORE PUSH2 0x3430 DUP2 PUSH2 0x33F4 JUMP JUMPDEST SWAP1 POP SWAP2 SWAP1 POP JUMP JUMPDEST PUSH32 0x54686520636F6E747261637420646F6573206E6F74206861766520656E6F7567 PUSH1 0x0 DUP3 ADD MSTORE PUSH32 0x682066756E647320746F20706179207468652063726564697400000000000000 PUSH1 0x20 DUP3 ADD MSTORE POP JUMP JUMPDEST PUSH1 0x0 PUSH2 0x3493 PUSH1 0x39 DUP4 PUSH2 0x2C16 JUMP JUMPDEST SWAP2 POP PUSH2 0x349E DUP3 PUSH2 0x3437 JUMP JUMPDEST PUSH1 0x40 DUP3 ADD SWAP1 POP SWAP2 SWAP1 POP JUMP JUMPDEST PUSH1 0x0 PUSH1 0x20 DUP3 ADD SWAP1 POP DUP2 DUP2 SUB PUSH1 0x0 DUP4 ADD MSTORE PUSH2 0x34C2 DUP2 PUSH2 0x3486 JUMP JUMPDEST SWAP1 POP SWAP2 SWAP1 POP JUMP JUMPDEST PUSH1 0x0 PUSH1 0x40 DUP3 ADD SWAP1 POP DUP2 DUP2 SUB PUSH1 0x0 DUP4 ADD MSTORE PUSH2 0x34E3 DUP2 DUP6 PUSH2 0x2C27 JUMP JUMPDEST SWAP1 POP PUSH2 0x34F2 PUSH1 0x20 DUP4 ADD DUP5 PUSH2 0x2638 JUMP JUMPDEST SWAP4 SWAP3 POP POP POP JUMP JUMPDEST PUSH32 0x4E487B7100000000000000000000000000000000000000000000000000000000 PUSH1 0x0 MSTORE PUSH1 0x32 PUSH1 0x4 MSTORE PUSH1 0x24 PUSH1 0x0 REVERT JUMPDEST PUSH32 0x4E487B7100000000000000000000000000000000000000000000000000000000 PUSH1 0x0 MSTORE PUSH1 0x12 PUSH1 0x4 MSTORE PUSH1 0x24 PUSH1 0x0 REVERT JUMPDEST PUSH1 0x0 PUSH2 0x3562 DUP3 PUSH2 0x262E JUMP JUMPDEST SWAP2 POP PUSH2 0x356D DUP4 PUSH2 0x262E JUMP JUMPDEST SWAP3 POP DUP3 PUSH2 0x357D JUMPI PUSH2 0x357C PUSH2 0x3528 JUMP JUMPDEST JUMPDEST DUP3 DUP3 DIV SWAP1 POP SWAP3 SWAP2 POP POP JUMP JUMPDEST PUSH32 0x466C6967687420646F6573206E6F742065786973740000000000000000000000 PUSH1 0x0 DUP3 ADD MSTORE POP JUMP JUMPDEST PUSH1 0x0 PUSH2 0x35BE PUSH1 0x15 DUP4 PUSH2 0x2C16 JUMP JUMPDEST SWAP2 POP PUSH2 0x35C9 DUP3 PUSH2 0x3588 JUMP JUMPDEST PUSH1 0x20 DUP3 ADD SWAP1 POP SWAP2 SWAP1 POP JUMP JUMPDEST PUSH1 0x0 PUSH1 0x20 DUP3 ADD SWAP1 POP DUP2 DUP2 SUB PUSH1 0x0 DUP4 ADD MSTORE PUSH2 0x35ED DUP2 PUSH2 0x35B1 JUMP JUMPDEST SWAP1 POP SWAP2 SWAP1 POP JUMP JUMPDEST PUSH32 0x416D6F756E74206E6565647320746F2062652067726561746572207468616E20 PUSH1 0x0 DUP3 ADD MSTORE PUSH32 0x3000000000000000000000000000000000000000000000000000000000000000 PUSH1 0x20 DUP3 ADD MSTORE POP JUMP JUMPDEST PUSH1 0x0 PUSH2 0x3650 PUSH1 0x21 DUP4 PUSH2 0x2C16 JUMP JUMPDEST SWAP2 POP PUSH2 0x365B DUP3 PUSH2 0x35F4 JUMP JUMPDEST PUSH1 0x40 DUP3 ADD SWAP1 POP SWAP2 SWAP1 POP JUMP JUMPDEST PUSH1 0x0 PUSH1 0x20 DUP3 ADD SWAP1 POP DUP2 DUP2 SUB PUSH1 0x0 DUP4 ADD MSTORE PUSH2 0x367F DUP2 PUSH2 0x3643 JUMP JUMPDEST SWAP1 POP SWAP2 SWAP1 POP JUMP JUMPDEST PUSH32 0x43616E6E6F7420627579206D6F7265207468616E203120455448206F6620696E PUSH1 0x0 DUP3 ADD MSTORE PUSH32 0x737572616E636500000000000000000000000000000000000000000000000000 PUSH1 0x20 DUP3 ADD MSTORE POP JUMP JUMPDEST PUSH1 0x0 PUSH2 0x36E2 PUSH1 0x27 DUP4 PUSH2 0x2C16 JUMP JUMPDEST SWAP2 POP PUSH2 0x36ED DUP3 PUSH2 0x3686 JUMP JUMPDEST PUSH1 0x40 DUP3 ADD SWAP1 POP SWAP2 SWAP1 POP JUMP JUMPDEST PUSH1 0x0 PUSH1 0x20 DUP3 ADD SWAP1 POP DUP2 DUP2 SUB PUSH1 0x0 DUP4 ADD MSTORE PUSH2 0x3711 DUP2 PUSH2 0x36D5 JUMP JUMPDEST SWAP1 POP SWAP2 SWAP1 POP JUMP JUMPDEST PUSH32 0x416C726561647920696E737572656420666F72207468697320666C6967687400 PUSH1 0x0 DUP3 ADD MSTORE POP JUMP JUMPDEST PUSH1 0x0 PUSH2 0x374E PUSH1 0x1F DUP4 PUSH2 0x2C16 JUMP JUMPDEST SWAP2 POP PUSH2 0x3759 DUP3 PUSH2 0x3718 JUMP JUMPDEST PUSH1 0x20 DUP3 ADD SWAP1 POP SWAP2 SWAP1 POP JUMP JUMPDEST PUSH1 0x0 PUSH1 0x20 DUP3 ADD SWAP1 POP DUP2 DUP2 SUB PUSH1 0x0 DUP4 ADD MSTORE PUSH2 0x377D DUP2 PUSH2 0x3741 JUMP JUMPDEST SWAP1 POP SWAP2 SWAP1 POP JUMP INVALID LOG2 PUSH5 0x6970667358 0x22 SLT KECCAK256 BLOCKHASH 0xF6 0xE4 0xAE XOR CALL 0xC7 ORIGIN RETURN 0xB2 0xE3 SWAP6 CALLVALUE 0xAB SELFBALANCE NUMBER ADDMOD 0xB4 0x27 SWAP9 GT MOD 0xF6 0xE9 PUSH27 0xF2A7520EA0A02064736F6C63430008130033000000000000000000 "},"methodIdentifiers":{"INSURANCE_PRICE_LIMIT()":"29e18e5d","addAirline(address,string)":"29df66cc","airlineAddresses(uint256)":"64dcb7bf","authorizeCallers(address)":"487d7200","buy(string)":"492cc769","creditInsurees(string)":"3fcf1cf4","deAuthorizeContract(address)":"a1a5faf1","fund()":"b60d4288","getAirlineFunding(address)":"94e2177a","getAirlineInfo(address)":"720c7cbb","getAirlineName(address)":"524b6100","getAirlineVoters(address)":"46ee941a","getAirlinesCount()":"05e931f4","getAllAirlines()":"4cc7dbee","getBalance()":"12065fe0","getCreditToPay(string)":"2ca8eb0e","getFlightExistsStatus(string)":"ebc5c8ea","getPassengerAddresses()":"3afb50d7","getPassengerCredit(string)":"ab900d24","getVotes(address)":"9ab24eb0","isAirlineRegistered(address)":"010c5c97","isOperational()":"cd905dff","isOwner()":"8f32d59b","pay(string)":"2b66d72e","setAirlineFunding(address,uint256)":"490e1f66","setAirlineVoters(address,address)":"4c8d0274","setFlightExistsStatus(string)":"1d630670","setOperatingStatus(bool)":"110466ed","setVotes(address)":"39004b27"}}}}}