{
  "_format": "hh-sol-artifact-1",
  "contractName": "FlightSuretyApp",
  "sourceName": "contracts/FlightSuretyApp.sol",
  "abi": [
    {
      "inputs": [
        {
          "internalType": "address",
          "name": "dataAddress",
          "type": "address"
        }
      ],
      "stateMutability": "nonpayable",
      "type": "constructor"
    },
    {
      "anonymous": false,
      "inputs": [
        {
          "indexed": true,
          "internalType": "address",
          "name": "addr",
          "type": "address"
        }
      ],
      "name": "AuthorizedContract",
      "type": "event"
    },
    {
      "anonymous": false,
      "inputs": [
        {
          "indexed": true,
          "internalType": "address",
          "name": "passenger",
          "type": "address"
        },
        {
          "indexed": false,
          "internalType": "string",
          "name": "flightNumber",
          "type": "string"
        },
        {
          "indexed": false,
          "internalType": "uint256",
          "name": "amount",
          "type": "uint256"
        }
      ],
      "name": "CreditWithdrawn",
      "type": "event"
    },
    {
      "anonymous": false,
      "inputs": [
        {
          "indexed": true,
          "internalType": "address",
          "name": "addr",
          "type": "address"
        }
      ],
      "name": "DeAuthorizedContract",
      "type": "event"
    },
    {
      "anonymous": false,
      "inputs": [
        {
          "indexed": false,
          "internalType": "string",
          "name": "flightNumber",
          "type": "string"
        },
        {
          "indexed": true,
          "internalType": "address",
          "name": "airlineAddress",
          "type": "address"
        }
      ],
      "name": "FlightRegistered",
      "type": "event"
    },
    {
      "anonymous": false,
      "inputs": [
        {
          "indexed": false,
          "internalType": "address",
          "name": "airline",
          "type": "address"
        },
        {
          "indexed": false,
          "internalType": "string",
          "name": "flight",
          "type": "string"
        },
        {
          "indexed": false,
          "internalType": "uint256",
          "name": "timestamp",
          "type": "uint256"
        },
        {
          "indexed": false,
          "internalType": "uint8",
          "name": "status",
          "type": "uint8"
        }
      ],
      "name": "FlightStatusInfo",
      "type": "event"
    },
    {
      "anonymous": false,
      "inputs": [
        {
          "indexed": true,
          "internalType": "address",
          "name": "passenger",
          "type": "address"
        },
        {
          "indexed": false,
          "internalType": "string",
          "name": "flightNumber",
          "type": "string"
        },
        {
          "indexed": false,
          "internalType": "uint256",
          "name": "amount",
          "type": "uint256"
        }
      ],
      "name": "InsuranceBought",
      "type": "event"
    },
    {
      "anonymous": false,
      "inputs": [
        {
          "indexed": false,
          "internalType": "address",
          "name": "airline",
          "type": "address"
        },
        {
          "indexed": false,
          "internalType": "string",
          "name": "flight",
          "type": "string"
        },
        {
          "indexed": false,
          "internalType": "uint256",
          "name": "timestamp",
          "type": "uint256"
        },
        {
          "indexed": false,
          "internalType": "uint8",
          "name": "status",
          "type": "uint8"
        }
      ],
      "name": "OracleReport",
      "type": "event"
    },
    {
      "anonymous": false,
      "inputs": [
        {
          "indexed": false,
          "internalType": "uint8",
          "name": "index",
          "type": "uint8"
        },
        {
          "indexed": false,
          "internalType": "address",
          "name": "airline",
          "type": "address"
        },
        {
          "indexed": false,
          "internalType": "string",
          "name": "flight",
          "type": "string"
        },
        {
          "indexed": false,
          "internalType": "uint256",
          "name": "timestamp",
          "type": "uint256"
        }
      ],
      "name": "OracleRequest",
      "type": "event"
    },
    {
      "anonymous": false,
      "inputs": [
        {
          "indexed": true,
          "internalType": "address",
          "name": "airlineAddress",
          "type": "address"
        },
        {
          "indexed": false,
          "internalType": "string",
          "name": "name",
          "type": "string"
        }
      ],
      "name": "RegisteredAirline",
      "type": "event"
    },
    {
      "inputs": [],
      "name": "INSURANCE_PRICE_LIMIT",
      "outputs": [
        {
          "internalType": "uint256",
          "name": "",
          "type": "uint256"
        }
      ],
      "stateMutability": "view",
      "type": "function"
    },
    {
      "inputs": [],
      "name": "REGISTRATION_FEE",
      "outputs": [
        {
          "internalType": "uint256",
          "name": "",
          "type": "uint256"
        }
      ],
      "stateMutability": "view",
      "type": "function"
    },
    {
      "inputs": [
        {
          "internalType": "address",
          "name": "_airlineAddress",
          "type": "address"
        },
        {
          "internalType": "string",
          "name": "_name",
          "type": "string"
        }
      ],
      "name": "addAirline",
      "outputs": [],
      "stateMutability": "nonpayable",
      "type": "function"
    },
    {
      "inputs": [
        {
          "internalType": "address",
          "name": "_address",
          "type": "address"
        }
      ],
      "name": "authorizeCallers",
      "outputs": [],
      "stateMutability": "nonpayable",
      "type": "function"
    },
    {
      "inputs": [
        {
          "internalType": "string",
          "name": "flightNumber",
          "type": "string"
        }
      ],
      "name": "buy",
      "outputs": [],
      "stateMutability": "payable",
      "type": "function"
    },
    {
      "inputs": [
        {
          "internalType": "string",
          "name": "flightNumber",
          "type": "string"
        }
      ],
      "name": "creditInsurees",
      "outputs": [],
      "stateMutability": "nonpayable",
      "type": "function"
    },
    {
      "inputs": [
        {
          "internalType": "address",
          "name": "_address",
          "type": "address"
        }
      ],
      "name": "deAuthorizeContract",
      "outputs": [],
      "stateMutability": "nonpayable",
      "type": "function"
    },
    {
      "inputs": [
        {
          "internalType": "address",
          "name": "airline",
          "type": "address"
        },
        {
          "internalType": "string",
          "name": "flight",
          "type": "string"
        },
        {
          "internalType": "uint256",
          "name": "timestamp",
          "type": "uint256"
        }
      ],
      "name": "fetchFlightStatus",
      "outputs": [],
      "stateMutability": "nonpayable",
      "type": "function"
    },
    {
      "inputs": [],
      "name": "fund",
      "outputs": [],
      "stateMutability": "payable",
      "type": "function"
    },
    {
      "inputs": [
        {
          "internalType": "address",
          "name": "_airlineAddress",
          "type": "address"
        }
      ],
      "name": "getAirlineFunding",
      "outputs": [
        {
          "internalType": "uint256",
          "name": "",
          "type": "uint256"
        }
      ],
      "stateMutability": "view",
      "type": "function"
    },
    {
      "inputs": [
        {
          "internalType": "address",
          "name": "_airlineAddress",
          "type": "address"
        }
      ],
      "name": "getAirlineInfo",
      "outputs": [
        {
          "internalType": "string",
          "name": "name",
          "type": "string"
        },
        {
          "internalType": "bool",
          "name": "isRegistered",
          "type": "bool"
        },
        {
          "internalType": "uint256",
          "name": "funding",
          "type": "uint256"
        }
      ],
      "stateMutability": "view",
      "type": "function"
    },
    {
      "inputs": [
        {
          "internalType": "address",
          "name": "_airlineAddress",
          "type": "address"
        }
      ],
      "name": "getAirlineName",
      "outputs": [
        {
          "internalType": "string",
          "name": "",
          "type": "string"
        }
      ],
      "stateMutability": "view",
      "type": "function"
    },
    {
      "inputs": [
        {
          "internalType": "address",
          "name": "_airlineAddress",
          "type": "address"
        }
      ],
      "name": "getAirlineVoters",
      "outputs": [
        {
          "internalType": "address[]",
          "name": "",
          "type": "address[]"
        }
      ],
      "stateMutability": "view",
      "type": "function"
    },
    {
      "inputs": [],
      "name": "getAirlinesCount",
      "outputs": [
        {
          "internalType": "uint256",
          "name": "",
          "type": "uint256"
        }
      ],
      "stateMutability": "view",
      "type": "function"
    },
    {
      "inputs": [],
      "name": "getBalance",
      "outputs": [
        {
          "internalType": "uint256",
          "name": "",
          "type": "uint256"
        }
      ],
      "stateMutability": "view",
      "type": "function"
    },
    {
      "inputs": [
        {
          "internalType": "string",
          "name": "flightNumber",
          "type": "string"
        }
      ],
      "name": "getCreditToPay",
      "outputs": [
        {
          "internalType": "uint256",
          "name": "",
          "type": "uint256"
        }
      ],
      "stateMutability": "view",
      "type": "function"
    },
    {
      "inputs": [
        {
          "internalType": "string",
          "name": "flightNumber",
          "type": "string"
        }
      ],
      "name": "getFlightExistsStatus",
      "outputs": [
        {
          "internalType": "bool",
          "name": "",
          "type": "bool"
        }
      ],
      "stateMutability": "view",
      "type": "function"
    },
    {
      "inputs": [],
      "name": "getFlights",
      "outputs": [
        {
          "components": [
            {
              "internalType": "bool",
              "name": "isRegistered",
              "type": "bool"
            },
            {
              "internalType": "uint8",
              "name": "statusCode",
              "type": "uint8"
            },
            {
              "internalType": "uint256",
              "name": "updatedTimestamp",
              "type": "uint256"
            },
            {
              "internalType": "address",
              "name": "airline",
              "type": "address"
            },
            {
              "internalType": "string",
              "name": "flightNumber",
              "type": "string"
            },
            {
              "internalType": "string",
              "name": "destination",
              "type": "string"
            },
            {
              "internalType": "string",
              "name": "airlineName",
              "type": "string"
            }
          ],
          "internalType": "struct FlightSuretyApp.Flight[]",
          "name": "",
          "type": "tuple[]"
        }
      ],
      "stateMutability": "view",
      "type": "function"
    },
    {
      "inputs": [],
      "name": "getMyIndexes",
      "outputs": [
        {
          "internalType": "uint8[3]",
          "name": "",
          "type": "uint8[3]"
        }
      ],
      "stateMutability": "view",
      "type": "function"
    },
    {
      "inputs": [],
      "name": "getPassengerAddresses",
      "outputs": [
        {
          "internalType": "address[]",
          "name": "",
          "type": "address[]"
        }
      ],
      "stateMutability": "view",
      "type": "function"
    },
    {
      "inputs": [
        {
          "internalType": "address",
          "name": "_airlineAddress",
          "type": "address"
        }
      ],
      "name": "getVotes",
      "outputs": [
        {
          "internalType": "uint256",
          "name": "",
          "type": "uint256"
        }
      ],
      "stateMutability": "view",
      "type": "function"
    },
    {
      "inputs": [
        {
          "internalType": "address",
          "name": "_airlineAddress",
          "type": "address"
        }
      ],
      "name": "isAirlineRegistered",
      "outputs": [
        {
          "internalType": "bool",
          "name": "",
          "type": "bool"
        }
      ],
      "stateMutability": "view",
      "type": "function"
    },
    {
      "inputs": [],
      "name": "isOperational",
      "outputs": [
        {
          "internalType": "bool",
          "name": "",
          "type": "bool"
        }
      ],
      "stateMutability": "view",
      "type": "function"
    },
    {
      "inputs": [
        {
          "internalType": "string",
          "name": "flightNumber",
          "type": "string"
        }
      ],
      "name": "pay",
      "outputs": [],
      "stateMutability": "nonpayable",
      "type": "function"
    },
    {
      "inputs": [
        {
          "internalType": "address",
          "name": "_airlineAddress",
          "type": "address"
        },
        {
          "internalType": "string",
          "name": "_name",
          "type": "string"
        }
      ],
      "name": "registerAirline",
      "outputs": [],
      "stateMutability": "nonpayable",
      "type": "function"
    },
    {
      "inputs": [
        {
          "internalType": "string",
          "name": "flightNumber",
          "type": "string"
        },
        {
          "internalType": "string",
          "name": "destination",
          "type": "string"
        },
        {
          "internalType": "uint256",
          "name": "timestamp",
          "type": "uint256"
        }
      ],
      "name": "registerFlight",
      "outputs": [],
      "stateMutability": "nonpayable",
      "type": "function"
    },
    {
      "inputs": [],
      "name": "registerOracle",
      "outputs": [],
      "stateMutability": "payable",
      "type": "function"
    },
    {
      "inputs": [
        {
          "internalType": "address",
          "name": "_airlineAddress",
          "type": "address"
        },
        {
          "internalType": "uint256",
          "name": "amount",
          "type": "uint256"
        }
      ],
      "name": "setAirlineFunding",
      "outputs": [],
      "stateMutability": "nonpayable",
      "type": "function"
    },
    {
      "inputs": [
        {
          "internalType": "address",
          "name": "_airlineAddress",
          "type": "address"
        },
        {
          "internalType": "address",
          "name": "voter",
          "type": "address"
        }
      ],
      "name": "setAirlineVoters",
      "outputs": [],
      "stateMutability": "nonpayable",
      "type": "function"
    },
    {
      "inputs": [
        {
          "internalType": "string",
          "name": "flightNumber",
          "type": "string"
        }
      ],
      "name": "setFlightExistsStatus",
      "outputs": [],
      "stateMutability": "nonpayable",
      "type": "function"
    },
    {
      "inputs": [
        {
          "internalType": "bool",
          "name": "mode",
          "type": "bool"
        }
      ],
      "name": "setOperatingStatus",
      "outputs": [],
      "stateMutability": "nonpayable",
      "type": "function"
    },
    {
      "inputs": [
        {
          "internalType": "address",
          "name": "_airlineAddress",
          "type": "address"
        }
      ],
      "name": "setVotes",
      "outputs": [],
      "stateMutability": "nonpayable",
      "type": "function"
    },
    {
      "inputs": [
        {
          "internalType": "uint8",
          "name": "index",
          "type": "uint8"
        },
        {
          "internalType": "address",
          "name": "airline",
          "type": "address"
        },
        {
          "internalType": "string",
          "name": "flight",
          "type": "string"
        },
        {
          "internalType": "uint256",
          "name": "timestamp",
          "type": "uint256"
        },
        {
          "internalType": "uint8",
          "name": "statusCode",
          "type": "uint8"
        }
      ],
      "name": "submitOracleResponse",
      "outputs": [],
      "stateMutability": "nonpayable",
      "type": "function"
    },
    {
      "inputs": [
        {
          "internalType": "string",
          "name": "flight",
          "type": "string"
        },
        {
          "internalType": "address",
          "name": "airline",
          "type": "address"
        }
      ],
      "name": "viewFlightStatus",
      "outputs": [
        {
          "internalType": "uint8",
          "name": "",
          "type": "uint8"
        }
      ],
      "stateMutability": "view",
      "type": "function"
    },
    {
      "inputs": [
        {
          "internalType": "address",
          "name": "_airlineAddress",
          "type": "address"
        }
      ],
      "name": "voteAirline",
      "outputs": [],
      "stateMutability": "nonpayable",
      "type": "function"
    },
    {
      "stateMutability": "payable",
      "type": "receive"
    }
  ],
  "bytecode": "0x60806040526001600260006101000a81548160ff0219169083151502179055506000600a60006101000a81548160ff021916908360ff1602179055503480156200004857600080fd5b50604051620060753803806200607583398181016040528101906200006e9190620002ff565b80336000806101000a81548173ffffffffffffffffffffffffffffffffffffffff021916908373ffffffffffffffffffffffffffffffffffffffff16021790555060405180606001604052806040518060400160405280600b81526020017f47656e657369732041697200000000000000000000000000000000000000000081525081526020016001151581526020016000815250600460008373ffffffffffffffffffffffffffffffffffffffff1673ffffffffffffffffffffffffffffffffffffffff1681526020019081526020016000206000820151816000019081620001599190620005ab565b5060208201518160010160006101000a81548160ff021916908315150217905550604082015181600201559050506001600760008373ffffffffffffffffffffffffffffffffffffffff1673ffffffffffffffffffffffffffffffffffffffff168152602001908152602001600020819055506001600760008060009054906101000a900473ffffffffffffffffffffffffffffffffffffffff1673ffffffffffffffffffffffffffffffffffffffff1673ffffffffffffffffffffffffffffffffffffffff16815260200190815260200160002081905550600160008154809291906200024790620006c1565b91905055505033600a60016101000a81548173ffffffffffffffffffffffffffffffffffffffff021916908373ffffffffffffffffffffffffffffffffffffffff160217905550506200070e565b600080fd5b600073ffffffffffffffffffffffffffffffffffffffff82169050919050565b6000620002c7826200029a565b9050919050565b620002d981620002ba565b8114620002e557600080fd5b50565b600081519050620002f981620002ce565b92915050565b60006020828403121562000318576200031762000295565b5b60006200032884828501620002e8565b91505092915050565b600081519050919050565b7f4e487b7100000000000000000000000000000000000000000000000000000000600052604160045260246000fd5b7f4e487b7100000000000000000000000000000000000000000000000000000000600052602260045260246000fd5b60006002820490506001821680620003b357607f821691505b602082108103620003c957620003c86200036b565b5b50919050565b60008190508160005260206000209050919050565b60006020601f8301049050919050565b600082821b905092915050565b600060088302620004337fffffffffffffffffffffffffffffffffffffffffffffffffffffffffffffffff82620003f4565b6200043f8683620003f4565b95508019841693508086168417925050509392505050565b6000819050919050565b6000819050919050565b60006200048c62000486620004808462000457565b62000461565b62000457565b9050919050565b6000819050919050565b620004a8836200046b565b620004c0620004b78262000493565b84845462000401565b825550505050565b600090565b620004d7620004c8565b620004e48184846200049d565b505050565b5b818110156200050c5762000500600082620004cd565b600181019050620004ea565b5050565b601f8211156200055b576200052581620003cf565b6200053084620003e4565b8101602085101562000540578190505b620005586200054f85620003e4565b830182620004e9565b50505b505050565b600082821c905092915050565b6000620005806000198460080262000560565b1980831691505092915050565b60006200059b83836200056d565b9150826002028217905092915050565b620005b68262000331565b67ffffffffffffffff811115620005d257620005d16200033c565b5b620005de82546200039a565b620005eb82828562000510565b600060209050601f8311600181146200062357600084156200060e578287015190505b6200061a85826200058d565b8655506200068a565b601f1984166200063386620003cf565b60005b828110156200065d5784890151825560018201915060208501945060208101905062000636565b868310156200067d578489015162000679601f8916826200056d565b8355505b6001600288020188555050505b505050505050565b7f4e487b7100000000000000000000000000000000000000000000000000000000600052601160045260246000fd5b6000620006ce8262000457565b91507fffffffffffffffffffffffffffffffffffffffffffffffffffffffffffffffff820362000703576200070262000692565b5b600182019050919050565b615957806200071e6000396000f3fe6080604052600436106102085760003560e01c806349b2480711610118578063a1a5faf1116100a0578063cd905dff1161006f578063cd905dff1461074f578063d8ab5b891461077a578063ebc5c8ea146107a3578063ee38a749146107e0578063f83f11c01461080957610217565b8063a1a5faf1146106b6578063b5bb52d7146106df578063b60d42881461071c578063c10f27001461072657610217565b806364b4f751116100e757806364b4f751146105a7578063720c7cbb146105d257806394c260ee1461061157806394e2177a1461063c5780639ab24eb01461067957610217565b806349b24807146104ed5780634c8d027414610516578063524b61001461053f5780635f1cc0e61461057c57610217565b80632ca8eb0e1161019b5780633fcf1cf41161016a5780633fcf1cf41461041957806346ee941a14610442578063487d72001461047f578063490e1f66146104a8578063492cc769146104d157610217565b80632ca8eb0e1461037e578063339d2590146103bb57806339004b27146103c55780633afb50d7146103ee57610217565b80631d630670116101d75780631d630670146102d857806329df66cc1461030157806329e18e5d1461032a5780632b66d72e1461035557610217565b8063010c5c971461021c57806305e931f414610259578063110466ed1461028457806312065fe0146102ad57610217565b3661021757610215610832565b005b600080fd5b34801561022857600080fd5b50610243600480360381019061023e9190613a3f565b61096b565b6040516102509190613a87565b60405180910390f35b34801561026557600080fd5b5061026e610a13565b60405161027b9190613abb565b60405180910390f35b34801561029057600080fd5b506102ab60048036038101906102a69190613b02565b610a6c565b005b3480156102b957600080fd5b506102c2610b17565b6040516102cf9190613abb565b60405180910390f35b3480156102e457600080fd5b506102ff60048036038101906102fa9190613c75565b610b6e565b005b34801561030d57600080fd5b5061032860048036038101906103239190613cbe565b610bf7565b005b34801561033657600080fd5b5061033f610d85565b60405161034c9190613abb565b60405180910390f35b34801561036157600080fd5b5061037c60048036038101906103779190613c75565b610d91565b005b34801561038a57600080fd5b506103a560048036038101906103a09190613c75565b610fe9565b6040516103b29190613abb565b60405180910390f35b6103c3611086565b005b3480156103d157600080fd5b506103ec60048036038101906103e79190613a3f565b611173565b005b3480156103fa57600080fd5b506104036111cd565b6040516104109190613dd8565b60405180910390f35b34801561042557600080fd5b50610440600480360381019061043b9190613c75565b6112aa565b005b34801561044e57600080fd5b5061046960048036038101906104649190613a3f565b611496565b6040516104769190613dd8565b60405180910390f35b34801561048b57600080fd5b506104a660048036038101906104a19190613a3f565b6115b2565b005b3480156104b457600080fd5b506104cf60048036038101906104ca9190613e26565b61171a565b005b6104eb60048036038101906104e69190613c75565b6117c6565b005b3480156104f957600080fd5b50610514600480360381019061050f9190613e66565b611b8f565b005b34801561052257600080fd5b5061053d60048036038101906105389190613ef1565b611e8a565b005b34801561054b57600080fd5b5061056660048036038101906105619190613a3f565b611f7d565b6040516105739190613fb0565b60405180910390f35b34801561058857600080fd5b506105916120a0565b60405161059e919061408a565b60405180910390f35b3480156105b357600080fd5b506105bc6121e0565b6040516105c99190613abb565b60405180910390f35b3480156105de57600080fd5b506105f960048036038101906105f49190613a3f565b6121ec565b604051610608939291906140a5565b60405180910390f35b34801561061d57600080fd5b50610626612362565b60405161063391906142b7565b60405180910390f35b34801561064857600080fd5b50610663600480360381019061065e9190613a3f565b61269b565b6040516106709190613abb565b60405180910390f35b34801561068557600080fd5b506106a0600480360381019061069b9190613a3f565b612736565b6040516106ad9190613abb565b60405180910390f35b3480156106c257600080fd5b506106dd60048036038101906106d89190613a3f565b6127ce565b005b3480156106eb57600080fd5b50610706600480360381019061070191906142d9565b612934565b6040516107139190614344565b60405180910390f35b610724610832565b005b34801561073257600080fd5b5061074d6004803603810190610748919061438b565b6129df565b005b34801561075b57600080fd5b50610764612d6e565b6040516107719190613a87565b60405180910390f35b34801561078657600080fd5b506107a1600480360381019061079c9190613a3f565b612d85565b005b3480156107af57600080fd5b506107ca60048036038101906107c59190613c75565b612fc2565b6040516107d79190613a87565b60405180910390f35b3480156107ec57600080fd5b5061080760048036038101906108029190613cbe565b613046565b005b34801561081557600080fd5b50610830600480360381019061082b9190614422565b613311565b005b600260009054906101000a900460ff16610881576040517f08c379a000000000000000000000000000000000000000000000000000000000815260040161087890614503565b60405180910390fd5b600460003373ffffffffffffffffffffffffffffffffffffffff1673ffffffffffffffffffffffffffffffffffffffff16815260200190815260200160002060010160009054906101000a900460ff16610910576040517f08c379a00000000000000000000000000000000000000000000000000000000081526004016109079061456f565b60405180910390fd5b34600460003373ffffffffffffffffffffffffffffffffffffffff1673ffffffffffffffffffffffffffffffffffffffff168152602001908152602001600020600201600082825461096291906145be565b92505081905550565b6000600260009054906101000a900460ff166109bc576040517f08c379a00000000000000000000000000000000000000000000000000000000081526004016109b390614503565b60405180910390fd5b600460008373ffffffffffffffffffffffffffffffffffffffff1673ffffffffffffffffffffffffffffffffffffffff16815260200190815260200160002060010160009054906101000a900460ff169050919050565b6000600260009054906101000a900460ff16610a64576040517f08c379a0000000000000000000000000000000000000000000000000000000008152600401610a5b90614503565b60405180910390fd5b600154905090565b60008054906101000a900473ffffffffffffffffffffffffffffffffffffffff1673ffffffffffffffffffffffffffffffffffffffff163373ffffffffffffffffffffffffffffffffffffffff1614610afa576040517f08c379a0000000000000000000000000000000000000000000000000000000008152600401610af19061463e565b60405180910390fd5b80600260006101000a81548160ff02191690831515021790555050565b6000600260009054906101000a900460ff16610b68576040517f08c379a0000000000000000000000000000000000000000000000000000000008152600401610b5f90614503565b60405180910390fd5b47905090565b600260009054906101000a900460ff16610bbd576040517f08c379a0000000000000000000000000000000000000000000000000000000008152600401610bb490614503565b60405180910390fd5b6001600882604051610bcf919061469a565b908152602001604051809103902060006101000a81548160ff02191690831515021790555050565b600260009054906101000a900460ff16610c46576040517f08c379a0000000000000000000000000000000000000000000000000000000008152600401610c3d90614503565b60405180910390fd5b6001600760003373ffffffffffffffffffffffffffffffffffffffff1673ffffffffffffffffffffffffffffffffffffffff1681526020019081526020016000205414610cc8576040517f08c379a0000000000000000000000000000000000000000000000000000000008152600401610cbf906146fd565b60405180910390fd5b60405180606001604052808281526020016001151581526020016000815250600460008473ffffffffffffffffffffffffffffffffffffffff1673ffffffffffffffffffffffffffffffffffffffff1681526020019081526020016000206000820151816000019081610d3b9190614929565b5060208201518160010160006101000a81548160ff0219169083151502179055506040820151816002015590505060016000815480929190610d7c906149fb565b91905055505050565b670de0b6b3a764000081565b600260009054906101000a900460ff16610de0576040517f08c379a0000000000000000000000000000000000000000000000000000000008152600401610dd790614503565b60405180910390fd5b3273ffffffffffffffffffffffffffffffffffffffff163373ffffffffffffffffffffffffffffffffffffffff1614610e4e576040517f08c379a0000000000000000000000000000000000000000000000000000000008152600401610e4590614ab5565b60405180910390fd5b60008133604051602001610e63929190614b1d565b6040516020818303038152906040528051906020012090506000600960008381526020019081526020016000206002015411610ed4576040517f08c379a0000000000000000000000000000000000000000000000000000000008152600401610ecb90614b91565b60405180910390fd5b600060096000838152602001908152602001600020600201549050804711610f31576040517f08c379a0000000000000000000000000000000000000000000000000000000008152600401610f2890614c23565b60405180910390fd5b600060096000848152602001908152602001600020600201819055503373ffffffffffffffffffffffffffffffffffffffff166108fc829081150290604051600060405180830381858888f19350505050158015610f93573d6000803e3d6000fd5b503373ffffffffffffffffffffffffffffffffffffffff167f37821217243a9021d21d3064ee513839a726184e5a5ec6068a9faf8213fad23d8483604051610fdc929190614c43565b60405180910390a2505050565b6000600260009054906101000a900460ff1661103a576040517f08c379a000000000000000000000000000000000000000000000000000000000815260040161103190614503565b60405180910390fd5b6000823360405160200161104f929190614b1d565b6040516020818303038152906040528051906020012090506009600082815260200190815260200160002060020154915050919050565b670de0b6b3a76400003410156110d1576040517f08c379a00000000000000000000000000000000000000000000000000000000081526004016110c890614cbf565b60405180910390fd5b60006110dc336134a2565b9050604051806040016040528060011515815260200182815250600e60003373ffffffffffffffffffffffffffffffffffffffff1673ffffffffffffffffffffffffffffffffffffffff16815260200190815260200160002060008201518160000160006101000a81548160ff02191690831515021790555060208201518160010190600361116c92919061389c565b5090505050565b6001600560008373ffffffffffffffffffffffffffffffffffffffff1673ffffffffffffffffffffffffffffffffffffffff16815260200190815260200160002060008282546111c391906145be565b9250508190555050565b6060600260009054906101000a900460ff1661121e576040517f08c379a000000000000000000000000000000000000000000000000000000000815260040161121590614503565b60405180910390fd5b60038054806020026020016040519081016040528092919081815260200182805480156112a057602002820191906000526020600020905b8160009054906101000a900473ffffffffffffffffffffffffffffffffffffffff1673ffffffffffffffffffffffffffffffffffffffff1681526020019060010190808311611256575b5050505050905090565b600260009054906101000a900460ff166112f9576040517f08c379a00000000000000000000000000000000000000000000000000000000081526004016112f090614503565b60405180910390fd5b6000600380549050905060005b81811015611491576000836003838154811061132557611324614cdf565b5b9060005260206000200160009054906101000a900473ffffffffffffffffffffffffffffffffffffffff16604051602001611361929190614b1d565b604051602081830303815290604052805190602001209050600073ffffffffffffffffffffffffffffffffffffffff166009600083815260200190815260200160002060000160009054906101000a900473ffffffffffffffffffffffffffffffffffffffff1673ffffffffffffffffffffffffffffffffffffffff161461147d57600060096000838152602001908152602001600020905060008160020154905060008260010187604051611417919061469a565b90815260200160405180910390205490506000836001018860405161143c919061469a565b90815260200160405180910390208190555060028161145b9190614d3d565b8161146691906145be565b8261147191906145be565b83600201819055505050505b508080611489906149fb565b915050611306565b505050565b6060600260009054906101000a900460ff166114e7576040517f08c379a00000000000000000000000000000000000000000000000000000000081526004016114de90614503565b60405180910390fd5b600660008373ffffffffffffffffffffffffffffffffffffffff1673ffffffffffffffffffffffffffffffffffffffff1681526020019081526020016000208054806020026020016040519081016040528092919081815260200182805480156115a657602002820191906000526020600020905b8160009054906101000a900473ffffffffffffffffffffffffffffffffffffffff1673ffffffffffffffffffffffffffffffffffffffff168152602001906001019080831161155c575b50505050509050919050565b60008054906101000a900473ffffffffffffffffffffffffffffffffffffffff1673ffffffffffffffffffffffffffffffffffffffff163373ffffffffffffffffffffffffffffffffffffffff1614611640576040517f08c379a00000000000000000000000000000000000000000000000000000000081526004016116379061463e565b60405180910390fd5b600260009054906101000a900460ff1661168f576040517f08c379a000000000000000000000000000000000000000000000000000000000815260040161168690614503565b60405180910390fd5b6001600760008373ffffffffffffffffffffffffffffffffffffffff1673ffffffffffffffffffffffffffffffffffffffff168152602001908152602001600020819055508073ffffffffffffffffffffffffffffffffffffffff167f2c74592fddad593c2c4403101ce9b30930711ab87571268ddd1e1989ee1d791760405160405180910390a250565b600260009054906101000a900460ff16611769576040517f08c379a000000000000000000000000000000000000000000000000000000000815260040161176090614503565b60405180910390fd5b80600460008473ffffffffffffffffffffffffffffffffffffffff1673ffffffffffffffffffffffffffffffffffffffff16815260200190815260200160002060020160008282546117bb91906145be565b925050819055505050565b600260009054906101000a900460ff16611815576040517f08c379a000000000000000000000000000000000000000000000000000000000815260040161180c90614503565b60405180910390fd5b600881604051611825919061469a565b908152602001604051809103902060009054906101000a900460ff16611880576040517f08c379a000000000000000000000000000000000000000000000000000000000815260040161187790614dba565b60405180910390fd5b3273ffffffffffffffffffffffffffffffffffffffff163373ffffffffffffffffffffffffffffffffffffffff16146118ee576040517f08c379a00000000000000000000000000000000000000000000000000000000081526004016118e590614ab5565b60405180910390fd5b60003411611931576040517f08c379a000000000000000000000000000000000000000000000000000000000815260040161192890614e4c565b60405180910390fd5b670de0b6b3a764000034111561197c576040517f08c379a000000000000000000000000000000000000000000000000000000000815260040161197390614ede565b60405180910390fd5b60008133604051602001611991929190614b1d565b604051602081830303815290604052805190602001209050600073ffffffffffffffffffffffffffffffffffffffff166009600083815260200190815260200160002060000160009054906101000a900473ffffffffffffffffffffffffffffffffffffffff1673ffffffffffffffffffffffffffffffffffffffff1614611a4e576040517f08c379a0000000000000000000000000000000000000000000000000000000008152600401611a4590614f4a565b60405180910390fd5b6000600960008381526020019081526020016000209050338160000160006101000a81548173ffffffffffffffffffffffffffffffffffffffff021916908373ffffffffffffffffffffffffffffffffffffffff16021790555060008160020181905550348160010184604051611ac5919061469a565b9081526020016040518091039020819055506003339080600181540180825580915050600190039060005260206000200160009091909190916101000a81548173ffffffffffffffffffffffffffffffffffffffff021916908373ffffffffffffffffffffffffffffffffffffffff1602179055503373ffffffffffffffffffffffffffffffffffffffff167f26ad90fbc61f14a22f36e3f307f548d6d4cb6193ec8fdfd8903077e2e3d8953d8434604051611b82929190614c43565b60405180910390a2505050565b600260009054906101000a900460ff16611bde576040517f08c379a0000000000000000000000000000000000000000000000000000000008152600401611bd590614503565b60405180910390fd5b60008333604051602001611bf3929190614b1d565b604051602081830303815290604052805190602001209050600c600082815260200190815260200160002060000160009054906101000a900460ff1615611c6f576040517f08c379a0000000000000000000000000000000000000000000000000000000008152600401611c6690614fb6565b60405180910390fd5b678ac7230489e80000611c813361269b565b1015611cc2576040517f08c379a0000000000000000000000000000000000000000000000000000000008152600401611cb99061506e565b60405180910390fd5b6040518060e00160405280600115158152602001600a60ff1681526020018381526020013373ffffffffffffffffffffffffffffffffffffffff168152602001858152602001848152602001611d1733611f7d565b815250600c600083815260200190815260200160002060008201518160000160006101000a81548160ff02191690831515021790555060208201518160000160016101000a81548160ff021916908360ff1602179055506040820151816001015560608201518160020160006101000a81548173ffffffffffffffffffffffffffffffffffffffff021916908373ffffffffffffffffffffffffffffffffffffffff1602179055506080820151816003019081611dd49190614929565b5060a0820151816004019081611dea9190614929565b5060c0820151816005019081611e009190614929565b50905050611e0d84610b6e565b600b8190806001815401808255809150506001900390600052602060002001600090919091909150553373ffffffffffffffffffffffffffffffffffffffff167f1fdc292e3ea5cee43214c05c8e59fe9f90da27d2d40efe99499147c28463fa3485604051611e7c9190613fb0565b60405180910390a250505050565b600260009054906101000a900460ff16611ed9576040517f08c379a0000000000000000000000000000000000000000000000000000000008152600401611ed090614503565b60405180910390fd5b600660008373ffffffffffffffffffffffffffffffffffffffff1673ffffffffffffffffffffffffffffffffffffffff168152602001908152602001600020819080600181540180825580915050600190039060005260206000200160009091909190916101000a81548173ffffffffffffffffffffffffffffffffffffffff021916908373ffffffffffffffffffffffffffffffffffffffff1602179055505050565b6060600260009054906101000a900460ff16611fce576040517f08c379a0000000000000000000000000000000000000000000000000000000008152600401611fc590614503565b60405180910390fd5b600460008373ffffffffffffffffffffffffffffffffffffffff1673ffffffffffffffffffffffffffffffffffffffff168152602001908152602001600020600001805461201b9061474c565b80601f01602080910402602001604051908101604052809291908181526020018280546120479061474c565b80156120945780601f1061206957610100808354040283529160200191612094565b820191906000526020600020905b81548152906001019060200180831161207757829003601f168201915b50505050509050919050565b6120a8613936565b600e60003373ffffffffffffffffffffffffffffffffffffffff1673ffffffffffffffffffffffffffffffffffffffff16815260200190815260200160002060000160009054906101000a900460ff16612137576040517f08c379a000000000000000000000000000000000000000000000000000000000815260040161212e906150da565b60405180910390fd5b600e60003373ffffffffffffffffffffffffffffffffffffffff1673ffffffffffffffffffffffffffffffffffffffff1681526020019081526020016000206001016003806020026040519081016040528092919082600380156121d6576020028201916000905b82829054906101000a900460ff1660ff168152602001906001019060208260000104928301926001038202915080841161219f5790505b5050505050905090565b670de0b6b3a764000081565b6060600080600260009054906101000a900460ff16612240576040517f08c379a000000000000000000000000000000000000000000000000000000000815260040161223790614503565b60405180910390fd5b6000600460008673ffffffffffffffffffffffffffffffffffffffff1673ffffffffffffffffffffffffffffffffffffffff16815260200190815260200160002060405180606001604052908160008201805461229c9061474c565b80601f01602080910402602001604051908101604052809291908181526020018280546122c89061474c565b80156123155780601f106122ea57610100808354040283529160200191612315565b820191906000526020600020905b8154815290600101906020018083116122f857829003601f168201915b505050505081526020016001820160009054906101000a900460ff161515151581526020016002820154815250509050806000015193508060200151925080604001519150509193909250565b60606000600b80549050905060008167ffffffffffffffff81111561238a57612389613b4a565b5b6040519080825280602002602001820160405280156123c357816020015b6123b0613958565b8152602001906001900390816123a85790505b50905060005b82811015612692576000600b82815481106123e7576123e6614cdf565b5b90600052602060002001549050600c60008281526020019081526020016000206040518060e00160405290816000820160009054906101000a900460ff161515151581526020016000820160019054906101000a900460ff1660ff1660ff168152602001600182015481526020016002820160009054906101000a900473ffffffffffffffffffffffffffffffffffffffff1673ffffffffffffffffffffffffffffffffffffffff1673ffffffffffffffffffffffffffffffffffffffff1681526020016003820180546124ba9061474c565b80601f01602080910402602001604051908101604052809291908181526020018280546124e69061474c565b80156125335780601f1061250857610100808354040283529160200191612533565b820191906000526020600020905b81548152906001019060200180831161251657829003601f168201915b5050505050815260200160048201805461254c9061474c565b80601f01602080910402602001604051908101604052809291908181526020018280546125789061474c565b80156125c55780601f1061259a576101008083540402835291602001916125c5565b820191906000526020600020905b8154815290600101906020018083116125a857829003601f168201915b505050505081526020016005820180546125de9061474c565b80601f016020809104026020016040519081016040528092919081815260200182805461260a9061474c565b80156126575780601f1061262c57610100808354040283529160200191612657565b820191906000526020600020905b81548152906001019060200180831161263a57829003601f168201915b50505050508152505083838151811061267357612672614cdf565b5b602002602001018190525050808061268a906149fb565b9150506123c9565b50809250505090565b6000600260009054906101000a900460ff166126ec576040517f08c379a00000000000000000000000000000000000000000000000000000000081526004016126e390614503565b60405180910390fd5b600460008373ffffffffffffffffffffffffffffffffffffffff1673ffffffffffffffffffffffffffffffffffffffff168152602001908152602001600020600201549050919050565b6000600260009054906101000a900460ff16612787576040517f08c379a000000000000000000000000000000000000000000000000000000000815260040161277e90614503565b60405180910390fd5b600560008373ffffffffffffffffffffffffffffffffffffffff1673ffffffffffffffffffffffffffffffffffffffff168152602001908152602001600020549050919050565b60008054906101000a900473ffffffffffffffffffffffffffffffffffffffff1673ffffffffffffffffffffffffffffffffffffffff163373ffffffffffffffffffffffffffffffffffffffff161461285c576040517f08c379a00000000000000000000000000000000000000000000000000000000081526004016128539061463e565b60405180910390fd5b600260009054906101000a900460ff166128ab576040517f08c379a00000000000000000000000000000000000000000000000000000000081526004016128a290614503565b60405180910390fd5b600760008273ffffffffffffffffffffffffffffffffffffffff1673ffffffffffffffffffffffffffffffffffffffff168152602001908152602001600020600090558073ffffffffffffffffffffffffffffffffffffffff167fd5cf915bcf19ee4a2edf05f0add6e4520e02eda58f4b4a99387be2a7ae79cefb60405160405180910390a250565b6000600260009054906101000a900460ff16612985576040517f08c379a000000000000000000000000000000000000000000000000000000000815260040161297c90614503565b60405180910390fd5b6000838360405160200161299a929190614b1d565b604051602081830303815290604052805190602001209050600c600082815260200190815260200160002060000160019054906101000a900460ff1691505092915050565b8460ff16600e60003373ffffffffffffffffffffffffffffffffffffffff1673ffffffffffffffffffffffffffffffffffffffff168152602001908152602001600020600101600060038110612a3857612a37614cdf565b5b602091828204019190069054906101000a900460ff1660ff161480612acc57508460ff16600e60003373ffffffffffffffffffffffffffffffffffffffff1673ffffffffffffffffffffffffffffffffffffffff168152602001908152602001600020600101600160038110612ab157612ab0614cdf565b5b602091828204019190069054906101000a900460ff1660ff16145b80612b4657508460ff16600e60003373ffffffffffffffffffffffffffffffffffffffff1673ffffffffffffffffffffffffffffffffffffffff168152602001908152602001600020600101600260038110612b2b57612b2a614cdf565b5b602091828204019190069054906101000a900460ff1660ff16145b612b85576040517f08c379a0000000000000000000000000000000000000000000000000000000008152600401612b7c9061516c565b60405180910390fd5b600085858585604051602001612b9e94939291906151e3565b604051602081830303815290604052805190602001209050600d600082815260200190815260200160002060000160149054906101000a900460ff16612c19576040517f08c379a0000000000000000000000000000000000000000000000000000000008152600401612c109061529f565b60405180910390fd5b600d600082815260200190815260200160002060010160008360ff1660ff168152602001908152602001600020339080600181540180825580915050600190039060005260206000200160009091909190916101000a81548173ffffffffffffffffffffffffffffffffffffffff021916908373ffffffffffffffffffffffffffffffffffffffff1602179055507f43c853095c2752648493c88b4baac4d580d2594ffb00c6f1d4242d844514f78385858585604051612cdc94939291906152ce565b60405180910390a16003600d600083815260200190815260200160002060010160008460ff1660ff1681526020019081526020016000208054905010612d66577fe23f5229de535c091e3b7bec2665f5d698192d3b31393066e8987b7a05076b6c85858585604051612d5194939291906152ce565b60405180910390a1612d6585858585613688565b5b505050505050565b6000600260009054906101000a900460ff16905090565b600260009054906101000a900460ff16612dd4576040517f08c379a0000000000000000000000000000000000000000000000000000000008152600401612dcb90614503565b60405180910390fd5b678ac7230489e80000612de63361269b565b1015612e27576040517f08c379a0000000000000000000000000000000000000000000000000000000008152600401612e1e906153b2565b60405180910390fd5b600073ffffffffffffffffffffffffffffffffffffffff168173ffffffffffffffffffffffffffffffffffffffff1603612e96576040517f08c379a0000000000000000000000000000000000000000000000000000000008152600401612e8d9061541e565b60405180910390fd5b612e9f8161096b565b15612edf576040517f08c379a0000000000000000000000000000000000000000000000000000000008152600401612ed69061548a565b60405180910390fd5b6000612eea82611496565b90506000815190506000805b82811015612f67573373ffffffffffffffffffffffffffffffffffffffff16848281518110612f2857612f27614cdf565b5b602002602001015173ffffffffffffffffffffffffffffffffffffffff1603612f545760019150612f67565b8080612f5f906149fb565b915050612ef6565b508015612fa9576040517f08c379a0000000000000000000000000000000000000000000000000000000008152600401612fa09061551c565b60405180910390fd5b612fb284611173565b612fbc8433611e8a565b50505050565b6000600260009054906101000a900460ff16613013576040517f08c379a000000000000000000000000000000000000000000000000000000000815260040161300a90614503565b60405180910390fd5b600882604051613023919061469a565b908152602001604051809103902060009054906101000a900460ff169050919050565b600260009054906101000a900460ff16613095576040517f08c379a000000000000000000000000000000000000000000000000000000000815260040161308c90614503565b60405180910390fd5b600073ffffffffffffffffffffffffffffffffffffffff168273ffffffffffffffffffffffffffffffffffffffff1603613104576040517f08c379a00000000000000000000000000000000000000000000000000000000081526004016130fb9061541e565b60405180910390fd5b61310d8261096b565b1561314d576040517f08c379a00000000000000000000000000000000000000000000000000000000081526004016131449061548a565b60405180910390fd5b6000613157610a13565b9050600460ff16811161325c5761316d3361096b565b6131ac576040517f08c379a00000000000000000000000000000000000000000000000000000000081526004016131a3906155ae565b60405180910390fd5b678ac7230489e800006131be3361269b565b10156131ff576040517f08c379a00000000000000000000000000000000000000000000000000000000081526004016131f690615666565b60405180910390fd5b6132098383610bf7565b8273ffffffffffffffffffffffffffffffffffffffff167fc8c24e3d7f44f1c6a263a7af6b1d8ec0790ae452bc4d4d3598e5bce0b12be99a8360405161324f9190613fb0565b60405180910390a261330c565b6002816132699190614d3d565b61327284612736565b10156132b3576040517f08c379a00000000000000000000000000000000000000000000000000000000081526004016132aa906156f8565b60405180910390fd5b6132bd8383610bf7565b8273ffffffffffffffffffffffffffffffffffffffff167fc8c24e3d7f44f1c6a263a7af6b1d8ec0790ae452bc4d4d3598e5bce0b12be99a836040516133039190613fb0565b60405180910390a25b505050565b600260009054906101000a900460ff16613360576040517f08c379a000000000000000000000000000000000000000000000000000000000815260040161335790614503565b60405180910390fd5b61336982612fc2565b6133a8576040517f08c379a000000000000000000000000000000000000000000000000000000000815260040161339f90615764565b60405180910390fd5b60006133b3336137d0565b90506000818585856040516020016133ce94939291906151e3565b6040516020818303038152906040528051906020012090506000600d60008381526020019081526020016000209050338160000160006101000a81548173ffffffffffffffffffffffffffffffffffffffff021916908373ffffffffffffffffffffffffffffffffffffffff16021790555060018160000160146101000a81548160ff0219169083151502179055507f3ed01f2c3fc24c6b329d931e35b03e390d23497d22b3f90e15b600343e93df11838787876040516134929493929190615784565b60405180910390a1505050505050565b6134aa613936565b6134b2613936565b6134bb836137d0565b816000600381106134cf576134ce614cdf565b5b602002019060ff16908160ff1681525050806000600381106134f4576134f3614cdf565b5b60200201518160016003811061350d5761350c614cdf565b5b602002019060ff16908160ff16815250505b8060006003811061353357613532614cdf565b5b602002015160ff168160016003811061354f5761354e614cdf565b5b602002015160ff160361358f57613565836137d0565b8160016003811061357957613578614cdf565b5b602002019060ff16908160ff168152505061351f565b806001600381106135a3576135a2614cdf565b5b6020020151816002600381106135bc576135bb614cdf565b5b602002019060ff16908160ff16815250505b806000600381106135e2576135e1614cdf565b5b602002015160ff16816002600381106135fe576135fd614cdf565b5b602002015160ff16148061364757508060016003811061362157613620614cdf565b5b602002015160ff168160026003811061363d5761363c614cdf565b5b602002015160ff16145b1561367f57613655836137d0565b8160026003811061366957613668614cdf565b5b602002019060ff16908160ff16815250506135ce565b80915050919050565b600260009054906101000a900460ff166136d7576040517f08c379a00000000000000000000000000000000000000000000000000000000081526004016136ce90614503565b60405180910390fd5b600083856040516020016136ec929190614b1d565b604051602081830303815290604052805190602001209050600c600082815260200190815260200160002060000160009054906101000a900460ff16613767576040517f08c379a000000000000000000000000000000000000000000000000000000000815260040161375e9061581c565b60405180910390fd5b82600c60008381526020019081526020016000206001018190555081600c600083815260200190815260200160002060000160016101000a81548160ff021916908360ff160217905550601460ff168260ff16036137c9576137c8846112aa565b5b5050505050565b600080600a905060008160ff16600a600081819054906101000a900460ff16809291906137fc9061583c565b91906101000a81548160ff021916908360ff16021790555060ff16436138229190615865565b40856040516020016138359291906158c4565b6040516020818303038152906040528051906020012060001c61385891906158f0565b905060fa600a60009054906101000a900460ff1660ff161115613892576000600a60006101000a81548160ff021916908360ff1602179055505b8092505050919050565b826003601f016020900481019282156139255791602002820160005b838211156138f657835183826101000a81548160ff021916908360ff16021790555092602001926001016020816000010492830192600103026138b8565b80156139235782816101000a81549060ff02191690556001016020816000010492830192600103026138f6565b505b50905061393291906139b0565b5090565b6040518060600160405280600390602082028036833780820191505090505090565b6040518060e00160405280600015158152602001600060ff16815260200160008152602001600073ffffffffffffffffffffffffffffffffffffffff1681526020016060815260200160608152602001606081525090565b5b808211156139c95760008160009055506001016139b1565b5090565b6000604051905090565b600080fd5b600080fd5b600073ffffffffffffffffffffffffffffffffffffffff82169050919050565b6000613a0c826139e1565b9050919050565b613a1c81613a01565b8114613a2757600080fd5b50565b600081359050613a3981613a13565b92915050565b600060208284031215613a5557613a546139d7565b5b6000613a6384828501613a2a565b91505092915050565b60008115159050919050565b613a8181613a6c565b82525050565b6000602082019050613a9c6000830184613a78565b92915050565b6000819050919050565b613ab581613aa2565b82525050565b6000602082019050613ad06000830184613aac565b92915050565b613adf81613a6c565b8114613aea57600080fd5b50565b600081359050613afc81613ad6565b92915050565b600060208284031215613b1857613b176139d7565b5b6000613b2684828501613aed565b91505092915050565b600080fd5b600080fd5b6000601f19601f8301169050919050565b7f4e487b7100000000000000000000000000000000000000000000000000000000600052604160045260246000fd5b613b8282613b39565b810181811067ffffffffffffffff82111715613ba157613ba0613b4a565b5b80604052505050565b6000613bb46139cd565b9050613bc08282613b79565b919050565b600067ffffffffffffffff821115613be057613bdf613b4a565b5b613be982613b39565b9050602081019050919050565b82818337600083830152505050565b6000613c18613c1384613bc5565b613baa565b905082815260208101848484011115613c3457613c33613b34565b5b613c3f848285613bf6565b509392505050565b600082601f830112613c5c57613c5b613b2f565b5b8135613c6c848260208601613c05565b91505092915050565b600060208284031215613c8b57613c8a6139d7565b5b600082013567ffffffffffffffff811115613ca957613ca86139dc565b5b613cb584828501613c47565b91505092915050565b60008060408385031215613cd557613cd46139d7565b5b6000613ce385828601613a2a565b925050602083013567ffffffffffffffff811115613d0457613d036139dc565b5b613d1085828601613c47565b9150509250929050565b600081519050919050565b600082825260208201905092915050565b6000819050602082019050919050565b613d4f81613a01565b82525050565b6000613d618383613d46565b60208301905092915050565b6000602082019050919050565b6000613d8582613d1a565b613d8f8185613d25565b9350613d9a83613d36565b8060005b83811015613dcb578151613db28882613d55565b9750613dbd83613d6d565b925050600181019050613d9e565b5085935050505092915050565b60006020820190508181036000830152613df28184613d7a565b905092915050565b613e0381613aa2565b8114613e0e57600080fd5b50565b600081359050613e2081613dfa565b92915050565b60008060408385031215613e3d57613e3c6139d7565b5b6000613e4b85828601613a2a565b9250506020613e5c85828601613e11565b9150509250929050565b600080600060608486031215613e7f57613e7e6139d7565b5b600084013567ffffffffffffffff811115613e9d57613e9c6139dc565b5b613ea986828701613c47565b935050602084013567ffffffffffffffff811115613eca57613ec96139dc565b5b613ed686828701613c47565b9250506040613ee786828701613e11565b9150509250925092565b60008060408385031215613f0857613f076139d7565b5b6000613f1685828601613a2a565b9250506020613f2785828601613a2a565b9150509250929050565b600081519050919050565b600082825260208201905092915050565b60005b83811015613f6b578082015181840152602081019050613f50565b60008484015250505050565b6000613f8282613f31565b613f8c8185613f3c565b9350613f9c818560208601613f4d565b613fa581613b39565b840191505092915050565b60006020820190508181036000830152613fca8184613f77565b905092915050565b600060039050919050565b600081905092915050565b6000819050919050565b600060ff82169050919050565b61400881613ff2565b82525050565b600061401a8383613fff565b60208301905092915050565b6000602082019050919050565b61403c81613fd2565b6140468184613fdd565b925061405182613fe8565b8060005b83811015614082578151614069878261400e565b965061407483614026565b925050600181019050614055565b505050505050565b600060608201905061409f6000830184614033565b92915050565b600060608201905081810360008301526140bf8186613f77565b90506140ce6020830185613a78565b6140db6040830184613aac565b949350505050565b600081519050919050565b600082825260208201905092915050565b6000819050602082019050919050565b61411881613a6c565b82525050565b61412781613aa2565b82525050565b600082825260208201905092915050565b600061414982613f31565b614153818561412d565b9350614163818560208601613f4d565b61416c81613b39565b840191505092915050565b600060e08301600083015161418f600086018261410f565b5060208301516141a26020860182613fff565b5060408301516141b5604086018261411e565b5060608301516141c86060860182613d46565b50608083015184820360808601526141e0828261413e565b91505060a083015184820360a08601526141fa828261413e565b91505060c083015184820360c0860152614214828261413e565b9150508091505092915050565b600061422d8383614177565b905092915050565b6000602082019050919050565b600061424d826140e3565b61425781856140ee565b935083602082028501614269856140ff565b8060005b858110156142a557848403895281516142868582614221565b945061429183614235565b925060208a0199505060018101905061426d565b50829750879550505050505092915050565b600060208201905081810360008301526142d18184614242565b905092915050565b600080604083850312156142f0576142ef6139d7565b5b600083013567ffffffffffffffff81111561430e5761430d6139dc565b5b61431a85828601613c47565b925050602061432b85828601613a2a565b9150509250929050565b61433e81613ff2565b82525050565b60006020820190506143596000830184614335565b92915050565b61436881613ff2565b811461437357600080fd5b50565b6000813590506143858161435f565b92915050565b600080600080600060a086880312156143a7576143a66139d7565b5b60006143b588828901614376565b95505060206143c688828901613a2a565b945050604086013567ffffffffffffffff8111156143e7576143e66139dc565b5b6143f388828901613c47565b935050606061440488828901613e11565b925050608061441588828901614376565b9150509295509295909350565b60008060006060848603121561443b5761443a6139d7565b5b600061444986828701613a2a565b935050602084013567ffffffffffffffff81111561446a576144696139dc565b5b61447686828701613c47565b925050604061448786828701613e11565b9150509250925092565b7f436f6e74726163742069732063757272656e746c79206e6f74206f706572617460008201527f696f6e616c000000000000000000000000000000000000000000000000000000602082015250565b60006144ed602583613f3c565b91506144f882614491565b604082019050919050565b6000602082019050818103600083015261451c816144e0565b9050919050565b7f4169726c696e65206973206e6f74207265676973746572656400000000000000600082015250565b6000614559601983613f3c565b915061456482614523565b602082019050919050565b600060208201905081810360008301526145888161454c565b9050919050565b7f4e487b7100000000000000000000000000000000000000000000000000000000600052601160045260246000fd5b60006145c982613aa2565b91506145d483613aa2565b92508282019050808211156145ec576145eb61458f565b5b92915050565b7f43616c6c6572206973206e6f7420636f6e7472616374206f776e657200000000600082015250565b6000614628601c83613f3c565b9150614633826145f2565b602082019050919050565b600060208201905081810360008301526146578161461b565b9050919050565b600081905092915050565b600061467482613f31565b61467e818561465e565b935061468e818560208601613f4d565b80840191505092915050565b60006146a68284614669565b915081905092915050565b7f43616c6c6572206973206e6f7420617574686f72697a65643a20000000000000600082015250565b60006146e7601a83613f3c565b91506146f2826146b1565b602082019050919050565b60006020820190508181036000830152614716816146da565b9050919050565b7f4e487b7100000000000000000000000000000000000000000000000000000000600052602260045260246000fd5b6000600282049050600182168061476457607f821691505b6020821081036147775761477661471d565b5b50919050565b60008190508160005260206000209050919050565b60006020601f8301049050919050565b600082821b905092915050565b6000600883026147df7fffffffffffffffffffffffffffffffffffffffffffffffffffffffffffffffff826147a2565b6147e986836147a2565b95508019841693508086168417925050509392505050565b6000819050919050565b600061482661482161481c84613aa2565b614801565b613aa2565b9050919050565b6000819050919050565b6148408361480b565b61485461484c8261482d565b8484546147af565b825550505050565b600090565b61486961485c565b614874818484614837565b505050565b5b818110156148985761488d600082614861565b60018101905061487a565b5050565b601f8211156148dd576148ae8161477d565b6148b784614792565b810160208510156148c6578190505b6148da6148d285614792565b830182614879565b50505b505050565b600082821c905092915050565b6000614900600019846008026148e2565b1980831691505092915050565b600061491983836148ef565b9150826002028217905092915050565b61493282613f31565b67ffffffffffffffff81111561494b5761494a613b4a565b5b614955825461474c565b61496082828561489c565b600060209050601f8311600181146149935760008415614981578287015190505b61498b858261490d565b8655506149f3565b601f1984166149a18661477d565b60005b828110156149c9578489015182556001820191506020850194506020810190506149a4565b868310156149e657848901516149e2601f8916826148ef565b8355505b6001600288020188555050505b505050505050565b6000614a0682613aa2565b91507fffffffffffffffffffffffffffffffffffffffffffffffffffffffffffffffff8203614a3857614a3761458f565b5b600182019050919050565b7f436f6e7472616374732063616e6e6f742063616c6c20746869732066756e637460008201527f696f6e2e00000000000000000000000000000000000000000000000000000000602082015250565b6000614a9f602483613f3c565b9150614aaa82614a43565b604082019050919050565b60006020820190508181036000830152614ace81614a92565b9050919050565b60008160601b9050919050565b6000614aed82614ad5565b9050919050565b6000614aff82614ae2565b9050919050565b614b17614b1282613a01565b614af4565b82525050565b6000614b298285614669565b9150614b358284614b06565b6014820191508190509392505050565b7f4e6f2063726564697420746f2062652077697468647261776e00000000000000600082015250565b6000614b7b601983613f3c565b9150614b8682614b45565b602082019050919050565b60006020820190508181036000830152614baa81614b6e565b9050919050565b7f54686520636f6e747261637420646f6573206e6f74206861766520656e6f756760008201527f682066756e647320746f20706179207468652063726564697400000000000000602082015250565b6000614c0d603983613f3c565b9150614c1882614bb1565b604082019050919050565b60006020820190508181036000830152614c3c81614c00565b9050919050565b60006040820190508181036000830152614c5d8185613f77565b9050614c6c6020830184613aac565b9392505050565b7f526567697374726174696f6e2066656520697320726571756972656400000000600082015250565b6000614ca9601c83613f3c565b9150614cb482614c73565b602082019050919050565b60006020820190508181036000830152614cd881614c9c565b9050919050565b7f4e487b7100000000000000000000000000000000000000000000000000000000600052603260045260246000fd5b7f4e487b7100000000000000000000000000000000000000000000000000000000600052601260045260246000fd5b6000614d4882613aa2565b9150614d5383613aa2565b925082614d6357614d62614d0e565b5b828204905092915050565b7f466c6967687420646f6573206e6f742065786973740000000000000000000000600082015250565b6000614da4601583613f3c565b9150614daf82614d6e565b602082019050919050565b60006020820190508181036000830152614dd381614d97565b9050919050565b7f416d6f756e74206e6565647320746f2062652067726561746572207468616e2060008201527f3000000000000000000000000000000000000000000000000000000000000000602082015250565b6000614e36602183613f3c565b9150614e4182614dda565b604082019050919050565b60006020820190508181036000830152614e6581614e29565b9050919050565b7f43616e6e6f7420627579206d6f7265207468616e203120455448206f6620696e60008201527f737572616e636500000000000000000000000000000000000000000000000000602082015250565b6000614ec8602783613f3c565b9150614ed382614e6c565b604082019050919050565b60006020820190508181036000830152614ef781614ebb565b9050919050565b7f416c726561647920696e737572656420666f72207468697320666c6967687400600082015250565b6000614f34601f83613f3c565b9150614f3f82614efe565b602082019050919050565b60006020820190508181036000830152614f6381614f27565b9050919050565b7f466c6967687420697320616c726561647920726567697374657265642e000000600082015250565b6000614fa0601d83613f3c565b9150614fab82614f6a565b602082019050919050565b60006020820190508181036000830152614fcf81614f93565b9050919050565b7f4169726c696e6520646f6573206e6f74206d656574206d696e696d756d20667560008201527f6e64696e6720746f207265676973746572206120666c696768742e20436f6e7460208201527f7261637420676f7665726e616e63652064656e69656421212100000000000000604082015250565b6000615058605983613f3c565b915061506382614fd6565b606082019050919050565b600060208201905081810360008301526150878161504b565b9050919050565b7f4e6f74207265676973746572656420617320616e206f7261636c650000000000600082015250565b60006150c4601b83613f3c565b91506150cf8261508e565b602082019050919050565b600060208201905081810360008301526150f3816150b7565b9050919050565b7f496e64657820646f6573206e6f74206d61746368206f7261636c65207265717560008201527f6573740000000000000000000000000000000000000000000000000000000000602082015250565b6000615156602383613f3c565b9150615161826150fa565b604082019050919050565b6000602082019050818103600083015261518581615149565b9050919050565b60008160f81b9050919050565b60006151a48261518c565b9050919050565b6151bc6151b782613ff2565b615199565b82525050565b6000819050919050565b6151dd6151d882613aa2565b6151c2565b82525050565b60006151ef82876151ab565b6001820191506151ff8286614b06565b60148201915061520f8285614669565b915061521b82846151cc565b60208201915081905095945050505050565b7f466c69676874206f722074696d657374616d7020646f206e6f74206d6174636860008201527f206f7261636c6520726571756573740000000000000000000000000000000000602082015250565b6000615289602f83613f3c565b91506152948261522d565b604082019050919050565b600060208201905081810360008301526152b88161527c565b9050919050565b6152c881613a01565b82525050565b60006080820190506152e360008301876152bf565b81810360208301526152f58186613f77565b90506153046040830185613aac565b6153116060830184614335565b95945050505050565b7f4169726c696e6520646f6573206e6f74206d656574206d696e696d756d20667560008201527f6e64696e6720746f20766f746520666f7220616e6f74686572206169726c696e60208201527f652e20436f6e747261637420676f7665726e616e63652064656e696564212121604082015250565b600061539c606083613f3c565b91506153a78261531a565b606082019050919050565b600060208201905081810360008301526153cb8161538f565b9050919050565b7f496e76616c696420616464726573730000000000000000000000000000000000600082015250565b6000615408600f83613f3c565b9150615413826153d2565b602082019050919050565b60006020820190508181036000830152615437816153fb565b9050919050565b7f4169726c696e6520697320616c72656164792072656769737465726564000000600082015250565b6000615474601d83613f3c565b915061547f8261543e565b602082019050919050565b600060208201905081810360008301526154a381615467565b9050919050565b7f43616c6c65722068617320616c726561647920766f74656420666f722074686960008201527f73206169726c696e650000000000000000000000000000000000000000000000602082015250565b6000615506602983613f3c565b9150615511826154aa565b604082019050919050565b60006020820190508181036000830152615535816154f9565b9050919050565b7f4f6e6c79206578697374696e67206169726c696e65206d61792072656769737460008201527f65722061206e6577206169726c696e6500000000000000000000000000000000602082015250565b6000615598603083613f3c565b91506155a38261553c565b604082019050919050565b600060208201905081810360008301526155c78161558b565b9050919050565b7f4169726c696e6520646f6573206e6f74206d656574206d696e696d756d20667560008201527f6e64696e6720746f20726567697374657220616e6f74686572206169726c696e60208201527f652e20436f6e747261637420676f7665726e616e63652064656e696564212121604082015250565b6000615650606083613f3c565b915061565b826155ce565b606082019050919050565b6000602082019050818103600083015261567f81615643565b9050919050565b7f4e656564206d6f7265207468616e2068616c6620766f74657320746f2062652060008201527f726567697374657265642e000000000000000000000000000000000000000000602082015250565b60006156e2602b83613f3c565b91506156ed82615686565b604082019050919050565b60006020820190508181036000830152615711816156d5565b9050919050565b7f464c6967687420646f6573206e6f742065786973740000000000000000000000600082015250565b600061574e601583613f3c565b915061575982615718565b602082019050919050565b6000602082019050818103600083015261577d81615741565b9050919050565b60006080820190506157996000830187614335565b6157a660208301866152bf565b81810360408301526157b88185613f77565b90506157c76060830184613aac565b95945050505050565b7f466c69676874206973206e6f7420726567697374657265642e00000000000000600082015250565b6000615806601983613f3c565b9150615811826157d0565b602082019050919050565b60006020820190508181036000830152615835816157f9565b9050919050565b600061584782613ff2565b915060ff820361585a5761585961458f565b5b600182019050919050565b600061587082613aa2565b915061587b83613aa2565b92508282039050818111156158935761589261458f565b5b92915050565b6000819050919050565b6000819050919050565b6158be6158b982615899565b6158a3565b82525050565b60006158d082856158ad565b6020820191506158e08284614b06565b6014820191508190509392505050565b60006158fb82613aa2565b915061590683613aa2565b92508261591657615915614d0e565b5b82820690509291505056fea26469706673582212206db70e1fa182d209646b408732486e474e03b684009ac5579ddc9d611c90251464736f6c63430008130033",
  "linkReferences": {},
  "deployedLinkReferences": {}
}